:1000000000180020C100000029130000ED120000BC
:10001000ED120000ED120000ED120000ED120000E4
:10002000ED120000ED120000ED1200002913000097
:1000300029130000ED12000001280000092800002B
:1000400029130000291300002913000029130000C0
:1000500029130000291300002913000029130000B0
:1000600029130000291300002913000029130000A0
:10007000FD3100002913000029130000291300009E
:100080002913000029130000291300002913000080
:100090002913000029130000291300002913000070
:1000A0004D17000029130000291300002913000038
:1000B0002913000029130000291300002913000050
:1000C000F8B501F035F9484B484A1A60484B494A9F
:1000D0001A60494B494A1A600823494A1178194263
:1000E00002D011780B4313702A22464B46481A70EF
:1000F000464BC11E00228B4203D303331A1A9208C7
:100100009200434903F0A8FA4248434BC11E002223
:10011000994203D803331A1A92089200002103F07F
:1001200061FA3E4CC02220003D4903F095FA0326B7
:100130000022802017003B4993089B005B18FF2199
:100140003740FF00B9408C46654619680132A94323
:100150000500BD4029431960202AEBD1324B6A3299
:100160001C60324B1A70324B663A5A707C321A70ED
:100170009E3A99791142FCD0102299791142FCD112
:100180000C219A790A40082AFBD1053A1A713D32AE
:100190005A71203A99791142FCD040229979114242
:1001A000FCD0244A2449116020220C211A709A792B
:1001B0000A400C2AFBD1214B214A1A60214B224ACA
:1001C0001A600022214B1A60214B07321A60214B22
:1001D000214A1A6062B601F0E1F801F0AFF803F0CD
:1001E00009FA02F0BFFBFEE734800440300004F05F
:1001F00038800440823F00003C8004400100000F32
:1002000002D0074000E0074030020020F403002045
:10021000E8390000F40300205808002000F9FF1F0F
:100220000000000000E400E008ED00E0005006409F
:100230000040064044800440000001100480044057
:10024000C000050514E000E07FBB000018E000E0FE
:1002500010E000E020ED00E000002020FFFFFFFFA5
:10026000FFFFFFFFFFFFFFFFFFFFFFFFFFFFFFFF9E
:10027000FFFFFFFFFFFFFFFFFFFFFFFFFFFFFFFF8E
:10028000FFFFFFFFFFFFFFFFFFFFFFFFFFFFFFFF7E
:10029000FFFFFFFFFFFFFFFFFFFFFFFFFFFFFFFF6E
:1002A000FFFFFFFFFFFFFFFFFFFFFFFFFFFFFFFF5E
:1002B000FFFFFFFFFFFFFFFFFFFFFFFFFFFFFFFF4E
:1002C000FFFFFFFFFFFFFFFFFFFFFFFFFFFFFFFF3E
:1002D000FFFFFFFFFFFFFFFFFFFFFFFFFFFFFFFF2E
:1002E000FFFFFFFFFFFFFFFFFFFFFFFFFFFFFFFF1E
:1002F000FFFFFFFFFFFFFFFFFFFFFFFFFFFFFFFF0E
:10030000FFFFFFFFFFFFFFFFFFFFFFFFFFFFFFFFFD
:10031000FFFFFFFFFFFFFFFFFFFFFFFFFFFFFFFFED
:10032000FFFFFFFFFFFFFFFFFFFFFFFFFFFFFFFFDD
:10033000FFFFFFFFFFFFFFFFFFFFFFFFFFFFFFFFCD
:10034000FFFFFFFFFFFFFFFFFFFFFFFFFFFFFFFFBD
:10035000FFFFFFFFFFFFFFFFFFFFFFFFFFFFFFFFAD
:10036000FFFFFFFFFFFFFFFFFFFFFFFFFFFFFFFF9D
:10037000FFFFFFFFFFFFFFFFFFFFFFFFFFFFFFFF8D
:10038000FFFFFFFFFFFFFFFFFFFFFFFFFFFFFFFF7D
:10039000FFFFFFFFFFFFFFFFFFFFFFFFFFFFFFFF6D
:1003A000FFFFFFFFFFFFFFFFFFFFFFFFFFFFFFFF5D
:1003B000FFFFFFFFFFFFFFFFFFFFFFFFFFFFFFFF4D
:1003C000FFFFFFFFFFFFFFFFFFFFFFFFFFFFFFFF3D
:1003D000FFFFFFFFFFFFFFFFFFFFFFFFFFFFFFFF2D
:1003E000FFFFFFFFFFFFFFFFFFFFFFFFFFFFFFFF1D
:1003F000FFFFFFFFFFFFFFFFFFFFFFFFFFFFFFFF0D
:10040000FFFFFFFFFFFFFFFFFFFFFFFFDEF9FFFF23
:1004100006480749091A8B10C90FC91810B54910A9
:1004200003D0044B002B00D0984710BDF4030020EC
:10043000F403002000000000054B10B5002B03D092
:100440000449054800E000BFFFF7E2FF10BDC046C9
:1004500000000000F4030020E8390000704710B5E8
:1004600003681B68984710BDF7B5019308AB0C00F3
:10047000197805000139C9B216000F2918D863B2DE
:10048000002B15DA436D21431868FFF7E8FF7F273B
:1004900031006B6D39401868FFF7E1FF10239C4372
:1004A000C02C05D001996B6D39401868FFF7D7FF54
:1004B000F7BDFFFF37B50224E0B20021013401F09F
:1004C00013F8062CF8D1E0B20221013401F00CF847
:1004D0000D2CF8D10121102001F006F80121112086
:1004E00001F002F81A4D0B3C2100280000F0F8FE44
:1004F00001342800052100F080FE1835062CF3D1C8
:10050000144C1549636D18680368DB69984722002D
:1005100000235832138022005A3213700F4A636747
:10052000A266E2660E4A63661268236601922200A2
:100530000199FC3251602100F8310B701360703466
:10054000033301211020237000F09AFF37BDC0460D
:100550001C0500200C040020127A0000FFFF0000A0
:10056000900500200A000832D2B210B5072A07D839
:10057000DD23D340DB0703D5436D1868FFF76FFF1A
:1005800010BD13B504AC2478E02903D80094FFF71C
:100590006BFF13BDF729FCD9FFF7E4FFF9E7FFFF75
:1005A000036810B50400002B01D074309847230075
:1005B00075331878DF280AD8B02859D02CD890285D
:1005C00045D0A02800D16BE0802833D010BDE038A2
:1005D0001F28FBD802F052FF4E00FAFFFAFFFAFF85
:1005E000FAFFFAFFFAFFFAFFFAFFFAFFFAFFFAFF43
:1005F000FAFFFAFFFAFFFAFF680079008100930022
:10060000FAFFFAFF9500FAFF3D0044004200460061
:100610004800FAFF4A009700C02843D0D028D5D11F
:10062000E369002BD2D0220074347632117820781E
:100630009847CBE7A368002BC8D02200210077326F
:10064000743476311278097820789847BEE7E368E9
:10065000F1E7A36B002BB9D09847B7E7E36BF9E755
:10066000236CF7E7636CF5E7A36CF3E7E36CF1E762
:100670006369E0E7236A002BA8D022007732117863
:10068000FE22C9019201114022007F2076321278A9
:100690007434024011431D4A20788918984795E721
:1006A0002369C8E7A369BCE7636A002B00D18DE723
:1006B000220076325178107809020143802900D94E
:1006C000802120007830984780E7A36A002B00D172
:1006D0007CE776342078984778E7E26A002A00D1F0
:1006E00074E7230077331878FE237F219B0176344B
:1006F000C001184023780B401843904766E7236BEE
:10070000E4E7636BA6E7236DA4E7C04600E0FFFFC4
:1007100073B50600703632780B00D1070400CD0F98
:10072000002927D00120824324D02200753211787D
:100730000A00803AD2B2602A20D82200743210789F
:10074000984202D05A425341DDB233785B08022B03
:100750000ED0032B0FD0012B0CD1230022007733B6
:1007600076321B78127800902000FFF70AFF01E034
:10077000002DF2D173BD002DFCD1EEE7F12917D881
:10078000F02934D0F129F5D12300702276331B787B
:100790000F201B01134022007732127802401343CE
:1007A0001D00636D1868FFF75AFE2900636D16E09F
:1007B0000B0002000E33DBB29A401300214A1342B1
:1007C00011D1034228D1F329D4D1230076331D78E7
:1007D000636D1868FFF743FE7F212940636D186839
:1007E000FFF73DFEC6E72000FFF7BCFEC2E723008F
:1007F000260076331A785B7878361B021343802BF9
:1008000000D98023F518AE42B4D0636D31781868F2
:10081000FFF725FE0136F6E7230077331D78013B0D
:100820001B78ED011D43636DF2211868FFF717FE79
:100830007F262900636D31401868FFF710FEE90933
:100840003140CBE7503700001023010099430B00E3
:1008500030210200884301000120802905D0E02AD0
:1008600003D0C03B5A425341D8B2704743B2002B29
:100870000BDA03000C33DBB2012B06D9FD2804D0C0
:10088000EF2801D80F23984370470020FCE7FFFFB3
:10089000F0B5AE4C91B0200000F0C8FC200018303C
:1008A00000F0C4FC2000303000F0C0FC2000002725
:1008B000483000F0BBFCA64BA64E0393A64B049316
:1008C000A64B0593A64B0693A64B0893A64B0993FC
:1008D000A64B0793A64B0A9306237B439B4CE41835
:1008E000200000F0E1FC002800D161E1A14B1A6872
:1008F000A14B1B680C930C9B9B1A312B00D857E122
:100900009E4B1B68012B04D1099B186880B201F033
:1009100075FB9A4B1B68022B04D1089B186880B2A8
:1009200001F06CFB954B1B68032B04D1069B1868E8
:1009300080B201F063FB914B1B68042B16D18348F6
:10094000483000F0B1FC00280BD08D4801F056FB78
:10095000052000F01FFE8B4801F050FB052000F041
:1009600019FE059B186880B201F048FB834B1C6898
:10097000052C16D17548483000F096FC00280BD0A5
:10098000814801F03BFB200000F004FE7C4801F0B0
:1009900035FB200000F0FEFD049B186880B201F0DA
:1009A0002DFB764B1B68062B04D1039B186880B285
:1009B00001F024FB714B1B68072B03D1306880B218
:1009C00001F01CFB714B1B68012B2BD1079B2C22C8
:1009D0001D686F4B6F4CFB5821680B936B46C9B277
:1009E0009B181B786C480091EAB29021FFF73CFD00
:1009F0006A4B1B68012B15D1F02223681201DBB270
:100A0000013B1B021340FE222D04D20315401D435F
:100A10000B9B63481C06FE23DB051C402C43204334
:100A200001F034FC594B1B68022B17D100240A9AA1
:100A30005C4B12785A71584B5A4D5B6D615D18686A
:100A40000134FFF70CFD062CF5D1544B1B68012B2C
:100A500004D100220721280001F05EFC4B4B1B68EB
:100A6000032B1FD1504B4B4DFC582B68C021DBB2E0
:100A7000009349480023E2B2FFF7F6FC474B1B689E
:100A8000012B0FD1F0222B681201DBB2013B1B02BC
:100A90001340FE222404D203444814401C43204344
:100AA00001F0F4FB0121112000F0EAFC324B1B683D
:100AB0000D930D9A2F4B1A60039B04370433039355
:100AC000049B043604330493059B04330593069B6F
:100AD00004330693089B04330893099B043309935A
:100AE000079B043307930A9B01330A93102F00D00E
:100AF000F2E6062000F0E6FC002800D1EBE007203B
:100B000000F0E0FC002800D105E1062000F0DAFC4E
:100B1000002800D106E1082000F0D4FC04230028BE
:100B200000D1E5E0062000F0CDFC002800D100E176
:100B3000072000F0C7FC0223002800D1D8E00620DF
:100B400000F0C0FC43424341D2E0C0461C050020F7
:100B5000C8360000D8360000B8360000A8360000BD
:100B6000983600008836000078360000F83600001D
:100B70005B02002088050020900500207C050020F5
:100B800008E0000002E0000004E000008005002012
:100B900008370000500200200C0400208C050020C3
:100BA0000990000054020020E83600000CC000004C
:100BB000200000F081FB002800D17DE7B04B1A68CF
:100BC000B04B1B680E930E9B9B1A182B00D873E733
:100BD000AD4B1B68012B1FD1079BAC4D1C682B68CC
:100BE0008021DBB20093AA480023E2B2FFF73CFC6D
:100BF000A84B1B68012B0FD1F0222B681201DBB22E
:100C0000013B1B021340FE222404D203A2481440DD
:100C10001C43204301F03AFBA04B1B68012B04D17D
:100C2000099B186880B201F073FA9C4B1B68022B79
:100C300004D1089B186880B201F06AFA974B1B68D0
:100C4000032B04D1069B186880B201F061FA934B24
:100C50001B68042B10D1059B186880B201F058FA6C
:100C60008F48483000F028FB002805D08D4801F05F
:100C70004FFA8D4801F04CFA884B1B68052B10D1B8
:100C8000049B186880B201F043FA8548483000F0B0
:100C900013FB002805D0844801F03AFA834801F09C
:100CA00037FA7E4B1B68062B04D1039B186880B271
:100CB00001F02EFA794B1B68072B03D1306880B204
:100CC00001F026FA0021112000F0DAFB6D4B1B68C1
:100CD0000F930F9AEEE6072000F0F4FB002800D0F7
:100CE0000DE7083000F0EEFB0723002800D006E7F0
:100CF0006A4A0E20136000F0E5FB002820D00F2088
:100D000000F0E0FB0223002820D00E2000F0DAFBE8
:100D1000434243411AE0082000F0D4FB0623002898
:100D2000E6D0F2E6082000F0CDFB05230028DFD056
:100D3000F1E6072000F0C6FB03230028D8D0F7E631
:100D40000F2000F0BFFB03230028D8D14E4A142007
:100D5000136000F0B7FB424250414E4B0127186030
:100D6000152000F0AFFB43425841484B013018605A
:100D7000474C230058331B780393102B53D8636DD3
:100D8000186803681B69984700284CD02200FF327E
:100D9000937BBB439373636D186803685B699847E3
:100DA000C5B20600FD2D3ED0636E002B00D0E4E0FE
:100DB0003F4B1D70230059331B7818000493FFF735
:100DC00055FDFFF741FD002808D0360606D4384B04
:100DD000049A67661A7023005C331D7023005B332E
:100DE0001D782800FFF742FD0300DF2822D8B02835
:100DF00000D1B3E05ED8A02800D1AFE0EF220240DE
:100E0000802A00D1AAE023000120FF339A7B1043FF
:100E100040B298736368002B00D098470023636644
:100E2000236659342370002001F0CAFA0028FAD151
:100E300011B0F0BDE0381F28E5D802F01FFB8F008D
:100E4000E4FFE4FFE4FFE4FFE4FFE4FFE4FFE4FF8A
:100E5000E4FFE4FFE4FFE4FFE4FFE4FFE4FF9100CC
:100E60003F008F003F00E4FFE4FF7800910078002E
:100E70007800780078007800E4FF78007800C046B9
:100E800088050020900500208005002050020020E9
:100E90000C0400208C050020088000007C05002048
:100EA0001C05002002E0000008E0000004E0000053
:100EB00067040020EF220240C02AA4D10222226649
:100EC000216E626E01398A4254D32200753213704A
:100ED0000F231D4023002200743301351D702300B1
:100EE0005C32127876331A70220000237732137046
:100EF0002200FC321760636623662300F8331F70FC
:100F0000230075331A78902A20D122007732127884
:100F1000002A01D180321A70230074331B78039A9F
:100F2000934267D0039B002B64D0002566E022002B
:100F3000753213702200002374321370220076324F
:100F400013802200F832177063662366230075331E
:100F50001B78803BDBB2602BDED94BE00322AEE78F
:100F6000802222662200002159321170220078323C
:100F70001370A5E70132626655E7360646D52800AC
:100F8000F0380F2842D802F06FFA16414141414132
:100F90004116080808080841080823002200753394
:100FA0001D700023763213802200743213702300E8
:100FB000FC331F60A1E7220078321278F02A02D0B9
:100FC000F72A00D01FE75A1CE31878331D7023005E
:100FD00076331A8023004949743319802300FC3387
:100FE0001A6023002200F8331F7000235932636611
:100FF000236613702000FFF7D3FA3D002000039909
:10100000FFF786FB002D00D0B2E60CE722005B3232
:101010001278F02A01D0F72A2AD1E2187832157016
:10102000226E0492013A934265D323005B331E780B
:10103000F02E01D0F72E1ED12300F022F7331D78B9
:101040001A702F4B703A63672300FC331A60230039
:101050007F3AF83320001A70FFF7A2FA2300F72234
:1010600078331A70230079331D7002236366DAE641
:10107000E2185B32D3E73000FFF7F8FB230075334B
:1010800018700500FFF7E0FB0023984202D00F33F1
:1010900033400133220074321370220023005C328B
:1010A000127876331A70049A0023032A02D123009F
:1010B0005D331B782200773213700023636623664A
:1010C0002300F8331F70B02D06D009D8A02D03D00F
:1010D00010239D43802D09D1230059331E700FE743
:1010E000E02DF9D010239D43C02DF5D02300002220
:1010F00059331A7004E70133B8E7C04600F0FFFF28
:1011000000F0800037B52C4B2C4C2D4A63651A60DB
:101110002300002558331D8023005A331D70294BAE
:1011200025606560A560E56025616561A561E56193
:1011300025626562A562E56225636563A563E56373
:1011400025646564A564E564256525666566A36612
:10115000E3662300032270331A7023002000F83363
:10116000290065671D607D32783002F03BFA23006C
:10117000FC33DD605D609D602300FE331249DD813C
:101180002000124A02F069F9114B124C1B68200032
:101190000193019A104B1A6000F096F82000183065
:1011A00000F092F82000303000F08EF82000483037
:1011B00000F08AF837BDC046840500200C040020EA
:1011C00064020020FFFF00005D04000030020020E8
:1011D000900500201C0500208805002010B5007D2A
:1011E00000F070F9431E9841C0B210BD080010B560
:1011F000D1B2C0B200F078F910BD01817047FFFF95
:10120000002313B58372036804001B689847002805
:1012100003D00323A27A1343A372034B1B680193E9
:10122000019B636013BDC04690050020F0B5042506
:10123000837A0400AB438372036887B01B689847C6
:101240000122A17A174B4E081640B0420BD01B6802
:101250000193019B636002234B40A372A07A400775
:10126000C00F07B0F0BD1E6867680296029EF61BAD
:101270002789BE42F2D30E001640B042EED0186865
:101280004A400390039815431A68E1680492049A4F
:101290001B68521A0593059B6060A5722261E3608A
:1012A000DCE7C046900500200523807A1840053809
:1012B00043425841C0B270470123827A00201A424B
:1012C00001D19008184070470A2200230281034A86
:1012D00043608372026003757047C0462037000088
:1012E00010B50175FFF78CFF10BDFFFF70B58025AD
:1012F0008026ED02F6000B4C23682B4201D000F053
:1013000025FA2368334201D001F078FF23681B05DA
:1013100001D500F009F82368DB04ECD500F004F8EF
:10132000E9E7C0463480044010B5FFF7DFFFFFFF58
:101330000022014B1A607047008104407047FFFF94
:10134000EFF31380002821D1EFF31083002B19D184
:10135000EFF30582002A16D00F2A0BD91300103B99
:101360000C499B089B005B1803210A408A401B68BC
:10137000D340DBB2EFF31182002A02D0934200D9AE
:1013800013001800704780235B00F3E70120404200
:10139000F8E7C04600E400E07047FFFF8022224BE0
:1013A000D20513B51A608022002012061A601F4B66
:1013B0001F4918601F4B204A1960282313601F4AD9
:1013C0001F4C13601F4A13601F4A13601F4A1360AB
:1013D0001F4A1360092222601E4C20601E4C2160AF
:1013E0001E4C23601E4C23601E4C22601E4C20604D
:1013F0001E4801601E490B601E490B601E4B1A609F
:1014000001F02CFBFFF7C8FF1C4C23680093009BE6
:10141000132BFAD900F0D6FC96235B0022680192C8
:10142000019A9A42FAD313BD00E100E00480034020
:10143000FFBF0000088003400C800340148003407D
:10144000008003401C800340248003402C80034024
:101450003480034004900340089003400C90034004
:10146000149003400090034004A0034008A00340F0
:101470000CA0034014A0034000A0034090050020EE
:10148000020010B51A280BD80C2353430C481A58E5
:10149000C018147D037A234205D0002901D01371AE
:1014A00010BD1372FCE74368002904D003221968B9
:1014B0000A431A60F4E702211A688A43F9E7C04632
:1014C00028370000020000201A2A0AD80C305043A6
:1014D000044BC2581B18187A127C1040431E9841C6
:1014E000C0B2704728370000030010B51A281BD877
:1014F0000C205843154A141882586368107D247ACA
:10150000012901D0042910D120431075A2225200D4
:101510001A60253AFF3A042903D119680A431A6070
:1015200002E019689143196010BDA0431075802234
:10153000002908D0022902D10422FF32EFE700225D
:101540000329ECD181225200E9E7C0462837000088
:1015500072B60B4B19680B4B1A680B4B1B6862B6C3
:101560005B0102D5322900D90132084B08485B1AC9
:101570005843FA239B005343800DC0187047C04660
:1015800018E000E09005002004ED00E07FBB0000C3
:101590005555010070B50400FFF7DAFF0500002C77
:1015A00010D0FA26B600FFF7D3FF401BB04202D29C
:1015B00001F012FAF7E7013C002C03D0FA239B005C
:1015C000ED18F0E770BDFFFF0223F0B50A4C0B4E9B
:1015D0002578C8272B43DB00F218506008480278B2
:1015E000002A00D1403F09043943F15001235A40F9
:1015F0006B4002702370F0BD1406002000F8FF1F3E
:1016000015060020431E10B50020062B0ED872B61A
:10161000074A99008858002807D044685B008C501E
:10162000044A0488995A091B995262B610BDC046F3
:1016300024060020A6060020431E0020062B06D804
:1016400072B6054A9B009B58002B01D162B67047C9
:101650005B680130F8E7C04664060020F8B572B652
:10166000042208250126154C154B2178294219D052
:10167000D100CF58002F0AD15A1808305060114AB3
:101680005A50114A1378013B137062B6F8BD31000D
:101690001143C900CF58002F04D15A1808305060A8
:1016A0000A4AEDE704320134202ADED162B6002274
:1016B000054B1A7000F0A4FDE8E7C046C8390000E9
:1016C00000F8FF1F88004000B4060020C80040005A
:1016D000421E10B5062A2BD8022380000343174868
:1016E000DB001B1872B6164CA05C032817D801F05B
:1016F000BBFE231002130520A0540A000832C820A4
:101700005A601A0700D440380A88120402431A604B
:101710000DE002200833EFE704200833ECE7094826
:1017200092001458084B002C03D11150995062B606
:1017300010BD98584160F9E70320DDE700F8FF1F6E
:101740009C0600206406002080060020F0B585B0CD
:101750000422C44B1B78DCB213421FD0C24B1B784F
:10176000002B18D0C14A1178CBB2002905D0013B1B
:10177000DBB21370002B00D100BEBD4A1178CBB292
:10178000002906D0013BDBB21370002B01D100F021
:10179000F3FF00F0F9FD0422B24B1A70082208236F
:1017A00022401C4200D191E2B24BB34C1E78F2B2FF
:1017B0003309B608F600002B00D01DE20F25A6194C
:1017C0003268776892082A40092A00D1EAE10AD8EB
:1017D000013A012A00D8BAE10122A84B1A70082266
:1017E000A04B1A70B4E70D2AF6D13A68A44978687C
:1017F0000A6001914860A3493160A34923610B60ED
:10180000A3610123A149A24E0B7091B2B14244D809
:10181000D023DB00994200D376E181235B0099421B
:1018200000D10AE109D8802900D1E6E0822900D15F
:10183000E9E00F22974B1A707BE0974B994200D159
:1018400052E1A022D20000231C009142F1D1019A62
:10185000D5889D4200D91D002F00402D00D940277A
:1018600039002000FFF7B0FEEE1BBD4201D13F2D35
:101870005FD93500E419402E00D940252000290009
:10188000FFF7A2FE6419721BAE4201D13F2E50D960
:101890007D4B1C60814B1A804BE0814DA94248D0A2
:1018A0003BD888200001814200D1A1E090231B0198
:1018B0009942BED1042580266B4B120CD2B21A700D
:1018C000EB00E258324204D0E3185868083800F0C0
:1018D00097FC0135202DF3D10027724B724E734DCA
:1018E0000093306800282AD1BB000393704BBA00E4
:1018F0003060D0502868002827D16E4B039A2860AA
:10190000D0506D4B7A00D052009B187802380328D3
:1019100024D801F0A9FD205D205D684B994200D1DB
:1019200008E10AD8664B994250D0664B994200D0E4
:101930007FE70122514B1A704EE7634A83E7436801
:10194000029300F05DFC0298CCE74368029300F03C
:1019500057FC0298CFE70023009A1370009B0137D1
:101960000133043604350093072FBAD10022574BB8
:10197000574F584D1A703B78574A2B700435AE18A4
:101980000822134215D000F01BFCF300002823D0DE
:10199000E21808305060514AE25000F011FC012377
:1019A0003343DB0000281DD0E21808305060354A70
:1019B000E250022300223343DB00E250032333438F
:1019C000DB00E250464B01379D42D4D1002346E074
:1019D0000122009B1A70C1E73C4AE05013780133A2
:1019E0001370DAE7394AE050137801331370E0E7F7
:1019F0001D4A3C4C1278227029E70023394C237091
:101A00006370023323E77822010083B21140104251
:101A100000D00EE7334A117051707F210B401D49F1
:101A20009B005B180221187814000B00084200D1BB
:101A30000DE7013B13700B0009E7782381B21840D2
:101A4000130C034302D0134B1D7072E77F22022058
:101A50000A401049920052181178814311701C00FD
:101A6000F5E6C04680200740A3060020A40600201B
:101A7000880700209020074000F8FF1F94200740AF
:101A80005C060020C8004000180600201506002053
:101A900081060000C0200740020300001606002057
:101AA000210900009C060020240600206406002076
:101AB0004006002080060020A6060020212200000B
:101AC000210A00002120000021230000B40600208C
:101AD000C8390000C42007403CDFF8BF8800400040
:101AE000E02007401C060020782381B21840130C28
:101AF000034300D09DE67F220A409249920052188B
:101B0000022110780143A9E78F4B120C80B25C6868
:101B1000002C00D18DE61988914209D15D8885425B
:101B200006D1090A032901D1237890E61B898EE6A4
:101B30000C33ECE780B2002800D047E7834B120C4F
:101B40001968834BD2B21960824B1A703EE7824CFF
:101B5000824B22889A4213D1A388002B0CD1804A51
:101B6000F95CD1540133072BFAD113680737862B60
:101B700002D10F227B4B1A7000210800FFF724FDD1
:101B8000794B22689A420AD1784B62689A4206D110
:101B900000213A78764B08001A70FFF715FD754B57
:101BA000336019E6744F3C68002C19D0734B1D88C4
:101BB00000932E00402D00D9402620003100FFF771
:101BC00003FDA4192B1C402D00D94023009AEB1AC9
:101BD0009BB21380002B02D13F2D00D81C003C602B
:101BE000A0225D4BD2001988914200D0F4E500227A
:101BF0005A709A78624B9EE6013B0821DDB20823B9
:101C0000A4196068114008381A4235D000F0F8FA7B
:101C10005C49A80042585C4B002A1CD056684650CC
:101C20001100585D08316160032805D801F01CFCE3
:101C3000020D0F1103215955C821230700D4403943
:101C400013881B040B432360C9E50221F3E7052138
:101C5000F1E70421EFE7595D02290BD000D8BEE57A
:101C60000122032906D008221440621E9441023446
:101C70005C55B4E55A55B2E523681A0C131E028070
:101C800014D0424EAA009759418041604049002F2C
:101C900013D1905188503F4A6D00A95A5B18AB523E
:101CA00000F08EFA00280BD0083060604022230735
:101CB000DB171340384A9B18C5E78E587060E9E778
:101CC000364A206013780133137088E501200442FE
:101CD00020D002233249304C0B70324B324D1A70F7
:101CE000324B1C605D609C60314CDC600D241A61DD
:101CF0009A61144B1C70FF232E4C23702E4C2370C2
:101D00001F4C22702D4A13709F222D4B1A700870A1
:101D100005B0F0BD63B2002B05DA0D22094B1A7035
:101D20008023254A13700222144205D021490B78E2
:101D3000DBB20B70204B1A7010231C42E8D01E4AF5
:101D40001370E5E7C02007403839000090050020F7
:101D500084070020800700205C060020212000006E
:101D600078070020A40600202109000202000100DB
:101D7000BB060020C8004000180600201606002000
:101D800098200740640600209C06002024060020BE
:101D900040060020A606002088004000B40600206F
:101DA00094200740140600209405002000F8FF1F2F
:101DB000D405002088200740802007408C20074061
:101DC0008420074010B501F0C5FA002210001A4B1C
:101DD000D100C850013259184860202AF8D1802219
:101DE0001649D2020C6822430A6015491A0AD2B277
:101DF0000A7014491A0CD2B20A70134A1B0E1370DF
:101E0000FF23124A12491370124A1370124A1370B8
:101E100001220A701149087011490A7011490A68B3
:101E20009A438F3B134380220B600F4B52041A607E
:101E300010220E4B1A7010BD00F8FF1F34800440B2
:101E40009C200740B0200740B42007408020074076
:101E500094200740882007401020074000210740B9
:101E60008420074018E400E000E100E0082107407A
:101E700003001F2807D828200A2B03D000200B2B93
:101E800000D12B30704700207F2BFBD8024AD3189B
:101E9000203B1878F6E7C046D838000010B51F4C34
:101EA0001F4B1B78002B0AD00520FFF7C5FB03282A
:101EB00006D9013C1B4B002C2AD101221A7010BDFF
:101EC00000F07EF9011EF4D01748038842880B7297
:101ED0009B0594009B0F23434B72838892051C0142
:101EE000120F22438A72C2889B0590019B0E034306
:101EF000CB720E4B92080A731A7805204A735A78EF
:101F00008A739B78CB7308230B80FFF7E1FBD6E73E
:101F10001A78002AD1D100F05FFDC1E79953000083
:101F2000A3060020C9060020BE060020C606002029
:101F300070B5174D174B1B78002B0AD00420FFF704
:101F40007BFB032808D9013D134B002D1AD1012238
:101F50001A700120404214E000F032F9041EF2D061
:101F600000250E4B06221B780D49037245720A307C
:101F700001F072FB0823042021002380FFF7A8FB57
:101F8000280070BD1A78002AE1D100F025FDD1E7C4
:101F900099530000A3060020C9060020BC060020BB
:101FA000B506002010B5002913D00C00114A137893
:101FB0001C408C420DD00B431370012100280BD123
:101FC000FFF7B6FF04E00133062B0ED10029F7D14D
:101FD00010BD0028FCD000210023074A9C5C8442ED
:101FE000F4D00133062BF9D10023D45C002CEAD1C4
:101FF000D054E5E7BC060020B506002010B5030A62
:10200000C12B31D9DAB2E22B38D0E22A06D8DF2A46
:1020100023D9C1B20020E02A1CD010BDE72A15D870
:10202000E32AFAD08005810D0028F6D00023224A49
:102030005800805A8842F0D00133042BF8D1002395
:102040005800145A002C33D111522CE00021C0B298
:10205000F02AE2D1FFF7A6FFDFE7F8229B01D200CA
:1020600013403F2210401843FFF702FF0028D4D04E
:102070003F234106C90F49001840EBE7C0B20028D2
:10208000CBD00E4A13789842C7D05478A042C4D01F
:1020900091788842C1D0002B04D0002C06D00223B6
:1020A0000029BAD1D054FFF7F9FEB6E70123F9E7CA
:1020B0000133042BC4D1B0E7BE060020C6060020C1
:1020C00070B500291BD0104A1378194217D08B43E2
:1020D0001370002802D1FFF72BFF70BD01210023F0
:1020E00001251C00094A1678864201D12900147086
:1020F00001330132062BF6D10029EED0EBE70028A0
:10210000EBD00021EBE7C046BC060020B50600205E
:1021100010B5030AC12B2AD9DAB2E22B31D0E22A58
:1021200006D8DF2A1CD9C1B20020E02A15D010BD84
:10213000E72A0ED8E32AFAD08005840D0028F6D0CD
:1021400000231D4A5900885AA04231D100238B52E6
:1021500027E00021C0B2F02AE9D1FFF7B1FFE6E79E
:10216000F8229B01D20013403F2210401843FFF792
:102170007FFE0028DBD03F234106C90F49001840ED
:10218000EBE7C0B20028D2D00C4B1A7882420BD0B9
:102190005A7882420AD09A788242C8D1022200211B
:1021A0009954FFF77BFEC2E70022F8E70122F6E729
:1021B0000133042BC6D1BAE7BE060020C6060020B4
:1021C00070B572B60C4D2C68200001F0EDF90300DB
:1021D0001D2802DD62B6002070BD80221206C240BA
:1021E00094432C6062B648205843044BC018002327
:1021F00003604360F0E7C04660020020C0F9FF1FA3
:1022000087220F4B10B5C31A1201934209D20D4A0F
:102210001278002A06D00C4A1278002A02D0FFF762
:102220001DFA10BD72B64821180001F031F9802363
:102230001B06C340054C22681343236062B6F0E7D7
:10224000C0F9FF1FB4060020A30600206002002092
:102250000B4B70B51B6805000A4C002B07D021887A
:102260003B2904D90022084898470023238023886B
:102270003B2B03D85A1C2280034AD55470BDC0465C
:1022800014070020680700202C070020F8B5012360
:102290001C4E1D4C337023680500002B15D11B4FBD
:1022A0001B4B1B78002B0AD00620FFF7C5F9052829
:1022B00006D9013F174B002F16D101221A70F8BD25
:1022C000FFF77EFF20600028F3D00027114B216824
:1022D0001F704B889A008A18013395600F2B09D81C
:1022E0004B8000233370EAE71A78002AE5D100F02A
:1022F00073FBD5E7402306200B80FFF7E9F9276041
:10230000EFE7C046D1060020D4060020E1420000DD
:10231000A3060020D0060020F8B504000E00042714
:102320001501EDB2032E0ED81DD12078637800027E
:102330001B04184307232B431843A3781B06184399
:10234000FFF7A4FFF8BD2078637800021B04184350
:102350003B002B431843A378033E1B061843FFF7AB
:1023600095FF0334DEE7022E07D120786378000260
:102370001B04184306232B43E1E7012EE2D120780A
:1023800005230002F7E7FFFF70B50B4C2678002EFF
:1023900010D10123094D23702968002908D04B88EA
:1023A000002B05D09B0006200B80FFF791F92E60D3
:1023B0000023237070BDC046D1060020D406002043
:1023C000F7B5A24D01902B68002B12D1A04B1B78C2
:1023D000002B01D1002061E00720FFF713F92860EE
:1023E0000028F7D00488002C03D1FFF709FF2C60E8
:1023F000F0E7286803224388190091434218946843
:10240000028804339A4227D943800F222500914B3A
:1024100021091540260A1140370019702B0017407A
:10242000083B0137062B00D986E0019B002B01D029
:102430009F42CFD1230B1340082D14D1082BC9D1B3
:102440008022854B1A70854B1B68002B1DD0210CF8
:10245000220EC9B2F8B228E0FFF7D2FE0720FFF73C
:10246000D1F82860D1E7092D21D1092BB2D1210C57
:10247000794B220EF8B2C9B2002A10D087351D70F0
:10248000774BD2B21B68002B0FD1764B220C1F70FA
:10249000754B240E1A70754B1C700120FEBD8025F3
:1024A0001D706E4B1B68002BEFD09847EDE70A2D8F
:1024B00007D10A2B00D08DE7A022674B1A706C4B16
:1024C000C2E70B2D07D10B2B00D083E7B022624B64
:1024D0001A70684BB8E70C2D0ED10C2B00D079E7A1
:1024E000C0225D4B1A70644B1B68002BCDD0210CB1
:1024F000C9B2F8B29847C8E70D2D07D10D2B00D00F
:1025000068E7D022544B1A705C4BEDE70E2B00D0DD
:1025100060E7E022504B1A70594B1B68002BB4D077
:10252000FE206102620C80010240490E1143554AAF
:10253000F8B289189847A8E7AB1EF0B2012B07D96B
:10254000052D75D1F02800D8B7E0F72800D1B4E008
:10255000F1380E2800D93DE700F090FF0F0017007A
:1025600026003CFF3CFF28003CFF2E003CFF3800CB
:1025700042004C003CFF56006000434B1B68200C9F
:10258000C0B2002B0DD098470BE0404B1B68002BCE
:1025900007D0FE216002620C8901400E0A40104300
:1025A00098472D4B1E7070E7394BE7E7394B1B6896
:1025B000002BF6D09847F4E7374B1B68002BF9D176
:1025C000364BF8201B68002BDDD1EAE7344B1B6843
:1025D000002BEFD1314BFA201B68002BD3D1E0E761
:1025E000304B1B68002BE5D12C4BFB201B68002BCC
:1025F000C9D1D6E72C4B1B68002BDBD1274BFC2025
:102600001B68002BBFD1CCE7284B1B68002BD1D116
:10261000224BFE201B68002BB5D1C2E7244B1B6860
:10262000002BC7D11D4B1B68002BBAD0FF20AAE797
:10263000042D3FD1F0B2FFF70BFE200CC0B2FFF724
:1026400007FE200EFFF704FEC4E6C046CC060020BD
:10265000A3060020280700206A070020EC060020BF
:10266000F0060020290700202A0700202B07002061
:1026700024070020E8060020F8060020DC060020E1
:10268000F406002000E0FFFF1C07002000070020E8
:102690000407002020070020E0060020FC060020A0
:1026A00008070020E40600200C070020D8060020C0
:1026B000180700206B1F022B2AD8F0B2FFF7C8FDC5
:1026C000052D08D0200CC0B2FFF7C2FD072D02D1A6
:1026D000200EFFF7BDFD164A164B11881970164BD8
:1026E000080A187000231380F022144B1A70144B40
:1026F0001B68002B03D01348EF3A9847CDE6124BE6
:1027000001201B68002B00D1C8E60E489847C4E69C
:102710000F2D00D05EE6F72800D919E7F02804D085
:10272000034B1B88002B00D154E6F0B28AE7C04669
:10273000680700202A0700202B0700206A070020D6
:10274000140700202C0700201007002010B5084BAC
:102750005C88084B1A68002A03D0138852889B1A99
:10276000E418002C01D100F037F9200010BDC0465C
:10277000A60600206C07002070B50E4B1B78DDB25A
:10278000002B09D10C4C2168002906D04B8803206E
:102790000B80FEF79DFF256070BDFFF711FD011E48
:1027A00003D00320FEF794FFF6E70122034B1A70D3
:1027B000F2E7C04670070020740700208807002059
:1027C00010B5EFF3108172B60B4B186800280FD0CC
:1027D00042691A6000239A4207D09361002900D110
:1027E00062B6437783689847EBE7044A1360F5E7DE
:1027F000002900D162B610BD940700209007002088
:1028000010B5FFF7DDFF10BD024A136801331360F6
:102810007047C0469005002010B50368C9B21B6818
:10282000984710BD10B50368C9B21B68984710BD22
:1028300010B50368C9B21B68984710BD10B503688E
:10284000C9B21B68984710BD084B10B50400480872
:10285000C01800F01DFE00F049F9054B1B78002B55
:1028600002D1200000F0B0FD10BDC046C0C62D0052
:102870007802002010B5080000F07EFB012010BD9A
:1028800010B5080000F078FB012010BD70B50800FD
:102890000D0000F0EAFE04000100280000F0EAFB51
:1028A000200070BD10B514000800110000F0E2FB1C
:1028B000200010BD10B50800110000F03DFD10BD56
:1028C00010B50800110000F023FD10BD10B500F098
:1028D0007FFC10BD10B5080000F04CFB431E984172
:1028E000C0B210BD10B5080000F01AFB431E98419D
:1028F000C0B210BD10B50800110000F077FA10BD8D
:1029000010B5080000F0C6FA10BD10B5080000F0C0
:102910004BFA10BD10B500F0D3F910BD10B514007E
:10292000054B4808C01800F0B3FD00F0DFF82000A8
:1029300000F064F910BDC046C0C62D0010B500F00F
:102940001FFC10BD10B500F0D9FB10BD10B500F094
:10295000C1FB10BD10B500F099FB10BD10B500F023
:10296000A1FB10BD10B5FDF7A5FDFDF791FF00F02F
:1029700033F8FAE77047FFFF144970B50B68002B76
:102980000CD0EFF30583002B08D1EFF3108272B661
:102990000868002803D1002A00D162B670BD0C4C33
:1029A0002578002DF7D10123237043690B60002B9C
:1029B00009D09D61002A00D162B600258368457761
:1029C00098472570EAE703490B60F3E78C0700207E
:1029D000980700209C070020F8B51B4D2A78002A94
:1029E0001FD01A4E3478002C1BD1012333701A42A9
:1029F0000DD0FFF7ABFE002801D000F005FD144A12
:102A00002B781278002A02D0012293432B702B7866
:102A10009B0714D4002333702B785B0701D5FFF795
:102A2000ABFFF8BD0B4BA200D7583B6838001B69C1
:102A30009847002801D03B6998470134E4B2064B1F
:102A40001B78A342EED8E5E779020020A00700201A
:102A50006C38000048080020540800201B4B1C4A1A
:102A600019781C4B082915D10021116013221A6016
:102A7000194B1A78194B002A18D000221A60184BEB
:102A80001A78184B012A13D880221A600122164B9B
:102A90001A7070470A2901D12E31E6E70C2903D1BB
:102AA000283111601222E2E73C21FAE70122E5E732
:102AB000042A01D88422E8E7082A01D88522E4E71D
:102AC000102A01D88622E0E78722DEE77A0200207A
:102AD00008B003400CB00340A107002020B0034021
:102AE0007B02002024B00340A207002080232C4A50
:102AF000DB0011680B43136000232A4A13702A4A33
:102B000013702A4A13702A4A13702A4A13702A4BE8
:102B10001B78152B2FD025D8002B28D0032B2CD099
:102B2000264B1B78052B35D02AD8012B2DD0042B12
:102B300032D0002800D10130214BC204D20E1A70CD
:102B40000022C0B258709A702C32DA70FF231D49EF
:102B50000A689A43BF3B134380220B601A4B520111
:102B60001A607047192BDBD1184B194A01E0194B39
:102B7000194A1A60D4E7194BFAE7194B194AF8E7D2
:102B8000182BD6D1184B194A02E0194BD1229200CA
:102B90001A60CEE7174BF9E79122174BF7E7C046CB
:102BA00034800440EC070020F40700203D0800209A
:102BB00044080020FC070020F507002088020020C0
:102BC00000A006400CE400E000E100E054D0044026
:102BD0001304000040A004401303000018C0044088
:102BE000049004401302000050D00440440400004C
:102BF00044A004401CC0044008900440132110B5B8
:102C0000254B9A788A43103901400A43410701D580
:102C100010210A439A700F220240042A03D19979A5
:102C20003C320A439A7110215A798A43084200D0F3
:102C30000A4310215A719A798A43840600D50A43BF
:102C40009A71C20506D520215A781C78D2B2214348
:102C500019705A70002280050DD5A0219A780A4378
:102C60009A700E4B1B78052B11D007D8012B0AD078
:102C7000042B0ED001220A4B1A7010BD182BF9D16B
:102C8000084B094A01E0094B094A1A60F2E7094B6F
:102C9000FAE7094B094AF8E700A00640880200203D
:102CA000A307002050D004404704000044A0044083
:102CB000470300001CC00440089004404702000085
:102CC000274B10B51B685B0502D410BDFFF784FECF
:102CD000244B1B78D9B2002BF8D18022224B520111
:102CE0001A60224A224BD1701B78152B27D01DD891
:102CF000002B1FD0032B24D07F211E4B1B780B40B1
:102D0000052B29D01FD8012B21D0042B26D01379D5
:102D1000D3790022184B1A70184B1A70184B1B6885
:102D20009342D2D0174A12781A71CEE7192BE3D109
:102D3000154B00E0154B0421FF311960DCE7144B03
:102D4000F9E7144BF7E7182BE1D1134B00E0134BD5
:102D50000421FF311960DAE7114BF9E7114BF7E76E
:102D600034800440FC07002080E100E000A0064021
:102D7000F507002088020020EC070020F40700205F
:102D8000A8070020A407002054D0044040A004401D
:102D900018C004400490044050D0044044A00440B3
:102DA0001CC004400890044070B504000B4A13781E
:102DB000DDB2002BFBD120000121FEF795FB29009D
:102DC0002000FEF75DFB0C226243054B0549D058FD
:102DD0009B1808601B7A04490B7070BDFC0700202B
:102DE00028370000F8070020F607002010B500295A
:102DF00001D080231843214C237883421AD0204AE3
:102E00001268520515D57F221340052B1BD012D80E
:102E1000012B14D0042B18D06022002900D11C3AB9
:102E20007F230340052B1FD011D8012B16D0042B74
:102E30001FD0207010BD182BEED1124B00E0124BAA
:102E400000221A60E8E7114BFAE7114BF8E7182B5C
:102E5000EFD18023DB0013430A4A03E0C0239B0029
:102E60001343094A1360E4E7C0239B001343074A56
:102E7000F8E780239B001343054AF3E7880200200C
:102E80003480044050D0044044A004401CC004409E
:102E900008900440194A1378834212D018490968EF
:102EA00049050DD5152B14D00CD8002B0ED0032BB3
:102EB00013D015281CD012D8002815D0032819D0FB
:102EC00010707047192BF4D10E4B03E00E490B60C4
:102ED000EFE70E4B00211960EBE70D4BFAE71928DD
:102EE000EED1084B0B4901E0074B0B491960E7E7AE
:102EF000064BFAE7064B0949F8E7C046F5070020FC
:102F00003480044054D0044040A0044018C0044021
:102F10000490044013040000130300001302000097
:102F2000104B80221968D2000B0070B5134011427B
:102F300012D00D4C1A2811D80C2242430B4B0C4DC9
:102F4000D1589B181B7A216001212B70FEF7CCFA17
:102F500023682A781A720123180070BD00232360A9
:102F6000FAE7C04634800440A80700202837000054
:102F7000A407002000207047F0B5334B85B01B68D4
:102F800001905B0531D5314B1B68002B02D0304AD4
:102F900012781A712F4B1B78002B0CD072B62E4A68
:102FA0009379DBB20393202303990B430393039B91
:102FB000DBB2937162B6294E294F34783B680134F5
:102FC0009C429B411C40274D2B78A3420FD06B465F
:102FD0001B793F2C31D8244A13550122234BE4B2EC
:102FE0001A701D4BAB323470DA7005B0F0BDFEF7CD
:102FF000A7F940281CDC18490B795BB2002BE2DAF8
:103000002B783A68D8B20133934209D23F2B09D8C2
:10301000154AD25CD2B2D2B2DBB2CA712B70D2E7FF
:103020000023F5E7124A3F38126812181278F1E7C8
:10303000FF28C8DDFFF7D0FCC5E721000C4A403966
:10304000126852181370C8E734800440F807002053
:10305000F6070020A307002000A006403D0800203E
:103060008402002044080020FD070020FC07002007
:103070004008002070B504004518AC4200D170BD76
:103080002078FFF779FF0134F7E7FFFF10B5044B15
:103090001B78002B00D110BDFFF79EFCF7E7C04660
:1030A000FC070020084B1978084BC8B21B78DAB22D
:1030B000994205D3064B1B68013B9B18181A7047B1
:1030C000013A101AFBE7C0463D08002044080020E2
:1030D00084020020064B074A19781278CBB2D0B28E
:1030E000914201D3181A7047034A12689B18F9E7F6
:1030F000EC070020F40700208002002030B5184BB8
:10310000184D1A782B78D4B2D9B29A4225D0164AE3
:103110004B1C12689A4215D93F2B15D81349C85C2D
:10312000D9B229701249C0B20968002909D09C425D
:1031300010D3E31A0F4A1268934202D80E4B1B7841
:103140000B7230BD0023E9E70C483F390068411895
:103150000878E5E71219D31AECE701204042F0E7BE
:10316000EC070020F407002080020020AC070020BC
:10317000A80700207C020020A4070020F007002000
:103180000E4B19780E4B1A78D3B2914212D00D49DA
:103190005A1C0968914205D93F2A05D80A4B985C08
:1031A000C0B270470022F9E7084A3F3B1268D318C3
:1031B0001878F5E701204042F3E7C046EC0700200D
:1031C000F407002080020020AC070020F007002058
:1031D000064B074A1B78DBB21370064B1B68002BAB
:1031E00002D0054A12781A727047C046F4070020D0
:1031F000EC070020A8070020A407002037B5354AB7
:1032000013799B0613D5344D3448D1792B78006857
:1032100001338342804103403148C9B2007898426B
:1032200005D03F2B38D82F48C154DBB22B70D37850
:10323000DCB25BB2002B0CDA13795BB2002B08DA3C
:10324000294B2A481D780178CBB28D422BD16C23B3
:10325000D37040231C421ED0117919421BD000218B
:10326000234B1970234B1B688B4202D022490978EB
:103270001972224B1B78002B0BD072B62021937948
:10328000DBB20193019B8B430193019BDBB29371F2
:1032900062B62C23D37037BD1C001948403C00682F
:1032A00000190170C1E7174D591C2D688D4209D9CD
:1032B0003F2909D8144B5B5CDBB2DBB2C9B2D371D6
:1032C0000170C6E70021F5E7104D3F3B2D68EB1874
:1032D0001B78F1E700A00640EC07002080020020E8
:1032E000F4070020AC0700203D080020440800201F
:1032F000FC070020F8070020F6070020A3070020A5
:10330000F007002084020020FD0700204008002074
:10331000064B18604023002801D00B004033044ABC
:103320001A311360034B19607047C046F007002044
:10333000800200207C020020044B186040230028FB
:1033400001D00B004033024A136070474008002050
:10335000840200201FB572B670234121144A1370F5
:10336000144B1970144B3239197080231370137871
:103370005BB2002BFBDA114B186862B6104B984217
:1033800001D80A23584301AC0A22210000F03DF87D
:1033900000220C49A05C13000132002804D0530025
:1033A000C8520A2AF6D1130001335B000B701FBD0F
:1033B00000000240070002400600024008000240F0
:1033C0007F969800DC0300200C4970B500220D00A8
:1033D0000B4C2378934209D15A1C9B00E8500223DE
:1033E0002270084A11780B43137070BD04310E1F10
:1033F00036688642F9D00132D2B2EBE748080020A5
:1034000054080020790200207047F8B506000D002E
:10341000170000243900300000F0C0F8CAB21300D1
:103420003733DBB2092901D83032D3B222002B5511
:10343000B74202D806000134ECE700212B1959707D
:103440002B00111BA14201DB2800F8BD1978285D73
:10345000187029550133013CF3E7030010B508004B
:10346000190000F0EBF810BD02B47146490849009C
:10347000095C49008E4402BC7047C04603B47146E3
:10348000490840004900095E49008E4403BC70476A
:10349000002243088B4274D303098B425FD3030A93
:1034A0008B4244D3030B8B4228D3030C8B420DD3A6
:1034B000FF22090212BA030C8B4202D31212090234
:1034C00065D0030B8B4219D300E0090AC30B8B4272
:1034D00001D3CB03C01A5241830B8B4201D38B0320
:1034E000C01A5241430B8B4201D34B03C01A5241C5
:1034F000030B8B4201D30B03C01A5241C30A8B4208
:1035000001D3CB02C01A5241830A8B4201D38B02F2
:10351000C01A5241430A8B4201D34B02C01A524196
:10352000030A8B4201D30B02C01A5241CDD2C30908
:103530008B4201D3CB01C01A524183098B4201D384
:103540008B01C01A524143098B4201D34B01C01A6F
:10355000524103098B4201D30B01C01A5241C308E7
:103560008B4201D3CB00C01A524183088B4201D356
:103570008B00C01A524143088B4201D34B00C01A42
:103580005241411A00D20146524110467047FFE7AE
:1035900001B5002000F006F802BDC0460029F7D0B2
:1035A00076E770477047C0461C2101231B049842F0
:1035B00001D3000C10391B0A984201D3000A0839C4
:1035C0001B09984201D30009043902A2105C40187B
:1035D0007047C0460403020201010101000000001F
:1035E0000000000003008218934200D17047197058
:1035F0000133F9E770B500260C4C0D4D641BA41087
:10360000A64209D1002600F0E3F90A4C0A4D641BDA
:10361000A410A64205D170BDB300EB5898470136FF
:10362000EEE7B300EB5898470136F2E7DC390000CB
:10363000DC390000E4390000DC39000010B504007A
:1036400004481300002804D00A000220210000E0F2
:1036500000BF10BD00000000002310B59A4200D149
:1036600010BDCC5CC4540133F8E70023C25C0133C5
:10367000002AFBD1581E70472CF0000029F00000F2
:1036800051F0000052F0000028F0000013F000009C
:1036900051F0000052F0000051F0000052F0000024
:1036A00005F000003EF0000051F0000052F0000074
:1036B00005F0000028F0000051F0000052F000007A
:1036C00005F0000013F000004EF000004BF0000089
:1036D00051F0000052F000001EF000001FF000004A
:1036E00020F0000021F000000000000001000000B8
:1036F00002000000030000003C0000003D0000004C
:103700003E0000003F0000006E0000006E00000060
:103710006E0000006E0000000000000000000000CD
:10372000DD110000ED110000420000F840A004404F
:1037300001000000420000F844A004400200000024
:10374000C00000F800C0044001000000000000F8C4
:103750000490044002000000000000F808900440BB
:1037600004000000C00000F81CC0044080000000FD
:10377000C00000F810C0044010000000C00000F8B5
:1037800008C0044004000000C00000F80CC0044061
:1037900008000000800000F80CB0044008000000A1
:1037A000800000F810B0044010000000800000F815
:1037B00018B0044040000000800000F81CB0044035
:1037C00080000000800000F814B0044020000000D9
:1037D000C00000F804C0044002000000800000F8AF
:1037E00000B0044001000000400000F800A00440C8
:1037F00001000000400000F804A0044002000000A6
:10380000400000F80CA0044008000000400000F850
:1038100008A0044004000000C00000F814C00440E8
:1038200020000000C00000F818C004404000000064
:10383000800000F804B0044002000000800000F89E
:1038400008B0044004000000020100F850D0044019
:1038500010000000020100F854D0044020000000D5
:10386000030100F878D004404000000000FFFFFF93
:10387000000000000000000081280000A5280000D2
:103880005D290000552900004D2900004529000050
:103890003D290000492800001D29000015290000CD
:1038A0000B29000001290000F5280000E528000090
:1038B000D5280000CD280000C1280000B528000050
:1038C0001928000025280000312800003D280000AC
:1038D0008D280000752800002C5E746061626434DD
:1038E0006667656E362D3738271E1F202122232458
:1038F00025267333762E77785F4445464748494AF4
:103900004B4C4D4E4F505152535455565758595A8F
:103910005B5C5D2F3130636D350405060708090ACD
:103920000B0C0D0E0F101112131415161718191A6F
:103930001B1C1D6F7170752A0001000050030020D0
:10394000120000000002000089020020C7000000F1
:1039500000220200620300203F000000002102005C
:10396000270300200900000000220300A10300201B
:10397000280000000021030040030020090000008F
:1039800005030904CE03002000000000000300002E
:10399000CA030020000000000103090434020020D3
:1039A00000000000020309044202002000000000A1
:1039B00003030904DC0300200000000000000000F5
:1039C000000000000000000015191515151519FF5D
:1039D000F8B5C046F8BC08BC9E46704739040000E4
:0439E00005110000CD
:0439E400F8B5C0462C
:1039E800000000000E03550054005A0042006F000A
:1039F80078000E034C0065007400730047004F0008
:103A080001000000F07F7F027F01F7010A11120018
:103A1800FFFFFFFF7838000000000000E803000007
:103A2800000000007529000001010A041A000000C6
:103A38004000000040000000010902C70004010026
:103A4800C032080B00020202010009040000010252
:103A580002010005240010010524010101042402CB
:103A6800060524060001070581031000400904012A
:103A780000020A0000000705020240000007058353
:103A880002400000090404000201030000072401A9
:103A98000001250006240201010506240202020590
:103AA8000924030103010201050924030204010199
:103AB8000105090507024000000000052501010174
:103AC80009058602400000000005250101030904DC
:103AD80002000103010100092111010001223F0038
:103AE800070584030800010904030001030000001E
:103AF8000921110100012228000705850308000497
:103B08001201100100000040C0168904730201026E
:103B1800030105010906A10175019508050719E0CA
:103B280029E715002501810295017508810395058E
:103B3800750105081901290591029501750391037D
:103B4800950675081500257F05071900297F81004E
:103B5800C0050C0901A101750A950419002A9C02E7
:103B68001500269C02810005017508950319002996
:103B7800B7150026B7008100C000040309040E032E
:103B880050006F0072007400200031000C03000028
:103B9800000000000000000000000000000000001D
:043BA8000000000019
:00000001FF
