:1000000000800020BD01000021950000DD9400006B
:10001000DD940000DD940000DD940000DD9400001C
:10002000DD940000DD940000DD94000021950000C7
:1000300021950000DD94000065B7000069B700005D
:1000400021950000219500002195000021950000D8
:1000500021950000219500002195000021950000C8
:1000600021950000219500002195000021950000B8
:1000700021950000219500002195000021950000A8
:100080002195000021950000219500002195000098
:100090002195000021950000219500002195000088
:1000A000559200006192000021950000219500000A
:1000B0002195000021950000219500002195000068
:1000C0002195000021950000219500002195000058
:1000D0002195000021950000219500002195000048
:1000E0002195000021950000219500002195000038
:1000F00021950000E5C60000219500002195000033
:100100002195000021950000219500002195000017
:100110002195000021950000219500002195000007
:1001200021950000219500002195000021950000F7
:1001300021950000219500002195000021950000E7
:1001400021950000219500002195000021950000D7
:1001500021B9000039B9000051B9000069B90000A7
:1001600021950000E19A00002195000021950000F2
:1001700021950000219500002195000021950000A7
:100180002195000021950000219500002195000097
:100190002195000021950000219500002195000087
:1001A0002195000021950000219500002195000077
:1001B000219500002195000035B50000574B4CF209
:1001C000205210B5DA814DF62812DA8100BF00BF47
:1001D00009F0AAF9524B4FF010621A63514A9A6320
:1001E000514ADA63514A136913F4807303D153619E
:1001F0004FF4A85313614E4B9A78110703D59A78A0
:1002000042F008029A704B4B4B482A221A704B4B13
:10021000DA1C121AC11E22F00302994288BF002282
:10022000474909F023F8474B4748DA1C121AC11E08
:1002300022F00302994288BF002200210DF024F928
:10024000424943484FF4DE7209F010F8414B424AEC
:10025000802103F8011B9342FBD14FF0E0233C4A7D
:10026000C3F8082D3D4B8A221A70A3F5805324222F
:100270005A70A0221A709A799207FCD59A79D406FE
:10028000FCD4374B9A7902F00C02082AFAD10522E5
:100290001A7143225A719A799006FCD5304A9379A3
:1002A0005906FCD51E4B4FF08171596405219964A4
:1002B00020211170917901F00C010C29FAD1294A01
:1002C0005A604FF0E023284A5A6100229A610722BF
:1002D0001A61264AC3F8202D62B609F02DFA134B95
:1002E0005B69DA0705D5224809F01AFA214B224A40
:1002F000DA61224B1B785B0609D51E4C1E4BE26966
:100300009A4204D11A4809F00BFA0023E36109F07C
:1003100011F90DF06FF90BF04BFBFEE700200540E3
:1003200000800440823F04000100002B00D0034005
:1003300000D0074000E00740989DFF1F80A9FF1FE5
:1003400070E4000094B8FF1F80A9FF1F00000000A8
:100350000092FF1F00E400E05FE400E00050064070
:1003600000400640C01005003F1901000000202099
:10037000A964C56500E00340A5C3945A00F0074096
:10038000FFFFFFFFFFFFFFFFFFFFFFFFFFFFFFFF7D
:10039000FFFFFFFFFFFFFFFFFFFFFFFFFFFFFFFF6D
:1003A000FFFFFFFFFFFFFFFFFFFFFFFFFFFFFFFF5D
:1003B000FFFFFFFFFFFFFFFFFFFFFFFFFFFFFFFF4D
:1003C000FFFFFFFFFFFFFFFFFFFFFFFFFFFFFFFF3D
:1003D000FFFFFFFFFFFFFFFFFFFFFFFFFFFFFFFF2D
:1003E000FFFFFFFFFFFFFFFFFFFFFFFFFFFFFFFF1D
:1003F000FFFFFFFFFFFFFFFFFFFFFFFFFFFFFFFF0D
:10040000FFFFFFFFFFFFFFFFFFFFFFFFDEF9FFFF23
:100410000548064B1B1AD90F01EBA301491002D066
:10042000034B03B11847704780A9FF1F80A9FF1F26
:100430000000000008B5054B1BB105490548AFF3A6
:100440000080BDE80840FFF7E3BF00BF00000000E8
:1004500080A9FF1F68E40000704700BF30B50C2181
:1004600083B038480AF05CFE374801F0C7FA4021F3
:10047000354801F0F7FA34481D2101F067FB0224EA
:10048000E0B20021013409F0DDF9062CF8D1204654
:10049000022109F0D7F90221072009F0D3F902213E
:1004A000082009F0CFF902210E2009F0CBF9022132
:1004B0000F2009F0C7F90221142009F0C3F9022125
:1004C000152009F0BFF90121102009F0BBF9012125
:1004D000112009F0B7F91D4D02242146284601F0EC
:1004E00079F801342846052101F002F8062C05F1BF
:1004F0001805F2D1164C636D1868036847F612218F
:10050000DB699847134A126801920199C4F80011F7
:1005100000234FF6FF72032501211020A4F8583064
:1005200084F85A3063662366A266E26684F8F8307F
:100530006367C4F8FC3084F8705003B0BDE8304005
:1005400009F04CB90082FF1F5CABFF1FA8AAFF1F78
:1005500098A9FF1F3CB1FF1F2DE9F041E0299DF84C
:1005600018C00C46054622D80CF1FF31C9B20F293C
:100570001FD820061DD51F466B6D186803682143E0
:100580001B68164698476B6D1868036806F07F0174
:100590001B6804F0EF049847C02C0AD06B6D07F07D
:1005A0007F0118680368BDE8F0411B681847F72908
:1005B00001D8BDE8F0810834E4B2DD23E340DB0775
:1005C000F7D5436DEDE700BF036810B504460BB1E6
:1005D0007430984794F87530803B7F2B44D8DFE81F
:1005E00003F0404343434343434343434343434371
:1005F0004343C1434343434343434343434343434D
:100600004343BD4343434343434343434343434340
:100610004343B1434343434343434343434343433C
:100620004343AD4343434343434343434343434330
:100630004343A3434343434343434343434343432A
:1006400043438F434343434343434343434343432E
:100650004343827E6E66434362435E5A56524E4324
:100660004A44A368002B70D110BD236D002BFBD032
:10067000BDE810401847E36C002BF9D1F4E7A36CF8
:10068000002BF5D1F0E7636C002BF1D1ECE7E36BC5
:10069000002BEDD1E8E7236C002BE9D1E4E7A36B55
:1006A000002BE5D1E0E7636B002BE1D1DCE7236BA6
:1006B000002BD9D094F87600BDE810401847E26AC4
:1006C000002AD1D094F8773094F87600DB0103F457
:1006D0007E5300F07F00BDE8104018431047A36A26
:1006E000002BE7D1C0E7636A002BBDD0B4F87610C9
:1006F000802904F1780028BF8021BDE81040184708
:10070000226A002AB0D094F8771094F8763094F8E2
:100710007400C90101F47E5103F07F031943BDE861
:100720001040A1F500511047E369002B9CD094F8CC
:10073000761094F87400BDE810401847A369002BA8
:10074000F5D191E76369002B8ED094F8772094F867
:10075000761094F87400BDE8104018472369002B08
:10076000F3D181E7E368002BEFD17DE738B5436D26
:100770000446186803681B699847002800F0CA807F
:1007800094F80D31626D23F0010384F80D31106887
:1007900003685B699847C3B2FD2B00F0BB80626EB3
:1007A000002A40F0B98094F9591094F8592084F83F
:1007B0005B30002980F2128102F10C01C9B20129DB
:1007C00040F20C81FD2A00F00981EF2A94BF02F06B
:1007D000F0011146B02904D040F23A81E02940F0FE
:1007E000F88040B20028C0F24081012184F85C30DA
:1007F00084F85B2061661346EF2B94BF03F0F00C86
:100800009C46ACF180027F2A00F2EB80DFE812F018
:100810008301E900E900E900E900E900E900E900F5
:10082000E900E900E900E900E900E900E900E90080
:100830008301E900E900E900E900E900E900E900D5
:10084000E900E900E900E900E900E900E900E90060
:100850008301E900E900E900E900E900E900E900B5
:10086000E900E900E900E900E900E900E900E90040
:100870008301E900E900E900E900E900E900E90095
:10088000E900E900E900E900E900E900E900E90020
:10089000A001E900E900E900E900E900E900E90058
:1008A000E900E900E900E900E900E900E900E90000
:1008B000A001E900E900E900E900E900E900E90038
:1008C000E900E900E900E900E900E900E900E900E0
:1008D0008301E900E900E900E900E900E900E90035
:1008E000E900E900E900E900E900E900E900E900C0
:1008F000A401A0018301A001E900E9007601A4019F
:1009000076017601760176017601E90076017601BD
:1009100001326266002038BD010671D494F85B1084
:10092000F02900F09E80F72900F09B80A11881F843
:100930005B30216E4B1E9A42EAD394F85B20F02A7A
:1009400000F0A780F72A00F0A480130640F1188178
:1009500002F10C03DBB2012B40F21281FD2A00F000
:100960000F81EF2A94BF02F0F0031346B02B84F8F6
:10097000753004D000F20F81A02B40F0068102F008
:100980000F000130032984F874004FF0000194F83F
:100990005C0084F87600616608BF94F85D0021660B
:1009A00018BF00200121B02B84F8770084F8F810DC
:1009B00000F0E28000F2D980A02B00F0DD8003F08F
:1009C000EF03802B00F0D880002384F859300120F9
:1009D00038BD01F0EF01C0293FF403AF40B2002859
:1009E00043DB94F90D01636840F0010084F80D01C8
:1009F00003B19847002084F859006066206638BD2E
:100A0000A3F1F0010F2989D801A050F821F000BF0F
:100A1000C50A00001D0900001D0900001D09000095
:100A20001D0900001D0900001D090000C50A000085
:100A3000790A0000790A0000790A0000790A0000AA
:100A4000790A00001D090000790A0000790A0000F7
:100A5000A0293FF4C6AE01F0EF0180293FF4C1AEFA
:100A6000BCE7A11881F8783063E703F10C02D2B239
:100A7000012A3FF6C1AEB4E700220120A4F8762097
:100A800084F8742084F87530C4F8FC0084F8F80009
:100A900038BDF02180220123434894F8F750606765
:100AA000C4F8FC2084F8F830204684F8F710FFF7EB
:100AB0008BFDF722022384F8782084F8795063664E
:100AC000002038BD94F87810F02901D0F72988D19A
:100AD00004EB020C002101324FF470458CF87830A1
:100AE0000120A4F87620A4F8745084F85910C4F8B2
:100AF000FC2084F8F8006166216638BD00230120DF
:100B000084F87430A4F8763084F875C084F8F8005E
:100B10006366236638BD032222660221626E8A4222
:100B2000FFF4F6AE012003F00F03002294F85C10EE
:100B300084F87610034484F8743084F8772084F8BD
:100B400075C0C4F8FC006266226684F8F80038BDFF
:100B5000022222660121E1E780210022216684F839
:100B6000592084F878C07F21D8E7E02B04D003F027
:100B7000EF03C02B7FF428AF84F85920012038BD43
:100B8000002384F875300020FCE603F0EF00802895
:100B90003FF4F5AEF7E7E02B3FF4F1AE03F0EF00E2
:100BA000C0283FF4ECAEEEE700F0800090F8703023
:100BB000DA0718D513F0FE0F15D0F0B590F875C010
:100BC0008CF08002602A83B004460DD890F87450EF
:100BD0008D4252D0002950D05B08012B54D0032BFA
:100BE00073D003B0F0BD7047BCF1F10F1BD90CF10D
:100BF0000E02D2B20123934043F2507213422BD023
:100C00000CF10803DBB2072BEBD8DD2222FA03F349
:100C1000DB07E6D5436D6146186803681B6803B0BF
:100C2000BDE8F0401847BCF1F00F37D0BCF1F10F30
:100C3000D7D1436D90F87650186894F877302D012D
:100C400003F00F0305F070051D43036861461B6840
:100C50009847636D2946DFE7DA073FD4BCF1F30F0D
:100C6000BFD1436D94F876501868036861461B68DD
:100C70009847636D05F07F01CEE7C3F346037F33EA
:100C800003F07F03012BACD894F8773094F87620EA
:100C9000009561462046FFF75FFCA2E7B0F876308A
:100CA000802B1F4628BF8027002B9AD000F17706A3
:100CB000636D18683546036816F8011F1B68763D9A
:100CC0002D1B9847AF42F3D88BE794F8773094F810
:100CD000762000956146FFF73FFC82E7436D90F870
:100CE0007720186894F876500368F2211B6845EA6B
:100CF000C2159847636D1868036805F07F011B688B
:100D00009847636DC5F3C61186E700BF2DE9F04F24
:100D1000AC4B5A688BB0002A40F0518198680BF0B8
:100D2000F1FEA9490BF042FFA8490BF03FFFA8498B
:100D30000BF034FE0CF08AF80146A648A64FDFF807
:100D40009C82A74EDFF89CB2A74DDFF8A09200F07E
:100D500089FEA74800F0CEFBA64800F0CBFBA648D2
:100D600000F0C8FBA54800F0C5FBA54B0493A54BBC
:100D70000393A54B02930024BA469D4B04EB440712
:100D800003EBC707384600F005FC002800F0B180EF
:100D90009E4BD9F800201B680693069B9B1A312BAB
:100DA00040F2A7809A4B1F68012F00F0CE81022FDE
:100DB00000F03681032F00F03C81042F00F04281C7
:100DC000052F00F04E81062F00F05981072F00F00B
:100DD0005F81904B1B68012B00F06381022B00F0B8
:100DE0007A81032B00F08F810121112008F0F6FC9D
:100DF000864B1B680793079BC9F80030049B04339C
:100E00000493039B04330393029B01340433042CA7
:100E100008F104080AF1040A06F1040602930BF132
:100E2000040BAAD1062008F0FFFC28B9072008F01F
:100E3000FBFC002800F09781072008F0F5FC002853
:100E400036D1082008F0F0FC002831D10624704B80
:100E50000E201C6008F0E8FC20B90F2008F0E4FC2C
:100E600000287DD00F2008F0DFFC002840F07481BE
:100E70000220684B1860142008F0D6FC664AB0FACD
:100E800080F35B091520136008F0CEFC95F85840FC
:100E9000624A00280CBF02230123102C136061D981
:100EA000002009F0E5FE0028FAD10BB0BDE8F08F74
:100EB000062008F0B9FC28B9082008F0B5FC08B9EC
:100EC0000524C4E7082008F0AFFC0028BFD00620A6
:100ED00008F0AAFC28B9072008F0A6FC002800F0BA
:100EE000E881072008F0A0FC002840F0F6810224E9
:100EF000ADE7384600F058FB00283FF47FAF434B86
:100F0000D9F800201B680893089B9B1A182B7FF6C2
:100F100075AF404B1B68012B00F08D813C4B1B686B
:100F2000012B00F07881022B00F07E81032B00F072
:100F30004081042B00F04681052B00F05181062BE7
:100F400000F05B81072B00F061810021112008F087
:100F500045FC2E4B1B680993099BC9F800304DE7EF
:100F6000032086E7204E80273046FFF7FFFB00284E
:100F700096D095F87530902B83F0800218D0602AB7
:100F800009D895F87430A34205D024B116482146FB
:100F9000FFF70CFE84E73046FFF716FB214630468C
:100FA000FFF704FE95F85840102C3FF679AFDBE7C9
:100FB00095F87730002BE4D185F87570E1E70021D2
:100FC000BBE600BF60A1FF1F8180803B00000143A2
:100FD000EE7CFF3E5CABFF1F34DB000044DB000017
:100FE00024DB0000E4DA000098A9FF1F68ABFF1FB4
:100FF000A8AAFF1FC0AAFF1FD8AAFF1FF0AAFF1FA1
:1010000014DB000004DB0000F4DA00003CB1FF1F39
:1010100028ABFF1F2CABFF1F84ABFF1FC09EFF1F21
:10102000029B188809F088FCAF4B1F68032F7FF4E0
:10103000C4AE039B188809F07FFCAB4B1F68042FDC
:101040007FF4BEAEA94800F0A5FA002840F09380D6
:10105000049B188809F070FCA34B1F68052F7FF4D0
:10106000B2AEA24800F096FA002840F09380308893
:1010700009F062FC9C4B1F68062F7FF4A7AEBAF8FC
:10108000000009F059FC984B1F68072F7FF4A1AEB0
:10109000B8F8000009F050FC954B1B68012B7FF459
:1010A0009DAE944B944853F82470944B53F82420ED
:1010B000934B05921B7800939021D3B2FAB2FFF7BD
:1010C0004BFA904B1B68012B00F0DD80884B1B68AE
:1010D000022B7FF486AE8C4A8C4F125D7A716B6D59
:1010E00017F8011B186803681B689847884B9F42D4
:1010F000F5D1844B1B68012B00F0BF807C4B1B6833
:10110000032B7FF471AE834B7B4853F824707C4BE8
:101110001B780093FAB20023C021FFF71DFA794B28
:101120001B68012B7FF460AE754A107801383B04D0
:10113000000203F4FE0300F47060184340F44040E2
:1011400040F00C0009F0E0FC4EE6BBF8000009F0AE
:10115000F3FB654B1F682AE60E2008F065FBB0FA2A
:1011600080F0400985E6082008F05EFB00287FF447
:1011700063AE07246BE64EF2080009F0DDFB0520A4
:1011800008F09CFB4EF2020009F0D6FB052008F0A7
:1011900095FB5DE74EF2040009F0CEFB384608F0FF
:1011A0008DFB4EF2080009F0C7FB384608F086FBBD
:1011B0005DE7039B188809F015FB4B4B1B68042B5C
:1011C0007FF4BAAE049B188809F00CFB474800F086
:1011D000EBF9002878D1444B1B68052B7FF4AFAEA8
:1011E000308809F0FFFA414800F0DEF9002862D1AA
:1011F0003D4B1B68062B7FF4A5AEBAF8000009F042
:10120000F1FA394B1B68072B7FF49FAEB8F800004A
:1012100009F0E8FA99E6BBF8000009F0E3FA324B6E
:101220001B68022B7FF482AE029B188809F0DAFA61
:101230002D4B1B687AE62F4B2F4853F82470304B08
:101240001B780093FAB200238021FFF785F92D4B1C
:101250001B68012B7FF462AE294A107801383B04E9
:10126000000203F4FE0300F47060184340F40040F1
:1012700040F0080009F048FC50E62448002207210D
:1012800009F092FC3AE7059B38041B0603F0FE4385
:1012900000F4FE0018431A4B1B78013B1B0203F4B9
:1012A0007063184340F4104040F0090009F02CFC32
:1012B0000CE70324CBE54EF2080009F093FA4EF256
:1012C000040009F08FFA93E74EF2020009F08AFA5F
:1012D0004EF2080009F086FA7DE7062008F0A4FA2D
:1012E000B0FA80F46409B2E528ABFF1FF0AAFF1F33
:1012F0002CABFF1F64DB000098A9FF1F74DB00000C
:10130000C09EFF1F84ABFF1FCC9EFF1FC49EFF1F0C
:10131000CA9EFF1F54DB000070B5584D584A2B6819
:10132000584E1660002184B011611181D160002BEC
:1013300000F0A08019465B69002BFBD14A610024B4
:10134000514B13605461546094724D480AF0D4FBC1
:101350004E4A13464FF4007143F8186B13612B6823
:10136000D46011819461D461002B00F0858019460E
:101370005B69002BFBD14A610025454B55615560E7
:10138000957213604148434C00F0B8FD424809F0A3
:10139000D1FF3E4B3A4900952A463F480AF03EF8B5
:1013A0003E4A3F493C480BF0EDFA3E4809F0C2FF87
:1013B0000122364B009232493A480AF02FF8374A58
:1013C000374938480BF0DEFA374B3849384A19604C
:1013D0000A21197203204FF6FF733649A366E366AC
:1013E00011606265294684F870008022256065607E
:1013F000A560E56025616561A561E56125626562BD
:10140000A562E56225636563A563E563256465649C
:10141000A564E5642565A4F8585084F85A502566FB
:10142000656604F178006567C4F8F8500CF02CF894
:1014300021491A4AC4F800512046C4F80451C4F89E
:101440000851A4F80C510BF09DFA1C4A1C4B126871
:101450000392039A1A601B4800F0AEF81A4800F095
:10146000ABF81A4800F0A8F8194804B0BDE870407D
:1014700000F0A2B82A6062E72A607DE760B4FF1F2F
:101480006CABFF1FE0DA0000E0E2000008ABFF1FDA
:10149000B8DB000098A9FF1F30ABFF1F9C9EFF1F09
:1014A000D1B4000044ABFF1F5CABFF1F9CDB00000E
:1014B00058ABFF1F34A1FF1F590400003CB1FF1FB0
:1014C00068ABFF1FA8AAFF1FC0AAFF1FD8AAFF1F53
:1014D000F0AAFF1F08B5007D08F0A6F9003818BF74
:1014E000012008BD0846C0B2D1B208F0ABB900BFB8
:1014F0000181704730B5837A0168244A23F00403E0
:1015000083720B68934287B004463DD1007D08F09A
:101510008BF9003818BF0120A37AC3F34002904230
:101520000BD01B4A1268019283F00203019A626099
:10153000A372C3F3800007B030BD154965680A681F
:101540000292029AB4F808C0521B624518D303F005
:101550000102904214D00A68039203980A68049228
:1015600083F0010343F00403049AA3720968E3685B
:10157000059105996060D31AE16023610120DAE7E3
:10158000C3F3800007B030BD9847C5E7D51400000D
:101590003CB1FF1F807A00F00500A0F10500B0FA11
:1015A00080F04009704700BF807AC30754BFC0F382
:1015B00080000020704700BF0022054942604FF0C4
:1015C0000A0CA0F808C0827201600275704700BF63
:1015D0008CDB000010B5002203688272C9B201756D
:1015E0001B680E4A934282B004460ED1084608F0AA
:1015F0001BF918B1A37A43F00303A372084B1B68CD
:101600000193019B636002B010BD98470028F5D09C
:10161000A37A43F00303A372F0E700BFD5140000E0
:101620003CB1FF1F2DE9F04F00F5807EB1E8A00A24
:10163000B2E84015C5EA0643C6EA2544C7EA0845AC
:10164000C8EA2746C9EA0A47CAEA2948CBEA0C4948
:10165000CCEA2B4AA0E8F8078645E7D1BDE8F04F71
:1016600070474FF000022DE9F00F00F5807C00BFBD
:10167000B1E8A00AC5EA0203C2EA2544C7EA0205A6
:10168000C2EA2746C9EA0207C2EA2948CBEA0209A8
:10169000C2EA2B4AA0E8F8078445E9D1BDE8F00F7B
:1016A00070474FF000022DE9F00F00F5807C00BF7D
:1016B000B1E8A00AC2EA0543C2EA0504C2EA074546
:1016C000C2EA0706C2EA0947C2EA0908C2EA0B49A8
:1016D000C2EA0B0AA0E8F8078445E9D1BDE8F00F9B
:1016E00070472DE9F00F089C00F5007B51F8045B72
:1016F00053F8046BC5EA0647C6EA254952F8045B6D
:1017000054F8046BC5EA0648C6EA254AA0E88007F3
:101710008345EBD1BDE8F00F704700BF0020704754
:1017200000207047F8B51F4C037A0D465A00012778
:10173000C1F307210646204684F8632084F8AE7082
:1017400084F8AD7007F036FAE9B2204607F032FAB5
:101750000021204607F010FC08B10020F8BD317AC6
:101760003B460222204607F07DFC0128F5D994F87B
:10177000602094F86100824210D2A118531CDBB2A1
:10178000097E84F8603098424FEA012106D923444B
:101790000232187E84F860200843F8BD4FF0FF3015
:1017A000F8BD00BFD09EFF1FF8B5154C037A242961
:1017B0004FF0010708BFC280BB400D462046C1F371
:1017C0000721164684F8633084F8AE7084F8AD7053
:1017D00007F0F0F9E9B2204607F0ECF9C6F307216B
:1017E000204607F0E7F9F1B2204607F0E3F9394661
:1017F000204607F0C1FBB0FA80F04009F8BD00BFF9
:10180000D09EFF1FF8B504467A480E46154607F0ED
:1018100061FA052008F052F806212046FFF782FF02
:10182000002E77D0B02800F0E0800127277144F225
:10183000600230212046FFF7B7FF002873D06C22EA
:1018400026212046FFF7B0FF4FF4F97228212046E9
:10185000FFF7AAFF40F622722C212046FFF7A4FFD3
:1018600044F246423C212046FFF79EFF40F23712E9
:1018700024212046FFF798FF5F4B9E4200F2AF8085
:10188000002234212046FFF78FFF28460BF036F95F
:10189000B5FBF6F5074630460BF030F90146384601
:1018A0000BF038FA05F01F05064628460BF026F91E
:1018B000014630460BF070F84FF08A410BF076F994
:1018C0000BF0C4FAC0F30A0242EAC52232212046D4
:1018D000FFF76AFF44F2FF5230212046FFF764FF12
:1018E000732202212046FFF75FFF4FF4C87007F014
:1018F000E5FF41F61D522E212046FFF755FF072236
:1019000004212046FFF750FFB02206212046FFF7B2
:101910004BFF46E00123237144F260023021204650
:10192000FFF742FF08B90020F8BD6C2226212046AF
:10193000FFF73AFF4FF4F97228212046FFF734FFF2
:1019400040F622722C212046FFF72EFF44F2464239
:101950003C212046FFF728FF40F237122421204681
:10196000FFF722FF44F2FF0230212046FFF71CFF61
:10197000732202212046FFF717FF4FF4C87007F0CB
:101980009DFF41F61D522E212046FFF70DFF042238
:1019900011462046FFF708FF302206212046FFF7B8
:1019A00003FF10220A212046FFF7FEFE00220E212F
:1019B0002046FFF7F9FE43F63C4210212046FFF790
:1019C000F3FE47F67F7222212046FFF7EDFE362216
:1019D00024212046FFF7E8FE01206072F8BD3A4658
:1019E00034212046FFF7E0FE4FE70120002323715A
:1019F0006072F8BDD09EFF1F40660301014A0021BE
:101A0000FFF700BF605AC50A10B50446D1B10129DD
:101A100001D0002010BD40F273122A21FFF7C4FE4E
:101A20000028F6D0882220212046FFF7BDFE00289E
:101A3000EFD0E28820462421BDE8104022F00402C5
:101A4000FFF7B2BE55222021FFF7AEFE0028E0D0FE
:101A5000E28820462421BDE8104042F00402FFF74E
:101A6000A3BE00BF38B50546F1B1802903799ABFFE
:101A7000C1F1800444EA0424002433B922462846F4
:101A80002221BDE83840FFF78FBEC288002322F034
:101A9000100203712421FFF787FE224628462221E7
:101AA000BDE83840FFF780BE012347F67F72222150
:101AB0000371FFF779FEEA8828462421BDE8384003
:101AC00042F01002FFF770BE38B50B4605461D49BF
:101AD00018460BF06BF81C490AF060FF0BF0B6F9E2
:101AE000F8B180282B799ABFC0F1800444EA04241D
:101AF000002433B9224628462221BDE83840FFF7AA
:101B000053BEEA88002322F010022B7124212846BC
:101B1000FFF74AFE224628462221BDE83840FFF75B
:101B200043BE012347F67F7222212B712846FFF71F
:101B30003BFEEA8828462421BDE8384042F01002E6
:101B4000FFF732BE00000143EE7CFF3E0D2938BF97
:101B50000D2138B50C461F2C4FF02E0128BF1F2435
:101B60000546FFF7DFFD20F4F85323F01F0344EA96
:101B700004241C4322462E212846FFF715FE002888
:101B800008BF0024A0B238BD10B5044609F06CFDB2
:101B9000204610BD024A034903480AF0F3BE00BFC5
:101BA0009C9EFF1F891B000088ABFF1F38B5074DA7
:101BB000074C08482A4621460AF0E4FE2A462146F8
:101BC0000548BDE838400AF0DDBE00BF9C9EFF1FFF
:101BD000891B000090ABFF1F98ABFF1F024A03490F
:101BE00003480AF0CFBE00BF9C9EFF1F891B000068
:101BF000A0ABFF1F024A034903480AF0C3BE00BF5F
:101C00009C9EFF1F891B0000A8ABFF1F024A0349CF
:101C100003480AF0B7BE00BF9C9EFF1F891B00004F
:101C2000B0ABFF1F024A034903480AF0ABBE00BF36
:101C30009C9EFF1F891B0000B8ABFF1F024A03498F
:101C400003480AF09FBE00BF9C9EFF1F891B000037
:101C5000C0ABFF1F024A034903480AF093BE00BF0E
:101C60009C9EFF1F891B0000C8ABFF1F024A03494F
:101C700003480AF087BE00BF9C9EFF1F891B00001F
:101C8000D0ABFF1F024A034903480AF07BBE00BFE6
:101C90009C9EFF1F891B0000D8ABFF1F2DE9F84F4A
:101CA000374B38481A68384912681B79CB7782421B
:101CB0002AD2364B1B78002B4AD1DFF8D4A0DFF8AC
:101CC000D490DFF8D480354FDAF80060D9F800B04E
:101CD000B8F800403D88002E41D0BBF1000F16D06F
:101CE0000BF10402311D02EB450201EB4401FFF749
:101CF00099FC403540347F2C11D87F2DA8F8004046
:101D00001AD83D80BDE8F88FA0F58070D5E7311D69
:101D100001EB44014034FFF7A4FC7F2CEDD90024F3
:101D20003046A8F8004009F0ADFA1D4B7F2D1A6827
:101D3000CAF800201C60E4D9002458463C8009F011
:101D4000A1FA184B1A68C9F800201C60BDE8F88F8A
:101D50004FF0E0234FF08042C3F80822ADE7BBF11B
:101D6000000F07D00BF1040101EB4501FFF799FCCF
:101D70004035C0E74FF4807259460BF085FBBAE757
:101D8000F8ABFF1F408FFF1F00800040F4ABFF1F28
:101D9000E0ABFF1FE8ABFF1FF0ABFF1FF2ABFF1F75
:101DA000E4ABFF1FECABFF1F38B50021044609F080
:101DB000B5FA88B1034672B61B4A106800282AD0CB
:101DC0001A490D68002D2BD01560194A0B600023AD
:101DD000138062B609F056FA0121204609F09EFAF6
:101DE000034690B172B6134A106878B112490C6874
:101DF0004CB11460114A0B600024148062B6BDE837
:101E0000384009F03FBA0B6062B638BD0B49136029
:101E1000088062B638BD06491360088062B6DBE709
:101E20000B6062B6D8E700BFE0ABFF1FE4ABFF1F5B
:101E3000F0ABFF1FE8ABFF1FECABFF1FF2ABFF1FC8
:101E4000284A294BD16B41F40041D163116C41F018
:101E500002011164D16B41F00201D1631A68002ABA
:101E600037DBD3F88020002A33DB4FF0864270B492
:101E7000C3F80021D3F80021002AFBDB01251B4A0F
:101E8000002647F23201C3F804114FF480341E6675
:101E900017495D609A60174ADC6019615A61C3F89E
:101EA000E060C3F8845005F18E45C3F88850C3F84C
:101EB0008C40C3F89010C3F8942020B90E4B4FF417
:101EC000C0629A609A610C4B4FF4C06270BCDA60D9
:101ED000704728B9084B4FF4C0629A609A61704706
:101EE000704700BF0080044000F00240010000077E
:101EF0001B1F0100001F1F1F00B0044038B5254CF8
:101F00000121204609F052FB234A244B0020106097
:101F10001860FFF795FF224B22494FF4C0625A60C8
:101F20002368214A19602149D960214919615A6001
:101F300002254FF480720621DA829D60DA8398824E
:101F40009983986123791B4D03F1804303F5043392
:101F50008F2218701A70184B2079184AE8764FF0C3
:101F6000807119601A6009F0CDFA2279144C154974
:101F70002070531102F1100003F13823124C41F884
:101F8000204040339B0002F01F02012101FA02F2BF
:101F90001A6038BDF8ABFF1FE0ABFF1FE8ABFF1FB7
:101FA00000B00440408EFF1F0200010100FEFFFF51
:101FB00022F002400080004000F00240010000904A
:101FC000F4ABFF1F0092FF1F9D1C0000024A034953
:101FD00003480AF0D7BC00BF9C9EFF1F891B00006E
:101FE000F8ABFF1F024A034903480AF0CBBC00BF0D
:101FF0009C9EFF1F891B000000ACFF1F024A034983
:1020000003480AF0BFBC00BF9C9EFF1F891B000055
:1020100008ACFF1F024A034903480AF0B3BC00BFE3
:102020009C9EFF1F891B000010ACFF1F024A034942
:1020300003480AF0A7BC00BF9C9EFF1F891B00003D
:1020400018ACFF1F024A034903480AF09BBC00BFBB
:102050009C9EFF1F891B000020ACFF1F00207047C3
:10206000704700BF036D0BB101207047406D003811
:1020700018BF0120704700BF10B50446806D18B12D
:102080000AF00CFF0023A365236D2BB104F11800A7
:10209000BDE8104005F09ABB636D002BF6D110BD72
:1020A00010B50446806D00B110BD4FF480700AF089
:1020B000EDFEA065B0B1236D002202703BB1014678
:1020C0004FF48072184605F0A9F8A06D10BD636D3D
:1020D000002BE9D001464FF48072184602F000FE52
:1020E000A06D10BD0148A06510BD00BF28ACFF1F4A
:1020F00038B5056D6DB10BB1002038BD11462846CD
:1021000003F0EAFD0028F7D02846BDE8384003F088
:102110007BBF446D002CEFD0204601F0A7FA0028C9
:10212000EAD02046BDE8384002F0C2B88A79A2F170
:1021300050031B0620D4F0B54B79046D0D798E78D1
:102140004F780978013385B002F26C72DBB244B18A
:1021500003918DE8E0000421204603F0E9FE05B07C
:10216000F0BD406D0028FAD003918DE8E000042115
:1021700001F0EEFF05B0F0BD0020704710B5044639
:10218000006D80B1037813F0700F00D110BD0021F5
:1021900003F0A2FD606D0028F8D0BDE810400022D9
:1021A000002301F063BA606D0028EFD090F8313061
:1021B00013F0500FEAD0BDE810400022002301F0D8
:1021C00055BA00BF10B50346006D82B00C4620B36F
:1021D0000DF1060201A903F0A7F938B3BDF80430E8
:1021E000BDF8062053EA020120D0C2F3451C02F0DC
:1021F0001F00D20AC3F343114000A2705A0A0139EA
:10220000207003F01F0302F5EA62012084F801C088
:1022100023716171A27102B010BD586D30B10DF122
:10222000060201A901F0BCF80028D7D1002002B0B5
:1022300010BD00BF10B50346006D82B00C4620B340
:102240000DF1060201A903F05FF938B3BDF80430BF
:10225000BDF8062053EA020120D0C2F3451C02F06B
:102260001F00D20AC3F343114000A2705A0A013979
:10227000207003F01F0302F5EA62012084F801C018
:1022800023716171A27102B010BD586D30B10DF1B2
:10229000060201A901F072F80028D7D1002002B08F
:1022A00010BD00BF0369B3B110B41C680B48E468EB
:1022B00084420CD1186D10B110BC03F0DFBE586D14
:1022C00010B110BC02F068B8002010BC704718466E
:1022D000234610BC18470020704700BF9D25000012
:1022E000006990B10368154A1B69934225D1036DBB
:1022F00063B1187810F0080007D0D8695B69C01A7C
:1023000048BF6FF00040704718467047436D002B80
:10231000FAD093F8310010F00800F6D01869196867
:102320005A695B68401A62EB0303B0F1004F73F126
:102330000003EAD36FF0004070471847952600006D
:10234000036963B11A68074992698A4208D1186D16
:1023500008B103F0E7BD586D08B101F0B1BD704799
:10236000184610471D250000036973B11A68084913
:1023700052698A4207D1186D08B103F071BB586DDC
:1023800018B101F05BB9184610474FF0FF307047A5
:1023900075240000036D13B1586900217047436D27
:1023A00013B1D3E90001704718461946704700BFC2
:1023B000036D13B1D86900217047436D13B1D3E9A0
:1023C0000401704718461946704700BFF0B595B034
:1023D0000022234F01924FF47A741831054604A865
:1023E000CDE9122202948DF80C20009705F05AFADC
:1023F000129B002B29D05C2009F0E2FA019BC360FC
:10240000029B03619DF80C300375164B0360002698
:10241000154B83600446466004A9183005F0A8F9FE
:102420004FF47A73AB606368104AA7600133A66506
:102430006E602A602E732C6163600D4B009304A8BC
:1024400005F0C4F9284615B0F0BD139B002BD2D17E
:10245000064A6B60AC602B732A602B61EDE700BF0E
:102460000CDC00005CDC0000C4DB000030DC0000A1
:10247000E8DB00000346006D08B103F0F1BA586DC7
:1024800008B101F0DBB84FF0FF3070470346806CB5
:1024900008B103F0E5BAD86C08B101F0CFB84FF03D
:1024A000FF307047036D33B11B7813F0700F14BF0A
:1024B000012000207047406D30B190F8313013F0AA
:1024C000500F14BF01200020704700BF0346006D6D
:1024D00008B103F0F7B9586D08B100F0DBBF4FF059
:1024E000FF30704700B50346806C83B058B10122BD
:1024F0000DF1070103F0E6F901280CD19DF8070062
:1025000003B05DF804FBD86C28B101220DF107017E
:1025100000F0C0FFF0E74FF0FF30F1E70346006D39
:1025200008B103F0FFBC586D08B101F0C9BC704799
:102530000346806C08B103F0F5BCD86C08B101F01B
:10254000BFBC7047036923B310B51968124A8C6881
:10255000944282B014D1186D48B101220DF10701E7
:1025600003F0B0F990B19DF8070002B010BD586DAE
:102570000028F8D001220DF1070100F08BFFF1E7F0
:1025800001220DF107011846A047EBE74FF0FF309D
:10259000EBE74FF0FF307047CD2400000346006D9D
:1025A00008B103F06BBD586D08B101F0F5BE70477E
:1025B0000346806C08B103F061BDD86C08B101F02E
:1025C000EBBE704700B5034683B0806C8DF80710F2
:1025D00038B101220DF1070103F050FD03B05DF8A1
:1025E00004FBD86C0028F9D001220DF1070101F09D
:1025F000D3FE03B05DF804FB8A79A2F150031B06F9
:1026000020D4F0B54B79046D0D798E784F78097828
:10261000013385B002F26C72DBB244B103918DE8F4
:10262000E0000221204603F083FC05B0F0BD406DC0
:102630000028FAD003918DE8E000022101F088FD26
:1026400005B0F0BD00207047836C53B1187810F0CE
:1026500008000DD0D8695B69C01A48BF6FF0004010
:102660007047C36CA3B193F8310010F0080000D19B
:102670007047186919685A695B68401A62EB03036E
:10268000B0F1004F73F10003F2D36FF000407047D8
:102690001846EDE7036D53B1187810F008000DD01F
:1026A000D8695B69C01A48BF6FF000407047436D3E
:1026B000A3B193F8310010F0080000D170471869F9
:1026C00019685A695B68401A62EB0303B0F1004F66
:1026D00073F10003F2D36FF0004070471846EDE746
:1026E00010B5036982B08DF80710BBB11968104AA4
:1026F000CC68944215D1186D30B101220DF107015B
:1027000003F0BCFC02B010BD586D0028FAD00122C5
:102710000DF1070101F040FE02B010BD184602B0F5
:1027200010BD01220DF107011846A04702B010BDEF
:102730009D25000038B50446806D0C4B236018B110
:102740000AF0ACFB0023A365236D04F118054BB11F
:10275000284605F03BF8064BA360284605F036F8FE
:10276000204638BD636D002BF2D1F4E75CDC00003D
:10277000E8DB000038B50446806D0E4B236018B1CD
:102780000AF08CFB0023A365236D04F118056BB1DF
:10279000284605F01BF8084BA360284605F016F8FC
:1027A00020465C2109F00EF9204638BD636D002BF0
:1027B000EED1F0E75CDC0000E8DB000030B4029C06
:1027C00011469C4634B1012C1CD0022C0ED00020A6
:1027D00030BC7047056DF5B14FF0FF33934274EB99
:1027E0000C04F4D3284630BC03F076BA026D0AB369
:1027F000D36959184CF10003002BE8D130BC1046C6
:1028000003F06ABA026D62B1536959184CF10003C2
:10281000002BDCD1F2E7406D0028D8D030BC00F0AE
:1028200025BF406D0028D2D0D0E900238A184CEB98
:102830000303F3E7406D0028C9D0D0E904238A18C8
:1028400030BC4CEB030300F011BF00BF70B505694D
:10285000234B03600446002D32D06E68013E6E604B
:1028600076BB2B681F4ADB6A93422FD1A86D10B14B
:102870000AF014FBAE652B6D23B305F1180004F0CC
:10288000A5FF2569E5B12B68174A5B68934224D1FF
:10289000A86D164B2B6018B10AF000FB0023AB6546
:1028A0002B6D05F11806A3B1304604F08FFF104BD5
:1028B000AB60304604F08AFF5C21284609F082F8BC
:1028C000204670BD6B6D002BD7D1DAE728469847BC
:1028D000D7E76B6D002BE7D1E9E728469847EFE78C
:1028E00030DC000079200000752700005CDC00006F
:1028F000E8DB000070B50569254B03600446002D38
:1029000032D06E68013E6E6076BB2B68214ADB6A6E
:10291000934233D1A86D10B10AF0C0FAAE652B6DA9
:1029200043B305F1180004F051FF2569E5B12B68A8
:10293000194A5B68934228D1A86D184B2B6018B1D7
:102940000AF0ACFA0023AB652B6D05F11806C3B194
:10295000304604F03BFF124BAB60304604F036FFCC
:102960005C21284609F02EF82046142109F02AF8A7
:10297000204670BD6B6D002BD3D1D6E72846984713
:10298000D3E76B6D002BE3D1E5E728469847EBE7EB
:1029900030DC000079200000752700005CDC0000BE
:1029A000E8DB000090F81CC04160BCF1020FC2607F
:1029B00001D18368184708F071BE00BF84460068E3
:1029C0002DE9F0410C4611461A46C36813F0807F8A
:1029D0007A4B03604BD1D30700F1D1809CF824607F
:1029E000174646EA0626002F00F0B78034B1267855
:1029F000637846EA032676BA0234B6B2DCF80430CD
:102A000093F808E0022F0EF1FF3E4FEA0E3E0CBF96
:102A100046F0805346F010431FFA8EFE4363023F98
:102A20000AE011B105F8010B2946013A03F470439D
:102A3000734517D9DCF80000C36A13F0F00FF5D026
:102A400012F0010F806B0D46EBD1C0F3072819B1CE
:102A500005F8028B4870294603F470437345A2F1D0
:102A60000202E7D8002F78D0DCF80000BEE7D307D9
:102A70005FD49CF824701646BFB2002E45D024B116
:102A8000637814F8027B47EA0327DCF8043093F8F4
:102A900008E0022E0EF1FF3E4FEA0E3E0CBF47F05B
:102AA000805347F010431FFA8EFE4363023E0AE054
:102AB00011B105F8010B2946013A03F4704373453F
:102AC00017D9DCF80000C36A13F0F00FF5D012F04C
:102AD000010F806B0D46EBD129B105F8020BC0F355
:102AE00007204870294603F470437345A2F102029F
:102AF000E7D856B1DCF80000C1E729B100F8023B85
:102B0000C3F307234B700146023A82B1DCF8003070
:102B1000D86A10F0F00FF8D0D4079B6B0846ECD5BC
:102B200011B100F8013B0146013A002AEED1BDE89F
:102B3000F08184B314F8013B012A18BF43F000432D
:102B400043639CF82470561E96E7C3F3072419B11B
:102B500000F8024B4B700146023A002AE7D0DCF83D
:102B60000030D86A10F0F00FF7D0D4079B6B0846FE
:102B7000EBD511B100F8013B0146013AEDE79CB1FC
:102B800014F8013B012A18BF43F0004343639CF84B
:102B90002460571E25E79CF82470012A1ABF47F0CD
:102BA000004343634763CEE79CF82460012A1ABFC1
:102BB00046F0004343634663EBE700BF00041F8019
:102BC000436810B41C685A68216811430268216088
:102BD000154C16491460D160154C164914611160EA
:102BE000417A154A5C180A3194F824C053F8214000
:102BF00002EBCC0149680C60017A5C1803EB81019F
:102C000094F818C0CC6902EBCC0149680C60817A59
:102C100010BC581803EB810390F83000596B02EB9D
:102C2000C00253681960704701401F00011000384E
:102C30000110007800001F805CE1000010B44268C1
:102C400090F809C0104B944400219CF824C003EB79
:102C5000CC0CDCF80440216090F808C094449CF847
:102C600018C003EBCC0CDCF804402160847A0068C7
:102C70002244064C92F8302003EBC2035B681960D3
:102C8000046010BC704700BF5CE1000001401F0001
:102C90000BB1FFF793BE704770B4016B4A4A0979D4
:102CA000D177C16A09791177016B09791177826A45
:102CB00003462AB34168C9688A4243D9C46A006B93
:102CC000521A21689A620D6803F12404A5424FF05C
:102CD000010259D01C68E56815F0804F0D6829D1B4
:102CE0002D780E6845F0004501360E606563364963
:102CF0000079C87612B1DB6A1B79CB7670BC70475D
:102D00000168324C406B0A63CC62CC6824F080448A
:102D1000CC6004682E4924684FF0030C8C4283F881
:102D200025C039D1037F4260022BC26038D170BC0C
:102D3000836818472D880E6845F0004502360E60FE
:102D40006563D4E7C16A0968CC8B260402F1FF30C1
:102D500031D4C0F30E00C883CC8B186BA4B2CC82E4
:102D60000468E58B2D041ED4C2F30E05E583E58BC4
:102D7000ADB2E5820D680024013A9C6203F124049F
:102D800018BF0122A542A5D11968CC6893F8244048
:102D900044F000444C63AAE72346114670BC184730
:102DA00070BC08F07BBCE58BC2F3080605F47E45D9
:102DB0003543E583DBE7CC8BC0F3080004F47E44A5
:102DC0002043C883C8E700BF0080004000000FFF19
:102DD000A529000008B50248FFF75EFF08BD00BF47
:102DE0002CACFF1F0A4A0B49002310B40A4C936015
:102DF00093841460516010BCD36093619362D3627A
:102E00001363536313615361D3611362704700BF4F
:102E10002CACFF1F3CDD000000C00240704700BF2B
:102E2000F0B5012B95B0054638D0022B40F20220B8
:102E30000CBF034600230431684604F0E3FD129BF7
:102E4000002B34D05C2008F0BBFD1F4B0026C0E9EE
:102E50000036019BC3601D4B8360029B036104AF7E
:102E60009DF80C30037504463946183004F080FC98
:102E7000174BA3604FF47A73AB606368154AA6657D
:102E800001336E602A602E732C616360124B0093D5
:102E9000384604F09BFC284615B0F0BD44F20223EE
:102EA0000431684604F0AEFD129B002BCAD1139B7F
:102EB000002BC7D1074A6B604FF47A71A9602B735E
:102EC0002A602B6104AFE1E75CDC0000C4DB00009A
:102ED0000CDC000030DC0000E8DB000010B5D0F8AE
:102EE00084448EB00A4644B10023214668460093CC
:102EF00002F098FC80B90EB010BDD0F8881441B132
:102F0000234668460C9400F053FE50B900200EB0E2
:102F100010BD08460EB010BD684602F095FE0EB01A
:102F200010BD684600F002FF0028EFD0E3E700BFC5
:102F300070B5D0F884548EB016465DB105F589653C
:102F400000230A4668462946009302F0EDFB90B93B
:102F50000EB070BDD0F888040028F9D000F589645F
:102F60000A462B46214668460C9500F0B9FD48B943
:102F700000200EB070BD32462946684602F0A8FD1A
:102F80000EB070BD32462146684601F021F8002897
:102F9000EED0DDE710B5D0F884448EB00A464CB1CF
:102FA0000020009001232146684602F03BFC80B9D6
:102FB0000EB010BDD0F8881441B1012368460C94BE
:102FC00000F0F6FD50B900200EB010BD08460EB05E
:102FD00010BD684603F0CEFC0EB010BD684600F090
:102FE0004BFE0028EFD0E3E730B5D0F884448FB033
:102FF0000A464CB10025012304F589616846009515
:1030000002F01EFB0FB030BDD0F888040028F9D0C4
:1030100000F58961012368460C9401F047F80FB070
:1030200030BD00BF10B5D0F884448EB00A463CB124
:10303000002321466846009302F0F4FB0EB010BD59
:10304000D0F8881431B1234668460C9400F0B0FDE6
:103050000EB010BD08460EB010BD00BF70B50546DD
:1030600090F8C00408B9014670BDD5F88404002862
:1030700038D0C469D5F89034013C1BB31A7E0ABB22
:103080000121184605F0DAFA88B1D5F88404002841
:103090003ED1D5F8880408B102F098F80646D5F874
:1030A000900420B1002105F0C9FA00B1A41BD5F8A5
:1030B000843473B19B794FF40071994089B2A1FBBC
:1030C000040170BD04F006FAD5F88434241A002BEC
:1030D000F0D1D5F888040028C5D0D0F83C14A4FB62
:1030E000010170BDD5F88804D5F8903450B1D0F8FE
:1030F000304423B11A7E002AC2D00028B3D002F097
:1031000065F8E1E70BB10446F4E718460146ABE782
:1031100004F0E0F90646C2E72DE9F043D0F89054F8
:103120008DB04DB198462B680446DB692846984718
:10313000B0F5405F064604D8002630460DB0BDE825
:10314000F0834FF4007009F0A1FE07460028F3D089
:103150000DF10409B6F1806F024643462946484600
:1031600016D901F017FB0646384609F097FE002EE7
:10317000E2D02B6828461B6A984794F8B034FF2B9E
:103180000AD100233046C4F890340DB0BDE8F08376
:1031900003F004FF0646E7E7D4F8B434B4F8B024EB
:1031A0000293D4F8B834ADF80420039304F29445A4
:1031B00099E80E00284605F02DFA94F8A134C4F8D9
:1031C0009054002BB9D101231A462946201D04F042
:1031D000A5FBB2E790F8C03463B1D0F8843463B192
:1031E0009A79D9694FF40070904080B20139A0FB00
:1031F00001017047184601467047D0F8880400283E
:10320000F9D0D0F83C14D0F83004A1FB000170478D
:1032100070B5D0F8903484B00446ABB190F8C05487
:1032200090F8C2045DB1212820D806F0FDFA051EF1
:1032300018BF0125284684F8C05404B070BD212869
:1032400008D806F0F1FA28B90025284684F8C054B9
:1032500004B070BD94F8B034FF2B12D1002328467F
:10326000C4F8903484F8C05404B070BD6A460A2192
:10327000184604F071FE0546284684F8C05404B090
:1032800070BDD4F8B424D4F8B834B4F8B0140293B0
:10329000ADF80010019204F294466B460ECB304616
:1032A00005F0B8F994F8A134C4F89064002BCCD19F
:1032B00001231A463146201D04F030FB0546C4E7C1
:1032C00010B51448144C1549154A04604FF0290CE8
:1032D000002380F8A1C44FF47F4E4FF0FF0C80F81C
:1032E000A53480F8BC34A0F8C0E480F8C2C4C0F8AB
:1032F0009C14C0F89424BDE810400A4A0A49C0F85A
:103300008434C0F88834C0F8903480F8AC3409F0C4
:1033100039BB00BF64ACFF1FBCDD000000000238F9
:10332000B4DE00009C9EFF1F1D2E000070B500F152
:1033300024038C460546164693E8070084B001AC8A
:1033400084E80700286A4FEA4C12214601F05EFE2D
:10335000012806D1286A3246214601F03BFE04B01E
:1033600070BD002004B070BD10B5044600F0A8FD8B
:10337000002384F8313084F8333010BD38B513465B
:103380000D46002200F12401006A1C4601F022FED5
:1033900020B143892B8003892380012038BD00BFE1
:1033A00038B513460D46002200F12401006A1C4680
:1033B00001F010FE20B1C3892B8083892380012076
:1033C00038BD00BF38B590F831300BB1002038BDA2
:1033D00004460D46382219460AF056F801204023CB
:1033E00084F8313084F83300256238BD70B40C782D
:1033F000202C0D46114603D115F8014F202CFBD08F
:103400000D608D602C783CB3214E0CE0A4F1220CB1
:103410005FFA8CFC26FA0CFC1CF0010F10D12E2C4C
:1034200016D12C78C4B12F2C24D03C2C05F10105E9
:1034300009D8212CEAD804F1FF3CBCF11E0F15D8A5
:10344000002070BC70475C2CFAD009D97C2CF7D0D6
:103450008D602C78002CE6D11D6070BC01F0A4BCFE
:103460003E3C012CF4D8002070BC7047202CD8D0F2
:103470008D60EEE72C46254614F801CBBCF1200FF9
:10348000F9D0BCF12F0FF6D01D6070BC01F08CBCE0
:10349000012100052DE9F04790F83330DC0782B0B8
:1034A00005466DD558060F46904640F1B580D5E9E2
:1034B0000023D5E9041018EB020443F10003A142F4
:1034C00070EB0303C0F0AE80B8F1000F54D0D5E923
:1034D00000324646D5F82090D9F838441C40C4F351
:1034E000080A002C57D1134377D195F831305A068A
:1034F0004CBFD9F83414E969A96199F84534D9F871
:103500002C24023999401144B6F5007F50D3D9F8E4
:103510001C228A424CD0B6F5806F65D34FF0010A69
:103520000AFA03FAAAEB040A730A9A4528BF9A46D4
:103530008A424FEA4A240AD30AEB01039A4206D28E
:1035400009F50470019105F05DF90199C0B1D9F850
:103550001402D0F800C05346DCF814903A46C8472D
:1035600070B12346D5E900125B1842F10002361B08
:10357000C5E900322744ADD1404602B0BDE8F0872E
:1035800095F832304FF0FF3043F0020385F83230C7
:1035900002B0BDE8F087AA6999F84534D9F82C043F
:1035A000911E9940640A01442144BAF1000FABD046
:1035B000CAF50074B4424FF0000209F5047028BF48
:1035C000344605F047F90028DAD000EB0A0122461C
:1035D000384605F04BFE2346C4E795F83330A96919
:1035E0005B060DD5013187E7D9F8140203683A4626
:1035F0001B6998470028C3D04FF400731C46B1E7FD
:1036000005F11802484601F043FD0028B8DB0CD054
:10361000A969D5F8209070E795F8313019077FF542
:1036200053AF44E7A1EB02084EE795F8313013F0B1
:10363000500FA5D0A8EB060840469EE7F0B583B032
:1036400001220DF107010446D0E900678569FFF703
:1036500021FF012808BF9DF80700A56118BF4FF0A2
:10366000FF30C4E9006703B0F0BD00BF2DE9F84F9B
:1036700090F83110D0F818800446002950D0164632
:10368000D0E9002C9C4508BFB2421F4658D056EAEC
:1036900007034AD0080704D5D4E90403B042BB416C
:1036A0003ED3D4F8209099F845340933751EDBB227
:1036B00047F1FF3AC3F120000AFA00FBDD40A3F115
:1036C000200E2AFA0EFA45EA0B0545EA0A0594F897
:1036D00033A01AF0400F2FD112F1FF3A2AFA03F368
:1036E0004CF1FF3A0AFA00F003432AFA0EFA43EAD1
:1036F0000A039D4202D352EA0C0C24D14B064CBF64
:10370000D9F83434E369A36104F118094A4675B164
:10371000A169206A01F0BCFC002805F1FF35F5DC49
:10372000C4F818800020BDE8F88F00238361C4E945
:1037300000670120BDE8F88FE3692B44A361F6E739
:103740000120BDE8F88FED1ADEE700BF2DE9F04F4C
:10375000064690F831008FB0002840F0D880174618
:1037600091F8312012F0500F8B4600F0D08003F01A
:103770000302032A9A4600F0CA80013203F00801CE
:1037800042EA01030293002F00F0CA803A6902F175
:103790000E08A84AA2FB0828DBE900214FEAD80856
:1037A00008F102080A435FFA88F805D0CBF8180040
:1037B00000210020CBE90001029B002443F04003DC
:1037C00025460393202206A95846FFF763FE00B35F
:1037D000202840F09C809DF918209DF81830002A80
:1037E000C0F2A18034B9DBF80020A2F12009DBF897
:1037F0001820019244453CBF0134E4B2002B00F094
:103800001281202206A958460025FFF743FE002812
:10381000DED11AF4007F7AD0029B9B0777D5002F68
:1038200075D0444517D2DDF804A0202206A95846D9
:10383000FFF730FE631C002861D0202867D12CB927
:10384000DBF80020DBF818A0A2F12009DCB2A045CB
:10385000EBD8CDF804A03822002130469BF8334045
:1038600009F012FEDBF820303362019B73620823FB
:1038700086F831303B68C6F82890C4F380140025E0
:1038800086F82C407B60BD81B8F1000F32D008F182
:10389000FF39DFF8A4A15FFA89F9AB460122594646
:1038A0003046FFF743FD044688B390F90020002A14
:1038B0002DDB2022002109F0E7FD002D00F0BE8065
:1038C000BBF1010F00F0D480C1232370A3461E3446
:1038D000BB8938461BB97A68BB689A4205D004F0A8
:1038E000E1FF2BF8020FA345F2D101355FFA85FB0A
:1038F000D845D3D8304600F0E3FA05460CE05846E8
:10390000DBF8185000F00CFB002840F090800025F8
:1039100086F8315086F8335028460FB0BDE8F08F56
:103920004FF0030848E755BB444538BF0024852BBA
:103930007FF448AF29463822304609F0A5FD9DF8AE
:103940001C209DF8193086F8303002F03703D2067B
:1039500058BF43F0080386F83130DBF80030DBF85D
:1039600020203262203BDBF818207262B3629BF8A1
:103970003330C3F3801386F82C30012522E7C02BA7
:1039800028D0C12B7FF43DAF3A4606A9304601F05E
:1039900081F9E8B1BB89DBB9BA687B689A4217D173
:1039A0001AF4006FB3D11AF4884F6FD196F8333000
:1039B0009C076BD41AF4806FA9D11AF4804FABD056
:1039C000D6E904233046FFF751FE0028A4D19EE734
:1039D0000546F7E6029B86F833309DF819309B07C1
:1039E00044BF039B86F833300B9BF361DDE908236A
:1039F000C6E90423DDE90C23C6E90223002FCFD05A
:103A00004FF000033A69BB819DF81B30396879603B
:103A10009A427FF4F6AEBD8ABDF81C30ED1AB5FAB5
:103A200085F56D09CEE6002F7FF4F3AE6FE7CBF896
:103A300018500CE78988888834B1FF1F85232370CC
:103A400086F8309084F80190DAF80030002B41D0ED
:103A50000DF113020DF1160105A89847BDF81430B9
:103A60006381BDF8163023819DF8133023753CE740
:103A7000C0232370029B84F801B063F07F0386F8B3
:103A800033303B69E370BB8AA3802EE796F8313070
:103A9000D8063FF53CAF13F001027FF438AF1AF4BB
:103AA000806F8AD096F8331089077FF530AF002BEE
:103AB0003FF42DAFD6E900310B4304D000200021A4
:103AC000C6E90001B261304600F0F2FB00283FF485
:103AD0001EAF21E745F621036381E381638204E79A
:103AE0002DE9F043044697B0994694F8313001929D
:103AF00000201490ADF814006BBB91F8313013F036
:103B0000500F0E4627D013782F2B154627D04FF095
:103B1000000813E0019D2F78A7B3FFF717FE0646B4
:103B20003422214608A8B6B105F0A0FB204600F0DB
:103B3000C7F908AE84F8318084F83380294601AB98
:103B400002AA2046FFF752FC0546002302AA31468E
:103B50002046002DDED1002017B0BDE8F08315F817
:103B6000011F2F29FBD0019599B938222046356ACB
:103B700009F08AFC0120402384F83130256284F862
:103B80003300E9E74B4602AAFFF7E0FD17B0BDE8B6
:103B9000F0833822002108A8366A09F075FC012359
:103BA0008DF85330402310968DF8513008AEAEE7B3
:103BB00019B101F58961FFF793BF0846704700BF4F
:103BC00090F8313063B991F8313013F0500F07D0CD
:103BD0000B6813F01F0C03D113466246FFF7B6BD06
:103BE000002070478169F8B50446006A01B10131CF
:103BF000012201F00FF90128054632D901230146BF
:103C00001A46206A01F066F9064650B3A3695BB311
:103C100094F83320510612D5591CA94218D022F02D
:103C20004002E16984F8332005E0206A01F050FA8F
:103C3000B8B1A36939464F1C99423A46F5D3206A78
:103C40004FF0FF32294601F043FA50B1A16911B992
:103C5000A5613046F8BD206A2A4601F039FA0028ED
:103C6000F6D100263046F8BD94F8333043F04003D7
:103C700084F83330ECE700BF90F833309A0736D53C
:103C8000C16970B50546A1B90024214607E0037853
:103C900003F07F03037095F830308B4229D3012263
:103CA0002846FFF743FB0134E1B20028EFD10020A2
:103CB00070BD5B06006A34D5D5E9022490F845341E
:103CC0000933013ADBB244F1FF34C3F1200CDA408E
:103CD00004FA0CFC203B24FA03F342EA0C021A43D8
:103CE0000132002301F0F6F80028CDD1DFE70020F3
:103CF00070472C6A002385F8313085F83330204630
:103D000004F080FD0028D2D004F5047004F07AFDA0
:103D10000028CCD0D4F840040368BDE870401B6A8A
:103D2000184701F0F5F90028AED1C0E790F831301E
:103D3000DB0601D40020704710B5002288B00023B4
:103D40000446FFF793FC08E020281BD19DF90030C2
:103D50009DF80020002B15DB32B120226946204659
:103D6000FFF798FB0028EFD194F83330082243F096
:103D7000020384F8312084F833302046FFF77CFFBB
:103D800008B010BD002008B010BD00BF2DE9F04103
:103D90004FF00008494F82B0064644464146002293
:103DA0003046FFF7C3FA054630B10078C02867D027
:103DB000C1282BD0852809D096F8323043F0010372
:103DC000002086F8323002B0BDE8F08196F831303C
:103DD00003F03703AB803B6883B10DF103020DF1B3
:103DE000060101A89847BDF80630AB812B82BDF8CB
:103DF0000430EB816B829DF803306B75326A92F868
:103E0000103243F0010382F8103228780146002274
:103E100002E01F2A0FD8A95CE30343EA540311FA16
:103E200083F3012A9CB202F10102F2D1852814BF6A
:103E300002220422EFE796F8303008F101085FFA19
:103E400088F18B42ABD2306A012206F1240101F0E5
:103E5000C1F80028B0D0356A4480284604F0D2FC6E
:103E60000028A9D005F5047004F0CCFC0028A3D0EC
:103E7000D5F8400403681B6A98470028A3D19BE744
:103E800096F8333013F0400F6B7814BF43F0020301
:103E900003F0FD036B70D6E90423F069316A6861B1
:103EA000C5E90223D6E90223C5E9062391F81032B9
:103EB00043F0010381F810322878A7E734B1FF1FDF
:103EC00038B590F8313043B390F9332090F833305F
:103ED000002A04460CDB056A284604F093FC78B9F6
:103EE00094F8323043F0010384F83230002038BDBA
:103EF00003F07F0380F83330BDE83840FFF746BF5A
:103F000005F5047004F07EFC0028E9D0D5F84004E3
:103F100003681B6A98470028E2D0012038BD00BF23
:103F200070B590F831305A0605464CD480682B6A3B
:103F3000D3F83C341844B0F1806F01D3002070BD39
:103F40002846FFF74FFE0028F8D0286AAE6990F89F
:103F50004524D0F82C34023E96401E4400243119EA
:103F6000052200F5047004F075FC01344FF4007272
:103F700000210028E2D009F087FA286A90F8452449
:103F8000012393409C42EAD395F831305B0615D467
:103F900095F83330AA6863F07F0385F83330D0F8A2
:103FA0003C142B69E8685218AA606A6940F1000065
:103FB0005B1842F10002C5E90432E8602846BDE81A
:103FC0007040FFF77DBF006A01F0A6F9AFE700BFC0
:103FD00030B5044690F831009DB0002510F0180F60
:103FE0000C951A9503D00B6A206A984202D00020E3
:103FF0001DB030BD40F601236846FFF771FD002873
:10400000F5D0342221460EA805F030F909AA07CAD6
:1040100004F1240383E8070094F833309DF830C09E
:1040200084F830C063F07F03204684F83330FFF714
:1040300047FF0028DBD0022208230EA815958DF833
:104040006B208DF86930FFF717FED1E738B591F88E
:10405000313013F0500F02D10025284638BD40F60C
:1040600002230446FFF772FB0028F5D0102384F8E2
:1040700031302046FFF754FF05460028ECD0A369F5
:10408000E361002200232046FFF7F0FA94F8313074
:10409000C12284F83320002BDFD0412384F8333051
:1040A0002046BDE83840FFF771BE00BFF0B50446BA
:1040B00097B01F4694F8313001920020ADF81400FB
:1040C00014907BBB91F8313013F0500F0D4629D07E
:1040D00013782F2B114619D127E0019E3678002E38
:1040E00031D0FFF733FB034602AA294620461BB90D
:1040F000C7B1FFF7ABFFA8B12146342208A805F0ED
:10410000B5F82046FFF730F9019908AD01AB02AAD6
:104110002046FFF76BF90646002302AA29462046EF
:10412000002EDAD1002017B0F0BD013101910B78DB
:104130002F2BFAD0296A08A8FFF744F90028F1D0FC
:10414000019908ADE2E702AAFFF780FF17B0F0BDC2
:104150002DE9F04F90F8314083B024079DF830707E
:104160009DF834909DF838A09DF83C8057D5A2F278
:10417000BC7294B27F2C52D85A1E0B2A01934ED88F
:104180007A1E1E2A4BD8B9F1170F48D8BAF13B0F47
:1041900045D8B8F13B0F42D805460E46FFF790FED2
:1041A00000283CD0019B47EA431747EA44244FEAE2
:1041B000580747EA4A1747EAC9274FF0000A18F09C
:1041C0000108A4B2BFB218BF4FF06408D3465146ED
:1041D00006F0010900222846FFF7A8F8F8B1017897
:1041E000852946D001F14003DBB2012B17D88C465C
:1041F000002203E01F2A16D810F802C04FEACB3382
:1042000043EA5B031CFA83F3012A1FFA83FB02F1E2
:104210000102EFD1852914BF02220422ECE700201D
:1042200003B0BDE8F08F95F830300AF1010A5FFA6B
:104230008AF18B42CED2286A012205F1240100F0D6
:10424000C9FE0028EBD02C6AA0F802B0204604F08A
:10425000D9FA0028E3D004F5047004F0D3FA00285A
:10426000DDD0D4F8400403681B6A03B0BDE8F04F0A
:10427000184795F831302A6A03F03703838092F8A3
:10428000103243F0010382F81032B9F1000F01D06F
:1042900007824482B20703D580F8148007814481E5
:1042A0007307017842BF80F815808781C4819EE73B
:1042B00090F833309A0764D570B5C56982B004466A
:1042C000002D35D013F0400635D0006AA26890F872
:1042D00045C4E1680CF1090C5FFA8CFC013A41F12C
:1042E000FF31CCF1200E22FA0CF201FA0EFEACF1F5
:1042F000200C21FA0CFC42EA0E02A16942EA0C02EF
:10430000013221B3013D6D1A01312A440191002A85
:104310002ED1D4E9000163F07F03C4E90201C4E9AE
:10432000040184F833302046FFF7CAFD02B070BDA7
:10433000012002B070BD816961B90195C161206A37
:10434000294600F0E5FEC8B194F83330E1E7019565
:10435000E161DCE7006A019601AA00F099FE0028FD
:104360000CDB10D1019D002DE9D194F83330D0E75A
:104370000199002300F0AEFD0028E5D1002002B035
:1043800070BD00207047A169206A4FF0FF3200F035
:104390009FFE0028E6D1F1E72DE9F84390F833308D
:1043A0009D07044640F1A28017461A070E4600F109
:1043B0009680002F00F0288123683D46206AA1697D
:1043C000D0F8382402EA0309C9F30808B9F1000F4C
:1043D00040F09580002900F0D58094F833305B06DA
:1043E00040F1ED80D4E9023290F845C40CF1090C9B
:1043F000013B5FFA8CFC42F1FF32CCF1200E23FA34
:104400000CF302FA0EFEACF1200C22FA0CFC43EA8B
:104410000E03E26943EA0C031344994280F0D6800C
:104420000131A16190F84524D0F82C340239914033
:104430001944B5F5007FC0F08D80B5F5806FC0F0F0
:10444000A78001239340A3EB09036A0A934228BF84
:104450001346D0F81C228A424FEA43290AD303EBC1
:10446000010C624506D2002280F810224FF0FF3284
:10447000C0F81C22D0F814020268D2F82880324614
:10448000C04798B34B46D4E900125B1821696069B4
:1044900042F1000299429041C4E900324E44A5EB3A
:1044A000090507D294F83310236161F07F0184F885
:1044B00033106261002D81D1D4E90201984291410B
:1044C000C0F09580524B1B68002B00F09B8094F845
:1044D000333063F07F03384684F833300DE0D0E9A1
:1044E0000423FFF7C3F800287FF463AF94F8323059
:1044F00043F00103002084F83230BDE8F88390F8DF
:104500004524D0F82C3402394FEA592991404944C6
:104510001944B8F1000F8CD0C8F50079A9454FF0C7
:10452000010200F5047028BFA94604F093F90028A1
:10453000DCD040444A463146C84404F097FEB8F502
:10454000007F206A9ED100F5047004F05BF900281A
:1045500098D1CBE72268D4F810C0636962456268DD
:1045600072EB030312D2012200F5047004F072F919
:104570000028BBD02A463146404404F077FEA946C5
:104580002B4680E7E16949B3A1614BE70522EBE7E0
:10459000D0F81C328B4206D1002380F810324FF045
:1045A000FF33C0F81C32D0F81402036832465B6A4D
:1045B000984700289AD04FF40073994663E704F1B6
:1045C000180200F065FD002890DB04D12046FFF7BB
:1045D00009FB00288AD0A169206A23E72046FFF75B
:1045E00001FB002882D0A169206AE1611AE794F8F2
:1045F0003310A36061F07F0384F83330E260384603
:10460000BDE8F883384678E7D4E9003254E700BFC4
:1046100034B1FF1F69B170B5054608460C4609F074
:104620002FF82B680246214628465B68BDE870409B
:10463000184770478368C3F30803014663B100203D
:104640000A69D0540133B3F5007FF9D1C8680A690B
:10465000036809685B6A184701207047826803464F
:10466000C2F3080200698154586801EB7001986830
:10467000596040F2FF1C01306245986001D0012072
:104680007047D868196810B40468646A4A1C1A60D4
:104690001A69234610BC184738B583680446C3F32B
:1046A00008030069CAB2C2540D46616802EB710288
:1046B000A168626040F2FF1201319342A16005D00F
:1046C000290A2046BDE83840FFF7C8BFE0682168E6
:1046D00003684A1C5B6A2260226998470028EFD170
:1046E00038BD00BFF8B50025C0E900150646856055
:1046F000A8B204F0E1F9A842044607D0C1B230469E
:10470000FFF7ACFF00283BD10020F8BD6C1CB4F5CE
:10471000803F04D12AE00134B4F5803F04D0A0B238
:1047200004F0CAF9A042F6D0671BB7F5007F1DD38D
:104730004FF6FF713046FFF7AFFF0028E4D0B9B263
:104740003046FFF7A9FF0028DED02546B5F5803FAB
:10475000CED13046BDE8F840FFF76CBFC5F3072166
:104760003046FFF77BFF01350028CDD0A542E9B2E6
:104770003046EBD2FFF772FF0028EFD10020F8BDE2
:10478000C4F307213046FFF769FF0028BCD001358C
:10479000DCE700BF2DE9F04F0F4689B009680490AF
:1047A0001546CA69C7600561384698469047B0F516
:1047B000801FC0F0C0800646002301220133DBB217
:1047C000202B4FEA420200F0C1809642F6D81C2B03
:1047D00000F2BC801A2B4FF0080A00F237824FF427
:1047E000804301934FF4004303934FF48073079386
:1047F0004FF40053CDF808A00693039B0298019C48
:10480000F31AC34003FA00F94FF40072002128465E
:10481000059308F039FEFF2385F8C43185F8C531CA
:10482000072385F8C231A144FE230194C5F8C6418F
:10483000012485F8BF4185F8C04185F8C3313B6844
:10484000C5F8CA914AF6552B5B6AA5F8FEB12A460F
:1048500000213846984700285ED04FF400720021AE
:10486000284608F011FE019B2B64AB65059BEB65A8
:1048700020232B726B72AB72EB232B7076236B7041
:104880009023AB704523EB7058232B7146236B713B
:104890004123AB715423EB7104232B664FF48073D7
:1048A000A5F868300923069A85F86C3080236E6677
:1048B0002A656A65C5F848904FF4C37285F86DA003
:1048C00085F86E4085F86F30F42105F1780008F026
:1048D000DBFD0026A5F8FEB16A1E00E00134A4F15C
:1048E0006B03012BFAD9712CF8D0135DB4F5007F5E
:1048F00003EB7606F2D13B68DDF804905B6A2A464A
:1049000049463846984738B13B682A465B6A09F100
:104910000C013846984780BBB8F1000F06D0D8F894
:104920000030B6495B680F22404698470024204675
:1049300009B0BDE8F08FB8F1000FF7D0D8F800301B
:10494000AF495B68152240469847E8E7A3F10B0A98
:104950004FEA6A0101228A400291CAF3470A07928C
:1049600001335B1001229A40069204229A4003927E
:10497000022202FA03F301933FE722460021284670
:1049800008F082FD4AF65523A5F8FE3109F1010A27
:1049900009F1090B002305F2FF192C4601E014F878
:1049A000013FA14503EB7606F9D13B682A465B6AD5
:1049B0005146384698470028AED03B682A465B6A85
:1049C0000AF10C01384698470028A5D00AF10103E6
:1049D0009B4502D09A462B78DFE74FF40072002106
:1049E00028469B4608F050FD00220AF1030A1146B2
:1049F0002B4601E013F8011F9C4201EB7606F9D12A
:104A00003B682A465B6A594638469847002883D057
:104A10003B682A465B6A0BF10C0138469847002830
:104A20003FF47AAF0BF101018A4564D12B1F05F5E4
:104A3000FE7243F8046F9A42FBD13B682A465B6AD8
:104A40003846984700283FF467AF3B680BF10D01EB
:104A50005B6A2A463846984700283FF45DAFB8F1B4
:104A6000000F06D0D8F8003066495B680C2240463B
:104A70009847019BDDF81890DFF88CB19944059BAD
:104A80004FF40072002128469E0008F0FDFC2846E5
:104A9000F82306F2072600F8013B1322FF214FEA14
:104AA000562A08F0F1FCB60B002402E00134A245BE
:104AB00024D0B4FBF6F306FB13434BB90122B8F143
:104AC000000F05D0D8F8003059465B68404698473B
:104AD0003B6809EB04015B6A2A4638469847002880
:104AE0003FF41AAF002CE1D121464FF40072284662
:104AF00008F0CAFCDAE78B46297879E7B8F1000FAD
:104B00002BD0D8F8003041495B68022240469847D4
:104B1000059C079A0734E40804F2FF13B2EB532F05
:104B20004FEA5329FFF4FBAE4FF4007200212846F0
:104B300008F0AAFC07232B70002604E006B92E70AB
:104B40000136B14516D9039A3B68B1185B6A2A460B
:104B5000384698470028F1D1DEE6059C079A0734CD
:104B6000E40804F2FF13B2EB532F4FEA5329FFF48A
:104B7000DDAED9E7B8F1000F77D0D8F8003024497E
:104B80005B68162240469847039B079A0498991839
:104B9000FFF7A8FD00283FF4C2AE029A4FF400735D
:104BA0009340049A92689A423FF6B9AE194940463A
:104BB000FFF730FD029B4FF0020909FA03F6039B51
:104BC0004FF40072002128461E4408F05DFC81224B
:104BD000032385F820200499C5F8349082222B7095
:104BE00085F840204A686A646B658B68AB65002372
:104BF000013EAC63EB654FF0010912E048DE0000B6
:104C0000E4DD0000FCDD00000CDE000024DE00001E
:104C100010DE000028DE0000079B99451CD209F138
:104C200001093B6806EB09015B6A2A46384698474A
:104C3000044600283FF470AEB9F1010FECD14FF4F7
:104C400000720021284608F01FFCE8E74FF480724C
:104C50000792CDF808A083E6B8F1000F3FF467AEE5
:104C60000B494046FFF7D6FC61E6039B079A049880
:104C70009918FFF737FD00283FF458AE029A4FF419
:104C800000739340049A92689A4293D94EE600BF0B
:104C900038DE00002DE9F0410C46154601F11E08F2
:104CA000AB8934F8027F28461BB96A68AB689A4220
:104CB0000ED003F0F7FD03F0FFFE0646384603F082
:104CC000FBFE864209D14445EAD10120BDE8F081CE
:104CD000B7FA87F04009BDE8F0810020BDE8F08117
:104CE0002DE9F04F90F8313083B08846002B4ED03C
:104CF00090F83030012B074651D9013ADFF8A4B0C3
:104D00000B464FF0020A8E18002400225146384606
:104D10000193FEF70BFB0546C8B30278C12A36D1D2
:104D2000019B00F11E0935F8020F24B300F5105263
:104D300092B2B2F5806F2AD20BEA8424C0F3090044
:104D4000204300F580301946324603F021FE034629
:104D5000E8B100244D45E6D197F830200AF1010A68
:104D60005FFA8AFA5245D0D2A3EB08009846002396
:104D700088F800300EE000F5205292B2B2F5006FD4
:104D800002D30028DFD1EFE7B2F5806F05D3002012
:104D900088F8000003B0BDE8F08F0446DAE7002091
:104DA000E5E700BF00FC0F0070B50C460A686260C2
:104DB00000231946A38123611E464FF6FF7517E0B5
:104DC00003F070FDA84222D003F076FEF30343EA1D
:104DD000560353FA80F399B22269C3F34E0343EAB0
:104DE000C133000A10FA83F30132A18922619EB215
:104DF00020460029E4D16268A3689A42E0D1206984
:104E0000A6820138FE288CBF0020012070BD002042
:104E100070BD00BF2DE9F84F074691468A4600292C
:104E200042D0D7F83034A1F10208434542D908F006
:104E3000070301259D40C8F3C80BEDB24646444622
:104E4000D7F82C14002201EB1431384603F002FD90
:104E5000E8B10BF1FF3B834400F2FF101BF8011F88
:104E60000AE04A452BD0A04510D0D7F83054A542CF
:104E700014D913F0FF050CD0013429424FEA450341
:104E8000A4EB0602EDD0A0452646EED10120BDE8F8
:104E9000F88F58454FF00105E0D101E00026344677
:104EA00001254FF0000BCBE7D0F82084D7F8303441
:104EB0004345BCD84FF000080125C346BEE7BAF110
:104EC000000F04D1B9F1010F08BFC7F82064B01C6E
:104ED000BDE8F88F2DE9F843154698468A1ED0F8AC
:104EE0003034511999423AD80646B8F1000F39D1F9
:104EF000D0F82034934288BFC0F82024D6F82C7410
:104F000002F0070301249C4007EB1231C2F3C809E9
:104F1000E4B2012230468F1803F09CFCF8B109F18D
:104F2000FF3E864400F2FF101EF801CF1CEA040F7A
:104F300014BF0122002242458CEA040C4FEA4404CB
:104F40000DD0013D8EF800C018D014F0FF04EDD153
:104F50007045A1464FF00104E6D13946D9E700205B
:104F6000BDE8F883D0F820049042C7D38142C5D968
:104F7000994228BF0021C6F82014BFE70120BDE8F0
:104F8000F88300BFF8B5D0F8303401338B4201D23A
:104F90000020F8BD07460C4600F50476002506E023
:104FA000D7F830340133A34205F10105F0D3D7F827
:104FB0002414002201EBD411304603F04BFCA40072
:104FC000C4F308040028E3D00459631CE8D1681C2A
:104FD000F8BD00BF38B50C460B6890F845C4D0F852
:104FE00038146568023B294003FA0CF303EB5123A4
:104FF000D0F82C1400F50470194403F02BFC18B100
:105000006368C3F30803184438BD00BF2DE9F843B3
:10501000D0F838340C4649680B401144616090F870
:105020004514134401F10902D2B2D3402BB3804698
:105030005D1E00F5047905E02368013D03F10103DD
:1050400023601AD3267A002EF6D1D8F83034276898
:1050500001339F423246484612D8D8F8241401EB57
:10506000D71103F0F7FBBF00C7F3080740B1C359DE
:105070005A1C09D0013D2360E4D20120BDE8F88329
:105080004FF0FF30BDE8F8833046BDE8F88300BF3D
:1050900038B5D0F8303401338B4202D24FF0FF30B4
:1050A00038BD0C46D0F82414154601EBD41100226B
:1050B00000F5047003F0CEFB0028EFD0A400C4F389
:1050C000080403595A1C1ABF2B600120002038BD68
:1050D00001291BD938B5D0F8303401338B420C4646
:1050E00001D2002038BDD0F82414154601EBD411AC
:1050F000012200F5047003F0ADFB03460028F0D058
:10510000A400C4F3080401201D5138BD00207047DD
:10511000D0F830340133994201D9002070472DE98D
:10512000F04F054681B00C4600F504790F464FF06C
:105130000008D5F82414002201EBD411484603F0EE
:1051400089FBE30998B14FEA840BCBF3080B50F8C5
:105150000B20511C16BF16464FF0000A4FF0010AF3
:10516000012C04D9D5F830240132944203D900200F
:1051700001B0BDE8F08FD5F8241401221944484647
:1051800003F068FB0028F2D040F80B80BAF1000F62
:1051900012D00134B44208D00023E21B394628461D
:1051A000FFF798FE0028E2D03746D5F830340133B7
:1051B000B342DCD33446BCE7621C5346D21B3946AB
:1051C000284601B0BDE8F04FFFF784BE2DE9F84353
:1051D000D0F82C140025064600F504782C46002251
:1051E00040464F1C03F036FBB0B100F1FF3E04F522
:1051F0008059D6F8300405E081B9083484420AD2D7
:105200004C4517D01EF8011FFF29F5D10834844200
:1052100005F10805F4D3401BBDE8F88308220123FB
:1052200019424FEA430C18BF0135013A5FFA8CF37B
:10523000F6D1E2E73946D2E7F8B5044600234FF04D
:10524000FF3004F50477C4F840146160E060C4F8EE
:105250001412C4F81C02154684F84434237084F8F0
:1052600010321A461946384603F0F4FA042D0CD8C9
:10527000064650B15DB927490522F01C08F056F9E1
:1052800018B996F86C30092B19D00020F8BD6B1EA8
:1052900000EB031393F8BE2112F07F02F5D193F8CF
:1052A000C231002BF1D000EB05163846D6F8B651C6
:1052B000294603F0CFFA06460028DCD1E5E7336D36
:1052C0002B44C4F82434736DC4F82834B36D2B44D4
:1052D000C4F82C34F36DC4F83034336EC4F834346D
:1052E00096F86D2084F84524012502F1090305FA9A
:1052F00003F3C4F83C34013BC4F83834C4F8200448
:1053000001462A462046FFF785FD402384F84434B1
:105310002846F8BD58DE000010B50446D0F8341415
:10532000FFF730FE94F845340933DBB2984010BDE6
:1053300070B590F90230002B82B004460DDBA568F1
:1053400005F1280003F05EFA00283BD1637843F0B2
:1053500001030020637002B070BD8068A169012262
:10536000283003F077FA0028F0D0A58805F00F0563
:105370006B0100EB4515C35CE52BE7D02378184A99
:105380001B0744BFE369EB61236A16686B831A0C41
:10539000AA8266B10DF103020DF1060101A8B04722
:1053A000BDF80430BDF806202B836B82EA82A37817
:1053B000A56803F07F03A37005F1280003F022FA2B
:1053C0000028C3D005F50E7003F01CFA0028BDD0EC
:1053D000286803681B6A98470028B7D0BBE700BF5E
:1053E00034B1FF1F024638B552F8105F0446294613
:1053F000806801F0D9FF50B155B123690135AB4246
:10540000A37818BF03F0BF0363F07F03A37038BD18
:10541000A37843F04003F7E7F8B5047814F02004CC
:1054200004D11A4B42699A42054602D300273846F6
:10543000F8BDFFF7D7FF07460028F7D0A8682E6908
:1054400082794369023E96401E440379ABB12146FE
:1054500006E008F019F8A8680379E1B28B420BD98D
:1054600031440522283003F0F5F901344FF400727D
:1054700000210028EDD1D9E7827969694FF40073E2
:10548000934011FA83F36B613846F8BD00FE1F00AC
:1054900010B5044680680A462830A16903F0DAF99D
:1054A00020B1A38803F00F0300EB431010BD00BF31
:1054B00010B5037804462BB1FFF73AFF00232370A1
:1054C000A37010BD00232370A370012010BD00BF86
:1054D00038B5037804460D4613B1FFF729FF88B1AC
:1054E000A068A1690022283003F0B4F950B1A38864
:1054F00003F00F0300EB43112022284603F0B6FE11
:10550000012038BD002038BD30B589B00D46694650
:105510001446FFF7DDFF28B1BDF81020BDF80E30AE
:105520002A80238009B030BD30B589B00D46694668
:105530001446FFF7CDFF28B1BDF81820BDF816308E
:105540002A80238009B030BD0B7813F0700F01D191
:1055500000207047F0B540F6022389B00D4604469E
:1055600001F060F838B101221023A27023702046A8
:10557000FFF752FF10B9002009B0F0BD237822696F
:1055800022626BB1636933B1A378002223F0200358
:1055900022616261A3702046FFF7CAFE0028EAD0AC
:1055A000A068A1690122283003F054F90028E2D054
:1055B000A38803F00F0300EB43111022CA72684660
:1055C000202203F053FE0A2220210DF1010007F0F2
:1055D0005BFFA068216A83790239994043690122FF
:1055E0001944283003F036F906460028C3D02E2788
:1055F000202269468DF8007003F038FE2B6A8DF882
:1056000001701A0CADF81420694606F12000202222
:10561000ADF81A3003F02AFEA46804F1280003F064
:10562000F1F80028A7D004F50E7003F0EBF800287D
:10563000A1D0206803681B6A09B0BDE8F040184794
:105640002DE9F041044694B0984623780192002059
:10565000ADF814000B90002B40D10B7813F0700FB5
:105660000D463BD013782F2B16463BD0002728E061
:10567000019E3678002E4ED000F0D4FF034602AAD9
:10568000294620462BB9B8F1000F27D0FFF75CFF61
:1056900020B3A646BEE80F000DF12C0CACE80F00BD
:1056A000BEE80F00ACE80F002378DEF80020CCF84D
:1056B000002020460BB1FFF73BFE019E2770A7702C
:1056C0000BAD314601AB02AA204601F0EDF80646CB
:1056D00002AA294600232046002EC9D1002014B07A
:1056E000BDE8F0810136019633782F2BFAD0AD68F2
:1056F000242200210BA807F0C7FE0D95EB79102B93
:105700000FD0202BEAD140238DF82C3001238DF8C7
:105710002E300BADAAE702AAFFF716FF14B0BDE8C2
:10572000F0812023F0E700BF2DE9F041044694B05A
:1057300098462378019200200290ADF83800002BA3
:1057400036D10B7813F0700F0E4631D013782F2B13
:10575000154631D000271EE0019D2D78002D41D047
:1057600000F060FFA6460DF1080C08B3BEE80F007C
:105770006646ACE80F00BEE80F00ACE80F002578E5
:10578000DEF80030CCF8003020460DB1FFF7D0FD38
:10579000019D2770A770294601AB0BAA204601F096
:1057A00083F805460BAA314600232046002DD3D1AD
:1057B000002014B0BDE8F0810135019529782F292A
:1057C000FAD0B1B9B5682422204607F05DFEA56085
:1057D000EB79102B23D0202BEAD14023012023701A
:1057E000A070E6E743460BAA00F01CFF14B0BDE82A
:1057F000F081B6682422002102A807F045FE049635
:10580000F379102B09D0202BD2D140238DF808300A
:1058100001238DF80A3002AE9CE72023F6E720230F
:10582000DCE700BF19B101F58961FFF77DBF0846CC
:10583000704700BFCB6870B50D460446A3B9067823
:105840000EB1184670BD8D682422314607F01CFE4B
:10585000A560EB79102B17D0202B13D14022012308
:105860002270A370184670BD2422002107F00CFEA0
:10587000012310222270A370A968EA682262A16045
:10588000184670BD304670BD2022E8E770B5047838
:105890000CB1002070BD05460E462422214607F0BB
:1058A000F3FDAE60F379102B09D0202B05D14023F6
:1058B00001242B70AC70204670BD204670BD2023A3
:1058C000F6E700BF2DE9F04F8378DF0785B0054686
:1058D00040F18C80884601780E07924600F18F8057
:1058E0008C0608D583685A894369C3EB42139BB27F
:1058F0009A4528BF9A46BAF1000F00F0AC806A6959
:10590000AF6805F11003880656464FF00009019371
:10591000C2F3080B3DD5396A01EB5221BBF1000FF0
:1059200051D1B6F5007F4ED37A6B91424BD0B6F58C
:10593000806F6DD3287880064FEA562305D43879D6
:10594000A0EB0900834228BF034691424FEA43245B
:105950000CD8C818824209D207F12800039302919B
:1059600002F050FF0299039B00283FD0F86A0268BA
:1059700057694246B847002838D06A69361B224426
:10598000A0446A6167D02978AF688806C2F3080B23
:10599000C1D497F8059009EA5229BBF1000F35D11F
:1059A000B9F1000F32D1002A3CD14A064CBF3A6A05
:1059B0002A6A2A61B9797869023A8A4048441118FA
:1059C000BBF1000FADD0CBF50074B4424FF0000234
:1059D00007F1280028BF344602F03CFF30B100EB4D
:1059E0000B012246404603F041FCC6E76B784FF0BE
:1059F000FF3043F002036B7005B0BDE8F08FC36960
:105A000042699B1A9A4528BF9A4674E72A69D1E7EA
:105A1000F86A036842461B6998470028E6D04FF4AD
:105A20000074AAE70B0705D5AA78540602D52A699F
:105A30000132BEE72969019A384601F001FD0028CC
:105A4000D4DB02D0AF682A69B4E72B7813F0700F6B
:105A5000CCD0AAEB060A504605B0BDE8F08F00BFD7
:105A600070B582B001220DF107010446466905694F
:105A7000FFF728FF012808BF9DF80700666118BFDF
:105A80004FF0FF30256102B070BD00BF30B54369F3
:105A900013F4F07F83B00446C3F3431500D089B9F3
:105AA00001220DF107012046FFF70CFF40B201284B
:105AB0000BD163691F336361A068383000EB451078
:105AC00003B030BD20334361F6E7002003B030BDA2
:105AD000F0B503789BB0002613F0180F08961196C6
