:1000000000800020BD01000065340000293400009C
:10001000293400002934000029340000293400006C
:100020002934000029340000293400006534000020
:100030006534000029340000414E0000314F0000BB
:10004000653400006534000065340000653400004C
:10005000653400006534000065340000653400003C
:10006000653400006534000065340000653400002C
:10007000653400006534000065340000653400001C
:10008000653400006534000065340000653400000C
:1000900065340000653400006534000065340000FC
:1000A000C1310000D131000065340000653400002A
:1000B00065340000653400006534000065340000DC
:1000C00065340000653400006534000065340000CC
:1000D00065340000653400006534000065340000BC
:1000E00065340000653400006534000065340000AC
:1000F000653400006D5D000065340000B15E0000F5
:1001000065340000F55F00006534000065340000D0
:10011000653400006534000065340000653400007B
:10012000653400006534000065340000653400006B
:10013000653400006534000065340000653400005B
:10014000653400006534000065340000653400004B
:10015000653400006534000065340000653400003B
:1001600065340000553A0000653400006534000035
:10017000653400006534000065340000653400001B
:10018000653400006534000065340000653400000B
:1001900065340000653400006534000065340000FB
:1001A00065340000653400006534000065340000EB
:1001B0006534000065340000914C0000564B4CF251
:1001C000205210B51A804DF628121A8000BF00BFC9
:1001D00003F04CF9514B4FF010621A60504A9A608C
:1001E000504ADA60504A136813F4807304D14F49BF
:1001F0000B604FF4A85313604D4B1A78110703D5C9
:100200001A7842F008021A704A4B4B492A221A7097
:100210004A4A4B4B8B4204D252F8040F43F8040B6A
:10022000F8E7484B484900228B4202D243F8042B9E
:10023000FAE74649464A002352F8230041F82300D2
:1002400001336F2BF8D1434B434A802103F8011B44
:100250009342FBD1414B3D4A1A60414B8A221A70AE
:10026000A3F5805324225A70A0221A709A7992071B
:10027000FCD59A79D406FCD43A4A937903F00C035E
:10028000082B384BF9D105221A7143225A719A79F9
:100290009006FCD5334A9179324B4906FBD5324A58
:1002A0004FF0817111600521516020221A709A79F6
:1002B00002F00C020C2AFAD12C4B2D4A1A602D4B5D
:1002C0002D4A1A6000225A60072243F8042C2B4A58
:1002D000C3F80C2D62B603F095FA144B1B68DA07CD
:1002E00005D5274803F052F9264B274A1A60274BB9
:1002F0001B785B0609D5234C234B22689A4204D114
:100300001F4803F043F90023236006F0BFF903F010
:10031000B3F804F0BFFEFEE70E2005403080044035
:10032000823F04000100002B10D0034014D0034092
:1003300002D0074000E00740E4A8FF1FF07500006E
:10034000989BFF1FE4A8FF1FB8B1FF1F0090FF1F7D
:100350000000000000E400E05FE400E008ED00E0E1
:1003600000500640004006404480044004800440A1
:10037000C010050014E000E03F190100000020203B
:100380004424045D1CE00340A5C3945A00F00740D8
:10039000FFFFFFFFFFFFFFFFFFFFFFFFFFFFFFFF6D
:1003A000FFFFFFFFFFFFFFFFFFFFFFFFFFFFFFFF5D
:1003B000FFFFFFFFFFFFFFFFFFFFFFFFFFFFFFFF4D
:1003C000FFFFFFFFFFFFFFFFFFFFFFFFFFFFFFFF3D
:1003D000FFFFFFFFFFFFFFFFFFFFFFFFFFFFFFFF2D
:1003E000FFFFFFFFFFFFFFFFFFFFFFFFFFFFFFFF1D
:1003F000FFFFFFFFFFFFFFFFFFFFFFFFFFFFFFFF0D
:10040000FFFFFFFFFFFFFFFFFFFFFFFFDEF9FFFF23
:1004100010B5054C237833B9044B13B10448AFF33E
:1004200000800123237010BDE4A8FF1F000000001E
:10043000F4750000084B10B51BB108490848AFF32C
:1004400000800848036803B910BD074B002BFBD0A0
:10045000BDE81040184700BF00000000E8A8FF1FDB
:10046000F4750000E4A8FF1F00000000704700BF03
:1004700010B5044604F0C2FB204610BD70B508213B
:10048000304804F089FA304C204601F01FF9402131
:10049000204601F0CFF900221146204601F008FA6B
:1004A0000D21204601F012FA022400252946E0B26F
:1004B00003F0AEF80134082CF8D10021112003F02C
:1004C000A7F80021142003F0A3F80021152003F061
:1004D0009FF801210E2003F09BF801210F2003F06B
:1004E00097F81A4D022405262146284600F094FF6D
:1004F0003146284600F0A6FF08350134082CF3D118
:10050000134CA06C0368DB6947F61221984700235F
:1005100084F84C3084F84E3084F84D30A365636520
:100520004FF6FF72E265226684F8E93084F866309F
:1005300084F8653084F8673084F86830032384F8E1
:10054000643070BD0082FF1F00A9FF1F94AAFF1F27
:100550000CA9FF1F2DE9F0419DF81840013CE4B2C1
:100560000F2C37D84FFA81FEBEF1000F32DA1F464A
:1005700016460D468046E0291CD8806C04F00F0416
:100580004EEA040103681B68C9B29847D8F84800CE
:1005900003681B6806F07F01984705F0EF01C0294A
:1005A00018D0D8F8480003681B6807F07F01984707
:1005B000BDE8F081F7290DD9A1F1F803072B09D87F
:1005C000DFE803F00408040404080404806C0368F2
:1005D0001B689847BDE8F08138B50446806C036815
:1005E0001B699847002800F08681A06C03685B694E
:1005F0009847C3B203F0FB02F92A00F07E81A26D96
:10060000002A40F0C58084F84F3094F84D2012F055
:10061000800F22D002F10C01C9B201291DD902F0CC
:10062000FB01F92919D0EF2A94BF02F0F00111461D
:1006300001F0EF05802D07D0A02D05D0D02903D0E3
:10064000E02901D0C02908D110F0800F05D184F82D
:100650004F2084F850300123A36594F84F3013F0F5
:10066000800F72D003F10C02D2B2012A6DD903F0CF
:10067000FB02F92A69D0EF2B00F2418103F0F0026E
:10068000A2F180017F2960D8DFE801F0535F5F5F4E
:100690005F5F5F5F5F5F5F5F5F5F5F5F535F5F5F76
:1006A0005F5F5F5F5F5F5F5F5F5F5F5F535F5F5F66
:1006B0005F5F5F5F5F5F5F5F5F5F5F5F535F5F5F56
:1006C0005F5F5F5F5F5F5F5F5F5F5F5F505F5F5F49
:1006D0005F5F5F5F5F5F5F5F5F5F5F5F505F5F5F39
:1006E0005F5F5F5F5F5F5F5F5F5F5F5F535F5F5F26
:1006F0005F5F5F5F5F5F5F5F5F5F5F5F565053503D
:100700005F5F415F415F4141415F41411A4684F86B
:100710006620002384F8653084F8673084F86830F8
:10072000012084F8E900A365636538BD0222626593
:10073000F2E103226265EFE180226265002284F823
:100740004D20F02284F86920E6E10020A065606574
:1007500084F84D0038BDEF2B94BF03F0F0021A4629
:1007600084F8662003F00F03013384F8653094F8B1
:10077000503084F86730002384F86830A3656365DF
:10078000012084F8E90038BD0131A165002038BDA1
:1007900010F0800F39D0C0B2F738082835D8DFE81C
:1007A00000F01205340505053405050084F86630AF
:1007B000002384F8673084F8683084F865300120BD
:1007C00084F8E90038BD94F86930F02B17D1531C38
:1007D0002244F72182F86910F02284F8662084F818
:1007E00067301B0A84F86830002384F865300120E4
:1007F00084F8E900A365636584F84D3038BD0020B6
:10080000A065606584F84D0038BD94F84F10F0295C
:1008100007D1A11881F86930636D013B9A4266D314
:100820000AE0A11881F84F30616D4B1E9A425ED3E9
:1008300094F84F20F02A05D10020A065606584F867
:100840004D0038BD12F0800F00F0628102F10C0300
:10085000DBB2012B40F25C8102F0FB03F92B00F0CC
:100860005781EF2A94BF02F0F003134684F86630F4
:1008700003F0EF00802807D0A02805D0D02B03D0AC
:10088000E02B01D0C02B05D102F00F00013084F81D
:10089000650002E0002084F8650094F8500084F8B8
:1008A000670003290CBF94F85110002184F86810E8
:1008B0000021A1656165012184F8E910B02B0DD0FC
:1008C00006D8902B0AD0A02B08D0802B0AD105E0A7
:1008D000D02B03D0E02B01D0C02B03D184F84D20C6
:1008E000012038BD002384F84D30012038BD01328D
:1008F000A265002038BD002038BD002038BDA3F11E
:1009000080027F2A3FF621AF01A151F822F000BFFB
:10091000330700004B0700004B0700004B070000A7
:100920004B0700004B0700004B0700004B0700007F
:100930004B0700004B0700004B0700004B0700006F
:100940004B0700004B0700004B0700004B0700005F
:10095000330700004B0700004B0700004B07000067
:100960004B0700004B0700004B0700004B0700003F
:100970004B0700004B0700004B0700004B0700002F
:100980004B0700004B0700004B0700004B0700001F
:10099000330700004B0700004B0700004B07000027
:1009A0004B0700004B0700004B0700004B070000FF
:1009B0004B0700004B0700004B0700004B070000EF
:1009C0004B0700004B0700004B0700004B070000DF
:1009D000330700004B0700004B0700004B070000E7
:1009E0004B0700004B0700004B0700004B070000BF
:1009F0004B0700004B0700004B0700004B070000AF
:100A00004B0700004B0700004B0700004B0700009E
:100A10002D0700004B0700004B0700004B070000AC
:100A20004B0700004B0700004B0700004B0700007E
:100A30004B0700004B0700004B0700004B0700006E
:100A40004B0700004B0700004B0700004B0700005E
:100A50002D0700004B0700004B0700004B0700006C
:100A60004B0700004B0700004B0700004B0700003E
:100A70004B0700004B0700004B0700004B0700002E
:100A80004B0700004B0700004B0700004B0700001E
:100A9000330700004B0700004B0700004B07000026
:100AA0004B0700004B0700004B0700004B070000FE
:100AB0004B0700004B0700004B0700004B070000EE
:100AC0004B0700004B0700004B0700004B070000DE
:100AD000390700002D070000330700002D07000034
:100AE0004B0700004B0700000D0700004B070000FC
:100AF0000D0700004B0700000D0700000D07000068
:100B00000D0700004B0700000D0700000D07000057
:100B1000002384F86630BDE6A16D626D013A8A4219
:100B20003FF632AE17E600BF08B590F86630803B5E
:100B30007F2B00F21D81DFE813F080001B011B01F9
:100B40001B011B011B011B011B011B011B011B01C5
:100B50001B011B011B011B011B018C001B011B0145
:100B60001B011B011B011B011B011B011B011B01A5
:100B70001B011B011B011B011B01CF001B011B01E2
:100B80001B011B011B011B011B011B011B011B0185
:100B90001B011B011B011B011B01B1001B011B01E0
:100BA0001B011B011B011B011B011B011B011B0165
:100BB0001B011B011B011B011B01E3001B011B018E
:100BC0001B011B011B011B011B011B011B011B0145
:100BD0001B011B011B011B011B01DA001B011B0177
:100BE0001B011B011B011B011B011B011B011B0125
:100BF0001B011B011B011B011B01BC001B011B0175
:100C00001B011B011B011B011B011B011B011B0104
:100C10001B011B011B011B011B01EC00FA00000161
:100C20000E011B011B0114011B0198001B019D00FB
:100C3000A200A7001B01AC0018010368002B00F004
:100C4000978090F8682090F8671090F865009847B2
:100C500008BD4368002B00F08B8090F8682090F866
:100C6000671090F86500984708BD036B002B7FD094
:100C7000984708BD436B002B7AD0984708BD836B1B
:100C8000002B75D0984708BDC36B002B70D09847D8
:100C900008BD036C002B6BD0984708BDC368002BC0
:100CA00066D090F8682090F8671090F86500984733
:100CB00008BD8269002A5BD090F86810C90101F470
:100CC0007E5190F8673003F07F031943A1F500517E
:100CD00090F86500904708BD8368002B48D090F8D5
:100CE000682090F8671090F86500984708BD436940
:100CF000002B3DD090F8671090F86500984708BD2C
:100D00000369002B34D090F8671090F8650098477D
:100D100008BDC26962B390F8681090F8673043EA82
:100D20000121802928BF80216930904708BD036ACE
:100D3000F3B190F86700984708BD426AC2B190F8D5
:100D40006830DB0103F47E5390F8670000F07F0009
:100D50001843904708BD836A53B190F867009847DD
:100D600008BDC36A23B1984708BD436C03B19847D7
:100D700008BD00BF90F8643013F0010300F0C48098
:100D800090F8642012F0FE0F00F0BE8070B582B0C3
:100D9000044690F8665085F08002602A35D890F8B5
:100DA0006500884200F0A28094F864305B08022B52
:100DB0000ED0032B19D0012B40F0A48094F868309A
:100DC00094F86720009029462046FFF7C3FB99E07E
:100DD000002940F0978094F8683094F867200090DC
:100DE00029462046FFF7B6FB8CE0B1FA81F35B0998
:100DF000002B40F0878094F8683094F867200090CA
:100E000029462046FFF7A6FB7CE0A5F1F0030F2B57
:100E100078D8DFE803F018563E3077770877087700
:100E2000080808770808A5F1F803072B6AD8DFE857
:100E300003F00469040404690404806C03681B68FB
:100E4000294698475EE090F8686090F8673043EA7A
:100E50000623802B28BF802300F16906002B51D088
:100E600035461E44A06C03681B6815F8011B9847A3
:100E7000AE42F7D146E090F86750806C03681B687B
:100E8000F3219847A06C0368DB6C05F07F0198475D
:100E900038E090F8685090F8673043EAC515806CE8
:100EA00003681B68F2219847A06C03689B6C05F0EF
:100EB0007F019847A06C03689B6CC5F3C6119847E7
:100EC00020E090F867502D0105F0700590F868302B
:100ED00003F00F031D43806C03681B68F1219847E2
:100EE000A06C03681B68294698470BE094F86420BF
:100EF0005208022A3FF46FAF032A3FF479AF012A68
:100F00003FF45CAF02B070BD704700BF2DE9F04FF9
:100F100085B0774C04F130062546284600F094FA57
:100F20000835B542F9D1DFF8F491DFF8F481714F5B
:100F30000025714B03F1060A2646204600F0BAFA56
:100F4000002846D06D4B1B680293029B6C4A1268C6
:100F50009B1A312B3DD96B4B1B6813B9388803F0B2
:100F600089FB684B1B68012B03D1B8F8000003F024
:100F700081FB644B1B68022B03D1B9F8000003F01E
:100F800079FB614B1B685BB9604B13F82530604AF5
:100F900012F825201021009190215E48FFF7DAFA1F
:100FA000594B1B68012B0FD15B4BEB5C524A5371C1
:100FB0001646DFF860B1DBF8480003681B6816F8D6
:100FC000011B98475645F6D101210F2002F0EEFA99
:100FD00034E0304600F076FA00282FD0474B1B68EB
:100FE0000393039B464A12689B1A182B26D9464B3B
:100FF0001B684BB9464B13F82520102300930023A0
:1010000080214448FFF7A6FA3E4B1B6813B9388885
:1010100003F0D4FB3B4B1B68012B03D1B8F8000055
:1010200003F0CCFB374B1B68022B03D1B9F800004F
:1010300003F0C4FB00210F2002F0B8FA0135083498
:1010400009F1040908F104080437062D7FF474AF90
:10105000112002F0CFFA01280CBF012200222A4BF6
:101060001A60142002F0C6FA012803D10122254B90
:101070001A6008E0152002F0BDFA01280CBF022218
:101080000022204B1A600E2002F0B4FA18B9012198
:101090000E2002F08BFA1F4D802695F84C40102C44
:1010A00022D82846FFF798FAF0B195F86630902BD1
:1010B00005D195F8683033B985F8666003E083F0B0
:1010C0008003602B04D895F86530A34200D03CB96A
:1010D0002846FFF729FD21462846FFF74BFEDCE7AF
:1010E00021460C48FFF746FE05B0BDE8F08F00BF73
:1010F00094AAFF1FB0710000989CFF1F00AEFF1F55
:10110000DCAAFF1FC4AAFF1F24AAFF1F80710000D2
:10111000987100000CA9FF1FA09CFF1FE071000048
:10112000C87100002DE9F04782B09F4B9F4A1A60BA
:1011300000225A721A611A72DA609D4B1A681AB943
:10114000994A1A6005E01A465369002BFBD1964B69
:1011500053619548002444618480C4808472954B17
:10116000036004F0B1F8944B904A1A605C721C6101
:101170001C72DC608E4B1A681AB98F4A1A6005E03F
:101180001A465369002BFBD18B4B53618A480024CC
:1011900044618480C4808472884B036000F070FCDA
:1011A000874B824A1A6002225A7203F118021A61AE
:1011B0001C72DC602346183A2046116941F823006E
:1011C0000133517A9942F8DC794B1A681AB97C4A92
:1011D0001A6005E01A465369002BFBD1784B536126
:1011E0007748002444618480C4808472754B036016
:1011F00004F034F9744B6D4A1A6002225A7203F1FA
:1012000018021A611C72DC602346183A20461169E4
:1012100041F823000133517A9942F8DC644B1A6893
:101220001AB9694A1A6005E01A465369002BFBD1C6
:10123000654B5361644E00247461B480F480B472D1
:10124000624B3360304600F00DFE614DDFF858917F
:10125000C5F800906E602C726C72EC602C7428469D
:1012600003F096FC5B4FDFF89C813A4641462846E6
:1012700005F0FAF9584DC5F800906E6001262E72FF
:101280006E72EC602C74284603F082FC3A464146AC
:10129000284605F0E9F9514DDFF81CA1C5F800A07A
:1012A000DFF81C91C5F804902C726C72EC602C7401
:1012B000284603F06DFC3A464146284605F0D4F92D
:1012C000474DC5F800A0C5F804902E726E72EC6010
:1012D0002C74284603F05CFC3A464146284605F04B
:1012E000C3F9404B404A1A600A221A723F4D404BE4
:1012F000AB6485F84C4085F84D4085F84E406C65F0
:10130000AC654FF6FF73EB652B6695F8643033439D
:1013100066F3470385F8643085F8654085F86640D4
:1013200085F8674085F8684085F8E94080222146C5
:1013300005F1690005F092FC2C606C60AC60EC601B
:101340002C616C61AC61EC612C626C62AC62EC6231
:101350002C636C63AC63EC632C646C643A46254983
:10136000284605F081F9244B1B680193019A234B11
:101370001A60234C204600F047F804F1080000F002
:1013800043F804F1100000F03FF804F1180000F0F9
:101390003BF804F1200000F037F804F1280000F0D9
:1013A00033F802B0BDE8F08748AAFF1F7C71000047
:1013B00044AFFF1F98740000F8A9FF1F1C720000C3
:1013C00060AAFF1FA474000028AAFF1F2872000053
:1013D000E0AAFF1F749CFF1F80AAFF1FC8AAFF1F5F
:1013E00010AAFF1F00A9FF1F007200000CA9FF1F19
:1013F000A89EFF1F6D04000000AEFF1FDCAAFF1FA8
:1014000094AAFF1F71040000002202600A2181805B
:101410008271C271704700BF10B582B00446C8B275
:10142000E0710023A37102F0E5F808B10323A37172
:10143000034B1B680193019B236002B010BD00BFEA
:1014400000AEFF1F8180704730B585B00446C0797B
:1014500002F0D0F8003018BF0120A27902F0F703A3
:10146000A371C2F34001884208D0114A1268019268
:10147000019A226083F00203A37114E00C49096809
:10148000029102992568491BA588A9420BD302F055
:101490000102904207D0064A12680392039A226022
:1014A00083F00903A371A079C0F3C00005B030BD7B
:1014B00000AEFF1F807900F00900092814BF00204A
:1014C00001207047807900F00900082814BF00202F
:1014D000012070472DE9F04F00F5807EB1E8A00AA9
:1014E000B2E84015C5EA0643C6EA2544C7EA0845FE
:1014F000C8EA2746C9EA0A47CAEA2948CBEA0C499A
:10150000CCEA2B4AA0E8F8078645E7D1BDE8F04FC2
:1015100070474FF000022DE9F00F00F5807C00BF0E
:10152000B1E8A00AC5EA0203C2EA2544C7EA0205F7
:10153000C2EA2746C9EA0207C2EA2948CBEA0209F9
:10154000C2EA2B4AA0E8F8078445E9D1BDE8F00FCC
:1015500070474FF000022DE9F00F00F5807C00BFCE
:10156000B1E8A00AC2EA0543C2EA0504C2EA074597
:10157000C2EA0706C2EA0947C2EA0908C2EA0B49F9
:10158000C2EA0B0AA0E8F8078445E9D1BDE8F00FEC
:1015900070472DE9F00F089C00F5007B51F8045BC3
:1015A00053F8046BC5EA0647C6EA254952F8045BBE
:1015B00054F8046BC5EA0648C6EA254AA0E8800745
:1015C0008345EBD1BDE8F00F704700BF00207047A6
:1015D0000020704770B506460D46234C037A5B0029
:1015E00084F83B30012384F85E3084F85D30236852
:1015F0001B68C1F307212046984723681B68E9B29E
:10160000204698470021204601F04CFC38BB0123BE
:101610000222317A204601F0CBFC012821D9234651
:1016200094F8382094F83940A2420FD2511CC9B224
:1016300083F838101344187E03028C420BD90A48F1
:10164000023280F838200144087E06E06FF0FF0384
:101650004FF0FF3001E04FF0FF30184370BD002025
:1016600070BD002070BD00BFE49CFF1FF8B50E46A2
:101670001746242908BFC280134C037A5B0084F804
:101680003B30012584F85E5084F85D5023681B6868
:10169000C1F307212046984723681B68F1B2204612
:1016A000984723681B68C7F307212046984723689B
:1016B0001B68F9B2204698472946204601F0F2FB04
:1016C000B0FA80F04009F8BDE49CFF1F38B504462D
:1016D00001250571334801F057FA052002F07CF826
:1016E00044F2600230212046FFF7C0FF6C22262121
:1016F0002046FFF7BBFF4FF4F97228212046FFF781
:10170000B5FF40F622722C212046FFF7AFFF44F2CE
:1017100046423C212046FFF7A9FF40F23712242120
:101720002046FFF7A3FF44F2FF0230212046FFF7D7
:101730009DFF732202212046FFF798FF4FF4C870E7
:1017400002F04AF841F61D522E212046FFF78EFF87
:10175000042211462046FFF789FF4FF498720621B4
:101760002046FFF783FF10220A212046FFF77EFF65
:1017700000220E212046FFF779FF43F63C4210215C
:101780002046FFF773FF47F67F7222212046FFF7BE
:101790006DFF362224212046FFF768FF6572284638
:1017A00038BD00BFE49CFF1F10B5044679B955222F
:1017B0002021FFF75BFF034618B3E28842F00402E2
:1017C00092B224212046FFF751FF034619E0012978
:1017D00016D140F273122A21FFF748FF034680B169
:1017E000882220212046FFF741FF034648B1E288C6
:1017F00022F0040224212046FFF738FF034600E0D0
:101800000023184610BD00BFF8B506460F46154622
:101810001C46FFF7DFFE20EA040040EA05042246EA
:1018200039463046FFF722FF002814BF204600202B
:10183000F8BD00BF38B5054679B90123037147F6F5
:101840007F722221FFF712FFEA8842F0100292B263
:1018500024212846FFF70AFF38BD0C46802994BF93
:10186000C1F18004002403793BB100230371C288D5
:1018700022F010022421FFF7F9FE44EA042222217B
:101880002846FFF7F3FE38BD10B504460846064962
:1018900004F07AFD054904F06FFC04F0C5FE014632
:1018A0002046FFF7C7FF10BD00000143EE7CFF3E5E
:1018B00008B50F2928BF0F210F2A28BF0F2242EA9F
:1018C00001122021FFF7D2FE08BD00BF08B51F2975
:1018D00003D80C2998BF0D2100E01F2141F61F738A
:1018E00041EA01222E21FFF78FFF80B208BD00BF21
:1018F00010B5044603F068FA204610BD08B5034A47
:101900000349044804F0B0FE08BD00BF749CFF1FEB
:10191000F1180000F4AAFF1F38B5064D064C2A4600
:101920002146064804F0A0FE2A462146044804F059
:101930009BFE38BD749CFF1FF1180000FCAAFF1F1E
:1019400004ABFF1F70B41F4B1A68126919791E4B44
:1019500019701E4B9A420CD21D4B1B786BB14FF085
:1019600080421C4B1A601C4B03F5007403F5807316
:1019700008E0194B03F5807404E0174B03F500747D
:1019800003F58073154A1068154A1268B8B1B2B1F0
:1019900014490988402912D801F14006114D2E80C2
:1019A00049000844023011448A1C33F9041B20F812
:1019B000021F33F9021C22F8021F9C42F5D870BCAA
:1019C000704700BF14ABFF1F1F800040208BFF1F1C
:1019D0000EABFF1F08E200E0208AFF1F1CABFF1FB9
:1019E00010ABFF1F0CABFF1FF8B5064603F008F85D
:1019F000044640B103F004F8054628B9204603F038
:101A000059F8002400E0002572B61A4B1B887F2B82
:101A100019D9194B1F681C60184B1C681D600022E7
:101A2000144B1A8062B63946304603F06BF83846DC
:101A300003F040F801222146304603F063F82046C7
:101A400003F038F8F8BD9CB10B4B1B6843B90A4B47
:101A50001C600A4B1D600022064B1A8062B6F8BD5E
:101A600062B6204603F026F8284603F023F8F8BDB6
:101A700062B6F8BD0CABFF1F1CABFF1F10ABFF1F06
:101A800010B5284C0121204603F040F900F07CF904
:101A90004FF48062244B1A602368244A1A6023683A
:101AA00000229A8040F20111D98002219960DA6007
:101AB0001F48186199824FF48071D9821D4898613E
:101AC000D98306219983237903F1804303F50433F5
:101AD0001A708E221A7003F0C5F8174B187022790D
:101AE000164B1A70164A136843F0124343F0010371
:101AF0001360803A136843F010431360227902F1B7
:101B000010011048104B43F8210053119B0003F1C2
:101B1000604303F5614302F01F02012101FA02F262
:101B20001A6010BD14ABFF1F14B00440A2F00240B5
:101B3000208AFF1F00FEFFFF0EABFF1F1B8000402F
:101B400080F00240451900000090FF1F08B5034ACD
:101B50000349044804F088FD08BD00BF749CFF1FC2
:101B6000F118000014ABFF1F08B5034A03490448ED
:101B700004F07AFD08BD00BF749CFF1FF11800003F
:101B800020ABFF1F08B5034A0349044804F06CFD6D
:101B900008BD00BF749CFF1FF118000028ABFF1F99
:101BA00008B5034A0349044804F05EFD08BD00BFC0
:101BB000749CFF1FF118000030ABFF1F08B5034AEB
:101BC0000349044804F050FD08BD00BF749CFF1F8A
:101BD000F118000038ABFF1F08B5034A0349044859
:101BE00004F042FD08BD00BF749CFF1FF118000007
:101BF00040ABFF1FF8B5304B1A68126819792F4BAC
:101C000019702F4B9A4208D22E4B1B783BB14FF0E4
:101C100080422D4B1A602A4802E02C4800E02848F8
:101C20002B4B1E682B4B1F682B4B1C882B4B1D8886
:101C300096B157B13A1D311D02EB450201EB44014B
:101C4000FFF748FC4034403514E0311D01EB4401FE
:101C5000FFF75FFC40340DE037B1391D01EB450162
:101C6000FFF777FC403505E04FF48072002104F067
:101C7000F5FFF8BD7F2C02D8174B1C800AE000242A
:101C8000154B1C80304602F015FF154B1968104AA1
:101C900011601C607F2D02D8104B1D80F8BD002400
:101CA0000E4B1C80384602F005FF0E4B1968094A9E
:101CB00011601C60F8BD00BF4CABFF1F1F800040CF
:101CC000208DFF1F64ABFF1F08E200E0208CFF1F88
:101CD0005CABFF1F54ABFF1F48ABFF1F58ABFF1F90
:101CE00068ABFF1F60ABFF1F10B50446002102F078
:101CF0001FFFD8B1024672B61D4B186828B91A608A
:101D000000221C4B1A8062B610E01B4B1B681BB9EB
:101D1000194B1A6062B609E015490B60164B1A6040
:101D20000022144B1A8062B602F0C4FE0121204644
:101D300002F0FEFE0246D0B172B6104B186828B908
:101D40001A6000220E4B1A8062B610BD0D4B1B6844
:101D50001BB90C4B1A6062B610BD08490B60094BE9
:101D60001A600022064B1A8062B602F0A3FE10BD74
:101D70005CABFF1F48ABFF1F68ABFF1F54ABFF1FDF
:101D800058ABFF1F60ABFF1F274B1A6842F400429D
:101D90001A6026490A6842F002020A601A6842F094
:101DA00002021A60224B1B68002B3CDB214B1B6894
:101DB000002B38DB4FF086421F4B1A601A4613681F
:101DC000002BFCDB30B447F232021C4B1A600024BB
:101DD000A43B1C6001205C3B1860194A04331A6064
:101DE0004FF4803104331960164A04331A60164BDD
:101DF000164D2B60CC352C60154C2060154C1648C8
:101E000004600430016015490A60154A13604FF4FC
:101E1000C06302F5DF3202F5BA7213600432136058
:101E20000C32136030BC70473C800440408004405A
:101E300000F0024080F0024000F1024004F1024054
:101E4000010000071B1F0100001F1F1F14F00240AC
:101E500084F002400100004788F0024090F0024008
:101E600094F0024038B5284C0121204602F04EFF84
:101E70000025264B1D60264B1D60FFF785FF4FF4A4
:101E8000C062244B1A602368234A1A602368022226
:101E90009A8040F20111D9809A60A2F20222DA609F
:101EA0001E4A1A619D824FF48072DA829D61DA8344
:101EB00006229A83237903F1804303F504331D70CE
:101EC0008F221A7002F0CEFE154B18702279154B36
:101ED0001A70154B4FF080721A60144A1A602279FA
:101EE00002F110011248134B43F8210053119B00DB
:101EF00003F1604303F5614302F01F02012101FA7F
:101F000002F21A6038BD00BF4CABFF1F5CABFF1F75
:101F100054ABFF1F04B00440208CFF1F22F002408E
:101F200064ABFF1F1B80004000F0024001000090E6
:101F3000F51B00000090FF1F08B5034A0349044841
:101F400004F092FB08BD00BF749CFF1FF118000055
:101F50004CABFF1F08B5034A0349044804F084FB57
:101F600008BD00BF749CFF1FF11800006CABFF1F81
:101F700008B5034A0349044804F076FB08BD00BFD6
:101F8000749CFF1FF118000074ABFF1F08B5034AD3
:101F90000349044804F068FB08BD00BF749CFF1FA0
:101FA000F11800007CABFF1F08B5034A0349044841
:101FB00004F05AFB08BD00BF749CFF1FF11800001D
:101FC00084ABFF1F08B5034A0349044804F04CFBE7
:101FD00008BD00BF749CFF1FF11800008CABFF1FF1
:101FE00008B54B4B196B08794A4A1070DA6A1079B8
:101FF000494A1070097911709B6A002B75D0444AC8
:102000005268D268934204D99B1A414A93620121D3
:1020100033E0013B3E4AD26A1268D18B11F4004F83
:1020200003D1C3F30E03D38306E0D18B01F47E41C9
:10203000C3F308030B43D383D38B9BB2D382344BBC
:102040009A6A1B6B1B68D98B11F4004F03D1C2F342
:102050000E02DA8306E0D98B01F47E41C2F3080256
:102060000A43DA83DA8B92B2DA82294B996A11F148
:10207000FF3118BF012100229A62254BDA6A1268EB
:1020800010682433984209D1243B1B68DA68204A3F
:1020900092F8242042F000425A631AE01C4B1B685D
:1020A000DB6813F0804F0AD013681B881068023079
:1020B0001060174A126843F00043536309E0136845
:1020C0001B78106801301060114A126843F0004319
:1020D00053630F4B1B6B1A79104B1A70B9B10C4B31
:1020E000DB6A1A790D4B1A7008BD094A1368002182
:1020F00019630B48D862D86820F08040D860032369
:1021000082F82530506B03681B680A46984708BD63
:10211000A89CFF1F1F8000401C8000401B800040C7
:1021200000000FFF00207047704700BF064B0022E1
:102130009A700221596083F8242083F830200349E3
:10214000D96283F83220704794ABFF1FAC72000055
:10215000084B1A6842F480621A604FF00042DA625B
:10216000FF225A631A46D36A002BFCDA014B986BA4
:10217000C0B2704700C00240064B1A6842F4806249
:102180001A604FF00042DA6258631A46D36A002B95
:10219000FCDA704700C0024008B50121007801F068
:1021A00005FA114B1B78F3B100220F4B1A700F4B3D
:1021B000DB7AC3B113F0010F03D00C4B9A690C4BBF
:1021C0001A600A4BDB7A13F0020F03D0074BDA696F
:1021D000084B1A60054BDB7A13F0040F03D0034B56
:1021E0001A6A054B1A6008BDECABFF1FA89CFF1FC5
:1021F00000E100E004E100E008E100E038B5234B35
:102200001B78002B3CD10122204B1A70204B1B68FD
:10221000204AD27A2AB372B61E4AD27A12F0010F3D
:1022200006D01D490D681B4CE2682A40A2610A6075
:10223000184AD27A12F0020F06D018490D68154CD0
:1022400022692A40E2610A60124AD27A12F0040F2F
:1022500006D013490D680F4C62692A4022620A6059
:1022600062B60C4A1268D168994209D00D491160D2
:10227000084A1268D36043F0804313610A4B13602D
:102280000021007801F092F938BD00BFECABFF1FD0
:10229000E8ABFF1FA89CFF1F80E100E084E100E0A5
:1022A00088E100E001403F0000003F8070B582B04F
:1022B0000E460A4B1B680093009D084CFFF748FF31
:1022C000FF2807D023680193019B5B1BB342F5D322
:1022D000002000E0012002B070BD00BF00AEFF1F73
:1022E000F8B505460F4616464FF49671FFF7DEFF28
:1022F00047F04000FFF740FF182426FA04F0C0B270
:10230000FFF73AFF083C14F1080FF6D127B1082F68
:1023100014BFFF20872000E09520FFF72DFF002449
:10232000FFF716FF687010F0800F03D00134B4F58A
:10233000807FF5D1F8BD00BF70B582B004460D4B6B
:102340001B680093009E0B4DFFF702FF6070FF2893
:1023500007D12B680193019B9B1BB3F5967FF3D9A3
:1023600004E0FE2814BF0020012000E0002002B09D
:1023700070BD00BF00AEFF1FF8B504460D461646FF
:102380008378032B18BF4D02FFF738FF2A4611212F
:102390002046FFF7A5FF002846D12046FFF7CCFFD7
:1023A000002841D0234B244A1A60244A5A635A63B6
:1023B0005A6306F5FD70864213D2B11C06F5FE7E07
:1023C0001A461E4FD36A13F0F00FFBD05763936B7E
:1023D0001D1201F8025C01F8013C02318E45F1D179
:1023E00000E0304606F50076B0420CD2114AD36ABE
:1023F00013F0F00FFBD0936B191200F8021B00F8DA
:10240000013C8642F3D80B4B0B4A1A600B4A5A63C5
:102410001A46D36A13F0F00FFBD0064B9B6B204695
:10242000FFF7BAFE0120F8BD2046FFF7B5FE0020F9
:10243000F8BD00BF00C0024000041F80FFFF0090F5
:10244000F8B504461E4B186840F4806018604FF0E1
:102450000040D8625963511C02F20127DA6A002A4F
:1024600009DBFBE7DA6A002A0FDBFBE7144AD36AD1
:10247000002B15DBFBE70D4611F8016C1A6842F4DE
:1024800080621A60D8625E63ECE72D781A6842F4C5
:1024900080621A60D8625D630231B942DED1E5E73D
:1024A000FF20FFF769FEFF20FFF766FEFFF750FEF3
:1024B000607000F01F00052814BF00200120F8BD47
:1024C00000C0024070B5044639B316460D46837805
:1024D000032B18BF4D02FFF791FE2A461821204614
:1024E000FFF7FEFEC8B93246FE212046FFF7A8FFDF
:1024F00098B14FF416712046FFF7D8FE68B100225C
:102500000D212046FFF7ECFE38B9FFF721FE20B978
:102510002046FFF741FE012070BD2046FFF73CFE3C
:10252000002070BD014A024B1A607047000002385B
:10253000E8ABFF1F10B5044600F108020121006A54
:1025400000F04CFA034650B1E3693BB9A368E3617C
:10255000637963F07F036371012300E00123184670
:1025600010BD00BF10B50446006900F085F920B128
:10257000207D034B03EB401010BD002010BD00BFB9
:10258000FCABFF1FF8B583798BB382698A422DD3E8
:10259000022B02D1C160012329E021B9002383600D
:1025A000C360012323E0C568036A1C7C09346A1EEA
:1025B000E2404B1E23FA04F4A24200D835B9C369A5
:1025C00083600F46054600F1080601E0A41AF8E70B
:1025D0004CB13246A968286A00F072F9013C034602
:1025E0000028F5D103E0EF60012300E00023184646
:1025F000F8BD00BF38B50346807920B31C4693F977
:102600000530002B1BDA01212046FFF7ABFF054602
:10261000C0B1A379012B9CBFA369C361A38B438382
:10262000E38B8382084B1B682BB100F11601183035
:1026300098472B8B6B82637903F07F03637100F003
:10264000EFF838BD002038BDF0ABFF1F2DE9F04F8B
:1026500085B0074601928379012B40F0B980894605
:10266000437913F0020F00F0B38013F0040F04D08D
:102670008169C3688B4203D1B2E0019B33B98CE01E
:10268000FFF780FF002800F0A380F6E7DDF8048064
:10269000DFF86CA1DFF86CB1386AFD680479013CA1
:1026A00004EA5524C5F3080514F0FF0423D115BB33
:1026B000B96841B9FB6923B93846FFF73BFFD0B988
:1026C00086E0BB6017E003AA00F0FAF8002800F0EB
:1026D0008C80039A3B6A93F820104FF6F8734448B5
:1026E000102918BF03469A4204D33846FFF722FF49
:1026F00008B96DE0BA60C5F50076B6B2464588BF48
:102700001FFA88F63A6ABB68023B117C8B4052691B
:1027100013441C44B6F5007F12D1DBF800309C4214
:1027200004BF4FF0FF33CBF800304A462146314B0F
:102730001868FFF7C7FE00284AD009F5007925E0A0
:102740007DB9FA68BB699A420BD300F069F800289A
:102750003ED0CBF80040284A137843F001031370B1
:1027600004E00121204600F087F888B35544AC19F5
:10277000A5420BD009F1FF326B1E601E12F8011F3B
:1027800003F8011F8342F9D1651BA944FB68334458
:10279000FB60B8EB06087FF47FAFFB68BA69934231
:1027A00005D9BB617B7963F07F037B7108E0134B34
:1027B0001B682BB1019B1BB17B7963F07F037B719D
:1027C0007B7913F0080F07D03846FFF713FF28B9BD
:1027D00001233B71002008E0019806E0019804E025
:1027E000019B002B7FF452AFEAE705B0BDE8F08F04
:1027F000F8FFFF0FF8ABFF1FFCADFF1FF0ABFF1F93
:10280000FCABFF1FE09CFF1F00B583B002AB03F8D9
:10281000011D01221946FFF719FF03B05DF804FB03
:1028200008B5104B1B78D3B10F4A104B1968104BE9
:102830001868FFF747FE034690B10E4B196849B17F
:10284000094A0B4B1868FFF73DFE034640B10022D2
:10285000084B1A600022034B1A70012300E0012389
:10286000184608BDFCADFF1FFCABFF1FE09CFF1F1F
:10287000F8ABFF1FF4ABFF1F38B50D460C4B1B68C0
:1028800083420ED00446FFF7CBFF034670B1094ADE
:102890002146094B1868FFF76FFD034630B1044B22
:1028A0001C60064B1978294319700123184638BD5E
:1028B000E09CFF1FFCABFF1FF8ABFF1FFCADFF1F31
:1028C000C36801338B422FD370B516460D460446BC
:1028D000C36990F82020102A06D103EB1120154B74
:1028E0001B68984206D10EE003EBD110114B1B6818
:1028F00098420FD00021FFF7BFFF0346B8B194F80C
:102900002030102B06D1E9B20B4B33F81130336075
:1029100001230CE005F07F01074B53F8213023F031
:1029200070433360012302E00023184670471846C5
:1029300070BD00BFE09CFF1FFCABFF1FF8B5012975
:102940003DD9C368013399423BD817460C46064629
:10295000C56990F82030102B07D105EB11251B4BD2
:102960001B689D4207D11D460FE005EBD115174BA3
:102970001B689D4210D000212846FFF77DFF0346CB
:1029800010B396F82030102B05D1E1B2104B23F88C
:1029900011702B4605E02B4604F07F010C4A42F8EB
:1029A00021700C490A7842F001020A70327E012A35
:1029B00009D9B2681344084A1360012304E00023D4
:1029C00002E0002300E001231846F8BDE09CFF1F51
:1029D000FCABFF1FFCADFF1FF4ABFF1F2DE9F04F59
:1029E00083B017681FB101374FF0000B06E007688E
:1029F000012914BF4FF0000B4FF0010BC36803F126
:102A00000108DBB19246894606463C460025A045B2
:102A10003CBF0224274601AA21463046FFF750FF5B
:102A200060B1019B0BB1671C03E0631CDB1B994584
:102A300006D001350134F368AB42E8D800232AE020
:102A40006FF0704221463046FFF778FF034610B31F
:102A5000A74203D30CE02C46AF4209D2651E2246A2
:102A600029463046FFF76AFF03460028F3D112E0FB
:102A7000DAF8001029B13A463046FFF75FFF034607
:102A800048B1CAF80070BBF1000F03D001373760BE
:102A9000012300E00123184603B0BDE8F08F00BF1A
:102AA00090F8392090F83800101A704790F83830B4
:102AB00090F839209A4205D95A1C80F838200344EE
:102AC000187E70474FF0FF30704700BF90F83830E5
:102AD00090F839209A4286BF1B18187E4FF0FF30BD
:102AE000704700BF704700BFB0F85E307BB190F810
:102AF0005D30202B03D901230371002070475A1C3D
:102B000080F85D20184480F83B10012070470020B9
:102B1000704700BF38B5B0F85E30BBB1054614460B
:102B200090F85D30C3F12102A24202D20120287147
:102B3000144605F13B002246184400F051FB95F87D
:102B40005D30234485F85D30204638BD002038BD17
:102B500043691A6812685B681A4210D0084B9942A0
:102B600003D8036928225A7006E0064B994203698C
:102B700094BF19220A225A70036903229A7170477E
:102B80007F1A06003F420F0070B50446002380F80C
:102B9000383080F8393080F85C3080F85D3080F86B
:102BA0005E304366836680F85F30456929680E6849
:102BB0006A6832430A6002699370416990F8613033
:102BC000124A0B44197A02EBC10149685B7B1B0274
:102BD00003F4E06343F064030B60416990F86230F2
:102BE0000B44997C02EBC1025268DB7D1B0203F4AB
:102BF000E06343F0640313600549FFF7A9FF23690D
:102C000020225A71236980229A7070BD20730000BF
:102C1000A086010010B504460269D378DBB213F038
:102C2000100F05D01021D17013F0400F03D110BD4B
:102C300013F0400F2DD013F0040F1BD000233C4A9B
:102C4000137084F85D30636E1BB1984794F85D3063
:102C50002BB9012384F85D30002384F83B302369CD
:102C6000D0229A70236994F83B201A71012384F8CA
:102C70005C300AE001222E4B1A70002384F83930B0
:102C80002369C0229A7023691B7923690222DA70B2
:102C900010BD917811F0100F1BD013F0010F13D15C
:102CA00090F85C3090F85D10994207D9591C80F873
:102CB0005C10034493F83B30137101E0002313715F
:102CC0002369D0229A702FE0C023937003691B7987
:102CD0002AE0002380F86030164B984209D15969E8
:102CE00093F861300B4403221349187A00F0D0FCAA
:102CF0000BE0124B984208D1596993F861300B44AC
:102D000003220F49187A00F0C3FC23691B79DBB258
:102D100094F839201F2A07D80549097821B1511C98
:102D200084F839102244137623690222DA7010BD28
:102D3000FDADFF1FE49CFF1F992D0000509DFF1F5C
:102D4000A92D000010B504460369DB7813F0200FAD
:102D50000FD1426990F861301344187A00F0CCFB2F
:102D6000A36EC3B1002284F8382094F83900984744
:102D700010BD90F860300133DBB280F86030012B79
:102D800002D890F85F3033B9626994F86130134427
:102D9000187A00F0B1FB10BD08B50248FFF7D2FF6A
:102DA00008BD00BFE49CFF1F08B50248FFF7CAFF3B
:102DB00008BD00BF509DFF1F2DE9F04F83B00746AF
:102DC000364B1B680093DDF800900021DFF8CC80C3
:102DD00078263A69D37813F0200F5BD0D8F800300A
:102DE0000193019BC9EB03030F2B4BD9002949D158
:102DF0007A6997F8613013440521187A00F008FCCD
:102E00007A6997F8613013449D7C0121284600F0CF
:102E1000FFFB09244FF0000B4FF0010A59462846EA
:102E200000F0C4FB3346013BFDD15146284600F07B
:102E3000BDFB3346013BFDD1013CEFD1796997F8E9
:102E40006130174A0B44197A02EBC10149685B7B78
:102E50001B0203F4E06343F064030B60796997F8A5
:102E600062300B44997C02EBC1025268DB7D1B028D
:102E700003F4E06343F064031360F023013BFDD1EE
:102E80000121A6E7102BA4D9002090703B69802275
:102E90009A7000E0012003B0BDE8F08F00AEFF1F84
:102EA00020730000F0B585B004460D460369122278
:102EB000DA7003699A7812F0200F02D0B4229A7067
:102EC00009E0FFF779FF00286DD0002384F85F3018
:102ED0002369B0229A70354B1B68009300982269D1
:102EE0003249D37813F0200F07D094F85D30002BCF
:102EF00050D000262D4902270CE00B680193019B5E
:102F00001B1A042BEDD900239370236980229A7039
:102F1000042049E02369A21992F83B201A710B683A
:102F2000029302982269D378DBB213F0020F0FD11B
:102F300013F0200F0CD00B680393039B1B1A052B77
:102F4000F1D900239370236980229A7004202BE02A
:102F5000D7702269D378DBB213F0100F03D080232F
:102F60009370042017E013F0200F03D18023937097
:102F7000042010E013F0010F04D0002E0CBF02203B
:102F8000032009E00136F6B294F85D30B342C1D8AF
:102F9000002000E0002015B1236980229A700023F0
:102FA00084F85E3000E0042005B0F0BD00AEFF1FE5
:102FB0002DE9F04188B004460D4616461F46002311
:102FC00080F8383080F8393003691222DA700269EB
:102FD000937803F0200313B1B42393700CE003F053
:102FE000FF08FFF7E9FE002800F0E480002384F8E2
:102FF0005F302369B0229A70704B1B680093009871
:1030000022696E49D37803F0200303F0FF085BB90F
:103010000B680193019B1B1A042BF3D900239370B7
:10302000236980229A70C5E06B0043F00103DBB294
:103030001371624B1B680293029822695F49D3782F
:1030400003F0020303F0FF085BB90B680393039BD3
:103050001B1A052BF3D900239370236980229A70E1
:10306000A8E00223D370236993F8038018F01108B5
:1030700004D080229A704FF000089BE02EB9002FF8
:1030800014BF8022A0229A7094E0012E06D1A822BB
:103090009A7023691B794FF0000846E0A0229A70CD
:1030A00023691B79012E3ED94FF0000843490225C0
:1030B0004FF0A80E01E0012E37D00B68049304985E
:1030C0002269D37813F0020F0DD10B680593059B8D
:1030D0001B1A052BF5D900239370236980229A705F
:1030E00084F8398066E0D5702269D378DBB213F0BA
:1030F000100F5FD113F0200F5CD0013EF6B2012E0D
:1031000008BF82F802E0B8F11F0F09D808F10102E8
:1031100023691B79A04488F818305FFA82F8CAE75F
:1031200023691B79C7E74FF00008244B1B680693FF
:10313000069822692149D37813F0020F0DD10B684C
:103140000793079B1B1A052BF5D90023937023695E
:1031500080229A7084F839802CE00223D37022698F
:10316000D378DBB213F0100F0AD01023D37078237A
:10317000013BFDD12269937803F0F703937019E0C6
:1031800013F0200F16D0B0239370B8F11F0F09D899
:1031900008F1010322691279A04488F818205FFA27
:1031A00083F801E023691B7917B1236980229A70A3
:1031B00084F83980404608B0BDE8F08100AEFF1FBA
:1031C00008B50248FFF726FD08BD00BFE49CFF1FBD
:1031D00008B50248FFF71EFD08BD00BF509DFF1F48
:1031E000844641EA000313F003036DD1403A41D312
:1031F00051F8043B40F8043B51F8043B40F8043BD1
:1032000051F8043B40F8043B51F8043B40F8043BC0
:1032100051F8043B40F8043B51F8043B40F8043BB0
:1032200051F8043B40F8043B51F8043B40F8043BA0
:1032300051F8043B40F8043B51F8043B40F8043B90
:1032400051F8043B40F8043B51F8043B40F8043B80
:1032500051F8043B40F8043B51F8043B40F8043B70
:1032600051F8043B40F8043B51F8043B40F8043B60
:10327000403ABDD2303211D351F8043B40F8043B00
:1032800051F8043B40F8043B51F8043B40F8043B40
:1032900051F8043B40F8043B103AEDD20C3205D310
:1032A00051F8043B40F8043B043AF9D2043208D008
:1032B000D2071CBF11F8013B00F8013B01D30B887A
:1032C00003806046704700BF082A13D38B078DD058
:1032D00010F003038AD0C3F10403D21ADB071CBF2A
:1032E00011F8013B00F8013B80D331F8023B20F894
:1032F000023B7BE7043AD9D3013A11F8013B00F8CD
:10330000013BF9D20B7803704B7843708B78837054
:103310006046704760223A4B1A70E12201331A70FE
:10332000384B1B78082B10D1012203F1804303F5A1
:103330006C331A60132334490B6001F5FF2101F24D
:10334000FC710A60314A13601FE00A2B0DD119226B
:103350002F4B1A6013232C490B6001F5FF2101F25A
:10336000FC710A60294A13600FE00C2B0CBF152278
:103370003D22274B1A60122323490B6001F5FF21E0
:1033800001F2FC710A60214A1360224B1B7833B1B1
:103390000123214A136002F50022136005E0002397
:1033A0001D4A136002F5002213601C4B1B78012B91
:1033B00006D880231A4A136002F5002213601AE02F
:1033C000042B06D88423164A136002F500221360EA
:1033D00011E0082B06D88523114A136002F500225C
:1033E000136008E0102B94BF862387230C4A1360D8
:1033F00002F50022136001220A4B1A70704700BFC9
:1034000000400740BC9DFF1F0CB003400CB00B40B8
:1034100008B00340FFADFF1F20B00340BD9DFF1F5C
:1034200024B00340FEADFF1F08B50D4C236813F414
:10343000802F01D000F00EFB236813F4806F01D0C1
:1034400002F094FC236813F4006F01D002F030FD09
:10345000236813F4805FE9D002F0CCFDE6E700BFFB
:103460003480044008B5FFF7DFFF00BF1022014B96
:103470001A80704700200540704700BF08B50B4B0D
:103480001B6880B16A461818A2F58052904206D394
:1034900003F0F6F80C2303604FF0FF3008BD034A39
:1034A0001060184608BD184608BD00BFC09DFF1F2C
:1034B000FEE700BFEFF31383ABB9EFF31083ABB9B3
:1034C000EFF3058323B10F2B05D9094A985C03E07C
:1034D0004FF4807000E00020EFF311833BB198427D
:1034E00028BF184670474FF0FF30704700207047E4
:1034F000F0E300E0704700BF1D4B03EBC0004368E2
:1035000003F14042A2F592227C2A18D903F14042ED
:10351000A2F594227C2A14D903F14042A2F5962206
:103520007C2A10D903F14042A2F598227C2A0CD9BA
:1035300003F14042A2F59A227C2A08D970470D492E
:1035400006E00D4904E00D4902E00D4900E00D4997
:1035500072B61A6822F0877222F4803242F08072CA
:103560001A60C3F38403084A41F8232062B6704707
:1035700020730000C49DFF1FFC9DFF1F4C9EFF1F7A
:103580007C9EFF1F9C9EFF1FF5340000044B002211
:103590001A6004490A60044A106010221A607047D9
:1035A00014D0034004D0034000D0034021281ED88B
:1035B0000F4B53F8303093F8802212F0FF0F08D0F1
:1035C00019B1012283F880207047012283F800217D
:1035D0007047074B03EBC000436821B11A6842F003
:1035E00003021A6070471A6822F002021A607047DC
:1035F00020730000212806D8044B53F8303093F88C
:103600000002C0B270470020704700BF2073000066
:1036100021283AD81D4B03EBC0035B68012919D060
:10362000042925D0194A52F83020002082F880025F
:1036300019B94FF480721A607047022903D140F221
:1036400003121A60704703290CBF4FF481720022E5
:103650001A6070470D4A52F83020012182F880121A
:103660004FF4A2721A601A6822F020021A607047A2
:10367000064A52F83020012182F880124FF4A272DB
:103680001A601A6842F020021A6070472073000026
:1036900070B5212862D8042A60D8DFE802F0070953
:1036A00005030B00092606E00A2604E0082602E0CE
:1036B0000C2600E00B260D463604294B03EBC00315
:1036C0005C68236813F4E06F02D10021FFF7A0FFCC
:1036D000244B254AC3F89C21244AC3F8A021244A3C
:1036E000C3F8A421234AC3F8A821234AC3F8AC2174
:1036F00004F14043A3F592237C2B18D904F14043F5
:10370000A3F594237C2B14D904F14043A3F596230D
:103710007C2B10D904F14043A3F598237C2B0CD9C2
:1037200004F14043A3F59A237C2B08D970BD1349BB
:1037300006E0134904E0134902E0134900E013498D
:1037400072B6236823F4702343F080722360C4F3BD
:10375000840341F823501643266062B670BD00BF53
:10376000207300000090FF1F499CFF1F1D9CFF1F3E
:10377000F19BFF1FC59BFF1F999BFF1FC49DFF1F50
:10378000FC9DFF1F4C9EFF1F7C9EFF1F9C9EFF1FEA
:1037900072B60D4B1B680D4A10680D4A126862B66E
:1037A00012F0806F02D0322B88BF0130C3F58C330A
:1037B00003F23F13074AA2FB03234FF47A7202FB82
:1037C00000F000EB1310704718E000E000AEFF1FA0
:1037D00004ED00E0398EE33838B50546FFF7D8FF31
:1037E000044625B938BD013D0AD004F57A74FFF7C7
:1037F000CFFF001BB0F57A7FF5D201F013FFF6E79B
:1038000038BD00BF10B5274B4FF400021A604FF0CF
:1038100080721A604FF000721A604FF080621A6076
:103820004FF000621A6000201F4B186048F6FF71CD
:103830000433196028231D4A1360083213600832CC
:1038400013600832136008321360083213600832C4
:103850001360083213600922154C226004F580546D
:10386000043420600434216004342360083423606D
:10387000143C226004F5FE24043420600D480160ED
:103880000D490B6008310B600C4B1A60FFF742FDCD
:103890001920FFF7A1FF00F0BBFD40F21310FFF766
:1038A0009BFF10BD08E100E0048003400C80034052
:1038B0000080034008800B400C800B4000800B40D0
:1038C00010B40E4B1B7843F002040D4A02EBC40205
:1038D00050600C4A1278002A14BFC820882040EAA1
:1038E0000141074840F8341082F0010205490A708E
:1038F00083F00103014A137010BC704790AEFF1FA4
:103900000080FF1F29AFFF1F013807280DD872B6AE
:10391000074B53F820302BB1002001305B68002B9F
:10392000FBD100E0002062B670470020704700BF66
:10393000D4AEFF1F70B572B6022201231D491E4D81
:1039400002E0214601330132072BFBD04C1C0978E1
:1039500011F0080F24D0990055F831606EB9164B5C
:1039600003EBC10208305060144A43F83120144A76
:103970001378013B137062B670BD41F0010155F838
:1039800031606EB90C4B03EBC102083050600D4A38
:1039900043F831200A4A1378013B137062B670BDB8
:1039A000082ACED962B60022054B1A7000F098FFA3
:1039B00070BD00BF087500000080FF1F8800400038
:1039C0001EAFFF1FC8004000431E072B39D810B49C
:1039D000400140F010001B4A104472B61A4AD25CF3
:1039E000032A0BD8DFE802F01B040207052217E0C8
:1039F0000830022214E00830042211E0134A52F881
:103A000023201AB9114A42F8231003E0104A52F851
:103A1000232051600E4A42F8231062B610E00322C0
:103A2000094CE25401F10803436000F00803002B45
:103A300014BFC82388230A8843EA0243036062B69E
:103A400010BC70470080FF1F28AEFF1FD4AEFF1FC1
:103A5000F4AEFF1F2DE9F04F87B0DFF828A3DFF8A1
:103A60002893DFF828B39AF80040E4B214F0040F6A
:103A70001ED099F8003013F0FF0F16D0AF4B1A7814
:103A800002F0FF032AB1013BDBB2AC4A137003B969
:103A900000BEAB4B1A7802F0FF0332B1013BDBB240
:103AA000A74A13700BB900F053FF04238AF80030C3
:103AB00014F0080F00F048849BF80030DBB21C09BA
:103AC00040F03D839F4D9C0805EBC4035E6855F8AC
:103AD0003430C3F38303013B0C2B00F22C83DFE86B
:103AE00013F0CF02CF022A032A032A032A032A0350
:103AF0002A0307032A032A032A030D003368924A84
:103B0000136071685160914A45F834200022904951
:103B10000A608C490A618A6101208E490870059209
:103B20009BB2B3F5106F00F0848039D840F20232B6
:103B3000934200F0AD8116D8B3F5817F00F09281F9
:103B400006D8802B00F06C81822B00F070813AE265
:103B500040F22112934200F0648240F2212293420B
:103B600000F05F822FE2B3F5A06F00F030820AD838
:103B700040F22132934200F0548240F221429342BB
:103B800000F04F821FE2B3F5D06FC0F01C8240F20C
:103B90008162934247D9B3F5086F00F03A8112E28F
:103BA00042F22122934200F0A2811BD840F68122EA
:103BB000934200F0D6810AD840F62112934200F0D9
:103BC000308240F62122934200F00182FBE140F670
:103BD0000132934200F0948142F22102934200F0BC
:103BE0002082F0E148F2A212934200F0DA810AD872
:103BF00042F22132934200F0EA8148F2A11293424C
:103C000000F0C581DFE148F2A132934200F0BF81AC
:103C100048F2A142934200F0BA8148F2A1229342B5
:103C200040F0D181B3E14C4B5C68002C40F0468100
:103C300059E1454B9B7889F80030424C04F580757A
:103C4000236A13F0800F03D0606A083800F048FE42
:103C50000834AC42F4D1414B0093414F414B0193A6
:103C6000DFF82C8100263546009B0293186828B1A6
:103C7000446800F035FE2046002CF9D1029B1D60FF
:103C80000296394B43F826500397386828B14468A8
:103C900000F026FE2046002CF9D1039B1D60019BFD
:103CA00043F8045F0193314B029A23F8125098F8BD
:103CB0000030023B032B09D8DFE803F002050205C0
:103CC00088F8005002E0012388F800300136009B9C
:103CD00004330093043708F10108082EC4D10022F0
:103CE000234B1A700124234F234E164DDFF8A48076
:103CF00016F8013B07F8043B072C0FD1C5F8E48008
:103D00001E4BC5F8E030C5F8EC80C5F8E83000235C
:103D1000C5F8F030C5F8F8300134E9E713F0080FC2
:103D20005BD000F0BDFD0346B0B3A20005EB44112B
:103D300008334B60124945F8321035E091AEFF1F51
:103D400035AFFF1F0080FF1F14AFFF1FC8004000EA
:103D500004AEFF1F29AFFF1F1075000070AEFF1FDC
:103D6000D4AEFF1FF0AEFF1F08AEFF1F8CB1FF1FC8
:103D70001EAFFF1FC4200740087500008000B4007C
:103D8000880040008020074028AFFF1F9020074098
:103D900028AEFF1FC091FF1FA300002245F833206B
:103DA000A24A13780133137000F07AFD024650B135
:103DB000A30043F0010305EBC30108324A609C4AAB
:103DC00045F8332009E0A30043F00103002245F841
:103DD0003320964A137801331370A30043F0020195
:103DE000002245F8312043F0030345F83320082C26
:103DF00009D1904B03EBC1028F4850608F4A43F8C2
:103E000031200024E6E00134092C7FF471AF002456
:103E1000E0E099F800308A4C237001230593D9E043
:103E2000874C00232370637002230593D2E0854BF7
:103E30009B8803F07F03082B03DD0F23824A137056
:103E4000EFE07F4A0021117051707F4A12F8233051
:103E500013F0020F02D00122794B1A70022305934E
:103E6000774CB7E0774B9B8803F07F03082B02DC8D
:103E7000744A52881AB10F23734A1370D1E0724A00
:103E800012F8232022F002026F4901F823209AE25F
:103E90006C4B9B8803F07F03082B02DC694A528835
:103EA0001AB10F23684A1370BBE0674A12F8232047
:103EB00042F00202644901F8232084E2614B5988F0
:103EC0009888624B1A888A4209D15A88824206D160
:103ED000090A03290CBF23781B8905937AE00C3368
:103EE0005C68002CEED10F23574A137099E0584BB1
:103EF0001A68584B1A60534B9A78574B1A7062E203
:103F0000504B9B88052B21D14E4B9B78534A137005
:103F1000002B00F05882524B5D79002D514CA4F1DA
:103F2000080308BF1C46236813F0800F40F04B8243
:103F30004D4EB0220021304602F090FE66604B4BA1
:103F4000236085F00105464B5D713CE2062B04D1F0
:103F50003C4B5A88464B1A7035E20F233A4A13708D
:103F60005FE001230593374B9B88052B04D1344C2C
:103F70003A4B1B7823702DE0062B04D1304C3C4B80
:103F80001B78237026E00F232F4A137049E005AAFF
:103F90002B492C4801F0E6FAD8B90F232A4A1370AE
:103FA0003FE0284BDB88022B09D9254C44232370A2
:103FB000AC2363700023A370032305930AE00F234F
:103FC000214A13702DE00F231F4A137029E00024AB
:103FD00000E01B4C1B4BDB88059A934238BF0593CE
:103FE000059E402E28BF402631462046FFF768FC3C
:103FF000A5190599891B059111B93F2E11D9E4E145
:10400000402928BF40210C462846FFF759FC25448B
:10401000059B1B1B01D13F2C03D9164A1560164A7C
:1040200013800123154A137085E000BF1EAFFF1FE8
:10403000C80040000080FF1FBC91FF1F80000300EC
:1040400020AFFF1F14AFFF1FC020074010750000F6
:1040500000AEFF1FB0B1FF1F40AFFF1F9AAFFF1FA1
:1040600028AEFF1FD880FF1F7492FF1F8000B00092
:104070009BAFFF1F04AEFF1F1CAFFF1F9420074024
:10408000984B1A8842F221039A4213D1964BF71D9E
:1040900016F8012B03F8012FBE42F9D1934B1B6890
:1040A000862B02D10F22924B1A7000210846FFF78F
:1040B00007FC3E468B4B1A688E4B9A420BD1894BBC
:1040C0005A688D4B9A4206D132788C4B1A70002177
:1040D0000846FFF7F5FB3146824801F07BFA18B13C
:1040E00000210846FFF7ECFB854B45F8343022E011
:1040F000844B1E68A6B1844F3C882546402C28BFBF
:10410000402529463046FFF7DBFB641BA4B23C8008
:104110000CB9402D01D1354400E00025794B1D60DC
:10412000704B1B88B3F5A06F05D16E4B00225A70FF
:104130009B78764A13700123754A1370CCE0754E54
:104140009F0806EBC7056A68A2F10800013CE4B2CB
:10415000052C15D113F0080F7DD001F08DF9002842
:1041600000F0BA8085F008056B4A6A60030443F0EA
:1041700080032B60694A537983F001035371ABE0EC
:10418000062C0DD113F0080F1ED156F83700000C85
:1041900001F0C2F8624B6B60624B46F837309BE02F
:1041A000072C0ED113F0080F55D085F008055E4B93
:1041B0006B605E4B2B60594AD37983F00103D37156
:1041C0008AE013F0080F46D000F08AFB584B53F8F2
:1041D000243043B35968564A42F8241003F10802C8
:1041E0006A604E4A125D032A12D8DFE802F0020626
:1041F0000A0E0321494A11550AE00221474A115586
:1042000006E00521454A115502E00421434A1155B3
:1042100015F0080F14BFC82288221B8842EA034306
:1042200046F8373058E03D4B1B5D032B0BD8DFE8D9
:1042300003F0535302060022384B1A554CE001227A
:10424000364B1A5548E015F0080F14BF032202221E
:10425000324B1A5540E056F837301B0C22F8083C18
:1042600093B3002322F8063C42F8043C314B53F848
:1042700024301BB92F4B43F8240003E02E4B53F896
:10428000243058602C4B43F824002C4931F814009A
:1042900032F8083C034421F8143000F001FB0346D7
:1042A00050B108336B6015F0080F254A144B08BF56
:1042B000134646F837300FE0002346F83730214ADE
:1042C00013780133137007E015F0080F1C4A0C4BEC
:1042D00008BF134646F8373008238AF80030FFF746
:1042E000C2BB00BF14AFFF1FA7B1FF1FA8B1FF1FC4
:1042F00091AEFF1F210900020200010034AFFF1F31
:10430000C800400004AEFF1F1CAFFF1F98200740ED
:10431000942007400080FF1F7492FF1F28AEFF1FEC
:10432000C091FF1F8000B400BC91FF1F80000300FC
:10433000D4AEFF1F70AEFF1F08AEFF1F8CB1FF1F72
:10434000880040001EAFFF1F14F0010F21D0254947
:1043500002230B700022244B1A70244B244818604F
:10436000244C5C6098602448D8601A619A610D20E2
:10437000224B1870FF23224803700838037018304E
:104380000270204A13709F221F4B1A7001230B707A
:1043900024E014F0800F05D00D22184B1A708022F3
:1043A000403B1A7014F0020F06D0154A1378DBB2A6
:1043B00013700222154B1A7014F0100F0ED0102239
:1043C000124B1A700AE000240AE600212846FFF783
:1043D00077FA059B002B3FF424AE1EE607B0BDE83C
:1043E000F08F00BF9420074090AEFF1F0080FF1F9A
:1043F0008800400030AEFF1F94AEFF1FC020074072
:10440000882007408C2007408420074080200740F8
:1044100008B501F061FE1C4800F5847103460022D6
:104420001A605A6008338B42FAD1184A136843F471
:1044300080231360C0F30722154B1A70C0F30742A4
:1044400014331A70000E04331870FF23114A1370CE
:1044500008321370783A13700123843213700021EC
:104460006C3211707C3A137070220B4B1A704FF43F
:104470000072A3F241331A60102203F1C04303F526
:10448000C8231A7008BD00BF0080FF1F348004409D
:104490009C2007408020074049E400E01F2806D800
:1044A0000A280BD00B280CBF2B20002070477F2838
:1044B00006D8044B184410F8200C70472820704789
:1044C00000207047A8740000F8B5274B1B7813F044
:1044D000FF0F43D046F201440525244E224F2846C3
:1044E000FFF712FA032803D800F0DAF9014680B981
:1044F000013C01D033782BB101221C4B1A704FF0D4
:10450000FF30F8BD01F08EF83B7813F0FF0FE6D1D5
:1045100027E0174803880B724288C3F3012343EA5C
:1045200082034B728388C2F3831242EA03128A72B7
:10453000C288C3F3051343EA8213CB7292080A734D
:104540000C4B1A784A735A788A739B78CB7308237A
:104550000B800520FFF738FA0020F8BD4FF0FF3040
:10456000F8BD4FF0FF30F8BD28AFFF1F33AFFF1F7E
:10457000A0B1FF1F9CB1FF1FF8B51E4B1B7813F0B5
:10458000FF0F30D046F2014404251B4E194F284638
:10459000FFF7BAF9032803D800F082F9014680B981
:1045A000013C01D033782BB10122134B1A704FF02C
:1045B000FF30F8BD01F036F83B7813F0FF0FE6D17D
:1045C00014E00E4B1B780372002444720C4B1868E5
:1045D000C1F80A009B88CB8108230B800420FFF7D9
:1045E000F3F92046F8BD4FF0FF30F8BD4FF0FF3033
:1045F000F8BD00BF28AFFF1F33AFFF1F32AFFF1F53
:104600002CAFFF1F70B569B30B46184A117833EA17
:10461000010227D01943154B19700126B8B912E0D1
:1046200013F8011F81420DD09C42F9D116E012F817
:10463000011F21B900E000230D4AD05403E00133EB
:10464000062BF4D186B1FFF797FF70BD0026084B0B
:104650001D78A842F6D01A465C1DE1E7002DEAD08D
:104660000123E4E70028F1D170BD00BF32AFFF1F86
:104670002CAFFF1F10B5030AC12B5BD9DF2B06D867
:104680009B0103F4F86300F03F00184352E0F02B65
:1046900004D10021C0B2FFF7B5FF10BDE02B04D15B
:1046A000C1B20020FFF7AEFF10BDE22B1BD110F00E
:1046B000FF0058D02C4B1B78984254D02A4A52788D
:1046C000904250D02849897888424CD0002B40D164
:1046D00003E0012302E0022300E00023224AD05439
:1046E000FFF7F2FE10BD1C33DBB2032B3BD8C0F347
:1046F0000900002837D01D4B1B88984233D01B4A35
:10470000528890422FD01949898888422BD0174C63
:10471000E488A04227D003BB05E0012204E0022286
:1047200002E0032200E00022104B23F81200FFF702
:10473000CBFE10BDFFF7B2FEA8B100F04002D2B22E
:10474000002A0CBF0021022100F03F00FFF75AFFB2
:1047500010BD002ABDD031B9BDE7002ADDD0002947
:10476000DDD0002CDDD010BD9CB1FF1FA0B1FF1F1C
:1047700070B5E1B10F4A1278114218D022EA010354
:104780000C4A137080B1012400E000240A4B991DEB
:104790000026012513F8012B904204BF03F8016C99
:1047A0002C468B42F6D124B1FFF7E6FE70BD0028FF
:1047B000EBD170BD32AFFF1F2CAFFF1F08B5030A4E
:1047C000C12B59D9DF2B06D89B0103F4F86300F005
:1047D0003F00184350E0F02B04D10021C0B2FFF796
:1047E000C7FF08BDE02B04D1C1B20020FFF7C0FF16
:1047F00008BDE22B1AD110F0FF004BD0264B1B78DE
:1048000083420CD0244B5B78834206D0224B9B78AA
:10481000834208BF022303D03CE0012300E00023D1
:1048200000211D4AD154FFF74FFE08BD1C33DBB2F7
:10483000032B2FD8C0F3090060B3184B1B888342A9
:1048400012D0164B5B8883420AD0144B9B8883425C
:1048500008D0124BDB88834208BF032105D019E042
:10486000012102E0022100E0002100220B4B23F88D
:104870001120FFF729FE08BDFFF710FE50B100F030
:104880004002D2B2002A0CBF0021022100F03F00FA
:10489000FFF76EFF08BD00BF9CB1FF1FA0B1FF1F57
:1048A00072B60D4B1A68B2FA82F31D2B02D962B6AA
:1048B000002070474FF00041D94022EA010206492A
:1048C0000A6062B6054903EBC303DB00C818002287
:1048D000CA504260704700BFA49EFF1F2893FF1F6D
:1048E00008B50F4BC31A0F4AA2FB03231B091D2B4C
:1048F00014D80D4A12783AB10C4A127812F0FF0F10
:1049000002D0FFF717F808BD72B609494FF0004210
:1049100022FA03F30A681A430A6062B608BD00BFB0
:104920002893FF1F398EE3381EAFFF1F28AFFF1FEC
:10493000A49EFF1F044B5888044B1B681BB11A88A8
:104940005B88D31A184470478CB1FF1F3CAFFF1F20
:1049500008B50E4B1B7813F0FF0F16D10C4B1968DE
:1049600041B14B880B800320FFF72EF80022084B43
:104970001A6008BDFFF794FF014618B10320FFF746
:1049800023F808BD0122034B1A7008BD36AFFF1F84
:1049900038AFFF1F35AFFF1FC02928BFC02172B637
:1049A000144B18600023144A1380144A1360536098
:1049B0009360D36013615361C9B1F0B41646012707
:1049C0005D0903F01F0207FA02F456F8252022437E
:1049D00046F8252001339942F2D100234380013368
:1049E00000F582709942F9D162B6F0BC704762B6A8
:1049F000704700BF4CAFFF1F6EAFFF1F54AFFF1FCC
:104A000072B6264B1B88264A02EB830002F118017E
:104A100088423FD230B452F8231089B9021D214C8C
:104A2000A41A591C01EB940405E062B600202FE0A3
:104A300052F8041B21B901331046A342F8D1F4E720
:104A4000B1FA81F24FF00044D44021EA0401016040
:104A500001B9013311490B8013490B8801339CB212
:104A60000C8062B60E49401A8010C2EB401000EB79
:104A7000801041F67C7202EB80020C4909688818AC
:104A800001258D540A4A1288934284BF084B1C802A
:104A900030BC704762B60020704700BF6EAFFF1F8A
:104AA00054AFFF1F6FAFFF1F70AFFF1F4CAFFF1F53
:104AB00048AFFF1F428872B60378012B02D9013B31
:104AC000037017E053110C48D24302F01F024FF05D
:104AD000004121FA02F250F82310114340F823104C
:104AE000064A128893423CBF044A1380044A138842
:104AF000013B138062B6704754AFFF1F6EAFFF1FBC
:104B000070AFFF1FC36893B130B4187A90420AD1D6
:104B100058685C7A006950F8245025B940F8241090
:104B2000087801300870DB68002BEED130BC70478C
:104B3000437A8B4206D9036953F82100002243F8D7
:104B4000212070470020704738B5437A8B4218D92E
:104B5000036953F82140002243F821209CB12378B7
:104B6000012B12D9FFF74CFF054628B14FF4807294
:104B7000211D0430FEF734FB2378013B23702846C7
:104B800038BD002038BD002038BD204638BD00BFEC
:104B9000037C002B31D14368427A5B7A9A422CD84D
:104BA00030B472B60468E36823B9E06013E01346DA
:104BB00000E01346DA686AB119688C42F7D15D6883
:104BC00041688D42F5D11989134602898A42F1D193
:104BD00062B611E0D8600023C3600268937A0133A3
:104BE000937202680123137241688A7A1A448A72A6
:104BF00042681372037462B630BC7047037C002BAA
:104C00002FD04368427A5B7A9A422AD872B60268F9
:104C1000D36833B3984208D1C3680BB1D36007E0BF
:104C20000023D36004E0984202D0DB68002BFAD165
:104C30004368427A1B69002143F822100268937A84
:104C4000013B937203689A7A02B919724268937AA7
:104C5000013B937243689A7A02B91A720023037473
:104C600062B67047084B1B785BB9D022074B1A70AD
:104C70004FF08042A3F256331A600120024B1870A5
:104C800070470020704700BF50AFFF1F5EE400E098
:104C9000F8B5184A136843F080731360164A136816
:104CA00043F001031360154B1D68154B1C689CB144
:104CB000124E237A6BB1376823681B6820469847E9
:104CC0003368DB1B1B099AB2A280E1888B4288BF44
:104CD000E2806469002CECD1084B1B685B1B1B094C
:104CE0009AB208490A80084909888B4284BF064B5A
:104CF0001A80F8BDFCED00E0001000E0041000E0B8
:104D000044AFFF1F72AFFF1F6CAFFF1F10B472B62E
:104D100009B9026822B9294B1C882146002311E0F9
:104D200003790F2BF7D825490988194111F0010F94
:104D3000F1D003F1007303F59063B2EB431FEAD1A6
:104D400062B639E041FA03F212F0010F2CD10122D0
:104D50009A401443194A148062B6DAB20271184CB0
:104D6000216841F002012160043C216841F0020108
:104D70002160822413490C601A310A7004310A70D0
:104D800006390A7007310A7003F1007303F5906366
:104D90005B01036000221A605A609A60DA601A614F
:104DA0005A619A61DA6107E00133102BCAD162B609
:104DB000002303601023037110BC704774AFFF1F02
:104DC000408004400080004003790F2B10D8094A2E
:104DD000137072B608490279012303FA02F20B88B4
:104DE00023EA02030B8062B61023037100230360E1
:104DF000704700BF1A80004074AFFF1F70B5EFF31B
:104E0000108272B60C4B186898B11C4600250B4EE8
:104E1000436923600BB19D6100E0356002B962B661
:104E2000457783689847EFF3108272B620680028B0
:104E3000EED102B962B670BD78AFFF1F7CAFFF1F25
:104E400008B5FFF7DBFF08BD1C4B1B6823B9836067
:104E5000C3601A4B18602DE001681A6891420AD2AB
:104E600083600022C260D8601A680168521A1A6012
:104E7000124B18601EE09A68A2B102681968521AB3
:104E800002609B6819688A42F5D28360DA68C26062
:104E9000D860C26890601A680168521A1A600223CA
:104EA0000375704702681968521A02600022826016
:104EB000C360986002230375704700BF80AFFF1F77
:104EC00070B5194B1C68ECB1236823B90025164E48
:104ED00004E0236813B1013B236013E0A36803B12E
:104EE000DD6033602575206903681B68224629460A
:104EF000984763681BB123602046FFF7A5FF34681D
:104F0000002CE6D1EFF3108372B6084A1068002136
:104F1000116003B962B628B18468FFF795FF204697
:104F2000002CF9D170BD00BF80AFFF1F90AFFF1FF5
:104F300008B5034A136801331360FFF7C1FF08BDCA
:104F400000AEFF1F08B503681B68C9B2984708BDCB
:104F500008B503681B68C9B2984708BD08B503685F
:104F60001B68C9B2984708BD08B503681B68C9B279
:104F7000984708BD08B5084600F098FD012008BD17
:104F800008B5084600F092FD012008BD38B50D4671
:104F9000084601F0D5FE04460146284600F0D8FD3B
:104FA000204638BD10B508461446114600F0D0FD25
:104FB000204610BD08B500F0B3FE08BD08B5084690
:104FC00000F048FD003018BF012008BD08B50846B4
:104FD00000F01EFD003018BF012008BD08B50846CE
:104FE000114600F0ADFC08BD08B5084600F0E4FC31
:104FF00008BD00BF08B5084600F086FC08BD00BF2C
:1050000008B500F021FC08BD08B5044B03EB5100C6
:10501000B0FBF1F000F080FB08BD00BF0044950834
:1050200010B51446054B03EB5100B0FBF1F000F056
:1050300073FB204600F0DAFB10BD00BF004495086A
:1050400008B500F053FE08BD08B500F015FE08BD18
:1050500008B500F001FE08BD08B500F0D9FD08BD97
:1050600008B500F0E7FD08BD704700BFF8B56AB1AC
:1050700006460F461446002533681B6817F8011BC7
:10508000304698470544013CF6D100E0002528460B
:10509000F8BD00BF08B5FBF7F1F9FBF737FF00F0EB
:1050A000C1FAFAE7F0B400EB8303984234D211F06E
:1050B000020F03D12BE011F0020F28D050F8044B5F
:1050C00021F8024B240C22F8024B8342F3D823E050
:1050D000834212D824E050F8086B50F8044CB5B263
:1050E00045EA044541F8045B240C240444EA1644D0
:1050F00042F8044BB842EED3EAE750F8044B21F8EB
:10510000024B240C22F8024B8342F6D808E0A3F1AC
:105110000807B842DFD3F0E7A3F10807B842DAD3B3
:10512000F0BC704770B5064672B6194A1568002380
:105130001360184A14681360174A128817490878D0
:105140000B7062B688B1C2F14003154A82FB0312AC
:10515000A2EBE3721348016811440160642202FB70
:1051600003F303EB1123104A13603DB100222946DB
:105170003046FFF7C7FC2846FFF79CFC3CB10122F4
:1051800021463046FFF7BEFC2046FFF793FC70BD7A
:10519000B4AFFF1F9CAFFF1FC4AFFF1FB0AFFF1F17
:1051A00056555555B89EFF1FBC91FF1F38B5044694
:1051B0000021FFF7C9FC054601212046FFF7C4FC8A
:1051C00004463B4B1B785BBB15B12846FFF772FCCE
:1051D00014B12046FFF76EFC364B186820B1FFF77C
:1051E00069FC0022334B1A60334B186820B1FFF77B
:1051F00061FC0022304B1A60304B186820B1FFF779
:1052000059FC00222D4B1A602D4B186820B1FFF776
:1052100051FC00222A4B1A6000222A4B1A8038BD0A
:105220007DB9FFF7EDFB054628B9002C3ED020469E
:10523000FFF740FC38BD4FF480720021043001F0CC
:105240000DFD6CB9FFF7DCFB044618B92846FFF7E3
:1052500031FC38BD4FF480720021043001F0FEFCB7
:1052600072B6144B186830B91D60144B1C600022D4
:10527000144B1A8019E0104B1B6823B90E4B1D60AC
:105280000F4B1C6011E00B4A13600B4B1D600B4A67
:1052900015680B4B196811601C600022094B1A80BD
:1052A000FFF708FC2846FFF705FC62B638BD00BFD3
:1052B0009AAFFF1FA0AFFF1FC0AFFF1FB8AFFF1F08
:1052C000A4AFFF1F98AFFF1F00230A4A13800A4AAA
:1052D00013600A4A13600A4A13600A4A13600A4AB2
:1052E00013700A4A13700A4B1B681B0A094A1360A1
:1052F000704700BFC4AFFF1FACAFFF1F94AFFF1FCD
:10530000B4AFFF1F9CAFFF1FB0AFFF1FA8AFFF1FC1
:10531000B89EFF1FBC91FF1F2DE9F04F83B0012203
:10532000474B1A708708474BB3F800A0464B1C68E0
:10533000464B1D6834B9FFF763FB044600287CD058
:10534000414B186035B9FFF75BFB0546002874D068
:105350003E4B1860002F6DD0CAF18006B7420ED3C5
:105360003B4B0193DFF8EC80DFF8EC90DFF8D8B02E
:1053700015E04FF0000A80267F2F10D801E0344B53
:1053800001934FEA4A002A1D211D3B460244014475
:105390000198FFF787FE57442A4B1F804DE0002EEF
:1053A0003ED04FEA4A002A1D211D334602440144E3
:1053B0000198FFF777FE019B03EB86030193BF1B68
:1053C000D8F8003013B9D9F800301BB156441D4B42
:1053D0001E8032E0C8F80040C9F80050FFF710FB0B
:1053E000044638B90023184A1360184A1360154A56
:1053F000138022E0FFF704FB054650B92046FFF773
:1054000059FB0023104A1360104A13600D4A1380A1
:1054100013E0CBF800400D4B1860002FA9D107E036
:10542000D8F800304BB9D9F80030002BD2D004E0C6
:105430004FF0000A034BA3F800A003B0BDE8F08FC3
:10544000B0AFFF1FC4AFFF1FACAFFF1F94AFFF1F74
:10545000C091FF1FB4AFFF1F9CAFFF1F0023034A83
:105460001370034A1360034A13607047BCAFFF1FF9
:10547000A0AFFF1FB8AFFF1F2DE9F84F324B1B68DD
:105480000133082B50D900222F4B1A602D254EE0F6
:10549000AC4256D22B1B2D4A106850B901E02B4666
:1054A00000249A0000212A4800EB440001F0D6FBBA
:1054B00047E03E68274AB2F800A0CAF180029A424B
:1054C00028BF1A464FEA840E4FEA4A0300F1040946
:1054D000994406F1040C9C446AB1AEF1040EC64432
:1054E00011463CF902BB39F8023B43EA0B434EF844
:1054F000043F0139F5D1144452447F2A11D9FFF7F2
:10550000D9FA3046FFF7D6FA134A11680F4B1960E3
:1055100000231360114A1168396013600D4A13802B
:10552000B6E70C4B1A80B3E7074A13602C25074BEC
:1055300018680028B3D02B460024094FDFF81080EC
:10554000B7E7A800BDE8F88FC89EFF1FA0AFFF1FF8
:105550007492FF1F98AFFF1FC0AFFF1FA4AFFF1FC4
:10556000B8AFFF1F0378A12B2BD1C378012B05D136
:10557000174B5B680B70012010607047022B22D123
:105580004378812B06D1124B986808709B681B12D8
:105590004B7012E0822B03D100230B704B700CE098
:1055A000832B04D1FF230B700F234B7005E0842B5A
:1055B0000BD101230B7000234B70022313600120D9
:1055C000704700207047002070470020704700BFE0
:1055D000BC9EFF1F0378212B18D14278C378012B82
:1055E00007D1012A14D10D4B0A785A6001201860A6
:1055F0007047022B0ED1012A0ED1084A48780B7849
:1056000003EB002393600120106070470020704777
:10561000002070470020704700207047BC9EFF1F8D
:10562000704700BF234B1B78002B42D110B50122DD
:10563000204B1A70FFF77EF908B1FFF7F1FF00F079
:105640000BFB08B1FFF710FD00F022FC08B100F0E1
:1056500089FD00F0BFFC08B100F086FD0022154B6B
:105660001A70EFF305831BBBEFF3108372B6124A77
:10567000106810B9E3B962B610BD104A127812B1C1
:10568000B3B962B610BD01210C4A117042690A49D2
:105690000A6012B10021916102E00021084A116004
:1056A00003B962B60024447783689847034B1C70A3
:1056B00010BD7047C6AFFF1F88AFFF1F8CAFFF1F25
:1056C00084AFFF1FF0B44D1E2E460024B0FBF2F352
:1056D00002FB13032746092B94BF30333733DBB269
:1056E00006F8013FB0FBF2F008B10134EEE70B1908
:1056F00000225A7094420BDD1A46002315F8010F60
:1057000014782C7002F801090133F81A8342F5DB92
:105710000846F0BC704700BF264A136843F4806314
:1057200013600023244A1370244A1370244A137010
:10573000244A1370244A1370244B1B7813B1152B81
:1057400005D008E040F21332214B1A6003E040F22A
:105750001332204B1A60204B1B78012B02D0052BF3
:1057600005D008E04FF451721C4B1A6003E04FF46F
:1057700051721B4B1A601F2898BF2020C0F344327F
:10578000184B1A70C0F347125A7000F01F0098723D
:1057900004229A700221D9745A7588221A743C2204
:1057A000DA704022104B1A704FF40052A3F22933E2
:1057B0001A6070473480044054B0FF1FCDAFFF1F04
:1057C0005CB0FF1F55B0FF1FCCAFFF1F10B0FF1F15
:1057D00040A0044018C00440CC9EFF1F44A00440D9
:1057E0001CC0044000A006402DE400E0154B9B784F
:1057F00003F0EC0200F00303134310F0040F18BF92
:1058000043F010030F4A937000F00F03042B03D1F1
:10581000937943F0400393710A4B5B7903F0EF03F4
:1058200010F0100F18BF43F01003064A537193791C
:1058300003F0EF0310F0200F18BF43F01003014AEC
:105840009371704700A00640224B1B6813F4806FD1
:105850003FD010B5204B1B7813F0FF0F06D01E4C25
:10586000FFF7E0FE237813F0FF0FF9D14FF4005259
:105870001A4B1A6000221A4BDA701A4B1B7813B1BC
:10588000152B05D008E040F20312174B1A6003E015
:1058900040F20312154B1A60154B1B7803F07F037F
:1058A000012B02D0052B05D008E040F20312114B6A
:1058B0001A6003E040F203120F4B1A6000230F4AF4
:1058C00013700F4A13700F4B1B680BB101221A7033
:1058D00010BD704734800440CCAFFF1F84E100E06E
:1058E00000A0064010B0FF1F40A0044018C00440B4
:1058F000CC9EFF1F44A004401CC0044054B0FF1FB6
:10590000CDAFFF1FC8AFFF1F10B50446094A13787B
:1059100013F0FF0FFBD101212046FDF779FE002196
:105920002046FDF743FE044B53F83420034B1A6026
:1059300010BD00BFCCAFFF1F2073000058B0FF1F89
:1059400010B40C4609B140F08000174B1B78984208
:1059500028D0164A126812F4806F21D003F07F031A
:10596000012B02D0052B04D006E00022104B1A6058
:1059700002E000220F4B1A60002C14BF6023442366
:1059800000F07F02012A02D0052A05D008E043F486
:105990004073074A136003E043F44073054A136001
:1059A000014B187010BC7047CC9EFF1F3480044020
:1059B00044A004401CC00440114B1B7883421ED0FD
:1059C000104A126812F4806F17D013B1152B04D04F
:1059D00006E000220C4B1A6002E000220B4B1A601A
:1059E00010B1152805D008E040F21332064B1A60BA
:1059F00003E040F21332054B1A60014B18707047F8
:105A000010B0FF1F3480044040A0044018C0044080
:105A10000D4B1B6813F4806F13D021280DD810B5DF
:105A20000A4C0B4B53F8303023600121FDF7F0FD99
:105A3000236800221A70012010BD0020034B18605B
:105A400070470020704700BF34800440C8AFFF1F7C
:105A500020730000114B1B6813F4806F1BD01228B9
:105A600004D140F202320E4B1A600DE0142804D12A
:105A700040F202320B4B1A6006E00B4A537B03F0F4
:105A8000FE03537300207047074A537B43F0010322
:105A90005373012070470020704700BF34800440DA
:105AA0000CA0044014C0044000A00640214B1B6819
:105AB00013F4806F3CD02DE9F0411F4B1B680BB1F4
:105AC00001221A7007461D4B1C780134402C28BF58
:105AD00000241B4D1B4EDFF8708017E0FDF7EAFC39
