:1000000000180020C1000000712800003528000001
:10001000352800003528000035280000352800006C
:100020003528000035280000352800007128000020
:100030007128000035280000BD2600008D27000033
:10004000712800007128000071280000712800004C
:10005000712800007128000071280000712800003C
:10006000712800007128000071280000712800002C
:100070008918000001290000D9290000712800001A
:10008000712800007128000071280000712800000C
:1000900071280000712800007128000071280000FC
:1000A000C91A0000712800007128000071280000A2
:1000B00071280000712800007128000071280000DC
:1000C000F8B502F0D9FB0821474A484B1A60484A64
:1000D000484B1A60484A494B1A60494B1A780A4201
:1000E00002D01A780A431A702A22464B46481A70E0
:1000F00000234649464C1A188A4203D2E558043375
:100100001560F8E70021434B434A934201D202C3F2
:10011000FBE70023414A424958589446985004331B
:10012000C02BF9D100210326FF2580248A083D4BEE
:100130009200D2180B002F003340DB009F40106864
:100140000131B84307002000984003003B4313608F
:100150002029EBD16246344B1A608A22334B1A7045
:10016000334B663A5A707C321A709E3A9979114232
:10017000FCD0102299791142FCD10C209A792C499B
:100180000240082AFAD1053A0A713D324A71203AF2
:1001900099791142FCD0402299791142FCD025492D
:1001A000254A11602021224A117014399A790A4097
:1001B0000C2AFBD1214A224B1A60224A224B1A6098
:1001C0000022224B1A60224B07321A60214A224B2E
:1001D0001A6062B600F0E6FF02F0AAFD02F052FBE0
:1001E00000F031FFFEE7C046300004F034800440E8
:1001F000823F0000388004400100000F3C80044032
:1002000002D0074000E00740B0FDFF1F18FFFF1FAE
:10021000E030000018FFFF1F1003002000F9FF1F4F
:100220000000000000E400E008ED00E0005006409F
:10023000004006400000011044800440C000050555
:10024000048004407FBB000014E000E018E000E000
:1002500010E000E00000202020ED00E0FFFFFFFFA5
:10026000FFFFFFFFFFFFFFFFFFFFFFFFFFFFFFFF9E
:10027000FFFFFFFFFFFFFFFFFFFFFFFFFFFFFFFF8E
:10028000FFFFFFFFFFFFFFFFFFFFFFFFFFFFFFFF7E
:10029000FFFFFFFFFFFFFFFFFFFFFFFFFFFFFFFF6E
:1002A000FFFFFFFFFFFFFFFFFFFFFFFFFFFFFFFF5E
:1002B000FFFFFFFFFFFFFFFFFFFFFFFFFFFFFFFF4E
:1002C000FFFFFFFFFFFFFFFFFFFFFFFFFFFFFFFF3E
:1002D000FFFFFFFFFFFFFFFFFFFFFFFFFFFFFFFF2E
:1002E000FFFFFFFFFFFFFFFFFFFFFFFFFFFFFFFF1E
:1002F000FFFFFFFFFFFFFFFFFFFFFFFFFFFFFFFF0E
:10030000FFFFFFFFFFFFFFFFFFFFFFFFFFFFFFFFFD
:10031000FFFFFFFFFFFFFFFFFFFFFFFFFFFFFFFFED
:10032000FFFFFFFFFFFFFFFFFFFFFFFFFFFFFFFFDD
:10033000FFFFFFFFFFFFFFFFFFFFFFFFFFFFFFFFCD
:10034000FFFFFFFFFFFFFFFFFFFFFFFFFFFFFFFFBD
:10035000FFFFFFFFFFFFFFFFFFFFFFFFFFFFFFFFAD
:10036000FFFFFFFFFFFFFFFFFFFFFFFFFFFFFFFF9D
:10037000FFFFFFFFFFFFFFFFFFFFFFFFFFFFFFFF8D
:10038000FFFFFFFFFFFFFFFFFFFFFFFFFFFFFFFF7D
:10039000FFFFFFFFFFFFFFFFFFFFFFFFFFFFFFFF6D
:1003A000FFFFFFFFFFFFFFFFFFFFFFFFFFFFFFFF5D
:1003B000FFFFFFFFFFFFFFFFFFFFFFFFFFFFFFFF4D
:1003C000FFFFFFFFFFFFFFFFFFFFFFFFFFFFFFFF3D
:1003D000FFFFFFFFFFFFFFFFFFFFFFFFFFFFFFFF2D
:1003E000FFFFFFFFFFFFFFFFFFFFFFFFFFFFFFFF1D
:1003F000FFFFFFFFFFFFFFFFFFFFFFFFFFFFFFFF0D
:10040000FFFFFFFFFFFFFFFFFFFFFFFFDEF9FFFF23
:1004100010B5064C2378002B07D1054B002B02D0DA
:10042000044800E000BF0123237010BD18FFFF1F28
:1004300000000000E0300000084B10B5002B03D096
:100440000749084800E000BF07480368002B00D1B7
:1004500010BD064B002BFBD09847F9E700000000C9
:100460001CFFFF1FE030000018FFFF1F000000000E
:1004700070470B000833DBB210B5072B09D80122F7
:100480009A401300DD22134203D0006803681B6802
:10049000984710BD70B50224E0B20021013400F08D
:1004A0000DFE082CF8D10021112000F007FE0021DC
:1004B000142000F003FE0021152000F0FFFD0121B3
:1004C0000E2000F0FBFD01210F2000F0F7FD0225BA
:1004D0001B4B2900EC181B4BE4001C19200000F0FA
:1004E000C7FC01350521200000F0D6FC082DEFD116
:1004F000154C1649A06C0368DB699847220000235D
:100500004C32137022004E32137022004D321370A1
:100510000F4AA365E26522662200E93213702200C9
:100520006632137022006532137022006732137036
:10053000220068326365137064340333237070BD26
:10054000FEFFFF1F2400002034FFFF1F127A00006F
:10055000FFFF0000F8B5012506000F0014005D4004
:1005600004D0806CF0210368DB6C9847E719BC422B
:1005700006D0B06C2178036801341B689847F6E711
:10058000002D04D0B06CF7210368DB6C9847F8BDF0
:10059000F7B5019308AB1B780500013BDBB20C00FB
:1005A00017000F2B22D849B200291FDAE02C17D8E8
:1005B000806C0B43D9B203687F261B6898473900CB
:1005C000A86C314003681B68984710239C43C02CDB
:1005D0000CD0A86C0199036831401B68984705E06E
:1005E000F72C03D948302100FFF743FFF7BDFFFF89
:1005F000030010B566331B78F12B76D018D8B02BDA
:1006000035D008D8902B28D0A02B48D0802B00D0F4
:100610008AE0036844E0D02B4ED004D8C02B00D031
:1006200082E0036949E0E02B23D0F02B4ED07BE041
:10063000FA2B14D008D8F32B6BD058D3F62B6FD0ED
:10064000F82B71D1036B6CE0FC2B0CD009D3FE2B83
:100650000BD0FF2B68D1436C63E0436820E0436B11
:100660005FE0836B5DE0C36B5BE0036C59E0C368E4
:1006700016E08269002A57D0030068331978FE23F8
:10068000C9019B011940030067331C787F23234075
:100690001943264B6530C9180078904744E08368B9
:1006A000002B41D0020001006832673165301278BA
:1006B00009780078984737E04369002B34D002006E
:1006C000653067321178007898472DE0C269002ABA
:1006D0002AD0010067310B78497809021943802933
:1006E00000D98021693090471EE0036A12E0416A18
:1006F000002919D0030068331A78FE23D2019B0128
:100700001A407F236730007803401A43100088475F
:100710000AE0836A002B07D067300078984703E02F
:10072000C36A002B00D0984710BDC04600E0FFFF11
:1007300073B50600643632780400D307DB0FDBB2F2
:100740000D00002B00D18FE001218A4300D18BE006
:100750000200663211780A00803AD2B2602A20D8AC
:10076000020065321078A84202D06B426B41DBB2C6
:1007700032785208022A04D0032A05D0012A73D104
:1007800004E0002B70D001E0002B6DD1230022008B
:10079000683367321B78127800902000FFF7F8FE6C
:1007A00062E00800F0380F285ED802F0EDF90D4540
:1007B0002B1D5D5D085D085D0808085D08082000C8
:1007C0004830FFF756FE4FE02100220067310B78DA
:1007D0004978693209021943802900D9802101230F
:1007E0002000FFF7B7FE3FE02300A06C67331D78C1
:1007F0000368F3211B6898477F21A06C2940036898
:10080000DB6C17E02300A06C68331D78013B19787E
:100810000368ED010D431B68F22198477F262900EC
:10082000A06C314003689B6C9847A06CE909036891
:1008300031409B6C984717E0230067331D78702385
:100840002D012A001A40230068331D780F232B4006
:100850001A431500A06CF12103681B689847A06C2F
:10086000290003681B68984773BD0100302203000C
:1008700091430120802909D01A00EF2130320A4229
:1008800004D0C03B180043425841C0B27047002317
:1008900042B29A420EDA02000C32D2B2012A09D9CF
:1008A000042201009143F92904D00300EF2801D864
:1008B0000F22934318007047F0B5002489B0BD4D56
:1008C0002819083400F0EAFA0395302CF7D10024F7
:1008D0000294029BDD00039B5D19280000F012FBCF
:1008E000002808D0B44EB54F33683A680493049B8F
:1008F0009B1A2C2B0FD8280000F00CFB002848D0A6
:10090000AD4EAE4F33683A680693069B9B1A042B94
:1009100000D9CBE13DE0AA4D2B68002B04D1A94BB7
:10092000E05880B201F0E6FC2B68012B04D1A64B05
:10093000E05880B201F0DEFC2B68022B04D1A34BFF
:10094000E05880B201F0D6FCA14B1B68002B0BD104
:100950001021A04BA04AE358A2580091DBB2D2B2BA
:1009600080319E48FFF714FE994B1B68012B08D17C
:1009700002989B499B4A095C984851710621FFF7F0
:10098000E9FD01210F2000F067FB33680593059B0B
:100990003B60029B043401330293062B99D1112052
:1009A00000F07AFB8A4B012801D1186001E0002297
:1009B0001A60142000F070FB814C012801D12060E6
:1009C00007E0152000F068FB0223012800D0002377
:1009D00023600E2000F060FB002803D101210E30BF
:1009E00000F03AFB7D4D2B004C331B782C0002931A
:1009F000102B00D9B2E1A86C03681B699847002846
:100A000000D1ABE1A86C03685B699847C7B23B00B3
:100A1000042206009343F92B00D19FE1AB6D002B1C
:100A200000D085E0704B1F702B004D331B781800F1
:100A30000393FFF72CFFFFF718FF00280AD03306B7
:100A400008D46A46684B127B1A702B0050331F7013
:100A50000123AB6523004F331E783000FFF717FFEB
:100A6000F12845D01FD8B02844D007D8902841D0CD
:100A7000A0283FD0802800D0CAE03BE0D02837D063
:100A800002D8C02834D0C3E0E02833D0F02800D00A
:100A9000BEE080236B65230000224D331A702300D3
:100AA0006933187028E0F8280ED005D8F3281FD035
:100AB00020D3F62808D0ABE0FA2800D2A8E0FC2822
:100AC00002D9FE2800D2A3E023002200663318706A
:100AD00000236532137022006732137022006832DF
:100AE000137022000121E9321170AB656B650BE1D7
:100AF000022300E003236B656A6DAB6D013A9342FC
:100B000000D2D0E02300663318700F231E4023006C
:100B10002200653301361E7023005032127867338D
:100B20001A702200002368321370AB656B651BE0FE
:100B300002065BD5C6B2F73E082E57D80122DD214A
:100B4000B24049000A4202D1002E11D04EE02B00E3
:100B50002A0066331F700023673213702A00683240
:100B600013702A006532137023000122E93398E0E4
:100B70002A0069321178F0294AD1F7205A1CEB1863
:100B8000693318702B00663319702B0067331A70A5
:100B90002B00120A68331A702B0065331E702B006D
:100BA0000122E9331A702B004D33AE656E651E705D
:100BB000AAE0C046240000205C0000205400002071
:100BC00058000020F42D0000DC2D00000C2E000049
:100BD00020000020AC2D0000C42D000034FFFF1FBA
:100BE000BBFDFF1FB4FDFF1F83FFFF1F22004F321D
:100BF0001178E218F02911D1693217706A6D0392E9
:100C0000013A93424FD323004F331F78F02F07D17F
:100C10000023A36563654D3423709FE04F32ECE7FA
:100C20003800FFF734FE2300663306001870FFF724
:100C30001CFE22006532002804D00F233B40013304
:100C4000137000E0107022002300503212786733D6
:100C50001A70039A0023032A02D1230051331B7810
:100C60002200683213700023AB656B6523000122FC
:100C7000E9331A70B02E0DD006D8902E0AD0A02ECF
:100C800008D0802E0AD105E0D02E03D0E02E01D06E
:100C9000C02E03D123004D331F7035E02300002206
:100CA0004D331A7030E00133A36557E02C4B1B68BD
:100CB000002B08D110212B4A0091A2587031D2B2DA
:100CC0002948FFF765FC294D2B68002B04D1284BE0
:100CD000E05880B201F094FB2B68012B04D1254B26
:100CE000E05880B201F08CFB2B68022B04D1224B20
:100CF000E05880B201F084FB00210F2000F0ACF935
:100D000033680793079B43E6230066331A78902ADB
:100D100004D1220068321278002A17D023006633EB
:100D20001B78803BDBB2602B13D8230065331B7824
:100D3000029A93420DD0002A0BD000250299200080
:100D4000FFF7F6FC002D00D04CE607E080221A7079
:100D5000E4E72000FFF74CFC0125EFE709B0F0BD08
:100D600020000020C42D000034FFFF1F5800002089
:100D7000F42D0000DC2D00000C2E000037B5304BA8
:100D8000304C0025A36423004C331D7023004D33E9
:100D90001D7023004E331D702B4B0322E365236629
:100DA000230064331A70230065331D7023006633FB
:100DB0001D70230067331D70230068331D702300EE
:100DC0002000E9331D7029007D3269306565A56515
:100DD00001F0DDFF1D491E4A200025606560A56009
:100DE000E56025616561A561E56125626562A562D1
:100DF000E56225636563A563E5632564656401F0C9
:100E000081FF144B144C1B6820000193019A134B73
:100E10001A6000F025F82000083000F021F82000CA
:100E2000103000F01DF82000183000F019F82000F4
:100E3000203000F015F82000283000F011F837BD00
:100E4000C4FDFF1F34FFFF1FFFFF000071040000FF
:100E5000B0FDFF1F5C000020240000205400002093
:100E600000230A22036082808371C3717047FFFFF1
:100E700013B500230400C8B2E071A37100F00CF9AF
:100E8000002801D00323A371024B1B680193019B2F
:100E9000236013BD5C00002081807047F0B5040022
:100EA00085B0C07900F0F8F8A579431E98412A0072
:100EB00008239A431300A27101226E08C0B21640A3
:100EC0000F49B04205D00A680192019A22600222BD
:100ED0000FE00E6827680296029EF61BA788BE42A6
:100EE00009D32A40904206D00A680392039A2260EE
:100EF00009225340A371A0790007C00F05B0F0BDCF
:100F00005C00002009238079184009384342584189
:100F1000C0B27047092380791840083843425841CD
:100F2000C0B2704710B50368C9B21B68984710BDBE
:100F300010B50368C9B21B68984710BD10B50368A7
:100F4000C9B21B68984710BD10B50368C9B21B68C9
:100F5000984710BD10B5080000F0AEFB012010BD91
:100F600010B5080000F0A8FB012010BD70B5080006
:100F70000D0001F014FF04000100280000F0ECFB5C
:100F8000200070BD10B514000800110000F0E4FB53
:100F9000200010BD10B500F061FC10BD10B50800B8
:100FA00000F088FB431E9841C0B210BD10B5080088
:100FB00000F05AFB431E9841C0B210BD10B50800A6
:100FC000110000F0B5FA10BD10B5080000F006FBE6
:100FD00010BD10B5080000F087FA10BD10B500F084
:100FE00005FA10BD10B5044B4808C01801F0E0FD2B
:100FF00000F040F910BDC046C0C62D0010B5140069
:10100000054B4808C01801F0D3FD00F033F920006B
:1010100000F0BAF910BDC046C0C62D0010B500F0F2
:1010200005FC10BD10B500F0D1FB10BD10B500F0EF
:10103000BDFB10BD10B500F09BFB10BD10B500F05E
:10104000A3FB10BD704710B5FFF724FAFFF734FC7F
:1010500001F0B8FAFAE7FFFF10B51A2818D80C23E8
:1010600058430C4A835810181C7D027A224205D03E
:10107000002901D01A710BE01A7209E043681A685E
:10108000002902D003210A4301E002218A431A60A9
:1010900010BDC046842E000000231A280AD80C3345
:1010A0005843054A83581018007A1B7C0340581E89
:1010B0008341DBB218007047842E0000F0B51A2877
:1010C0002FD80C2217004743164CE5196B682600F1
:1010D000012901D0042911D1504334583018257DFD
:1010E000027A20202A432275A22252001A601A682E
:1010F000042901D1024313E0824311E038592C7ACC
:10110000027DA24302758022002908D0022902D163
:101110000422FF3204E00022032901D1812252007F
:101120001A60F0BD842E000072B60C4B1A680C4B8E
:1011300018680C4B1B6862B65B0104D532239342DE
:101140009B415B42C018084B9A1A084B5A43FA233A
:101150009B005843920D10187047C04618E000E0FD
:101160005C00002004ED00E07FBB0000555501004D
:1011700070B50400FFF7D8FF0500002C0FD0FFF773
:10118000D3FF074B401B984206D9013C002C06D0E8
:10119000FA239B00ED18F2E701F014FAEFE770BDB7
:1011A000E703000080221E4BD20510B51A60802292
:1011B000002012061A601B4B1B4918601B4B1C4A6F
:1011C0001960282313601B4A1B4C13601B4A1360D1
:1011D0001B4A13601B4A13601B4A136009222260DA
:1011E0001A4C20601A4C21601A4C23601A4C236060
:1011F0001A4C22601A4C20601A4801601A490B6090
:101200001A490B601A4B1A6001F0CCFA1920FFF74B
:10121000AFFF00F047FF1420FF30FFF7A9FF10BD1C
:1012200000E100E004800340FFBF000008800340AD
:101230000C80034014800340008003401C80034066
:10124000248003402C8003403480034004900340FA
:10125000089003400C90034014900340009003401A
:1012600004A0034008A003400CA0034014A00340C6
:1012700000A0034080212D4AC90013680B4313606E
:1012800000232B4A13702B4A13702B4A13702B4ADE
:1012900013702B4A13702B4B1B78032B0FD004D8E1
:1012A000002B0FD1284A294B0BE0152B04D0192B0A
:1012B00008D1274A274B04E0234A274B01E0274A5D
:1012C000274B1A60274B1B78042B11D005D8012B14
:1012D00012D1D122244B92000DE0052B04D0182B03
:1012E0000AD1224A224B06E0D122224B920002E090
:1012F0009122214B92001A60002800D101301F4B2F
:10130000C204D20E1A700022C0B258709A702C32E9
:10131000DA70FF231A4A116899430B0040210B43EE
:1013200013608022174B52011A60704734800440CA
:10133000E900002065000020F0000020EA00002005
:1013400064000020A60000201303000040A0044019
:101350001304000054D0044018C0044013020000DD
:1013600004900440D4FDFF1F44A004404404000046
:1013700050D004401CC004400890044000A0064027
:101380000CE400E000E100E0132110B5164B9A7860
:101390008A431100032202400A43410701D510216C
:1013A0000A439A700F2210490240042A03D14024B4
:1013B0008A7922438A7110215A798A43084200D0DF
:1013C0000A4310215A719A798A43840600D50A4348
:1013D00005499A71C30506D520204B780A78DBB2FF
:1013E00002430A704B7010BD00A006402C4B10B594
:1013F0001B685B0553D52B4B1B78DBB2002B02D04F
:1014000001F0E0F8F7E78021274A49011160274AF7
:10141000D370274B1B78032B12D005D8002B13D188
:101420000421244BFF310EE0152B05D0192B0BD1D5
:101430000421214BFF3106E00421204BFF3102E063
:1014400004211F4BFF3119601E4B19787F230B407D
:10145000042B12D005D8012B13D104211A4BFF31D4
:101460000EE0052B05D0182B0BD10421174BFF31B3
:1014700006E00421164BFF3102E00421154BFF3139
:1014800019601379D3790023134A1370134A137028
:10149000134B1B68002B02D0124A12781A7110BD30
:1014A000348004406400002080E100E000A0064099
:1014B000A600002040A0044054D0044018C00440BE
:1014C00004900440D4FDFF1F44A0044050D00440C9
:1014D0001CC0044008900440E90000206500002082
:1014E00060000020A700002070B505000C4B1C78A0
:1014F000E4B2002CFBD128000121FFF7DFFD28001A
:101500002100FFF7A9FD0C236B431800054A064B89
:10151000815810181960027A044B1A7070BDC046C9
:1015200064000020842E0000EC000020E800002071
:1015300010B5002901D080231843224C2278904214
:101540003ED0214B1B685B0539D57F231340042B0C
:101550000FD004D8012B0FD100221C4B0BE0052B20
:1015600004D0182B08D10022194B04E00022194B9B
:1015700001E00022184B1A606023002900D11C3BB7
:101580007F220240042A15D006D8012A17D1C02292
:10159000920013430D4A11E0052A06D0182A0ED1F5
:1015A0008022D20013430A4A08E0C022920013436B
:1015B000084A03E0802292001343074A1360207018
:1015C00010BDC046D4FDFF1F3480044044A0044039
:1015D00050D004401CC0044008900440194A1378BD
:1015E00083422ED018490968490529D5032B0FD00D
:1015F00004D8002B0FD115490B600CE0152B04D03B
:10160000192B08D10021124B04E00021114B01E0FD
:101610000021114B196003280FD004D800280FD1E6
:101620000E490A4B0BE0152804D0192808D10C49A3
:10163000074B04E00949074B01E00A49064B1960D2
:1016400010707047A60000203480044040A0044081
:1016500054D0044018C00440049004401303000018
:1016600013040000130200000E4B70B51A6800232B
:10167000520515D50C4C1A2811D80C2213004343DF
:101680000A490B4D5A58CB181B7A012122602B7046
:10169000FFF714FD23682A781A72012300E0236003
:1016A000180070BD3480044060000020842E0000CB
:1016B000A700002000207047F8B51F4B06001B68EC
:1016C0005B0537D51D4B1B68002B02D01C4A1278D6
:1016D0001A711C4D2C7801343F2C0AD9002408E0E3
:1016E00001F0D2F8402815DC17490B795BB2002BCA
:1016F00004DB164F3B78A342F2D010E03B78013375
:101700003F2B00D90023124AD25CDBB2D2B2CA719D
:101710003B70EEE7FF28ECDD00F054FFE9E7012223
:101720000B4BF6B21E550B4BE4B21A70064BAB32A4
:101730002C70DA70F8BDC04634800440EC00002004
:10174000E8000020F000002000A00640EA00002091
:10175000660000206400002070B504004518AC420B
:1017600004D02078FFF7A8FF0134F8E770BDFFFF31
:1017700010B5044B1B78002B02D000F023FFF8E7D4
:1017800010BDC04664000020064B1878064BC2B25C
:101790001B78D8B2824201D33F3000E00138801A72
:1017A0007047C046F0000020EA000020054B187882
:1017B000054BC0B21A78D3B2984200D24030C01A5A
:1017C0007047C046E90000206500002010B5124BAC
:1017D00012491A780878D2B2C3B29A4218D00133AB
:1017E0003F2B00D900230E48C45CD8B208700D49C5
:1017F000E4B20968200000290CD0934200D940329D
:10180000D31A20001A2B05DC074B1B780B7201E062
:101810000120404210BDC046E900002065000020C4
:10182000A800002060000020A7000020084B1A78C4
:10183000084B1B78DBB29A4207D001333F2B00D90B
:101840000023054AD05CC0B201E00120404270474D
:10185000E900002065000020A8000020064B074A90
:101860001B78DBB21370064B1B68002B02D0054AB5
:1018700012781A727047C04665000020E900002007
:1018800060000020A700002030B5234A13799B0692
:1018900011D5224BD479187819000130E4B2002315
:1018A0003F2800DC03001E480078834203D01D4817
:1018B000C454DBB20B70D1781748C9B24BB2002BBD
:1018C00017DA03795BB2002B13DA174B174C1D782C
:1018D0002378DBB29D4202D16C23C37009E001334F
:1018E0003F2B00D900231248C05CDBB2C0B2D071DC
:1018F0002370402319420ED0117919420BD00021D8
:101900000C4B19700C4B1B688B4202D00B490978A9
:1019100019722C23D37030BD00A00640E9000020CE
:1019200065000020A8000020F0000020EA00002050
:101930006600002064000020EC000020E800002089
:101940000223F0B50A4A0B4E1478C8272343DB0064
:10195000F518686008480578002D00D1403F09045B
:101960000F43F75001235D405C4005701470F0BDDB
:101970005C01002000F8FF1FD4010020431E10B5B9
:101980000020032B0ED872B6074A99008858002809
:1019900007D044685B008C50044904885A5A121BD3
:1019A0005A5262B610BDC0464C010020FA02002017
:1019B000431E0020032B09D872B6054A9B009B5892
:1019C000002B02D001305B68FAE762B67047C04670
:1019D000A0010020F8B572B60123174A08259446E5
:1019E0001E00164964465A1EA25C2A421AD05F01A4
:1019F0007C589A00002C05D1CB1908305860104B48
:101A0000CB5109E03243D2005458002C0AD18B1834
:101A1000083058600B4B8B500B4A1378013B137006
:101A200062B608E00133052BDCD162B60022064B1A
:101A30001A7000F059FDF8BD2830000000F8FF1FB3
:101A400088004000C8004000CA010020421E10B5B6
:101A5000032A30D8022380001843174BC0001B18FC
:101A600072B6164CA05C03280BD801F08DF8160452
:101A70000207052012E0083302200FE0083304209B
:101A80000CE00F48920014580E4B002C01D111505D
:101A900001E09858416099500CE00320A0540A00DE
:101AA00008325A60C822180700D4403A098809044D
:101AB0000A431A6062B610BD00F8FF1F080100203B
:101AC000A0010020B0010020F7B5BA4B1C781D0022
:101AD0000423E4B21C421DD0B74B1B78002B16D058
:101AE000B64A1378DBB2002B05D0013BDBB2137092
:101AF000002B00D100BEB24A1378DBB2002B06D017
:101B0000013BDBB21370002B01D100F03FFD04223A
:101B1000A84B1A700822224000D155E2A94BAA4FC7
:101B20001B78DBB29C08E4001D093C19002D00D095
:101B3000DBE1226863689006000F01380C2800D9A9
:101B4000CFE101F02BF881018101CE01CE01CE0160
:101B5000CE01CE01CE01AB01CE01CE01CE010D00F2
:101B60001A689A4E5B689A49736000230B600121E2
:101B7000984832602060984C92B22170974C3B613B
:101B8000BB610190A24218D8D020C000824200D38D
:101B9000E1E081204000824200D1BDE006D8802AE9
:101BA00000D1A3E0822A00D1A5E0E9E08C4B9A4263
:101BB00000D1C0E0FF33FF3313E090231B019A42B2
:101BC00013D009D8803B9A4200D0D9E07A4B854C9B
:101BD0001B7823700B00D9E0834B9A4200D130E18F
:101BE000824B9A4200D1CFE0CAE03C003D00B2787F
:101BF000714B20341A70A03580222368134203D021
:101C00006068083800F070FC0834AC42F4D100245D
:101C10002500774BE058002805D04368009300F07A
:101C200063FC0098F7E7724B1851724BE050724B0F
:101C3000E058002805D04368009300F055FC009858
:101C4000F7E76D4B6D4A18516D4BE0506B00D05269
:101C50006C4BE85C0238032807D800F095FF0204BB
:101C60000204002200E001225A5501350434042DFB
:101C7000CFD100230124644D2B70644B6449621E54
:101C8000E3188A5C9B001A7008231A4220D000F0E7
:101C90000DFC6301002805D0FA18083050605D4A39
:101CA000FA5003E0F8502B7801332B7000F0FEFB64
:101CB0000122A3001343DB00002805D0FA180830E6
:101CC0005060019AFA5003E0F8502B789B182B7063
:101CD00002210023A2001143C9007B5003210A43C3
:101CE0008A400134BB50052CC7D14EE03D4C2370D7
:101CF000637002234AE07F22B0880240042A3FD862
:101D0000384C920023706370434BD2180223127830
:101D10001A423BD0217039E07F23B2881A40042A4E
:101D20002ED87388002B2BD102203B4992005218E9
:101D3000117881430DE07F23B2881A40042A1FD80E
:101D40007388002B1CD1022033499200521811785D
:101D50000143117019E07288B188304B5C68002C27
:101D60000ED01888904209D15888884206D1120AAC
:101D7000032A01D1237809E01B8907E00C33EDE742
:101D80000F22254B1A705CE000231C00F5889D4251
:101D900000D91D002E00402D00D940262000310022
:101DA000FFF7CEFDA419AD1B3AD12F00402E3BD03A
:101DB00047E0C04680200740D30100205D0100209D
:101DC000E80100209020074000F8FF1FC00100201C
:101DD000F4000020C8004000D4010020810600006B
:101DE00002030000CB01002021090000210A0000AD
:101DF0004C010020F8000020A0010020FA02002081
:101E0000B001002008010020CA01002030C80110E4
:101E10002830000088004000C02007402C3000001F
:101E20004027AF4200D92F0020003900FFF788FD7E
:101E3000E419ED1B01D1402F03D17F4B1C607F4B78
:101E40001D8001227E4B4BE07E4A7F481168814213
:101E500007D18021526849028A421CD11A787B4BF3
:101E600014E07B48814216D17A4952688A4212D1E5
:101E70001A78A92A0FD15A78452A0CD19A78C22A01
:101E800009D1DB786B2B06D1734BBD3A00211A7058
:101E90000800FFF755FD714B236022E0664F3E6856
:101EA000002E13D0654B1C882500402C00D94025FE
:101EB00029003000FFF744FD641B604BA4B21C8076
:101EC000002C01D1402D00D174193C60A0225D4B43
:101ED000D2001988914204D100225A709A78604B3E
:101EE0001A700122564B1A706AE008226068013DA0
:101EF0000838EDB2134037D000F0F6FA5949A8007F
:101F00004258594B002A1CD0566846501100585D63
:101F10000831616003280BD800F036FE0204060881
:101F2000032104E0022102E0052100E004215955CB
:101F30000821C8230C4200D1403B128812041343ED
:101F40003DE0585D032808D800F01EFE3A3A02042E
:101F5000002200E001225A5532E008221440621E9D
:101F6000944102345C552BE02268110C8AB2028045
:101F700000291ED03D4943804360AB005F583C4E72
:101F8000002F01D1585001E0F158486039496D00E7
:101F9000F0506B5AD2186A5200F088FA002802D02A
:101FA0000830606005E0344A206013780133137014
:101FB00006E008231C4201D1304B00E0274B236090
:101FC00008222F4B1A7080E5012004421ED0022304
:101FD0001B492A4C0B702B4B2B4E1A702B4B1C6041
:101FE0009C602B4C1A61DC600D249A615E60294B69
:101FF0001C70FF23284C2370194C2B702270274A29
:1020000013709F22264B1A70087013E063B2002BE6
:1020100004DA0D221F4B1A7080232B700222144207
:1020200004D01D490B78DBB20B702A7010231C42C0
:1020300000D02B70F7BDC046F4000020C80100207E
:1020400094200740C001002021090002DD0100208A
:1020500021090003010004005D010020C8004000C8
:1020600098200740A0010020080100204C0100201A
:10207000F8000020FA020020CA0100208800400079
:10208000802007405C0100200C01002000F8FF1FA9
:1020900060010020C0200740882007408C200740B6
:1020A0008420074010B500F009FD002211001B4BF1
:1020B000D150981808324160882AF9D180201849F7
:1020C000C0020A6802430A601A0A1649D2B20A70AC
:1020D0001A0C1549D2B20A70144A1B0E1370FF2352
:1020E000134A00201370134A13491370134A1370D4
:1020F00001220A701249087012490A70124A1168C6
:1021000099430B0070210B43136080220F4B520444
:102110001A6010220E4B1A7010BDC04600F8FF1F47
:10212000348004409C200740B0200740B420074082
:102130008020074088200740942007401020074057
:10214000002107408420074018E400E000E100E09F
:102150000821074010B5224C224B1B78002B3BD0A6
:102160000420FFF725FC032804D9013C1E4B002C5A
:1021700029D12BE000F09AF9011EF6D01B48038804
:1021800042880B729B0594009B0F23434B728388FC
:1021900092051C01120F22438A72C2889B0590018E
:1021A0009B0E0343CB72124B92080A731A780420D9
:1021B0004A735A788A739B78CB7308230B80FFF796
:1021C00045FC00200AE01A78002A02D001221A7089
:1021D00002E000F0F7F9BFE70120404210BDC04621
:1021E00099530000D3010020DC01002006030020E9
:1021F0000203002003001F2807D828200A2B0BD039
:1022000000200B2B08D12B3006E000207F2B03D8B9
:102210000248C318203B18787047C046C82F0000FA
:1022200070B5184C184B1B78002B28D00320FFF7F3
:10223000BFFB032804D9013C144B002C16D118E035
:1022400000F034F9051EF6D00024114B44721B78BF
:10225000062203720F490A3000F090FD0823032084
:102260002B802900FFF7F2FB20000AE01A78002AF1
:1022700002D001221A7002E000F0A4F9D2E7012096
:10228000404270BD99530000D3010020DC010020C2
:10229000DB010020D501002070B500290BD0134AC6
:1022A00013781C000C40A14205D00B43137001228F
:1022B000002803D116E0002816D0002200230C4C81
:1022C0001D5D210085420BD00133062BF8D1002380
:1022D000CC5C002C01D1C85404E00133062BF7D1AB
:1022E000002A01D0FFF79CFF70BDC046DB01002033
:1022F000D501002010B5020AC12A4DD9D3B2DF2A78
:1023000007D8F8223F219B01D20013400840184310
:1023100042E0F02B02D1C0B2002146E0E02B02D116
:10232000C1B2002041E0E22B19D1C0B200283ED05A
:102330001F4B1C78A0423AD05978884237D09A78FF
:10234000904234D0002C05D0002905D0002A2ED18F
:10235000023202E0002200E00122985415E01C3312
:10236000DBB2032B23D88005800D20D00023114938
:10237000CC5A0A0084421AD00233082BF8D1002329
:102380005900545A002C03D15052FFF7E3FE0EE0DF
:102390000133042BF4D10AE0FFF72CFF002806D00C
:1023A0003F234106C90F49001840FFF775FF10BDD4
:1023B000020300200603002070B500290BD00E4A4E
:1023C00013780B4207D08B4313700122002805D1EC
:1023D000FFF726FF0FE000280DD0002200231C008D
:1023E00006495D5C854201D101225C540133062B14
:1023F000F7D1002AECD170BDDB010020D50100200F
:1024000010B5020AC12A41D9D3B2DF2A07D8F8226F
:102410003F219B01D20013400840184336E0F02BC7
:1024200002D1C0B200213AE0E02B02D1C1B20020BB
:1024300035E0E22B14D1C0B2002832D0194B1A7803
:10244000824207D05A78824206D09A78824228D1B6
:10245000022202E0002200E00122002199540EE055
:102460001C33DBB2032B1CD88005800D19D0002350
:102470000D4A5900545A844204D100238B52FFF76D
:1024800069FE0EE00133042BF3D10AE0FFF7B2FE40
:10249000002806D03F234106C90F49001840FFF726
:1024A0008BFF10BD020300200603002070B572B63A
:1024B0000B4D2C68200000F007FC0D2802DD62B6F1
:1024C00000200CE080231B06C3409C432C6062B6B6
:1024D00048235843034B181800230360436070BD22
:1024E000D8FDFF1FC0F9FF1F10B504000E4848219A
:1024F000201A00F05DFB0D2814D80C4B1B78002B24
:1025000007D00B4B1B78002B03D02000FFF762FA9B
:1025100008E072B680231B06C340064A11680B43CD
:10252000136062B610BDC046C0F9FF1FCA0100208B
:10253000D3010020D8FDFF1F70B5124C2368002B7B
:1025400004D0206842880188130010E00E4B1B78ED
:10255000002B03D00220FFF711FA20602568002D20
:10256000EFD10CE0C618367A002E03D001339D1A45
:102570008B42F7DB002D02D1FFF7B6FF2560280064
:1025800070BDC046E4010020D301002010B50B4B04
:102590001B78DBB2002B0FD1094C21684A883F2AF7
:1025A00003DC881803720132F9E7402301200B8015
:1025B000FFF74CFA0023236010BDC046DE01002067
:1025C000E001002070B5234C2378002B40D101336B
:1025D0002370FFF7B1FF002801D000F0ABFAFFF73E
:1025E000E5F8002801D0FEF72DFD00F079F900286C
:1025F00001D000F0D5F800F0DFF9002801D000F09C
:10260000D0F800232370EFF30583002B20D1EFF3E4
:10261000108272B6104D2868002803D00F4C217824
:10262000002903D0002A13D162B611E001232370E0
:1026300043692B60002B01D0996101E008490B60D0
:10264000002A00D162B60025836845779847257037
:1026500070BDC046E9010020FC01002000020020FE
:10266000F8010020EFF3108072B643425841C0B227
:102670007047002800D062B67047FFFF10B5FFF723
:10268000F1FF0C4A1468002C10D063691360002B12
:1026900002D000229A6101E0074A1360FFF7E9FFC8
:1026A000002320006377A3689847E8E7FFF7E1FF7E
:1026B00010BDC046EC010020F001002010B5FFF76E
:1026C000DDFF10BD164930B50B68002B02D18360C9
:1026D000C36009E004681A68944207D20025121BFF
:1026E0008360C560D8601A60086016E002681C68E4
:1026F0009968121B026000290CD00C680B00A242E2
:10270000F4D28160C968A21AC160D860C1688860CB
:102710001A6002E08160C36098600223037530BDD7
:10272000F401002070B5174D2C68002C19D02368D7
:10273000002B02D0013B236013E0A268002A00D0E6
:10274000D360002120692A60036821751B6822007C
:1027500098476368002BE7D023602000FFF7B2FFA3
:10276000E2E7FFF77FFF0022074B1C681A60FFF7C4
:1027700080FF002C05D0A5682000FFF7A3FF2C00E8
:10278000F7E770BDF40100200402002010B5034AF1
:10279000136801331360FFF7C5FF10BD5C00002014
:1027A000704770471B4B1C4A19781C4B082901D1F4
:1027B000002102E00A2903D12E311160132206E024
:1027C0000C2901D1283100E03C21116012221A604D
:1027D000134B1A78134B002A01D0002200E001228B
:1027E0001A60114B1A78114B012A01D880220CE093
:1027F000042A01D8842208E0082A01D8852204E0AE
:10280000102A01D8862200E087221A600122084B94
:102810001A707047DCFDFF1F08B003400CB0034086
:102820000902002020B00340DDFDFF1F24B003405B
:102830000802002070B580258026ED02F6000B4CC2
:1028400023682B4201D0FFF73FF92368334201D0C0
:10285000FFF71AF823681B0501D500F051F823682B
:10286000DB04ECD500F0B8F8E9E7C046348004405A
:1028700010B5FFF7DFFFFFFF0022014B1A60704722
:10288000008104407047FFFFEFF31380002821D13F
:10289000EFF31083002B1FD1EFF3058100290FD038
:1028A00018000F290ED90B00103B0C4A9B089B0007
:1028B0009B18032218680A40D200D040C0B201E041
:1028C00080204000EFF31183002B05D0984203D9FC
:1028D000180001E0012040427047C04600E400E0DB
:1028E000054B1878054BC0B21A78D3B2984200D283
:1028F0004030C01A7047C046750200200B0200200D
:1029000030B5234A13799B0611D5224BD479187818
:1029100019000130E4B200233F2800DC03001E4808
:102920000078834203D01D48C454DBB20B70D178C9
:102930001748C9B24BB2002B17DA03795BB2002BF0
:1029400013DA174B174C1D782378DBB29D4202D166
:102950006C23C37009E00133272B00D900231248F0
:10296000C05CDBB2C0B2D0712370402319420ED0DC
:10297000117919420BD000210C4B19700C4B1B68BC
:102980008B4202D00B49097819722C23D37030BDC9
:1029900000B00640750200200B0200203402002027
:1029A0007C020020760200200C0200200A02002097
:1029B0007802002074020020054B1878054BC0B245
:1029C0001A78D3B2984200D24030C01A7047C0463D
:1029D000F00200208502002030B52C4A13799B06B6
:1029E00023D52B4BD479187819000130E4B2002399
:1029F0003F2800DC030027480078834203D02648A4
:102A0000C454D8B208702549086800280DD024495C
:102A10000978C9B28B4201D35B1A01E05B1A4033DB
:102A2000272B02DD1F4B1B780371D1781748C9B2E1
:102A30004BB2002B17DA03795BB2002B13DA1A4B77
:102A4000174C1D782378DBB29D4202D16C23C370F2
:102A500009E00133272B00D900231448C05CDBB206
:102A6000C0B2D0712370402319420ED0117919429F
:102A70000BD000210E4B19700E4B1B688B4202D0FD
:102A80000D49097819722C23D37030BD00C006405F
:102A9000F002002085020020AF020020800200200A
:102AA000F1020020AE020020F80200208602002081
:102AB00084020020F4020020EF02002030B585B02F
:102AC00072B670224121154B1A70154A1170154AC1
:102AD0003239117080221A701A7852B2002AFBDA49
:102AE000114B186862B6114B984201D80A2358431B
:102AF00001AC0A22210000F01EF800230C48E15C22
:102B00000500002905D05A008218013351800A2B94
:102B1000F5D101335B002B7005B030BD00000240E1
:102B20000700024006000240080002407F9698001D
:102B300002FFFF1F7047F8B506000D0017000024C4
:102B40003900300000F0BAF80B003733DBB2092946
:102B500001D83031CBB230002B55390000F028F8C5
:102B6000061E01D00134EBE72B1958702B005A1BBD
:102B7000944206DD1A78295D19702A550133013C0B
:102B8000F5E72800F8BDFFFF02B471464908490087
:102B9000095C49008E4402BC7047C04603B47146CC
:102BA000490840004900095A49008E4403BC704757
:102BB000002243088B4274D303098B425FD3030A7C
:102BC0008B4244D3030B8B4228D3030C8B420DD38F
:102BD000FF22090212BA030C8B4202D3121209021D
:102BE00065D0030B8B4219D300E0090AC30B8B425B
:102BF00001D3CB03C01A5241830B8B4201D38B0309
:102C0000C01A5241430B8B4201D34B03C01A5241AD
:102C1000030B8B4201D30B03C01A5241C30A8B42F0
:102C200001D3CB02C01A5241830A8B4201D38B02DB
:102C3000C01A5241430A8B4201D34B02C01A52417F
:102C4000030A8B4201D30B02C01A5241CDD2C309F1
:102C50008B4201D3CB01C01A524183098B4201D36D
:102C60008B01C01A524143098B4201D34B01C01A58
:102C7000524103098B4201D30B01C01A5241C308D0
:102C80008B4201D3CB00C01A524183088B4201D33F
:102C90008B00C01A524143088B4201D34B00C01A2B
:102CA0005241411A00D20146524110467047FFE797
:102CB00001B5002000F006F802BDC0460029F7D09B
:102CC00076E770477047C0461C2101231B049842D9
:102CD00001D3000C10391B0A984201D3000A0839AD
:102CE0001B09984201D30009043902A2105C401864
:102CF0007047C04604030202010101010000000008
:102D0000000000000B0010B50100180000F002F8F0
:102D100010BDFFFF70B5054C05001300201E04D048
:102D20000A000220290000E000BF70BD0000000082
:102D30000E4B70B500251E000D4CE41AA410A542E0
:102D400004D0AB00F35898470135F8E700F0BCF920
:102D5000084B00251E00084CE41AA410A54204D01C
:102D6000AB00F35898470135F8E770BDD430000048
:102D7000D4300000D4300000DC300000002310B557
:102D80009A4203D0CC5CC4540133F9E710BD030070
:102D90008218934202D019700133FAE7704700237A
:102DA000C25C0133002AFBD1581E70476E00000040
:102DB0006E0000006E0000006E0000006E0000005B
:102DC0006E00000028000000290000002A0000001A
:102DD0002B0000002C0000002D0000002CF0000053
:102DE00029F0000052F0000051F0000026F0000031
:102DF00027F000002CF0000029F0000052F0000045
:102E000051F00000E9E40000EAE4000028F00000CE
:102E100013F0000052F0000051F00000E9E400005F
:102E2000EAE400000000000000000000610F000064
:102E3000850F00003D100000351000002D1000002F
:102E4000251000001D100000E50F0000FD0F000020
:102E5000DD0F0000D30F0000C90F0000BD0F000000
:102E6000AD0F00009D0F0000950F0000250F000022
:102E7000310F00003D0F0000490F00006D0F0000F2
:102E8000550F0000420000F840A00440010000007F
:102E9000420000F844A0044002000000C00000F816
:102EA00000C0044001000000000000F8049004404D
:102EB00002000000000000F8089004400400000038
:102EC000C00000F81CC0044080000000C00000F8F2
:102ED00010C0044010000000C00000F808C004400A
:102EE00004000000C00000F80CC00440080000000E
:102EF000800000F80CB0044008000000800000F8DA
:102F000010B0044010000000800000F818B0044029
:102F100040000000800000F81CB004408000000069
:102F2000800000F814B0044020000000C00000F849
:102F300004C0044002000000800000F800B004401B
:102F400001000000400000F800A004400100000063
:102F5000400000F804A0044002000000400000F817
:102F60000CA0044008000000400000F808A0044045
:102F700004000000C00000F814C00440200000005D
:102F8000C00000F818C0044040000000800000F8B5
:102F900004B0044002000000800000F808B00440C3
:102FA00004000000020100F850D0044010000000AE
:102FB000020100F854D0044020000000030100F892
:102FC00078D00440400000002C5E7460616264347C
:102FD0006667656E362D3738271E1F202122232471
:102FE00025267333762E77785F4445464748494A0D
:102FF0004B4C4D4E4F505152535455565758595AA9
:103000005B5C5D2F3130636D350405060708090AE6
:103010000B0C0D0E0F101112131415161718191A88
:103020001B1C1D6F7170752A151915150001000004
:103030001DFEFF1F120000000002000048FEFF1FDF
:103040005B00000000220100A3FEFF1F2100000022
:103050000021010073FEFF1F090000000022000094
:10306000DEFDFF1F3F000000002100005AFEFF1F91
:103070000900000000220200C4FEFF1F280000001B
:103080000021020093FEFF1F090000000003000062
:10309000FEFEFF1F000000000103090430FEFF1FB9
:1030A0000000000002030904ECFEFF1F0000000006
:1030B0000303090402FFFF1F0000000000000000DE
:1030C0000000000000000000F8B5C046F8BC08BCD5
:0C30D0009E467047390400007D0D000092
:0430DC00F8B5C0463D
:1030E00000000000F07F7F027F01F7010A1211004B
:1030F000000000002C2E000000000000E80300008B
:103100000000000001000000FFFFFFFF0A040501AE
:103110000906A10175019508050719E029E71500C1
:103120002501810295017508810395057501050842
:1031300019012905910295017503910395067508FA
:103140001500257F05071900297F8100C012011095
:103150000100000040C016D0047302010203010008
:1031600018035400650065006E0073007900640068
:10317000750069006E006F0009025B00030100C06A
:1031800032090400000103010100092111010001BD
:10319000223F000705830308000109040100020320
:1031A000000000092111010001222100070581030F
:1031B0004000010705020320000209040200010388
:1031C00000000009211101000122280007058403E5
:1031D00008000406C9FF0904A15C7508150026FF54
:1031E00000954009758102952009769102950409A0
:1031F00076B102C0050C0901A101750A95041900F8
:103200002A9C021500269C02810005017508950381
:10321000190029B7150026B7008100C012034B0022
:103220006500790062006F006100720064000403B1
:1032300009040C0300000000000000000000000072
:08324000000000000000000086
:00000001FF
