:1000000000180020C1000000A523000069230000A3
:1000100069230000692300006923000069230000B0
:10002000692300006923000069230000A523000064
:10003000A523000069230000BD2E0000BD2F000095
:10004000A5230000A5230000A5230000A523000090
:10005000A5230000A5230000A5230000A523000080
:10006000A5230000A5230000A5230000A523000070
:100070001D2B0000052C0000ED2C0000A523000026
:10008000A5230000A5230000A5230000A523000050
:10009000A5230000A5230000A5230000A523000040
:1000A000CD130000A5230000A5230000A523000018
:1000B000A5230000A5230000A5230000A523000020
:1000C000F0B5474680B402F071F90821474A484B21
:1000D0001A60484A484B1A60484A494B1A60494BD3
:1000E0001A780A4202D01A780A431A702A22464B1A
:1000F000464C1A700023464846491A19824203D2D8
:10010000CD5804331560F8E70022434B43498B4236
:1001100001D204C3FBE70023414A424958589046A4
:1001200098500433C02BF9D100220327FF268025E5
:100130003D4930008C4611003940C9008840930881
:100140009B0063441C680132844320002C008C40D7
:10015000210001431960202AEAD14246334B1A603C
:100160008A22334B1A70334B663A5A707C321A70BB
:100170009E3A99791142FCD0102299791142FCD112
:100180000C209A792B490240082AFAD1053A0A71C3
:100190003D324A71203A99791142FCD04022997936
:1001A0001142FCD02449254A11602021214A1170B6
:1001B00014399A790A400C2AFBD1214A214B1A6042
:1001C000214A224B1A600022214B1A60214B073230
:1001D0001A60214A214B1A6062B600F0B3FF02F0A8
:1001E000E9FF02F0E9F801F0FDFFFEE7300004F05E
:1001F00034800440823F0000388004400100000F3A
:100200003C80044002D0074000E00740B0FDFF1FE3
:100210006407002074460000640700209C0B002047
:1002200000F9FF1F0000000000E400E008ED00E01E
:100230000050064000400640000001104480044089
:10024000C0000505048004407FBB000014E000E00E
:1002500018E000E010E000E00000202020ED00E0C9
:10026000FFFFFFFFFFFFFFFFFFFFFFFFFFFFFFFF9E
:10027000FFFFFFFFFFFFFFFFFFFFFFFFFFFFFFFF8E
:10028000FFFFFFFFFFFFFFFFFFFFFFFFFFFFFFFF7E
:10029000FFFFFFFFFFFFFFFFFFFFFFFFFFFFFFFF6E
:1002A000FFFFFFFFFFFFFFFFFFFFFFFFFFFFFFFF5E
:1002B000FFFFFFFFFFFFFFFFFFFFFFFFFFFFFFFF4E
:1002C000FFFFFFFFFFFFFFFFFFFFFFFFFFFFFFFF3E
:1002D000FFFFFFFFFFFFFFFFFFFFFFFFFFFFFFFF2E
:1002E000FFFFFFFFFFFFFFFFFFFFFFFFFFFFFFFF1E
:1002F000FFFFFFFFFFFFFFFFFFFFFFFFFFFFFFFF0E
:10030000FFFFFFFFFFFFFFFFFFFFFFFFFFFFFFFFFD
:10031000FFFFFFFFFFFFFFFFFFFFFFFFFFFFFFFFED
:10032000FFFFFFFFFFFFFFFFFFFFFFFFFFFFFFFFDD
:10033000FFFFFFFFFFFFFFFFFFFFFFFFFFFFFFFFCD
:10034000FFFFFFFFFFFFFFFFFFFFFFFFFFFFFFFFBD
:10035000FFFFFFFFFFFFFFFFFFFFFFFFFFFFFFFFAD
:10036000FFFFFFFFFFFFFFFFFFFFFFFFFFFFFFFF9D
:10037000FFFFFFFFFFFFFFFFFFFFFFFFFFFFFFFF8D
:10038000FFFFFFFFFFFFFFFFFFFFFFFFFFFFFFFF7D
:10039000FFFFFFFFFFFFFFFFFFFFFFFFFFFFFFFF6D
:1003A000FFFFFFFFFFFFFFFFFFFFFFFFFFFFFFFF5D
:1003B000FFFFFFFFFFFFFFFFFFFFFFFFFFFFFFFF4D
:1003C000FFFFFFFFFFFFFFFFFFFFFFFFFFFFFFFF3D
:1003D000FFFFFFFFFFFFFFFFFFFFFFFFFFFFFFFF2D
:1003E000FFFFFFFFFFFFFFFFFFFFFFFFFFFFFFFF1D
:1003F000FFFFFFFFFFFFFFFFFFFFFFFFFFFFFFFF0D
:10040000FFFFFFFFFFFFFFFFFFFFFFFFDEF9FFFF23
:1004100010B5064C2378002B07D1054B002B02D0DA
:10042000044800E000BF0123237010BD64070020D2
:100430000000000074460000084B10B5002B03D0EC
:100440000749084800E000BF07480368002B00D1B7
:1004500010BD064B002BFBD09847F9E700000000C9
:1004600068070020744600006407002000000000B8
:100470007047C04670B50224E0B2002100F0CAFD0A
:100480000134082CF8D10021112000F0C3FD002117
:10049000142000F0BFFD0021152000F0BBFD01215C
:1004A0000E2000F0B7FD01210F2000F0B3FD1A4D22
:1004B000063C2100280000F00DFD0521280000F079
:1004C0001FFD08350134082CF3D1144CA06C0368CF
:1004D000DB691349984700234C22A3540232A354EA
:1004E000013AA354A36563650E4AE2652266E922D8
:1004F000A354833AA354013AA3540232A3540132C1
:10050000A3546421635C673A13400222134301221F
:100510001343635470BDC04670080020800700205C
:10052000127A0000FFFF0000F8B507000C0015006C
:100530001E0006AB1B78013BDBB20F2B2DD849B256
:1005400000292ADAE02C18D8806C0F2213400B43C4
:10055000D9B203681B689847B86C7F2129400368AB
:100560001B68984710239C43C02C16D0B86C7F2181
:10057000314003681B6898470FE0F72C0DD9230022
:100580000833DAB2072A08D89300044AD3589F46A2
:10059000806C03681B6821009847F8BD943C0000FC
:1005A00070B50400806C03681B699847002300281D
:1005B00000D16AE1A06C03685B699847C3B204226A
:1005C00019009143F92900D147E1A26D002A00D01A
:1005D0008FE04F32A354023AA25C51B2002926DACE
:1005E00011000C31C9B2012921D9042115008D4314
:1005F000F92D1CD01100EF2A03D80F2115008D43CF
:10060000290010250E00AE43802E08D0A02E06D063
:100610000D003035EF26354201D0C02907D1010643
:1006200005D44F2162545022A3540123A3654F23C4
:10063000E35C5AB2002A38DA1A000C32D2B2012A2C
:1006400033D9042219009143F9292ED0EF2B00D978
:1006500005E10F22190091430A008039C8B27F28B2
:1006600023D881008A4841588F461A006623E254F5
:1006700000236522A3540232A3540132A354012162
:100680008132A154A36563650133FEE002226265F5
:10069000F4E003226265F1E0802262650021333AD2
:1006A000A154F0311C32A154E8E00023A365636536
:1006B0004D22A354E9E01900EF2B01D80F229143FA
:1006C0006622A154573A134001335632A3545023A3
:1006D000E25C1733E25400236822A354A3656365E8
:1006E000673AE933E254E83BCFE00131A1650023EA
:1006F000CBE0010639D5FF210840F738082834D867
:100700008000644909588F466622A35400230132B1
:10071000A3540132A354033AA354643AE933E25494
:10072000E83BB2E06923E35CF02B18D1531CA2181C
:100730006932F721117007396622A1540132A3549E
:100740001B0A0132A3540023033AA354EF39843225
:10075000A154A36563659C3AA354013395E000233B
:10076000A36563654D22A3548FE04F21615CF0299E
:1007700007D1A11869310B70636D013B9A4268D3B0
:100780000AE0A1184F310B70616D4B1E9A4260D385
:100790004F23E25CF02A05D10023A36563654D2257
:1007A000A35472E053B2002B63DA13000C33DBB2B4
:1007B000012B5ED9042310009843F92859D0130067
:1007C000EF2A03D80F231000984303006620235418
:1007D00056381D008543802D08D0A02D06D0180066
:1007E0003030EF25284201D0C02B05D10F2010401A
:1007F00001306525605502E0002565202554502014
:10080000255C173025540020032901D14E31605C4E
:10081000682160540021A16561650120E9316054BF
:10082000B02B0DD006D8902B0AD0A02B08D0802B4F
:100830000AD105E0D02B03D0E02B01D0C02B03D18F
:100840004D23E2544C3B20E000224D23E2544C3B2C
:100850001BE00132A265002317E0002315E01A0017
:10086000803AD1B27F2900D91FE78A000A498A5805
:10087000974600206623E0540023BDE7A16D626D1A
:10088000013A8A4200D930E715E7180070BDC0462A
:10089000B43C0000B43E0000D83E000010B5662312
:1008A000C35C803BDAB27F2A00D9AAE09300554AA4
:1008B000D3589F460368002B00D1A2E06822825CD7
:1008C0006721415C6524005D98479AE04368002BEE
:1008D00000D196E06822825C6721415C6524005D5E
:1008E00098478EE0036B002B00D18AE0984788E0A0
:1008F000436B002B00D184E0984782E0836B002B90
:100900007FD098477DE0C36B002B7AD0984778E082
:10091000036C002B75D0984773E0C368002B70D030
:100920006822825C6721415C6524005D984768E02D
:100930008269002A65D06823C15CC901FE239B013E
:1009400019406723C35C7F24234019432E4B9C46E8
:1009500061446523C05C904753E08368002B50D00E
:100960006822825C6721415C6524005D984748E00D
:100970004369002B45D06722815C023A805C98472E
:100980003FE00369002B3CD06722815C023A805C27
:10099000984736E0C269002A33D003006533D9781E
:1009A00009029B781943802900D98021693090473A
:1009B00027E0036A002B24D06722805C984720E060
:1009C000416A00291DD06823C25CD201FE239B012D
:1009D0001A406723C35C7F2003401A4310008847F6
:1009E0000FE0836A002B0CD06722805C984708E0F8
:1009F000C36A002B05D0984703E0436C002B00D05E
:100A0000984710BDD840000000E0FFFF70B582B0ED
:100A100004006423C35CDB07DB0FDBB2002B00D1D7
:100A2000BDE06422825C0120824300D1B7E06622EF
:100A3000A55C2A00803AD2B2602A36D86522A05C32
:100A4000884200D19EE06423E35C5B08DAB2022AAC
:100A50000ED0032A19D0012A00D0A0E06823E35C5D
:100A60006722A25C009029002000FFF75DFD96E060
:100A7000002900D093E06823E35C6722A25C009029
:100A800029002000FFF750FD89E04B424B41DBB2CB
:100A9000002B00D083E06833E35C6722A25C009007
:100AA00029002000FFF740FD79E02B001033DAB277
:100AB0000F2A74D893003B4AD3589F462B00083323
:100AC000DAB2072A6BD89300374AD3589F46A06CF6
:100AD00003681B682900984761E023006533DE78CE
:100AE00036029B781E43802E00D98026230069336E
:100AF000002E54D01D009E19A06C297803681B6835
:100B000098470135AE42F7D149E06723E55CA06C18
:100B100003681B68F3219847A06C7F212940036874
:100B2000DB6C98473BE06823E55CED01013BE15C51
:100B30000D43A06C03681B68F2219847A06C7F26C8
:100B40003100294003689B6C9847A06CE90931404B
:100B500003689B6C984722E06723E55C2D017022B7
:100B60002A400133E35C0F252B401A431500A06C8B
:100B700003681B68F1219847A06C03681B68290073
:100B800098470CE06422A25C5208D1B2022900D13D
:100B900071E7032900D17BE7012900D15EE702B0AC
:100BA00070BDC046D842000018430000F0B55F4653
:100BB00056464D464446F0B485B07F4C260030364C
:100BC0002500280000F09EF90835B542F9D17B4F89
:100BD00000257B4B9A467B4B99462600200000F06F
:100BE000C9F9002849D0784B1B680293029B744ACC
:100BF00012689B1A312B40D9744B1B68002B03D110
:100C0000734B585B01F0A6F8704B1B68012B03D1A6
:100C1000704B585B01F09EF86C4B1B68022B03D1A4
:100C20006D4B585B01F096F8664B1B68002B09D1A1
:100C30006A4B5B5D6A4A525D1021009180316948C0
:100C4000FFF772FC5F4B1B68012B11D13A78664BA2
:100C50005A710026634B9B46634B98465B46986CE3
:100C60004346F15C03681B6898470136062EF5D1B0
:100C700001210F2000F08EF936E0300000F082F9FB
:100C8000002831D0504B1B680393039B52461268D7
:100C90009B1A182B28D94B461B68002B08D1504BA8
:100CA0005A5D10230093002380214E48FFF73CFC3F
:100CB000464B1B68002B03D1454B585B01F0F0F805
:100CC000424B1B68012B03D1424B585B01F0E8F803
:100CD0003E4B1B68022B03D13F4B585B01F0E0F801
:100CE00000210F2000F056F9083404350137182D83
:100CF00000D072E7112000F077F9012803D101221A
:100D0000304B1A6002E000222E4B1A60142000F0D3
:100D10006BF9012803D101222C4B1A600BE015203E
:100D200000F062F9012803D10222284B1A6002E088
:100D30000022264B1A600E2000F056F9002803D13D
:100D400001210E3000F026F9264D2E004C23EC5CDC
:100D5000102C29D82348FFF723FC002824D0662331
:100D6000F35C902B08D1283B1E4AD35C002B07D1A3
:100D700080216633D15403E0803BDBB2602B06D880
:100D80006523184AD35CA34201D0002C08D1154F2B
:100D90003800FFF783FD21003800FFF737FED5E765
:100DA00021001048FFF732FE05B03CBC9046994642
:100DB000A246AB46F0BDC04670080020B4FDFF1F40
:100DC000A00800206C080020A8080020A40800202B
:100DD000804300006843000098430000384300004F
:100DE0005043000080070020BCFDFF1F30B583B0DA
:100DF0002C4C2D4BA36400254C23E5540133E554C2
:100E00000133E5546565A565284BE3652366032238
:100E10006423E2540133E5540133E5540133E554CE
:100E20000133E5548133E554200069307D320021DF
:100E300002F0D6FC25606560A560E560256165610E
:100E4000A561E56125626562A562E562256365636A
:100E5000A563E56325646564154A1649200002F020
:100E600093F9154B1B680193019A144B1A60144CAB
:100E7000200000F027F82000083000F023F82000C0
:100E8000103000F01FF82000183000F01BF8200090
:100E9000203000F017F82000283000F013F803B0DD
:100EA00030BDC04680070020C8FDFF1FFFFF0000C7
:100EB000B0FDFF1F71040000A8080020A00800205A
:100EC00070080020002303600A2282808371C371AE
:100ED0007047C04610B582B00400C8B2E07100236C
:100EE000A37100F081F8002801D00323A371034B04
:100EF0001B680193019B236002B010BDA80800206D
:100F00008180704730B585B00400C07900F06CF87E
:100F1000431E9841C0B2A279082311009943A171E0
:100F20009307DB0F984208D0114B1B680193019B7C
:100F3000236002235940A17114E00D4B1B680293FA
:100F4000029B25685B1BA588AB420BD301231A408B
:100F5000904207D0064B1B680393039B2360092331
:100F60005940A171A0790007C00F05B030BDC0463F
:100F7000A8080020837909201840093843425841C5
:100F8000C0B270478379092018400838434258415D
:100F9000C0B2704730B51A2822D8124C43001A1834
:100FA00092001259157D1B189B00E3181B7A1D42F5
:100FB00005D0002901D0137112E0137210E0430034
:100FC00018188000074B18184368002904D01968C6
:100FD00003220A431A6003E01A6802218A431A6056
:100FE00030BDC046B043000010B5030000201A2BEE
:100FF0000DD807495C00E21892005258107CE318A3
:101000009B00CB181B7A1840431E9841C0B210BDFC
:10101000B043000070B51A2850D843001B189B003D
:10102000274AD3185A68012922D0042934D0244EE3
:1010300043001C18A400A5592C7D181880003018F6
:10104000037A9C432C75002903D180235B00136035
:1010500034E0022903D10423FF3313602EE0032977
:1010600003D181235B00136028E00023136025E097
:10107000134C43001918890009590D7D1818800078
:101080002018037A2B430B75A2235B0013601368AF
:1010900020218B43136011E0094C45002B189B0065
:1010A00019590E7DE018037A33430B75A2235B00B8
:1010B00013601168253BFF3B0B43136070BDC046B6
:1010C000B043000072B60C4B1A680C4B18680C4BFE
:1010D0001B6862B65B0104D5322393429B415B429D
:1010E000C018084B9A1A084B5A43920DFA239B00DA
:1010F000584310187047C04618E000E0A8080020C8
:1011000004ED00E07FBB00005555010070B50500FF
:10111000FFF7D8FF0400002D08D110E0013D002D9D
:101120000DD0FA239B009C46644400E0044EFFF778
:10113000C9FF001BB042F1D801F05CF8F7E770BDC1
:10114000E703000010B51E4B8022D2051A608022F2
:1011500012061A6000201B4B18601B491B4B1960BC
:1011600028231B4A13601B4A13601B4A13601B4A47
:1011700013601B4A13601B4A136009221A4C226039
:101180001A4C20601A4C21601A4C23601A4C2360C0
:101190001A4C22601A4C20601A4801601A490B60F0
:1011A0001A490B601A4B1A6001F07EF81920FFF7FC
:1011B000ADFF00F085FC1420FF30FFF7A7FF10BD46
:1011C00000E100E004800340FFBF0000088003400E
:1011D0000C800340148003401C80034024800340A3
:1011E0002C8003403480034000800340049003407F
:1011F000089003400C90034014900340009003407B
:1012000004A0034008A003400CA0034014A0034026
:1012100000A0034030B50D4B1C7802232343DA00B5
:101220000B4DAA1850600B4A1278C820002A00D132
:101230004038DB00090408430549585001235A404F
:1012400004490A706340014A137030BD140900203C
:1012500000F8FF1F8D09002010B50138032811D8B0
:1012600072B68300084A9B58002B08D081005C6846
:101270008C5006494000425A1C88121B425262B6EA
:10128000180000E0002010BD04090020840B00209D
:10129000431E0020032B0CD872B69B00054A9B58B6
:1012A000002B04D001305B68002BFBD100E0002054
:1012B00062B6704758090020F8B572B601231A4C7F
:1012C000082101265A1EA25C114223D09A005D011A
:1012D000164FED59002D0BD1D200B91808304860D7
:1012E0001349D151134A1378013B137062B61AE0C7
:1012F0003243D5000D4FED59002D0BD1D200B91856
:10130000083048600C49D1510A4A1378013B1370E8
:1013100062B608E00133052BD4D162B60022054B3A
:101320001A7000F04BFEF8BDB445000000F8FF1F36
:101330008800400082090020C800400010B5421E0D
:10134000032A39D8800002231843C0001B4B181809
:1013500072B61B4B9B5C012B08D0002B1DD0022BBF
:1013600002D0032B05D007E0052417E00830022443
:1013700014E00830042411E0930012481B58002B9D
:1013800002D19300195003E093000F481B58596095
:1013900092000D4BD15062B60EE00324084B9C54D2
:1013A0000B0008334360C823020700D4403B0A887F
:1013B00012041343036062B610BDC04600F8FF1F5D
:1013C000C00800205809002068090020F8B55F46D1
:1013D00056464D464446F0B4BD4CBE4B1D78EDB26A
:1013E0006B071ED52378002B18D0BB4B1B78DBB2C4
:1013F000002B06D0013BDBB2B74A1370002B00D1A3
:1014000000BEB64B1B78DBB2002B07D0013BDBB232
:10141000B24A1370002B01D100F030FE0422AD4B14
:101420001A702B0700D4C4E2AD4B1B78DBB21A094B
:1014300000D02BE29B08DB00AA4DED186A682B68F0
:101440009B061B0F092B00D1F6E104D8013B012BB1
:1014500000D8C0E116E20D2B00D013E2A2491368B8
:101460000B6052684A60A14A2A600022A0490A60C3
:101470009C490A618A6101219E4A11709BB29E4A71
:10148000934219D8013A934229D2812252009342C1
:1014900000D1EEE006D8802B00D1C9E0822B00D12C
:1014A000CCE066E1954A934200D1F9E0FF32FF3289
:1014B000934200D161E15CE190221201934214D089
:1014C00004D8803A934200D1ACE052E18C4A934276
:1014D00000D17CE18B4A934200D14EE149E18A4B35
:1014E0005D68002D00D02BE13FE17F4B9A78784B6F
:1014F0001A707C4D2F00803780262B6A334203D030
:10150000686A083800F05AFD0835AF42F5D17F4BC4
:101510009B467F4B9A4600277E4B9946984600266D
:101520004B46F858002804D0456800F047FD281EB7
:10153000FAD14346FE50784BFE50784BF8580028BD
:1015400004D0456800F03AFD281EFAD1734BFE50D6
:10155000734BFE505B461E8051460B78032B0CD01C
:10156000DAB2032A02D8022B05D008E0042B02D0FD
:10157000052B02D003E00E7001E001230B7004374D
:1015800002239C46E344013B9C46E244102FC7D112
:101590000022644B1A700125634F644B9846002665
:1015A0006B1E4246D35C3B7004371B072BD500F003
:1015B000E5FC002807D04B4B6A01991808304860B9
:1015C0005B49D15006E06B01464A9E50554A13785C
:1015D0000133137000F0D2FC00280AD0AA000123C6
:1015E0001343404ADB00D118083048603F49995006
:1015F00009E0AA0001231343DB003A4A9E50494AFE
:10160000137801331370A800364902220243D20036
:10161000565003230343DB005E500135454B9F4288
:10162000BED102E22A4B1B78434D2B700123A9E067
:10163000414D00232B706B700233A3E02A4B9B8833
:101640007F221340042B03DD703A3C4B1A70BEE03E
:10165000394A0021117051709B00384A9446634406
:101660001B789B0700D48BE0334D01232B70013393
:1016700088E01D4B9B887F221340042B03DC1A4A11
:101680005288002A03D00F222C4B1A709FE09B0037
:101690002A4A944663441A7802218A431A70C4E1A4
:1016A000114B9B887F221340042B03DC0E4A528887
:1016B000002A03D00F22214B1A7088E09B001F4A9A
:1016C00094466344197802220A431A70ADE1C04679
:1016D0008C0900208020074015090020A409002063
:1016E0009020074000F8FF1F78090020C800400044
:1016F000AC0800208D0900208106000002030000D4
:1017000021090000210A0000B8450000840B0020D8
:10171000C008002004090020B0080020580900205B
:101720006809002082090020C4200740B445000059
:1017300088004000D420074084090020C0200740D2
:10174000BC4B59889888BC4B1A888A4209D15A8860
:10175000824206D1090A032901D12B7812E01B89A4
:1017600010E00C335D68002DEED10F22B34B1A70E0
:101770002DE00F22B14B1A7029E00023002501E073
:101780000223AF4DAB4AD7889F4200D91F003E00CD
:10179000402F00D9402631002800FFF73BFDAD194E
:1017A000BF1B03D13F2E00D97EE110E03E00402F49
:1017B00000D9402631002800FFF72CFDAD19BB1BD6
:1017C00001D13F2E03D99F4A15609F4A1380012201
:1017D0009E4B1A7056E0974B1B689D498B420DD16A
:1017E00080235B0293494968994222D11278994B30
:1017F0001A7000210020FFF70DFD1AE096498B4278
:1018000017D1964B8B494968994212D11378A92B6D
:101810000FD15378452B0CD19378C22B09D1D378B3
:101820006B2B06D105228E4B1A7000210020FFF78A
:10183000F1FC8C4B2B6025E0824B1F68002F15D0EC
:10184000814B1D882E00402D00D9402631003800E4
:10185000FFF7E0FCAD1BADB27B4B1D80002D02D12C
:101860000023402E00D1BB19764A1360A023DB0071
:10187000704A12889A4205D16E4B00225A709A78AB
:10188000794B1A700122714B1A708EE09908C900C9
:1018900076484618716808000838013AD5B21B0727
:1018A00048D500F08BFBAB00714A9B58002B29D028
:1018B000AA006F49586850501A00083272606D4A89
:1018C000525D012A0AD0002A04D0022A0AD0032A33
:1018D0000CD00EE00321674A51550AE00221654A07
:1018E000515506E00521634A515502E00421614A41
:1018F0005155C822310700D4403A1B881B041A43B3
:10190000326052E05B4B5B5D022B05D0DAB2022AFB
:101910004BD3032B04D007E00022564B5A5544E02A
:101920000122544B5A5540E03307DB0F0233514A32
:1019300053553AE073880A00083A1380002B2ED0E2
:1019400000220B00083B5A805A60AB004A4A9B5861
:10195000002B02D1AB00985003E0AB00474A9B58E4
:101960005860AA00454BD050454A6D000839A85A26
:101970000B88C318AB5200F001FB002808D00830D8
:101980007060330701D43F4B00E0364B33600CE00E
:10199000002333603C4A13780133137005E03307AA
:1019A00001D4384B00E02F4B33600822374B1A70BC
:1019B00013E5EB0721D5254902230B700022344B98
:1019C0001A702A4B2F481860324C5C60986032487D
:1019D000D8601A619A610D20184B1870FF232F48A8
:1019E00003702A480370204802702D4A13709F220A
:1019F0002C4B1A7001230B705BE06BB2002B05DAE5
:101A00000D220E4B1A707332204B1A70AB0706D59D
:101A1000224A1378DBB2137002221C4B1A70EB06B9
:101A200047D51022194B1A7043E000210020FFF720
:101A3000F1FBCCE678090020B8450000C020074043
:101A400084090020AC080020800900209420074071
:101A50002109000298090020210900030100040067
:101A600015090020C80040009820074000F8FF1F1B
:101A700058090020C008002004090020B0080020F8
:101A8000840B00208800400082090020802007404D
:101A900014090020C40800201809002088200740ED
:101AA0008C2007408420074000212800FFF7B2FB6C
:101AB0008DE63CBC90469946A246AB46F8BDC04672
:101AC00010B501F08BF91C48010088310300002299
:101AD0001A605A6008338B42FAD1184A1368802181
:101AE000C9020B431360030ADBB2154A1370030CDF
:101AF000DBB2144A1370000E134B1870FF23134A05
:101B00001370134A1370134A1370012212490A709A
:101B100000201249087012490A7012490A689A4353
:101B20008F3B13430B60802252040F4B1A6010222C
:101B30000E4B1A7010BDC04600F8FF1F34800440E1
:101B40009C200740B0200740B42007408020074079
:101B500088200740102007409420074000210740BC
:101B60008420074018E400E000E100E0082107407D
:101B70001F2807D828230A280BD003330B2808D0A6
:101B8000002306E000237F2803D8034B18182038D1
:101B9000037818007047C0465445000070B5274BC5
:101BA0001B78002B43D0264C264D244E0420FFF7F3
:101BB0006FFB032803D800F0E1F9002811D1013CA4
:101BC000002C02D02B78002B05D001221D4B1A705F
:101BD0000120404230E000F00DFB3378002BE5D1CE
:101BE00028E019490B8803724A889B059B0F9400D3
:101BF000234343728B889205120F1C012243827289
:101C0000CA889B059B0E91010B43C3729208027315
:101C10000E4B1A7842735A7882739B78C3730823E9
:101C2000038001000420FFF789FB002004E001206D
:101C3000404201E00120404270BDC0468C090020B6
:101C40009953000097090020900B00208C0B002076
:101C5000F8B51D4B1B78002B2FD01C4C1C4D1A4E79
:101C60000320FFF715FB032803D800F087F9071EB0
:101C700011D1013C002C02D02B78002B05D0012281
:101C8000134B1A70012040421CE000F0B3FA337885
:101C9000002BE5D114E00F4B1B7803720023437235
:101CA0000A3006220C4901F05DFD08233B80390013
:101CB0000320FFF743FB002004E00120404201E045
:101CC00001204042F8BDC0468C0900209953000015
:101CD00097090020960900209009002070B500297E
:101CE00030D01A4B1B781A000A4091422AD019436F
:101CF000164B19700125002818D113E05A5C824256
:101D00000ED00133062BF9D117E05A5C002A04D11A
:101D100000E000230E4AD05404E00133062BF4D136
:101D2000002D11D0FFF794FF0EE00025084B1C7822
:101D3000A042F5D001230649E0E7002CE9D00123B9
:101D40000349E2E70028F0D170BDC04696090020A3
:101D50009009002010B5030AC12B5CD9DF2B07D8EE
:101D60009B01F822D20013403F210840184352E063
:101D7000F02B04D1C0B20021FFF7B0FF62E0E02BEE
:101D800004D1C1B20020FFF7A9FF5BE0E22B1BD119
:101D9000C0B2002856D02C4B1B78984252D02A4A09
:101DA000527890424ED02849897888424AD0002BF8
:101DB0003DD103E0012302E0022300E00023224A98
:101DC000D054FFF7EBFE3DE01C33DBB2032B39D8D8
:101DD0008005800D36D01D4B1B88984232D01B4A9F
:101DE000528890422ED01949898888422AD0174CAF
:101DF000E488A04226D0002B1ED105E0012304E098
:101E0000022302E0032300E000235B000F4A985204
:101E1000FFF7C4FE16E0FFF7ABFE002812D0410624
:101E2000C90F49003F231840FFF758FF0AE0002A76
:101E3000C0D0002906D1BFE7002ADFD00029DFD0BB
:101E4000002CDFD010BDC0468C0B0020900B002072
:101E500070B500291CD0104B1B780B4218D08B4357
:101E60000D4A1370002810D0012400E000240B4B11
:101E7000991D002601251A78824201D11E702C007E
:101E800001338B42F7D1002C04D0FFF7E1FE01E0D3
:101E90000028EBD170BDC0469609002090090020B3
:101EA00010B5030AC12B58D9DF2B07D89B01F822A4
:101EB000D20013403F21084018434EE0F02B04D1DC
:101EC000C0B20021FFF7C4FF52E0E02B04D1C1B241
:101ED0000020FFF7BDFF4BE0E22B19D1C0B2002874
:101EE00046D0244B1B7883420BD0224B5B78834235
:101EF00005D0204B9B7883423AD1022302E0012394
:101F000000E0002300211B4AD154FFF747FE2FE0D9
:101F10001C33DBB2032B2BD88005800D28D0164B49
:101F20001B88834211D0144B5B88834209D0124B2B
:101F30009B88834207D0104BDB88834218D1032350
:101F400004E0012302E0022300E000235B00002103
:101F5000094A9952FFF722FE0AE0FFF709FE00281E
:101F600006D04106C90F49003F231840FFF770FF14
:101F700010BDC0468C0B0020900B002010B572B62F
:101F80000C4B1C68200001F0E1F80D2802D962B664
:101F900000200EE080231B06C3409C43054B1C60C1
:101FA00062B6C3001818C000034B18180023036062
:101FB000436010BDC4FDFF1FC0F9FF1F10B5040032
:101FC0000E48201A482101F035F80D2814D80C4B82
:101FD0001B78002B07D00B4B1B78002B03D0200065
:101FE000FFF76AF908E072B6074A80231B06C34070
:101FF00011680B43136062B610BDC046C0F9FF1FE5
:10200000820900208C090020C4FDFF1F70B5194B08
:102010001B68002B0DD1184B1B780020002B28D0FB
:102020000230FFF719F90300124A10600020002B5C
:102030001FD0104B19680B884888834212DD0A189C
:10204000127A002A0ED00500181A012305E0013388
:102050005A198A18D279002A02D01C008342F6D17C
:10206000201E06D10800FFF7A9FF0022014B1A60CD
:10207000002070BDA00900208C09002010B50D4B78
:102080001B78002B15D10C4B19684B883F2B08DCB3
:102090000833CB180800483000221A7001338342FD
:1020A000FBD140230B800120FFF748F90022024BAF
:1020B0001A6010BD990900209C09002010B5C9B212
:1020C00003681B68984710BD10B5C9B203681B6848
:1020D000984710BD10B5C9B203681B68984710BD7A
:1020E00010B5C9B203681B68984710BD10B5080049
:1020F00000F012FC012010BD10B5080000F00CFC2F
:10210000012010BD70B50D00080001F0C5FB0400F2
:102110000100280000F052FC200070BD10B508003E
:102120001400110000F04AFC200010BD10B500F0B2
:10213000DFFC10BD10B5080000F0ECFB431E984119
:10214000C0B210BD10B5080000F0B8FB431E9841A6
:10215000C0B210BD10B50800110000F0F9FA10BDB2
:1021600010B5080000F058FB10BDC04610B50800BF
:1021700000F0CAFA10BDC04610B500F037FA10BD25
:1021800010B54808034B9C46604400F053FF00F034
:102190005FF910BDC0C62D0010B514004808054BEE
:1021A0009C46604400F046FF00F052F9200000F029
:1021B000E7F910BDC0C62D0010B500F07FFC10BDC2
:1021C00010B500F03BFC10BD10B500F025FC10BDB3
:1021D00010B500F001FC10BD10B500F00BFC10BDF7
:1021E0007047C04610B5FEF745F9FEF7DFFC00F07A
:1021F00001F8FAE710B5284B1B78002B4BD10122D0
:10220000254B1A70FFF702FF002801D000F0E4FE12
:1022100000F002FC002801D0FFF7E2FF00F0E0FC34
:10222000002801D000F0D4FE00F04EFD002801D0BF
:1022300000F0D0FE0022184B1A70EFF30583002B3C
:1022400029D1EFF3108372B6144A1068002803D125
:10225000002B20D162B61EE0114A1278002A03D06A
:10226000002B18D162B616E001210D4A11704269A7
:102270000A490A60002A02D00021916102E000218F
:10228000084A1160002B00D162B6002444778368AD
:102290009847034B1C7010BDA5090020440B00207B
:1022A000480B0020400B0020274B1B78082B06D141
:1022B0000022264B1A601332254B1A6017E00A2BB6
:1022C00006D13822214B1A60253A214B1A600EE0C4
:1022D0000C2B06D134221D4B1A60223A1C4B1A607B
:1022E00005E03C22194B1A602A3A194B1A60194B27
:1022F0001B78002B03D00022174B1A6002E001224A
:10230000154B1A60154B1B78012B03D88022144BF8
:102310001A6014E0042B03D88422114B1A600EE0DB
:10232000082B03D885220E4B1A6008E0102B03D827
:1023300086220B4B1A6002E08722094B1A600122A9
:10234000084B1A707047C046D8FDFF1F08B0034005
:102350000CB00340A709002020B00340D9FDFF1FA7
:1023600024B00340A609002070B50D4C8026F6026B
:102370008025ED002368334201D0FFF727F823685A
:102380002B4201D000F0CAFB23681B0501D500F0E9
:1023900039FC2368DB04EDD500F0A8FCEAE7C04671
:1023A0003480044010B5FFF7DFFFC0460022014B28
:1023B0001A607047008104407047C04610B50B4B4F
:1023C0001A68130000280FD06B46101808498C4675
:1023D0006344984205D300F0E7FE0C2303600D3BF5
:1023E00002E0024B18601300180010BDDCFDFF1F57
:1023F00000FEFFFFEFF31383002B23D1EFF31083D5
:102400000020002B20D1EFF30583002B10D00F2BE1
:1024100010D91A00103A920892000C498C46624476
:1024200003210B40DB001068D840FF23184001E077
:1024300080204000EFF31183002B05D0984203D990
:10244000180001E0012040427047C04600E400E06F
:10245000344A13688021C9000B4313600023324AB9
:102460001370324A1370324A1370324A1370324A70
:102470001370324B1B78032B12D0DAB2032A02D826
:10248000002B05D013E0152B06D0192B0CD00EE035
:102490002B4A2C4B1A600AE0294A2B4B1A6006E0A3
:1024A0002A4A2B4B1A6002E02A4A2B4B1A602B4B0C
:1024B0001B78042B14D0DAB2042A02D8012B05D0E1
:1024C00016E0052B07D0182B0FD011E0D122920077
:1024D000234B1A600CE0D1229200224B1A6007E0D5
:1024E00091229200204B1A6002E0204A204B1A6091
:1024F000002800D10130C204D20E1E4B1A70C0B2A7
:10250000587000229A702C32DA701B49FF230A6837
:102510009A43BF3B13430B6080225201174B1A6052
:102520007047C04634800440350A0020AD090020C1
:102530003C0A0020360A0020AC090020F0090020E7
:102540001303000040A0044018C004401302000020
:10255000049004401304000054D00440E0FDFF1F29
:1025600044A004401CC004400890044044040000FF
:1025700050D0044000A006400CE400E000E100E080
:10258000194B9B78132293431A00032303401343F0
:10259000420701D510221343134A93700F230340BF
:1025A000042B03D191793C330B4393710E4B5B7930
:1025B00010229343024200D013430B4A5371937984
:1025C00010229343820601D510221343064A9371C9
:1025D000C30507D513005278D2B2187820210143E1
:1025E00019705A707047C04600A0064010B5344BB1
:1025F0001B685B0562D5334B1B78002B05D0314C33
:10260000FFF7F8FD2378002BFAD1802252012E4BE0
:102610001A6000222D4BDA702D4B1B78032B14D03F
:10262000DAB2032A02D8002B05D017E0152B07D009
:10263000192B0FD012E00422FF32264B1A600DE056
:102640000422FF32244B1A6008E00422FF32234B9D
:102650001A6003E00422FF32214B1A60214B1B78E1
:102660007F221340042B14D0DAB2042A02D8012BA3
:1026700005D017E0052B07D0182B0FD012E004224D
:10268000FF32194B1A600DE00422FF32174B1A601B
:1026900008E00422FF32164B1A6003E00422FF32E6
:1026A000144B1A600023144A1370144A1370144B0D
:1026B0001B68002B02D0134A12781A7110BDC04655
:1026C00034800440AC09002080E100E000A0064016
:1026D000F009002040A0044018C0044004900440C9
:1026E00054D00440E0FDFF1F44A004401CC004403F
:1026F0000890044050D00440350A0020AD09002065
:10270000A8090020F109002010B504000C4A137834
:10271000002BFCD101212000FEF77CFC00212000D1
:10272000FEF738FC074A61000B199B009858064BCE
:1027300018600C19A4001419227A044B1A7010BDE9
:10274000AC090020B0430000380A0020340A002001
:10275000002901D080231843294B1B7898424DD083
:10276000284A1268520547D57F221340042B12D005
:10277000DAB2042A02D8012B05D013E0052B06D0CB
:10278000182B0CD00EE000221F4B1A600AE000222A
:102790001E4B1A6006E000221D4B1A6002E0002268
:1027A0001C4B1A606022002900D11C3A7F23034091
:1027B000042B16D0D9B2042902D8012B05D01BE076
:1027C000052B08D0182B12D016E0C0239B001A430B
:1027D0000D4B1A6010E0C0239B001A430B4B1A608C
:1027E0000AE080239B001A43094B1A6004E080230F
:1027F000DB001A43074B1A60014B18707047C04644
:10280000E0FDFF1F3480044044A004401CC004408D
:102810000890044050D004401F4B1B78834239D0AD
:102820001E4A1268520533D5032B10D002D8002B54
:1028300005D013E0152B06D0192B0CD00EE000228A
:10284000174B1A600AE00022164B1A6006E00022BD
:10285000154B1A6002E00022144B1A60032810D0B6
:1028600002D8002805D013E0152806D019280CD06E
:102870000EE00F4A0A4B1A600AE00D4A094B1A6033
:1028800006E00C4A084B1A6002E00B4A074B1A603C
:10289000014B18707047C046F00900203480044096
:1028A00040A0044018C004400490044054D00440A8
:1028B00013030000130200001304000070B5114B55
:1028C0001A68002352051AD51A2814D80E4C0F493D
:1028D00043001A189200525822600D4D1B189B009D
:1028E000CB181B7A2B700121FEF794FB23682A7802
:1028F0001A72012303E00022034B1A600023180020
:1029000070BDC04634800440A8090020B0430000D8
:10291000F10900200020704770B504001F4B1B68B0
:102920005B053AD51E4B1B68002B02D01D4A12785E
:102930001A711D4B1D7801353F2D00D900251B4E06
:102940001BE0FFF757FD402813DC194B1B795BB2E6
:10295000002B12DA154B1B7801333F2B00D90023D3
:10296000144AD25CD2B21249CA71DBB20F4A137058
:1029700003E0FF2801DDFFF73DFC3378DBB29D4229
:10298000DFD0E4B20B4B5C5501220B4B1A70EDB259
:10299000054B1D70AB32064BDA7070BD34800440BD
:1029A000380A0020340A00203C0A0020360A0020A1
:1029B00000A00640B0090020AC09002070B5002935
:1029C00008D005000C002878FFF7A6FF0135013C70
:1029D000002CF8D170BDC04610B5054B1B78002BFC
:1029E00005D0034CFFF706FC2378002BFAD110BD6D
:1029F000AC090020064B1B78DBB2064A1078C0B247
:102A0000834202D33F30C01A01E00138C01A704738
:102A10003C0A0020360A0020064B1878C0B2064B4C
:102A20001B78DBB2984201D3C01A01E04030C01AD3
:102A30007047C046350A0020AD09002030B51A4B5A
:102A40001A78D2B2194B1B78DBB29A4219D00133F3
:102A50003F2B1BD81649CD5CEDB2D9B2134801709B
:102A600014490C68002C0FD011004031C91A9A4249
:102A700000D3D11A28001A2914DC0F4B1B782372BB
:102A800010E0012040420DE028000BE0084B1D78CB
:102A9000EDB20021054B1970064B1C680023002C79
:102AA000E7D1280030BDC046350A0020AD0900201E
:102AB000F4090020A8090020F1090020094B1A7828
:102AC000D2B2094B1B78DBB29A4207D001333F2BBD
:102AD00000D90023054AD05CC0B201E00120404289
:102AE0007047C046350A0020AD090020F4090020D7
:102AF000064B1B78DBB2064A1370064B1B68002B93
:102B000002D0054A12781A727047C046AD090020FB
:102B1000350A0020A8090020F1090020264B1B7966
:102B20009B0612D5244BDB79D9B2244B1B78013399
:102B30003F2B00D90023224A1278D2B2934204D00C
:102B4000204AD154DBB21D4A13701B4BDB78DBB239
:102B50005AB2002A1CDA184A127952B2002A17DA3D
:102B6000194A1178C9B2194A1278D2B2914203D1E6
:102B70006C21114AD1700BE001323F2A00D90022AA
:102B80001349895CC9B20C48C171D2B20F490A70AD
:102B90005B0610D5084B1B795B060CD500220D4B4C
:102BA0001A700D4B1B68002B02D00C4A12781A7257
:102BB0002C22014BDA70704700A00640350A002035
:102BC000AD090020F40900203C0A0020360A00204C
:102BD000B0090020AC090020380A0020340A002087
:102BE000064B1878C0B2064B1B78DBB2984201D373
:102BF000C01A01E04030C01A7047C046A90A002040
:102C00003E0A0020264B1B799B0612D5244BDB790C
:102C1000D9B2244B1B7801333F2B00D90023224A21
:102C20001278D2B2934204D0204AD154DBB21D4A6A
:102C300013701B4BDB78DBB25AB2002A1CDA184A3D
:102C4000127952B2002A17DA194A1178C9B2194A10
:102C50001278D2B2914203D16C21114AD1700BE0AB
:102C60000132272A00D900221349895CC9B20C48D5
:102C7000C171D2B20F490A705B0610D5084B1B799F
:102C80005B060CD500220D4B1A700D4B1B68002BF8
:102C900002D00C4A12781A722C22014BDA7070475B
:102CA00000B00640A90A00203E0A0020680A002061
:102CB000B00A0020AA0A0020400A00203D0A002095
:102CC000AC0A0020A80A0020064B1878C0B2064BB8
:102CD0001B78DBB2984201D3C01A01E04030C01A21
:102CE0007047C046290B0020B90A00202F4B1B79E2
:102CF0009B0624D52D4BDB79D9B22D4B1B780133A4
:102D00003F2B00D900232B4A1278D2B2934204D031
:102D1000294AD154DAB226490A70284A1168002992
:102D20000DD0274A1278D2B2934201D39B1A01E008
:102D30009B1A4033272B02DD224B1B780B711B4B58
:102D4000DB78DBB25AB2002A1CDA184A127952B286
:102D5000002A17DA1C4A1178C9B2194A1278D2B27D
:102D6000914203D16C21114AD1700BE00132272A24
:102D700000D900221549895CC9B20C48C171D2B290
:102D80000F490A705B0610D5084B1B795B060CD502
:102D900000220F4B1A700F4B1B68002B02D00E4AFB
:102DA00012781A722C22014BDA70704700C006406C
:102DB000290B0020B90A0020E80A0020B40A0020EC
:102DC0002A0B0020E40A0020300B0020BC0A00205F
:102DD000B80A00202C0B0020280B002010B584B06E
:102DE00072B61C4B70221A7041211B4A1170323985
:102DF0001A4A117080221A701A0013785BB2002BE5
:102E0000FBDA174B186862B6164B984202D883005B
:102E10001818400001AC0A22210000F0DFF82378E6
:102E2000002B10D109E001A9595C002906D01180BE
:102E3000013302320A2BF6D100E0002301335B009C
:102E4000094A137004E0084A538004320123EAE778
:102E500004B010BD0000024007000240060002401E
:102E6000080002407F96980010FFFF1F70B5EFF337
:102E7000108272B60F4B1868002816D01D0000246F
:102E80000D4E43692B60002B01D09C6100E0346043
:102E9000002A00D162B6447783689847EFF3108226
:102EA00072B6044B18680028EBD1002A00D162B634
:102EB00070BDC046340B0020380B002010B5FFF762
:102EC000D5FF10BD1D4B1B68002B04D18360C36070
:102ED0001A4B18602EE0026819688A420AD2836091
:102EE0000022C260D8601A680168521A1A60134B37
:102EF00018601FE09A68002A14D002681968521AF4
:102F000002609B6819688A42F4D28360DA68C26002
:102F1000D860C26890601A680168521A1A60022369
:102F2000037509E002681968521A02600022826083
:102F3000C3609860022303757047C0463C0B0020B5
:102F4000F8B51C4B1C68002C22D02368002B06D13E
:102F50000025184F3E0005E02368002B02D0013BFE
:102F6000236015E0A368002B00D0DD603B60257571
:102F7000206903681B682200290098476368002BBA
:102F800003D023602000FFF79DFF3468002CE3D1BD
:102F9000EFF3108372B6084A106800211160002B0D
:102FA00000D162B6002804D08468FFF78BFF201E92
:102FB000FAD1F8BD3C0B00204C0B002010B5034AA1
:102FC000136801331360FFF7BBFF10BDA808002092
:102FD0007047C0467047C0467047C046F0B583B0E2
:102FE00005000F00019200240199280000F0A8F8C4
:102FF0002600092902D83031C9B201E03731C9B2FF
:10300000B9550199280000F015F8051E01D00134CA
:10301000EAE7BB1900225A70002C08DD0023FA5C95
:10302000395DF9543A550133013CA342F7DB3800CE
:1030300003B0F0BD002243088B4274D303098B42D6
:103040005FD3030A8B4244D3030B8B4228D3030C78
:103050008B420DD3FF22090212BA030C8B4202D31A
:103060001212090265D0030B8B4219D300E0090A42
:10307000C30B8B4201D3CB03C01A5241830B8B424B
:1030800001D38B03C01A5241430B8B4201D34B0334
:10309000C01A5241030B8B4201D30B03C01A524199
:1030A000C30A8B4201D3CB02C01A5241830A8B421E
:1030B00001D38B02C01A5241430A8B4201D34B0207
:1030C000C01A5241030A8B4201D30B02C01A52416B
:1030D000CDD2C3098B4201D3CB01C01A524183091F
:1030E0008B4201D38B01C01A524143098B4201D359
:1030F0004B01C01A524103098B4201D30B01C01A84
:103100005241C3088B4201D3CB00C01A52418308FD
:103110008B4201D38B00C01A524143088B4201D32A
:103120004B00C01A5241411A00D20146524110468A
:103130007047FFE701B5002000F006F802BDC04669
:103140000029F7D076E770477047C0461C2101235D
:103150001B04984201D3000C10391B0A984201D37A
:10316000000A08391B09984201D30009043902A258
:10317000105C40187047C0460403020201010101BF
:1031800000000000000000000B0010B50100180056
:1031900000F002F810BDC04610B513000A0001008F
:1031A000022000F0ADFB10BD014B18687047C0460F
:1031B0005003002070B50D4E0D4D0024AD1BAD1019
:1031C00005D0A300F35801349847A542F9D101F086
:1031D00043FA084E084D0024AD1BAD1005D0A300E6
:1031E000F35801349847A542F9D170BD64460000F8
:1031F00064460000644600007046000010B5034BB2
:103200000100186800F004F810BDC046500300200B
:10321000F0B55F464D4656464446F0B40D000B35BA
:1032200083B00700162D00D8A8E007239D4300D5E2
:10323000CEE0A94200D9CBE000F018FBF823FF3321
:103240009D4200D884E26B0A00D1C5E0042B00D96E
:103250006CE13823A9099C460133984688444346CB
:103260008C445900C94E890071180839CC68A142B4
:1032700017D0032362689A431300521B0F2A00DD04
:10328000B0E00320002A09DB8DE0636883435A1B0A
:103290000F2A00DDA6E0002A00DB84E0E468A142FA
:1032A000F3D143460093320034690832944200D18E
:1032B0008FE10323616899430B00481B0F2800DD51
:1032C00076E172613261002871DAB14A914200D927
:1032D00034E10123C8088210934072681A43C30086
:1032E0009B1998687260E360A0609C601300C460E2
:1032F000012000998A109040984200D975E003425D
:103300000CD1032291430A1D40000092034205D1D3
:10331000009A4000043200920342F9D003239846F9
:10332000009AD3009946B144CC4692466346DC6885
:10333000A44507D14FE1002A00DB5FE1E468A44522
:1033400000D148E14246636893435A1B0F2AF2DDDD
:10335000012163190D436560E068A5680836E860DF
:1033600011438560F360B3603800DE609E60596091
:103370009A5000F07DFA2000083022E0102927D86A
:10338000380000F073FA1025062302217F4E9B00BF
:10339000F3181A005C68083A944200D127E103232D
:1033A00062689A431300E268A168CA6091600122D2
:1033B000E318596838000A435A6000F059FA2000AF
:1033C000083003B03CBC90469946A246AB46F0BDDF
:1033D0000C2300203B60F4E740239846013B80210A
:1033E0009C463FE7634600935DE70323B468626849
:1033F0009A439046AA4203D3521B0F2A00DD87E06E
:1034000023004344634A0193634B93461B6812684D
:10341000EB18013200D157E1604A944663441B0B1C
:103420001B0300930099380000F024FA0300814642
:10343000013361D0019B834200D9FDE0584B009AD3
:103440009A461B689C46534662441A60019B1100D1
:103450004B4500D143E15B461B68013300D14FE18E
:103460004B46019A9B1A59185346196007234A463E
:10347000134000D117E1082189464A49D21A9144E4
:10348000C91A009B38004B441B051B0DCB1A1900B1
:103490009B4600F0EFF9431C00D135E14B46C01AC2
:1034A00001235844184353461B685B441900534694
:1034B00019604B46B3605860B44213D043460F2B9B
:1034C00000D8E1E04346072260680C3B9343063A8C
:1034D000024005201A436260E218506090600F2B92
:1034E00000D915E1304B1A68914200D919602F4B71
:1034F0001A68914200D919600323B46862689A433C
:103500001300521B9D4200D9C1E00F2A00DCBEE02F
:103510000123290065191943134361603800B56020
:103520006B6000F0A5F9200008304AE7142B74D92D
:10353000542B00D9B0E0290B6E238CE64A0A042AEA
:1035400074D9142A00D9C2E010005C325B305200FA
:10355000082149428C469200B2189444624692680F
:103560000B318846944500D1A0E04146506888431D
:10357000834202D292689445F7D1D3689C4673681F
:103580006146A260E1608C60D460B1E65403002023
:10359000FF01000060070020580B00200F10000002
:1035A0005C0B002008100000540B0020500B002082
:1035B000012163190D430143656073613361DA6072
:1035C0009A6059601850380000F052F92000083015
:1035D000F7E673688CE608239B46073BDC449B4672
:1035E000DA4443465246134200D09FE633E0DC689B
:1035F0008A1C0092A34200D155E6D0E60122E318CE
:10360000596838000A435A60E368A268D3609A6038
:1036100000F02EF920000830D3E65B2294460132F8
:10362000904698449C44434659001BE68A09100082
:103630003932383052008BE7B44200D05CE7FDE607
:10364000009B013B009308235B429C46E1444B46B0
:103650009B6899457AD14346009A1342F0D173682A
:10366000834373604000984200D9BEE6002800D131
:10367000BBE6034270D152460092009A40000432E9
:1036800000920342F9D04BE601234A4653603800CA
:1036900000F0EEF8002094E6AA22520093420DD8E2
:1036A000E90B7723D7E580214901EAE60123801061
:1036B0008340726813437360624661E7284A93420D
:1036C00018D8A90C7C23C6E510330093AAE6542A27
:1036D00026D80A0B10006F326E30520038E71B05F7
:1036E00000D0B8E6009BB2684344180001230343AE
:1036F0005360F7E67F239846013BFE219C46B1E5E7
:103700005B464A461A60B1E6002301209B46CAE6A2
:1037100021003800083100F0DBF953461968E1E672
:10372000AA204000824205D8CA0B100078327730B8
:1037300052000DE70A48824205D88A0C10007D32FB
:103740007C30520004E7FE227E2001E7736889E79F
:10375000E9084B1C5B0019E653460093E0E5C046C0
:103760005405000070B50F2A32D90C0004430B0039
:10377000A40731D115000400103D2D0901352D019C
:1037800049191E6826605E6866609E68A660DE68ED
:103790001033E66010349942F3D10F2345191340DA
:1037A000032B1BD91C1F0023A4080134A400CE58EE
:1037B000EE5004339C42FAD103232D1909191A4003
:1037C00005D00023CC5CEC5401339A42FAD170BD91
:1037D0000500002AF5D1FAE70500F2E71A00F8E73C
:1037E00070B583073FD0541E002A3BD0CEB20300F1
:1037F000032503E0621E002C34D0140001335A1E4E
:1038000016702B42F6D1032C24D9FF250D402A0235
:1038100015432A0415430F2C11D92600103E3609F2
:10382000013636011A009B19156055609560D56008
:1038300010329342F8D10F221440032C0AD9261FCC
:10384000B6080136B6001A009B1920C29342FCD17B
:1038500003221440002C05D0C9B21C191970013381
:103860009C42FBD170BD14000300CCE77047C046FA
:103870007047C046002370B5064C05000800236061
:10388000FEF79CFD431C00D070BD2368002BFBD0CD
:103890002B60F9E7980B002010B5830727D0037839
:1038A000002B26D00300032102E01A78002A1CD046
:1038B00001330B42F9D119680F4A104C8A188A4318
:1038C00022420FD1043319680B4A8A188A432242D4
:1038D00008D104331968084A8A188A432242F1D071
:1038E00000E001331A78002AFBD1181A10BD03003A
:1038F000E1E70020FAE7C046FFFEFEFE8080808000
:10390000F8B544465F4656464D469B462F4BF0B4AD
:103910001C68A4235B000500E0580E0090460028B8
:103920004BD043681F2B0DDC5C1C002D21D10233D2
:103930009B0044601E5000203CBC90469946A24625
:10394000AB46F8BD224B002B3CD0C8204000FFF70F
:1039500055FC002836D0A42200235200A158436011
:103960000160A05040328350043283500124002D66
:10397000DDD09A0091468144424688214F467A50D4
:10398000C4225200904680444246873999401268CA
:103990008A460A439446424661461160842249465B
:1039A0005F4652008F50022DC1D1020055468D3224
:1039B000FF3211680D431560B9E720004D30FF302C
:1039C000E050AEE701204042B6E7C0465446000052
:1039D000FD310000034B10B5002B02D0024800F06F
:1039E00005F810BD00000000FD39000010B5010011
:1039F000002300220020FFF783FF10BD70B5094BA4
:103A0000094CE41AA41009D0084AA518AD00ED1815
:103A10002B68013C9847043D002CF9D100F028FEAA
:103A200070BDC0460000000000000000FFFFFF3F27
:103A3000F8B50C000600FFF719FF204FBB685D6862
:103A400003239D431E4B2C1B9C466444240B1D4B9F
:103A5000013C24039C4207DD00213000FFF70AFFF0
:103A6000BB685B19984204D03000FFF701FF0020CB
:103A7000F8BD61423000FFF7FDFE431C0DD001236D
:103A80002D1BBA681D43104B55601A683000141B7B
:103A90001C60FFF7EDFE0120EAE700213000FFF790
:103AA000E9FEBB68C21A0F2ADEDD08490968401A20
:103AB0000549086001210A435A60D5E754030020F4
:103AC000EF0F0000FF0F00005C0B002060070020DC
:103AD000F0B54746050080B40C1E3ED0FFF7C6FE89
:103AE00001232100984608394E68424633000320DE
:103AF0009343CC186268824360488768BC425AD0BE
:103B00004746626037420BD10827BC460E688444A2
:103B1000891B9B198E68664566D0CF68F760BE60CA
:103B20000126A7187F68374236D0554A1E434E609B
:103B3000CB50934214D8DB08FF3A9C10FF3AA240C6
:103B40004468DB002243426018188368C8608B60B9
:103B50008160D9602800FFF78BFE04BC9046F0BD61
:103B60005A0A042A4FD89C09260039343836640092
:103B7000A4000419083CA268032794424AD0506864
:103B8000B843834202D292689442F8D1D468CC60A0
:103B90008A60A160D160DDE79B183A4FA268BA4203
:103BA00040D0E4681E43D460A260354A4E60CB50DA
:103BB0009342D5D8BFE79B184246324206D10A68E5
:103BC000891A8C689B18CA68E260946001242E4AA6
:103BD0001C4312684C6081609342BBD32B4B28007E
:103BE0001968FFF725FFB5E74646A0184068304240
:103BF0003ED1A068D318E268C260906042461A4382
:103C00004A60CB50A6E7142A14D816005C325B3603
:103C10005400ADE70123B610B3404268134343603C
:103C20002200B4E71E43D1609160CA608A604E6092
:103C3000CB508FE7542A05D81C0B26006F346E3604
:103C4000640095E7AA246400A24205D8DC0B260094
:103C50007834773664008BE70D4CA24205D89C0C73
:103C600026007D347C36640082E7FE247E267FE7D2
:103C700042461A434A60CB506CE7C04654030020CA
:103C8000FF0100005C0300205C070020580B0020AF
:103C900054050000900500009A0500009005000002
:103CA00090050000900500009A05000090050000B6
:103CB0009005000092060000AA060000AA06000077
:103CC000AA060000AA060000AA060000AA06000034
:103CD000AA060000AA060000AA060000AA06000024
:103CE000AA060000AA060000AA060000AA06000014
:103CF000AA06000092060000AA060000AA0600001C
:103D0000AA060000AA060000AA060000AA060000F3
:103D1000AA060000AA060000AA060000AA060000E3
:103D2000AA060000AA060000AA060000AA060000D3
:103D3000AA06000092060000AA060000AA060000DB
:103D4000AA060000AA060000AA060000AA060000B3
:103D5000AA060000AA060000AA060000AA060000A3
:103D6000AA060000AA060000AA060000AA06000093
:103D7000AA06000092060000AA060000AA0600009B
:103D8000AA060000AA060000AA060000AA06000073
:103D9000AA060000AA060000AA060000AA06000063
:103DA000AA060000AA060000AA060000AA06000053
:103DB000AA0600008C060000AA060000AA06000061
:103DC000AA060000AA060000AA060000AA06000033
:103DD000AA060000AA060000AA060000AA06000023
:103DE000AA060000AA060000AA060000AA06000013
:103DF000AA0600008C060000AA060000AA06000021
:103E0000AA060000AA060000AA060000AA060000F2
:103E1000AA060000AA060000AA060000AA060000E2
:103E2000AA060000AA060000AA060000AA060000D2
:103E3000AA06000092060000AA060000AA060000DA
:103E4000AA060000AA060000AA060000AA060000B2
:103E5000AA060000AA060000AA060000AA060000A2
:103E6000AA060000AA060000AA060000AA06000092
:103E7000AA060000980600008C06000092060000CA
:103E80008C060000AA060000AA0600006C060000CE
:103E9000AA0600006C060000AA0600006C060000DE
:103EA0006C0600006C060000AA0600006C0600000C
:103EB0006C06000024070000080700006A070000E5
:103EC0000807000008070000080700006A07000054
:103ED000080700000807000092060000AA0600007C
:103EE000AA060000AA060000AA060000AA06000012
:103EF000AA060000AA060000AA060000AA06000002
:103F0000AA060000AA060000AA060000AA060000F1
:103F1000AA060000AA06000092060000AA060000F9
:103F2000AA060000AA060000AA060000AA060000D1
:103F3000AA060000AA060000AA060000AA060000C1
:103F4000AA060000AA060000AA060000AA060000B1
:103F5000AA060000AA06000092060000AA060000B9
:103F6000AA060000AA060000AA060000AA06000091
:103F7000AA060000AA060000AA060000AA06000081
:103F8000AA060000AA060000AA060000AA06000071
:103F9000AA060000AA06000092060000AA06000079
:103FA000AA060000AA060000AA060000AA06000051
:103FB000AA060000AA060000AA060000AA06000041
:103FC000AA060000AA060000AA060000AA06000031
:103FD000AA060000AA0600008C060000AA0600003F
:103FE000AA060000AA060000AA060000AA06000011
:103FF000AA060000AA060000AA060000AA06000001
:10400000AA060000AA060000AA060000AA060000F0
:10401000AA060000AA0600008C060000AA060000FE
:10402000AA060000AA060000AA060000AA060000D0
:10403000AA060000AA060000AA060000AA060000C0
:10404000AA060000AA060000AA060000AA060000B0
:10405000AA060000AA06000092060000AA060000B8
:10406000AA060000AA060000AA060000AA06000090
:10407000AA060000AA060000AA060000AA06000080
:10408000AA060000AA060000AA060000AA06000070
:10409000AA060000AA060000980600008C06000090
:1040A000920600008C060000AA060000AA06000086
:1040B0006A060000AA0600006A060000AA060000C0
:1040C0006A0600006A0600006A060000AA060000F0
:1040D0006A0600006A060000B4080000020A000038
:1040E000020A0000020A0000020A0000020A0000A0
:1040F000020A0000020A0000020A0000020A000090
:10410000020A0000020A0000020A0000020A00007F
:10411000020A0000020A0000CC080000020A0000A7
:10412000020A0000020A0000020A0000020A00005F
:10413000020A0000020A0000020A0000020A00004F
:10414000020A0000020A0000020A0000020A00003F
:10415000020A0000020A00005A090000020A0000D8
:10416000020A0000020A0000020A0000020A00001F
:10417000020A0000020A0000020A0000020A00000F
:10418000020A0000020A0000020A0000020A0000FF
:10419000020A0000020A00001A090000020A0000D8
:1041A000020A0000020A0000020A0000020A0000DF
:1041B000020A0000020A0000020A0000020A0000CF
:1041C000020A0000020A0000020A0000020A0000BF
:1041D000020A0000020A000082090000020A000030
:1041E000020A0000020A0000020A0000020A00009F
:1041F000020A0000020A0000020A0000020A00008F
:10420000020A0000020A0000020A0000020A00007E
:10421000020A0000020A000070090000020A000001
:10422000020A0000020A0000020A0000020A00005E
:10423000020A0000020A0000020A0000020A00004E
:10424000020A0000020A0000020A0000020A00003E
:10425000020A0000020A000030090000020A000001
:10426000020A0000020A0000020A0000020A00001E
:10427000020A0000020A0000020A0000020A00000E
:10428000020A0000020A0000020A0000020A0000FE
:10429000020A0000020A000094090000B2090000AE
:1042A000C0090000E2090000020A0000020A000042
:1042B000F0090000020A0000E4080000020A000001
:1042C000F0080000FC08000006090000020A0000D7
:1042D00010090000FA090000DA0A0000580B00007B
:1042E000260B00000A0B00009E0B00009E0B000036
:1042F000BC0A00009E0B0000BC0A00009E0B0000E0
:10430000BC0A0000BC0A0000BC0A00009E0B0000B2
:10431000BC0A0000BC0A0000CE0A00009E0B000090
:10432000CE0A0000CE0A0000CE0A00009E0B00005C
:10433000CE0A0000CE0A00006E0000006E000000F1
:104340006E0000006E0000006E0000006E000000B5
:1043500028000000290000002A0000002B000000B7
:104360002C0000002D0000002CF0000029F00000BF
:1043700052F0000051F0000026F0000027F000008D
:104380002CF0000029F0000052F0000051F0000075
:10439000E9E40000EAE4000028F0000013F0000067
:1043A00052F0000051F00000E9E40000EAE40000EF
:1043B000420000F840A0044001000000420000F864
:1043C00044A0044002000000C00000F800C0044007
:1043D00001000000000000F804900440020000000A
:1043E000000000F80890044004000000C00000F83D
:1043F0001CC0044080000000C00000F810C0044051
:1044000010000000C00000F808C0044004000000D4
:10441000C00000F80CC0044008000000800000F854
:104420000CB0044008000000800000F810B0044008
:1044300010000000800000F818B0044040000000A8
:10444000800000F81CB0044080000000800000F8EC
:1044500014B0044020000000C00000F804C0044074
:1044600002000000800000F800B0044001000000DD
:10447000400000F800A0044001000000400000F8E7
:1044800004A0044002000000400000F80CA004401A
:1044900008000000400000F808A0044004000000EC
:1044A000C00000F814C0044020000000C00000F864
:1044B00018C0044040000000800000F804B0044030
:1044C00002000000800000F808B004400400000072
:1044D000020100F850D0044010000000020100F872
:1044E00054D0044020000000030100F878D00440BC
:1044F000400000000000000000000000F920000063
:104500001D210000D9210000D1210000C921000097
:10451000C1210000B9210000812100009921000083
:10452000792100006D21000061210000552100006B
:1045300045210000352100002D210000BD20000094
:10454000C9200000D5200000E12000000521000066
:10455000ED2000002C5E7460616264346667656EF5
:10456000362D3738271E1F2021222324252673337A
:10457000762E77785F4445464748494A4B4C4D4E26
:104580004F505152535455565758595A5B5C5D2FF2
:104590003130636D350405060708090A0B0C0D0E52
:1045A0000F101112131415161718191A1B1C1D6F52
:1045B0007170752A151915150001000024FEFF1FE2
:1045C000120000000002000050FEFF1F5B00000010
:1045D00000220100ACFEFF1F2100000000210100AD
:1045E0007BFEFF1F0900000000220000E4FDFF1F0A
:1045F0003F0000000021000062FEFF1F09000000D4
:1046000000220200D0FEFF1F28000000002102004F
:104610009BFEFF1F09000000000300000CFFFF1FAE
:10462000000000000103090438FEFF1F0000000025
:1046300002030904F8FEFF1F000000000303090441
:1046400010FFFF1F0000000000000000000000003D
:104650000000000028FFFF1FF8B5C046F8BC08BCEA
:104660009E467047D539000039040000ED0D00006A
:04467000F8B5C04693
:1046740000000000010A121100000000F07F7F0218
:104684007F01F700FFFFFFFFFC4400000000000073
:10469400E8030000000000000A0400009C0B002056
:1046A4000100000005010906A1017501950805072F
:1046B40019E029E715002501810295017508810398
:1046C40095057501050819012905910295017503E0
:1046D4009103950675081500257F05071900297FA4
:1046E4008100C0001201100100000040C016D00477
:1046F4007302010203010000180354006500650001
:104704006E00730079006400750069006E006F002C
:1047140009025B00030100C0320904000001030127
:104724000100092111010001223F0007058303084C
:104734000001090401000203000000092111010025
:10474400012221000705810340000107050203201F
:104754000002090402000103000000092111010004
:1047640001222800070584030800040006C9FF0984
:1047740004A15C7508150026FF00954009758102A7
:1047840095200976910295040976B102C0000000D3
:10479400050C0901A101750A950419002A9C02154A
:1047A40000269C028100050175089503190029B7AC
:1047B400150026B7008100C012034B006500790084
:1047C40062006F00610072006400000004030904C9
:1047D4000C030000000000000000000000000000C6
:1047E400000000000000000000000000140200208F
:1047F4007C020020E4020020000000000000000011
:1048040000000000000000000000000000000000A4
:104814000000000000000000000000000000000094
:104824000000000000000000000000000000000084
:104834000000000000000000000000000000000074
:104844000000000000000000000000000000000064
:104854000000000000000000000000000000000054
:104864000000000000000000000000000000000044
:104874000000000000000000000000000000000034
:104884000000000000000000000000000000000024
:1048940001000000000000000E33CDAB34126DE6C1
:1048A400ECDE05000B00000000000000000000002A
:1048B40000000000000000000000000000000000F4
:1048C40000000000000000000000000000000000E4
:1048D40000000000000000000000000000000000D4
:1048E40000000000000000000000000000000000C4
:104C140028FFFF1F000000000000000054030020D4
:104C2400540300205C0300205C0300206403002084
:104C3400640300206C0300206C0300207403002034
:104C4400740300207C0300207C03002084030020E4
:104C5400840300208C0300208C0300209403002094
:104C6400940300209C0300209C030020A403002044
:104C7400A4030020AC030020AC030020B4030020F4
:104C8400B4030020BC030020BC030020C4030020A4
:104C9400C4030020CC030020CC030020D403002054
:104CA400D4030020DC030020DC030020E403002004
:104CB400E4030020EC030020EC030020F4030020B4
:104CC400F4030020FC030020FC0300200404002063
:104CD400040400200C0400200C0400201404002010
:104CE400140400201C0400201C04002024040020C0
:104CF400240400202C0400202C0400203404002070
:104D0400340400203C0400203C040020440400201F
:104D1400440400204C0400204C04002054040020CF
:104D2400540400205C0400205C040020640400207F
:104D3400640400206C0400206C040020740400202F
:104D4400740400207C0400207C04002084040020DF
:104D5400840400208C0400208C040020940400208F
:104D6400940400209C0400209C040020A40400203F
:104D7400A4040020AC040020AC040020B4040020EF
:104D8400B4040020BC040020BC040020C40400209F
:104D9400C4040020CC040020CC040020D40400204F
:104DA400D4040020DC040020DC040020E4040020FF
:104DB400E4040020EC040020EC040020F4040020AF
:104DC400F4040020FC040020FC040020040500205E
:104DD400040500200C0500200C050020140500200B
:104DE400140500201C0500201C05002024050020BB
:104DF400240500202C0500202C050020340500206B
:104E0400340500203C0500203C050020440500201A
:104E1400440500204C0500204C05002054050020CA
:104E2400540500205C0500205C050020640500207A
:104E3400640500206C0500206C050020740500202A
:104E4400740500207C0500207C05002084050020DA
:104E5400840500208C0500208C050020940500208A
:104E6400940500209C0500209C050020A40500203A
:104E7400A4050020AC050020AC050020B4050020EA
:104E8400B4050020BC050020BC050020C40500209A
:104E9400C4050020CC050020CC050020D40500204A
:104EA400D4050020DC050020DC050020E4050020FA
:104EB400E4050020EC050020EC050020F4050020AA
:104EC400F4050020FC050020FC0500200406002059
:104ED400040600200C0600200C0600201406002006
:104EE400140600201C0600201C06002024060020B6
:104EF400240600202C0600202C0600203406002066
:104F0400340600203C0600203C0600204406002015
:104F1400440600204C0600204C06002054060020C5
:104F2400540600205C0600205C0600206406002075
:104F3400640600206C0600206C0600207406002025
:104F4400740600207C0600207C06002084060020D5
:104F5400840600208C0600208C0600209406002085
:104F6400940600209C0600209C060020A406002035
:104F7400A4060020AC060020AC060020B4060020E5
:104F8400B4060020BC060020BC060020C406002095
:104F9400C4060020CC060020CC060020D406002045
:104FA400D4060020DC060020DC060020E4060020F5
:104FB400E4060020EC060020EC060020F4060020A5
:104FC400F4060020FC060020FC0600200407002054
:104FD400040700200C0700200C0700201407002001
:104FE400140700201C0700201C07002024070020B1
:104FF400240700202C0700202C0700203407002061
:10500400340700203C0700203C0700204407002010
:10501400440700204C0700204C0700200000020039
:04502400FFFFFFFF8C
:00000001FF
