:1000000000800020BD010000313B0000E93A000003
:10001000E93A0000E93A0000E93A0000E93A000054
:10002000E93A0000E93A0000E93A0000313B0000FB
:10003000313B0000E93A00009D360000A137000086
:10004000313B0000313B0000313B0000313B000000
:10005000313B0000313B0000313B0000313B0000F0
:10006000313B0000313B0000313B0000313B0000E0
:10007000313B0000313B0000313B0000313B0000D0
:10008000313B0000313B0000313B0000313B0000C0
:10009000313B0000313B0000313B0000313B0000B0
:1000A0005D31000069310000313B0000313B000050
:1000B000313B0000313B0000313B0000313B000090
:1000C000313B0000313B0000313B0000313B000080
:1000D000313B0000313B0000313B0000313B000070
:1000E000313B0000313B0000313B0000313B000060
:1000F000313B000075460000313B00006D6500009B
:10010000313B000099660000313B0000313B0000AC
:10011000313B0000313B0000313B0000313B00002F
:10012000313B0000313B0000313B0000313B00001F
:10013000313B0000313B0000313B0000313B00000F
:10014000313B0000313B0000313B0000313B0000FF
:10015000313B0000313B0000313B0000313B0000EF
:10016000313B00008D4E0000313B0000313B000070
:10017000313B0000313B0000313B0000313B0000CF
:10018000313B0000313B0000313B0000313B0000BF
:10019000313B0000313B0000313B0000313B0000AF
:1001A000313B0000313B0000313B0000313B00009F
:1001B000313B0000313B000059340000564B4CF2FB
:1001C000205210B51A804DF628121A8000BF00BFC9
:1001D00003F0B2FC514B4FF010621A60504A9A6023
:1001E000504ADA60504A136813F4807304D14F49BF
:1001F0000B604FF4A85313604D4B1A78110703D5C9
:100200001A7842F008021A704A4B4B492A221A7097
:100210004A4A4B4B8B4204D252F8040F43F8040B6A
:10022000F8E7484B484900228B4202D243F8042B9E
:10023000FAE74649464A002352F8230041F82300D2
:1002400001336F2BF8D1434B434A802103F8011B44
:100250009342FBD1414B3D4A1A60414B8A221A70AE
:10026000A3F5805324225A70A0221A709A7992071B
:10027000FCD59A79D406FCD43A4A937903F00C035E
:10028000082B384BF9D105221A7143225A719A79F9
:100290009006FCD5334A9179324B4906FBD5324A58
:1002A0004FF0817111600521516020221A709A79F6
:1002B00002F00C020C2AFAD12C4B2D4A1A602D4B5D
:1002C0002D4A1A6000225A60072243F8042C2B4A58
:1002D000C3F80C2D62B603F02FFE144B1B68DA072F
:1002E00005D5274803F0ACFD264B274A1A60274B5B
:1002F0001B785B0609D5234C234B22689A4204D114
:100300001F4803F09DFD0023236006F003FD03F06A
:1003100019FC03F047FBFEE70E2005403080044047
:10032000823F04000100002B10D0034014D0034092
:1003300002D0074000E007408CA9FF1F747C00003A
:10034000989BFF1F8CA9FF1F20B4FF1F0090FF1F69
:100350000000000000E400E05FE400E008ED00E0E1
:1003600000500640004006404480044004800440A1
:10037000C010050014E000E03F190100000020203B
:10038000203F595E1CE00340A5C3945A00F007408B
:10039000FFFFFFFFFFFFFFFFFFFFFFFFFFFFFFFF6D
:1003A000FFFFFFFFFFFFFFFFFFFFFFFFFFFFFFFF5D
:1003B000FFFFFFFFFFFFFFFFFFFFFFFFFFFFFFFF4D
:1003C000FFFFFFFFFFFFFFFFFFFFFFFFFFFFFFFF3D
:1003D000FFFFFFFFFFFFFFFFFFFFFFFFFFFFFFFF2D
:1003E000FFFFFFFFFFFFFFFFFFFFFFFFFFFFFFFF1D
:1003F000FFFFFFFFFFFFFFFFFFFFFFFFFFFFFFFF0D
:10040000FFFFFFFFFFFFFFFFFFFFFFFFDEF9FFFF23
:1004100010B5054C237833B9044B13B10448AFF33E
:1004200000800123237010BD8CA9FF1F0000000075
:10043000787C0000084B10B51BB108490848AFF3A1
:1004400000800848036803B910BD074B002BFBD0A0
:10045000BDE81040184700BF0000000090A9FF1F32
:10046000787C00008CA9FF1F00000000704700BFCF
:1004700001380002120600F4706002F0FE420243EE
:1004800042F41042090442F0090201F4FE00104354
:1004900005F056BD01380002120600F4706002F04B
:1004A000FE42024342F40042090442F0080201F411
:1004B000FE00104305F044BD01380002120600F4AE
:1004C000706002F0FE42024342F43042090442F0FE
:1004D0000B0201F4FE00104305F032BD01380002AA
:1004E000090400F4706001F4FE01084340F4404048
:1004F00040F00C0005F024BD0138000201F30D01AD
:1005000000F4706001F5005140F46043080443F0CA
:100510000E0300F4FE004904184301F0FE410843B5
:1005200005F00EBD10B5044602F04EFF204610BD8A
:10053000F8B508213C483D4C3D4E3E4F3E4D02F043
:1005400019FE3E4800F0D0FF40213C4801F09EF8E3
:1005500000221146394801F05FF80D21374801F0BB
:1005600047F8374A3749384B384810603848394AD5
:1005700027600860384C1A60384F394839493A4A80
:100580003A4B34602F607060F1603261B3610224D5
:10059000E0B20021013403F079FC082CF8D10021ED
:1005A000112003F073FC0021142003F06FFC0021E4
:1005B000152003F06BFC01210E2003F067FC0121E4
:1005C0000F2003F063FC2A4D02242146284600F048
:1005D000B5FE01342846052100F0C6FE082C05F1C1
:1005E0000805F2D1B06C036847F61221DB69984721
:1005F000002303214FF6FF7286F84C3086F84E3008
:1006000086F84D3086F8653086F8673086F86830B1
:1006100086F86410B365736586F8E93086F866304D
:10062000F2653266F8BD00BF0082FF1F84B1FF1F74
:10063000B4A9FF1FF106000044B1FF1FA8A9FF1FC6
:100640007CB1FF1F80B1FF1F40B1FF1F0D070000ED
:10065000290700004507000095040000610700001D
:1006600071040000B9040000DD040000F90400007A
:100670003CABFF1F2DE9F0479DF82040013CE4B260
:100680000F2C03D84EB2002E0D4601DBBDE8F087DB
:10069000E0290FD9F729F9D90835EDB2012303FA7A
:1006A00005F515F0DD0FF1D0806C0368BDE8F0476B
:1006B0001B6818478146806C1F46036846EA0401A0
:1006C000C9B21B6890469847D9F84800036808F0FB
:1006D0007F011B6805F0EF059847C02DD6D0D9F8EB
:1006E0004800036807F07F011B68BDE8F047184722
:1006F00000B583B0134600900A4603489021FFF7E7
:10070000B9FF03B05DF804FBB4A9FF1F00B583B0C7
:10071000134600900A4603488021FFF7ABFF03B061
:100720005DF804FBB4A9FF1F00B583B01346009029
:100730000A460348B021FFF79DFF03B05DF804FBB4
:10074000B4A9FF1F00B583B00A4600900023C02162
:100750000248FFF78FFF03B05DF804FBB4A9FF1F49
:1007600000B583B001F500520090C2F3C613E0213A
:1007700002F07F020248FFF77DFF03B05DF804FB43
:10078000B4A9FF1FF8B50446806C03681B6998473D
:1007900008B90020F8BDA06C03685B699847C3B234
:1007A00003F0FB02F92AF4D0A26D82B994F84D202F
:1007B00084F84F30150600F19E8040B20028C0F248
:1007C0006481002084F84D00A0656065F8BD0106D5
:1007D00069D494F84F10F02904EB020140D081F85D
:1007E0004F30616D4B1E9A4240D394F84F20F02A4F
:1007F000E7D013063DD4002384F86630B02B4CD0EC
:10080000A02B4AD0D02B48D0E02B46D0C02B44D0D0
:10081000002084F86500032994F8500008BF94F87C
:10082000515084F8670018BF002500210120B02B2B
:1008300084F86850A165616584F8E90000F0B7802C
:1008400000F2AE80902B00F0B280A02B00F0AF80C1
:10085000802B00F0AC80002384F84D300120F8BDDF
:1008600081F86930636D013B9A42AAD20132A265D8
:100870008FE702F10C03DBB2012BBCD902F0FB03C2
:10088000F92BB8D0EF2A00F2FE8002F0F003802BA3
:1008900084F8663001D0902BB0D102F00F00013007
:1008A00084F86500B7E7A3F1F701082991D801257D
:1008B00005FA01F010F4DD7F40F09680002988D120
:1008C00094F86930F02B7FF47CAF561C2244F7205B
:1008D000370A82F8690084F8676084F8687084F8E1
:1008E000651084F84D10284684F8663084F8E95085
:1008F000A1656165F8BD02F10C01CDB2012D7FF655
:100900005CAF02F0FB05F92D3FF457AFEF2A2ED86C
:1009100002F0F006802E2BD140B20028FFF64EAF39
:10092000012084F84F2084F85030A065C9B2012915
:100930007FF647AF02F0FB03F92B3FF442AFEF2AFB
:100940005FD802F0F003B02B26D01ED9D02B04D0F4
:10095000E02B21D0C02B7FF434AF0223636501214B
:10096000A36D994227D90133A3650020F8BD16462F
:1009700006F0DF05902DCFD006F0BF05A02DCBD01F
:1009800006F0EF06C02EC7D017E7902B04D0A02B9F
:1009900002D0802B7FF415AF032363650221DFE7CC
:1009A000D02B04D0E02B02D0C02B7FF454AF84F8BE
:1009B0004D200120F8BDEF2A94BF02F0F005154646
:1009C00002F00F020023013294F8501084F86520E1
:1009D000012084F8671084F8683084F86650A365B5
:1009E000636584F8E900F8BD002284F8672084F884
:1009F000682084F8652084F8663084F8E950284639
:100A0000F8BDA2F1F0030F2B3FF6DBAE01A151F8C8
:100A100023F000BF550A00005B090000990900009F
:100A20005B090000C3070000C3070000690A00005B
:100A3000C3070000690A0000C3070000690A00003C
:100A4000690A0000690A0000C3070000690A000083
:100A5000690A000000218020F02384F84D106065B1
:100A600084F869307F217BE70023012084F865301A
:100A700084F8673084F8683084F86620A36563657D
:100A800084F8E900F8BD1346B6E61A4603F10C01F6
:100A90004CE700BF90F86630803B7F2B43D8DFE8FF
:100AA00003F04742424242424242424242424242B2
:100AB0004242514242424242424242424242424207
:100AC0004242AE424242424242424242424242429A
:100AD0004242A64242424242424242424242424292
:100AE0004242AA424242424242424242424242427E
:100AF0004242814242424242424242424242424297
:100B0000424289424242424242424242424242427E
:100B100042429B405563424269426D42717579423F
:100B20007D43036A1BBB7047436C002BFBD0184707
:100B30000368002BF7D090F8682090F8671090F8C1
:100B4000650018474368002BF5D1ECE7426A002A9C
:100B5000E9D090F8683090F86700DB0103F47E5329
:100B600000F07F0018431047836A002BDBD090F819
:100B700067001847C36A002BD9D1D4E7036B002B59
:100B8000D5D1D0E7436B002BD1D1CCE7836B002BC1
:100B9000CDD1C8E7C36B002BC9D1C4E7036C002BD0
:100BA000C5D1C0E74369002BBDD090F8671090F81D
:100BB000650018478269002AB5D090F8681090F84F
:100BC000673090F86500C90101F47E5103F07F039E
:100BD0001943A1F500511047C369002BA3D0B0F809
:100BE0006710802900F1690028BF80211847C36879
:100BF000002BA0D197E70369002BD6D193E7836838
:100C0000002B98D18FE700BF90F86430DA0718D531
:100C100013F0FE0F15D070B590F8665085F0800285
:100C2000602A82B004460DD890F865608E4231D0BB
:100C300081B35B08012B32D0032B00F0988002B007
:100C400070BD7047A5F1F0030F2BF8D801A252F840
:100C500023F000BF470D0000270D0000F90C000035
:100C6000D90C00003F0C00003F0C0000B30C00004A
:100C70003F0C0000B30C00003F0C0000B30C000060
:100C8000B30C0000B30C00003F0C0000B30C0000DC
:100C9000B30C00005B08012B01D0022BCFD194F8DC
:100CA000683094F86720009629462046FFF7E2FC5A
:100CB000C5E705F10803DBB2072BC0D8012202FA11
:100CC00003F313F0DD0FBAD0A06C03681B6829464C
:100CD00002B0BDE870401847806C94F86750036814
:100CE000F3211B689847A06C0368DB6C05F07F015B
:100CF00002B0BDE870401847806C94F86730026815
:100D000094F868501268F22143EAC5159047A06C28
:100D1000036805F07F019B6C9847A06C0368C5F3DE
:100D2000C6119B6CE4E7806C94F8675094F86830C7
:100D300002682D0103F00F0305F070051268F12120
:100D40001D439047C0E7B0F86760802E28BF80261B
:100D500000F16905002E3FF472AF2E44A06C15F827
:100D6000011B03681B689847B542F7D167E794F801
:100D7000683094F8672000962946FFF77BFC5EE711
:100D80002DE9F04F8C4C87B004F1300625462846FB
:100D9000083500F0EBFAB542F9D1DFF84C82874F05
:100DA000874EDFF834A2DFF8449200252DE0854B12
:100DB000D9F800201B680293029B9B1A2C2B29D97F
:100DC000814B1B68002B6ED0012B73D0022B78D087
:100DD0007E4BDFF8F8B11B68002B44D0012B52D0BA
:100DE00001210F2003F03EF8764B1B680393039B11
:100DF000C9F800300135062D04F1080408F1040893
:100E000007F1040706F1040660D0204600F0E6FA78
:100E10000028CCD1204600F0EBFA0028EAD0694B3C
:100E2000D9F800201B680493049B9B1A042BE1D97A
:100E3000664B1B68002B00F0A480634B1B68002BE3
:100E400000F08A80012B00F08F80022B00F094804C
:100E500000210F2003F006F85A4B1B680593059BF1
:100E6000C9F80030C6E75A4B5A4A13F8253012F831
:100E700025205948102100919021FFF7FBFBDBF85A
:100E80000030012BACD1554A554BAA5C5A719B4698
:100E9000DAF848001BF8011B03681B689847514BA0
:100EA0009B45F5D19CE7308804F0CCFE464B1B688F
:100EB000012B8BD1388804F0C5FE434B1B68022BF5
:100EC00086D1B8F8000004F0BDFE81E7112002F0E1
:100ED000CFFF01283DD03D4A00231360142002F0CB
:100EE000C7FF01281BD0152002F0C2FF364A012897
:100EF0000CBF0223002313600E2002F0B9FF18B9C3
:100F000001210E2002F0AEFF002005F07DF89AF8D6
:100F10004C40314D102C05D907B0BDE8F08F2A4B5D
:100F20001860E9E72846FFF72DFC0028F4D095F873
:100F30006630902B2FD083F08003602B31D9264868
:100F4000FFF7A8FD21462448FFF75EFE07B0BDE885
:100F5000F08F1E4B1860C1E7308804F015FF1A4B64
:100F60001B68012B7FF471AF388804F00DFF164B1E
:100F70001B68022B7FF46CAFB8F8000004F004FF8C
:100F800066E7144A144812F82520102100918021A8
:100F9000FFF770FB51E795F868304BB9802385F86F
:100FA00066309AF865309C42C9D0002CC7D0C9E79A
:100FB00095F86530F7E700BF3CABFF1F48780000AD
:100FC00030780000FCAEFF1F6CABFF1FCCAAFF1FE8
:100FD0000078000018780000B4A9FF1F809CFF1F54
:100FE000789CFF1F7E9CFF1F6078000084ABFF1F72
:100FF0002DE9F04FB04CB14D2268DFF81883C5F8E9
:101000000080002383B06B722B612B72EB600AB9F6
:101010004AE11A465369002BFBD155610026A84BC3
:10102000A6486E61AE80EE80AE72A64F2B6003F0D4
:10103000B7FC22687E72C7F800803E613E72FE6097
:101040009D4B0AB932E11A465369002BFBD1576117
:101050004FF000099C4E9D4B9A48C7F81490A7F892
:101060000490A7F8069087F80A903B6000F01CFCFB
:10107000022006F118024B464946C6F8008086F861
:101080000890C6F80C9070723261B64601E0DEF846
:10109000102042F82310727A8B4801339A42F6DC12
:1010A0002268854B0AB903E11A465369002BFBD12C
:1010B00056614FF0000ADFF81C92854B8248C6F853
:1010C00014A0A6F804A0A6F806A086F80AA033602B
:1010D00003F042FD022009F1180253465146C9F8B7
:1010E000008089F808A0C9F80CA089F80900C9F89F
:1010F0001020CE4601E0DEF8102042F8231099F8C7
:101100000920744801339A42F5DC22686A4B0AB917
:10111000D0E01A465369002BFBD1C2F8149000248A
:10112000DFF8F4A16C4B6B48C9F81440A9F80440EF
:10113000A9F8064089F80A40C9F80030DFF8DC81D8
:1011400000F028FE50468AE820028AF808408AF813
:101150000940CAF80C408AF8104002F001F95F4AD1
:101160005F49504605F0C4FDDFF8B4A1C8F80C4053
:101170004FF0010B404688E8200288F8104088F8BC
:1011800008B088F809B002F0EBF8544A5449554DBC
:10119000404605F0ADFDDFF88C81CAF8007050467E
:1011A000CAF804608AF808408AF80940CAF80C4076
:1011B0008AF8104002F0D4F8484A4949504605F0F0
:1011C00097FD4046C8F80070C8F8046088F808B079
:1011D00088F809B0C8F80C4088F8104002F0C0F850
:1011E00040463E4A3E49404E05F082FD95F8643047
:1011F0003E4ADFF834E1AA6443EA0B036BF347038A
:1012000021464FF6FF7785F8643005F169000A231F
:1012100085F8654085F8664085F8674085F8684040
:1012200085F8E9408022C6F800E0337285F84C402A
:1012300085F84D4085F84E406C65AC65EF652F66CE
:1012400006F050F82A49254A2C6028466C60AC60AC
:10125000EC602C616C61AC61EC612C626C62AC6224
:10126000EC622C636C63AC63EC632C646C6405F01F
:101270003FFD204A204B12680192019A1F481A60D4
:1012800000F054F81E4800F051F81E4800F04EF8E7
:101290001D4800F04BF81D4800F048F81C4800F0CD
:1012A00045F803B0BDE8F08F2560B7E61F60CFE6D4
:1012B0001860FEE6186032E7A8AEFF1FF0AAFF1F15
:1012C000187B0000A0AAFF1F08ABFF1F9C7800003E
:1012D000247B0000D0AAFF1FA8780000749CFF1F89
:1012E00025050000B4A9FF1FA8A9FF1FBC9DFF1F73
:1012F0006D040000FCAEFF1F84ABFF1F3CABFF1F63
:1013000044ABFF1F4CABFF1F54ABFF1F5CABFF1F79
:1013100064ABFF1FFC77000088ABFF1F28ABFF1FEB
:1013200070ABFF1FB8AAFF1F8078000000220A21BF
:10133000818002608271C271704700BF10B504469F
:101340000023C8B282B0E071A37102F091FD08B130
:101350000323A371034B1B680193019B236002B01D
:1013600010BD00BFFCAEFF1F81807047F0B5044682
:1013700085B0C07902F07CFDA279003018BF012051
:10138000C2F3400102F0F7038842A3710BD0124A66
:101390001268019283F00203019AA3712260C3F3E1
:1013A000C00005B0F0BD0C4D276829680291029974
:1013B000A688C91BB142F2D302F001029042EED0DE
:1013C0002A68039283F00903039AA371C3F3C00050
:1013D000226005B0F0BD00BFFCAEFF1F807900F0B9
:1013E0000900A0F10900B0FA80F04009704700BF81
:1013F000807900F00900A0F10800B0FA80F04009FF
:10140000704700BF0020704700207047F8B51F4CA0
:10141000027A0E465200C1F30721012507462046F5
:1014200084F83B2084F85E5084F85D5001F05CFB4A
:10143000F1B2204601F058FB2046002101F0F6FCF5
:1014400008B10020F8BD2B46397A0222204601F06F
:1014500077FD0128F5D994F8381094F83950A9424D
:1014600010D263184A1CD2B2187E84F838209542F4
:101470004FEA002306D922440231107E84F8381046
:101480001843F8BD4FF0FF30F8BD00BFE49CFF1FCC
:10149000F8B5144C037A242908BFC2805B000125EB
:1014A0000E462046C1F30721174684F83B3084F8E6
:1014B0005E5084F85D5001F017FBF1B2204601F058
:1014C00013FBC7F30721204601F00EFBF9B22046BB
:1014D00001F00AFB2946204601F0A8FCB0FA80F092
:1014E0004009F8BDE49CFF1F38B50125044605718D
:1014F000334801F00DFB052002F0CEFC204644F2FB
:1015000060023021FFF7C4FF20466C222621FFF73E
:10151000BFFF20464FF4F9722821FFF7B9FF20469C
:1015200040F622722C21FFF7B3FF204644F24642D8
:101530003C21FFF7ADFF204640F237122421FFF790
:10154000A7FF204644F2FF023021FFF7A1FF7322DC
:1015500002212046FFF79CFF4FF4C87002F09CFC6C
:10156000204641F61D522E21FFF792FF042211461C
:101570002046FFF78DFF20464FF498720621FFF7B3
:1015800087FF204610220A21FFF782FF2046002213
:101590000E21FFF77DFF204643F63C421021FFF766
:1015A00077FF204647F67F722221FFF771FF204622
:1015B00036222421FFF76CFF6572284638BD00BF34
:1015C000E49CFF1FF8B51C46154606460F46FFF77C
:1015D0001DFF20EA040040EA050439463046224651
:1015E000FFF756FF002814BF20460020F8BD00BFBB
:1015F0001F2908B50DD80C2908D840F60D5241F620
:101600001F732E21FFF7DEFF80B208BD41EA0122E1
:10161000F5E741F61F72F2E70F2928BF0F210F2AC5
:1016200028BF0F2242EA01122021FFF731BF00BF7D
:1016300010B5044619B1012911D0002010BD552262
:101640002021FFF725FF0028F7D0E28842F00402AE
:10165000204692B22421BDE81040FFF719BF40F2A6
:1016600073122A21FFF714FF0028E6D088222021D8
:101670002046FFF70DFF0028DFD0E288204622F049
:1016800004022421BDE81040FFF702BF38B505462B
:10169000F1B1802903799ABFC1F1800444EA04249E
:1016A000002433B9224628462221BDE83840FFF7FE
:1016B000EFBEC288002322F0100203712421FFF73D
:1016C000E7FE224628462221BDE83840FFF7E0BE6B
:1016D0000123037147F67F722221FFF7D9FEEA88C2
:1016E00042F01002284692B22421BDE83840FFF7AC
:1016F000CFBE00BF0B4610B507490446184605F09B
:1017000087F9064905F07CF805F0D2FA0146204633
:10171000BDE81040FFF7BABF00000143EE7CFF3E7A
:1017200010B5044601F03EFF204610BD024A0349B1
:10173000034805F0DDBA00BF749CFF1F21170000AD
:101740009CABFF1F38B5074D074C08482A46214679
:1017500005F0CEFA2A4621460548BDE8384005F096
:10176000C7BA00BF749CFF1F21170000A4ABFF1F66
:10177000ACABFF1F1B4A1C4B11681C48096970B4B5
:1017800099421279027009D2194A127832B3194A71
:101790004FF08041116003F5807402E01C46A3F510
:1017A0008073154A154912680D68AAB1A5B1144E87
:1017B0003088402810D841000A4440302944023281
:1017C0000231308033F9040B22F8020F9C4233F9C6
:1017D000020C21F8020FF5D870BC704703F5807435
:1017E000DFE700BFBCABFF1F208BFF1F1F80004047
:1017F000B6ABFF1F08E200E0C4ABFF1FB8ABFF1F92
:10180000B4ABFF1FF8B5064601F0E4FC0446E8B1AE
:1018100001F0E0FC054600283AD072B61F4B1A884A
:101820007F2A19D8002C31D01D490A6842B162B60E
:10183000204601F023FD2846BDE8F84001F01EBD1A
:1018400018480C601A80056062B6F8BD054672B68D
:10185000124B1A887F2AE5D9114A12491768146079
:1018600000220C681A800D6062B63946304601F0DD
:101870002FFD384601F002FD30462146012201F0DD
:1018800027FD2046BDE8F84001F0F8BC62B6F8BD7F
:10189000204601F0F3FC2C46BFE700BFB4ABFF1FAE
:1018A000C4ABFF1FB8ABFF1FF8B5284C284E20462D
:1018B000012101F013FE00F0F1F9264B264A2748DA
:1018C0004FF480611960236800211A6099802279A1
:1018D000186102F1804202F5043240F20110D88012
:1018E0009E614FF48075022006278E26DD82D96026
:1018F000DD8398609F8398821170167001F094FDCB
:101900001749184B2279184F08701A7039682279D4
:10191000164C174D174E41F0124141F00101531181
:1019200039609B00206803F1604302F1100703F562
:10193000614302F01F02012140F0104001FA02F25F
:10194000206045F827601A60F8BD00BFBCABFF1FE0
:1019500000FEFFFF14B00440A2F00240208AFF1FE7
:10196000B6ABFF1F1B80004080F0024000F0024039
:101970000090FF1F75170000024A0349034805F055
:10198000B7B900BF749CFF1F21170000BCABFF1F3D
:10199000024A0349034805F0ABB900BF749CFF1F1E
:1019A00021170000C8ABFF1F024A0349034805F096
:1019B0009FB900BF749CFF1F21170000D0ABFF1F11
:1019C000024A0349034805F093B900BF749CFF1F06
:1019D00021170000D8ABFF1F2DE9F04F00F5807EE6
:1019E000B1E8A00AB2E84015C5EA0643C6EA2544B4
:1019F000C7EA0845C8EA2746C9EA0A47CAEA2948A1
:101A0000CBEA0C49CCEA2B4AA0E8F8078645E7D197
:101A1000BDE8F04F70474FF000022DE9F00F00F5E0
:101A2000807C00BFB1E8A00AC5EA0203C2EA2544EF
:101A3000C7EA0205C2EA2746C9EA0207C2EA2948FC
:101A4000CBEA0209C2EA2B4AA0E8F8078445E9D1AB
:101A5000BDE8F00F70474FF000022DE9F00F00F5E0
:101A6000807C00BFB1E8A00AC2EA0543C2EA0504CF
:101A7000C2EA0745C2EA0706C2EA0947C2EA0908FC
:101A8000C2EA0B49C2EA0B0AA0E8F8078445E9D18B
:101A9000BDE8F00F70472DE9F00F089C00F5007BC2
:101AA00051F8045B53F8046BC5EA0647C6EA2549BA
:101AB00052F8045B54F8046BC5EA0648C6EA254AA6
:101AC000A0E880078345EBD1BDE8F00F704700BF69
:101AD000024A0349034805F00BB900BF749CFF1F7D
:101AE00021170000E0ABFF1F024A0349034805F03D
:101AF000FFB800BF749CFF1F21170000E8ABFF1F59
:101B00002DE9F84F344B35481A68354912681B796E
:101B10000B70824229D2334B1B784BBBDFF8D4A029
:101B2000DFF8D490DFF8D480DFF8D4B0DAF80060C2
:101B3000D9F80070B8F80040BBF80050002E3CD037
:101B4000A7B33A1D311D02EB450201EB4401FFF73B
:101B500043FF403540347F2C1CD8A8F800407F2D2F
:101B60000BD8ABF80050BDE8F88FA0F58070D5E732
:101B70001D4B4FF080421A60D0E700243846ABF886
:101B8000004001F07BFB194B1A68C9F800201C606B
:101B9000BDE8F88F00243046A8F8004001F06EFB45
:101BA000134B1A68CAF800201C60D8E7311D01EBFE
:101BB0004401FFF730FF4034CDE737B1391D01EB69
:101BC0004501FFF748FF4035C5E739464FF48072BD
:101BD000BDE8F84F05F086BBF4ABFF1F208DFF1F5B
:101BE0001F8000400CACFF1F08E200E008ACFF1FA4
:101BF00010ACFF1F04ACFF1FFCABFF1FF0ABFF1FBF
:101C000000ACFF1F70B50021044601F07BFB80B1E2
:101C100072B61C4A1368002B29D01B490D6805B306
:101C20001A4E156000220860328062B6184601F034
:101C300025FB2046012101F065FB88B172B6144AEC
:101C40001368CBB113490C6874B1134D14600022B2
:101C500008602A8062B61846BDE8704001F00EBBED
:101C600070BD086062B6E4E7086062B670BD0749FF
:101C700010600B8062B6DCE7074910600B8062B62B
:101C800070BD00BF04ACFF1F10ACFF1FF0ABFF1F07
:101C9000FCABFF1F08ACFF1F00ACFF1F284B2949FE
:101CA0001A68294842F400421A600A6842F00202A7
:101CB0000A601A6842F002021A600368002B3EDBD9
:101CC000224B1B68002B3ADB214A4FF086431360FE
:101CD0001368002BFCDBF0B51E4C1F48DFF8A8E0B2
:101CE0001E491F4B1F4A204F204E214D47F2320CF8
:101CF000C4F800C0002404600120CEF80000DFF822
:101D00008CE0C1F800E04FF480311960194B13608A
:101D1000DFF87CE0184A3A603460286000F18E40B9
:101D2000CEF80000154CB9671548164946F8503CE6
:101D30004FF4C0632A61236003600B60F0BD7047FD
:101D40003C8004404080044000F0024080F00240AB
:101D500000F1024004F1024060F0024008F002404D
:101D60000CF0024010F0024014F00240E0F002409B
:101D700084F002401B1F0100001F1F1F08B0044019
:101D80000CB0044018B0044004F002400100000709
:101D900088F00240F8B5274C274E2046012101F07B
:101DA0009DFB264A264B002515601D60FFF776FF38
:101DB000244B254A25494FF4C0601860236802204F
:101DC0001A6098802279196102F1804202F504328A
:101DD00040F20117DF80DE604FF4807106278F2606
:101DE000D9829D82D9839D619F83986015701670FA
:101DF00001F01AFB2279164B1649187053119B00FB
:101E0000174603F160430F70134D144E144C02F14A
:101E10001000012103F5614302F01F0201FA02F2F2
:101E20004FF080770F492F602C6046F820101A6021
:101E3000F8BD00BFF4ABFF1F00FEFFFF04ACFF1FA7
:101E4000FCABFF1F04B00440208CFF1F22F00240B7
:101E50000CACFF1F1B80004000F002400090FF1FF1
:101E600001000090011B0000024A0349034804F0EE
:101E70003FBF00BF749CFF1F21170000F4ABFF1F82
:101E8000024A0349034804F033BF00BF749CFF1F9C
:101E90002117000014ACFF1F024A0349034804F055
:101EA00027BF00BF749CFF1F211700001CACFF1F41
:101EB000024A0349034804F01BBF00BF749CFF1F84
:101EC0002117000024ACFF1F024A0349034804F015
:101ED0000FBF00BF749CFF1F211700002CACFF1F19
:101EE000024A0349034804F003BF00BF749CFF1F6C
:101EF0002117000034ACFF1F10B4047F4160022C96
:101F0000C26002D010BC01F067BB836810BC1847E8
:101F1000F0B4464B464A186BDC6A017911704549AA
:101F200022790A709A6A00790870002A46D05968A6
:101F3000C9688A423ED82168CC8B240402F1FF3064
:101F400065D4C0F30E00C883C88B80B2C882196BF9
:101F50000968C88B000452D4C2F30E00C883C88B32
:101F6000002480B212F1FF32C88218BF01229C62A5
:101F7000D96A2E4809680D6800F12404A54236D0BC
:101F80000068C46814F0804F0C680D6815BF248881
:101F900024780235013544F000440D604463196B28
:101FA000254B09791970214912B1CA6A12791A7040
:101FB000F0BC7047521A9A620122D9E7586B19682F
:101FC00005681E4C0A63CC62CC682D681C4E24F058
:101FD00080440327B542CC6083F825701FD1037F6E
:101FE0004260022BC2601ED0F0BC01F0F5BA01685D
:101FF00090F82400CC6840F000404863CFE7CC8BD9
:10200000C2F3080004F47E442043C883A7E7CC8BC6
:10201000C0F3080004F47E442043C88394E72B46B1
:102020001146F0BC18478368F0BC1847A89CFF1FF6
:102030001F8000401C8000401B80004000000FFFFC
:10204000F91E000000207047704700BF064B074A8A
:10205000DA620221002259609A7083F8242083F802
:10206000302083F8322070473CACFF1F2C790000F1
:1020700010B50121007801F0F5FE0E4A137893B1F6
:102080000D49CB7A00241846147063B1DC0703D5E0
:102090000A4A8869106018469A0705D4430702D592
:1020A000074B0A6A1A6010BD064BCA69C87A1A60E3
:1020B000F4E700BF94ACFF1FA89CFF1F00E100E005
:1020C00008E100E004E100E01E4B1A781AB1007844
:1020D000002101F0C7BE70B41B4A1C49D47A0968BC
:1020E00001251D70ECB172B6D37ADE071C4606D509
:1020F000174DD4682E68344094612C601C469D07AF
:1021000006D5144D13692E68D47A3340D3612B6001
:10211000630705D5104C536925682B401362236073
:1021200062B61368DA688A4207D00C4C1C600C4A0D
:10213000D96041F080441C611A600078002170BCB5
:1021400001F090BE94ACFF1FA89CFF1F90ACFF1F36
:1021500080E100E084E100E088E100E001403F0030
:1021600000003F80F0B41248124A036882B016465D
:102170000093009F4FF00045FF24136843F48063F1
:102180001360D5625463D36A002BFCDAB36BDBB205
:10219000FF2B09D003680193019BDB1B8B42ECD31F
:1021A000002002B0F0BC7047012002B0F0BC7047C4
:1021B000FCAEFF1F00C00240F8B50D464FF496710B
:1021C00016460446FFF7CEFF284B1A684FF0004032
:1021D00042F4806245F040011A60D8621A465963A1
:1021E000D36A002BFCDA214918204FF000470A6817
:1021F00026FA00F342F48062DBB20A60CF624B63DE
:10220000CB6A002BFCDA083810F1080FEFD155B378
:10221000082D0CBF8721FF21144B1A684FF0004096
:1022200042F480621A60D8621A465963D36A002B5E
:10223000FCDA0E4A002716464FF00045FF211368CE
:1022400043F480631360D5625163D36A002BFCDAD8
:10225000B36BD8B21B06607000D4F8BD0137B7F578
:10226000807FECD1F8BD9521D6E700BF00C00240C9
:10227000F0B41549154A0B6882B016460093009FCA
:102280004FF00045FF24136843F480631360D56268
:102290005463D36A002BFCDAB36BDBB2FF2B4370C1
:1022A0000AD10B680193019BDB1BB3F5967FEAD93A
:1022B000002002B0F0BC7047A3F1FE00B0FA80F03D
:1022C000400902B0F0BC7047FCAEFF1F00C00240E6
:1022D000F8B58378032B0E46044618BF4E02154608
:1022E000FFF7F2FE324611212046FFF765FF18B9CD
:1022F0002046FFF7BDFF20B92046FFF7B9FE0020BA
:10230000F8BD204B2049214A1A608E4659631A466F
:1023100059631E46596305F5FD70A91C05F5FE7746
:10232000D36A13F0F00FFBD0C6F834E0B36B01F8BA
:10233000013C1B1201F8023C02318F42F0D105F53D
:102340000075A8420DD20F4A1646D36A13F0F00F5B
:10235000FBD0B36B191200F8021BA84200F8013C35
:10236000F3D3084B0949084A196019465A63CB6AE6
:10237000044A13F0F00FFAD02046936BFFF778FE73
:102380000120F8BD00C00240FFFF009000041F8044
:10239000F0B4314E33684FF0004743F4806333604C
:1023A0003D46F762344671633346511C02F2012701
:1023B000E26A002AFCDA1A6811F8016C42F48062C1
:1023C0001A60DD625E63E26A002AFCDA1A6811F8BC
:1023D000026B42F480628F421A60DD625E63E7D175
:1023E0001D49CA6A1C4B002AFBDA1A684FF00045E7
:1023F00042F48062FF241A601946DD625C63CB6A96
:10240000154A002BFBDA13684FF0004543F4806354
:10241000FF2413601146D5625463CB6A0E4A002B29
:10242000FBDA13684FF0004543F48063FF24136028
:102430001146D5625463CB6A074A002BFBDA936BD3
:10244000DBB203F01F024370A2F10500B0FA80F086
:102450004009F0BC704700BF00C0024070B50446A0
:1024600071B18378032B0D4618BF4D021646FFF756
:102470002BFE2A4618212046FFF79EFE054620B176
:102480002046FFF7F5FD002070BD3246FE212046B4
:10249000FFF77EFF0028F3D04FF416712046FFF7B8
:1024A00061FE0028ECD02A460D212046FFF784FE6D
:1024B0000028E5D10B4B1A684FF0004542F48062CA
:1024C000FF201A601946DD625863CB6A054A002B6B
:1024D000FBDA936B13F0FF0FD2D12046FFF7C8FD54
:1024E000012070BD00C00240014B024A1A607047D3
:1024F00090ACFF1F0000023838B590F90530002B72
:1025000003DBBDE8384000F06DB9044601210069E5
:1025100000F092F9F8B1257D104B13EB45151AD058
:10252000A3790F4A012B9CBFA369EB61E369126891
:102530006B831B0CAB8232B105F1160105F118005B
:1025400090472B8B6B82637903F07F036371BDE847
:10255000384000F047B9002038BD00BFA4ACFF1FD1
:1025600098ACFF1F10B500F1080204460121006A73
:1025700000F000FA50B1E3693BB96379A268E26107
:1025800063F07F036371012010BD012010BD00BF07
:10259000F8B5837913B182698A4201D20020F8BD6F
:1025A000022B0F4605461AD007B32B6AE9681C7C3C
:1025B0004A1E04F109037C1EDA40DC40A24211D914
:1025C000EB69AB6005F1080606E0A968286A00F02F
:1025D00099F9013C0028E1D03246002CF5D1EF609A
:1025E0000120F8BD0029EBD0A41AEBE7AF60EF6043
:1025F0000120F8BD2DE9F04F8B46817985B0012986
:102600000746019205D001233B71002005B0BDE8CB
:10261000F08F42799107F6D5530708D5FC68B96960
:102620008C4200F0A880FFF7B3FF0028EBD0019B9D
:10263000FC68002B49D0DFF88C91DFF88CA1DDF825
:102640000480386A0679013E06EA542616F0FF0631
:10265000C4F3080442D1002C40D1B96800296FD1DD
:10266000FA69002A7ED0BA60C4F50075ADB245455E
:102670003AD9057C4169023AAA400E4416441FFA31
:1026800088F51CB9F868BA6990424CD230460121ED
:1026900000F0D2F80028B6D04C4404EB050E744587
:1026A0000DD00BF1FF31621E0EF1FF3611F8010F54
:1026B00002F8010F9642F9D1C4EB0E04A344FC6862
:1026C000B8EB05082C44FC60BBD1BB69A34257D2D0
:1026D0007A79BC6142F080027A715AE0C4F50075E3
:1026E000ADB24545BA68C4D8017C4069023A8A4017
:1026F0000644B5F5007F1644C3D1DAF800209642AF
:1027000004BF4FF0FF32CAF800202A4A3146106851
:102710005A46FFF7A3FE00283FF475AF0BF5007B88
:102720004FF40075CBE700F05DF800283FF46BAF85
:102730002149CAF800600A7842F001020A70ABE74A
:1027400003AA00F0DFF800283FF460AF386A1B4BA3
:1027500090F82050039A4FF6F871102D18BF1946C3
:102760008A4280D33846FFF7FDFE00283FF44BAF86
:10277000386ABA6878E7019B002B7FF45CAF08E009
:102780000F4B7A791B6823B1019B13B142F0800291
:102790007A71120709D5BB79002B3FF434AF384664
:1027A000FFF7AAFE00283FF42EAF019805B0BDE860
:1027B000F08F00BFA0ACFF1FA4AEFF1FF8FFFF0FFC
:1027C00098ACFF1FA4ACFF1FE09CFF1F00B583B0B7
:1027D00002AB012203F8011D1946FFF70BFF03B0FE
:1027E0005DF804FB70B50F4C23780BB9012070BD68
:1027F0000D4B0E4D196828680D4AFFF72FFE70B17A
:102800000C4E316819B900232370012070BD28686F
:10281000074AFFF723FE10B100233360F3E70020DF
:1028200070BD00BFA4AEFF1FE09CFF1FA0ACFF1F48
:10283000A4ACFF1F9CACFF1F70B50D4D2B688342ED
:102840000E460ED00446FFF7CDFF08B9002070BD3C
:10285000084B094A18682146FFF73AFD0028F5D0D1
:102860002C60064B197831431970012070BD00BFF0
:10287000E09CFF1FA0ACFF1FA4ACFF1FA4AEFF1F76
:10288000F8B590F82030C469102B1A4B05460E4657
:1028900017461B6816D004EBD1149C4216D106F0E3
:1028A0007F06154A42F826701449287E0A780128C6
:1028B00042F001020A7018D9A968114A0B4413604A
:1028C0000120F8BD04EB11249C4208D000212046D1
:1028D000FFF7B2FF50B195F82030102B07D1F6B2B8
:1028E000054A234622F81670DEE70120F8BD23468C
:1028F000D5E700BFE09CFF1FA4ACFF1FA4AEFF1FE5
:102900009CACFF1FC36801338B4218D370B590F89D
:102910002030102B154B044616460D46C0691B6827
:102920000FD000EBD11098420FD105F07F01104B72
:1029300053F8213023F070433360012070BD002034
:10294000704700EB1120984207D00021FFF774FF79
:1029500050B194F82030102BE7D1E9B2044B33F892
:1029600011303360012070BD002070BDE09CFF1F5E
:10297000A4ACFF1F2DE9F04F176883B06FB3013788
:102980004FF0000AC36803F1010813B38B460646F3
:1029900091463C46002505E01C461F46F36801357C
:1029A000AB4216D9A04538BF0224214601AA3046C1
:1029B00038BF2746FFF7A6FF631CD91B48B1019A11
:1029C000002AE9D18B4510D01C46F3680135AB4293
:1029D000E8D8002003B0BDE8F08FA1F1010ABAFAEF
:1029E0008AFA07684FEA5A1ACCE7012CF1D9F36842
:1029F00001339C42EDD86FF0704221463046FFF71C
:102A00003FFF0028E5D0A74214D2013C012CE0D9B9
:102A1000F36801339C42DCD8621C21463046FFF744
:102A20002FFF0028D5D0A74204F1FF3402D0012C9B
:102A3000EED1CEE7D9F8001059B10129C9D9F36810
:102A400001339942C5D83A463046FFF719FF0028AE
:102A5000BFD0C9F80070BAF1000F01D0013737605C
:102A60000120B7E790F8392090F83800101A704725
:102A700090F8383090F839209A4205D95A1C03440E
:102A800080F83820187E70474FF0FF30704700BF45
:102A900090F8383090F839209A4286BF1B18187E7B
:102AA0004FF0FF30704700BF704700BF38B5054694
:102AB000B0F85E0090B195F85D301446C3F1210284
:102AC00094420CD805F13B001844224600F072FFF6
:102AD00095F85D30234485F85D30204638BD0120EF
:102AE00014462871EEE700BFB0F85E306BB190F885
:102AF0005D30202B07D8C218013380F85D300120EB
:102B000082F83B107047012303710020704700BF1B
:102B10000023426980F8383080F8393080F85C3022
:102B200080F85D3080F85E3080F85F3006CA30B4DF
:102B30000D68046943662A4383660A60A37042698C
:102B400090F861301649146813441D7A5B7B01EBE1
:102B5000C5051B026D6803F4E06343F064032B605A
:102B600090F8623013449D7CDB7D01EBC5011B02B4
:102B7000496803F4E06343F064030B602168536821
:102B8000194205D0036928225A70036903229A71F9
:102B9000036920225A71036980229A7030BC704701
:102BA000007A000010B50269D378DBB2D90604467A
:102BB0003DD510215806D17038D503F0040303F039
:102BC000FF02002B51D03D49626E00230B7084F848
:102BD0005D30002A5BD0904794F85D30002B56D0D2
:102BE0002369D0229A70236994F83B201A712369D3
:102BF000012284F85C200222DA7010BD304B84F888
:102C000060009C424AD02F4B9C4252D094F839101D
:102C100013791F29DBB207D82848007820B1601843
:102C2000013184F8391003760223D37010BD5906A0
:102C3000C3D4917801F0100101F0FF000029DDD02C
:102C400013F001031ED194F85C1094F85D008842E3
:102C500081BF4B1C091984F85C3091F83B3013712B
:102C60002369D0229A702269DEE7236984F839202B
:102C7000C0229A702369114A197901211170022228
:102C8000DA7010BDC023937022691379CCE701225A
:102C9000002384F85D2084F83B30A1E7626994F852
:102CA0006130094913440322187A01F009F82269B6
:102CB000ACE7626994F861300449F3E7A5AEFF1F01
:102CC000E49CFF1F509DFF1F2D2D0000392D00009B
:102CD0000369DB7803F0200373B190F860300133AF
:102CE000DBB2012B80F860301AD9426990F861306C
:102CF0001344187A01F060B870B5426903F0FF051B
:102D000090F8613013440446187A01F055F8A36E28
:102D10005BB184F8385094F83900BDE8704018472A
:102D200090F85F30002BE0D0704770BD0148FFF78E
:102D3000CFBF00BFE49CFF1F0148FFF7C9BF00BF22
:102D4000509DFF1F2DE9F047364FDFF8DC903B68C0
:102D5000026982B006460093DDF8008000217825E4
:102D6000D3789B065AD53B680193019BC8EB0303BC
:102D70000F2BF5D949B1102BF2D000209070336998
:102D800080229A7002B0BDE8F087726996F86130CF
:102D900013440521187A01F079F8726996F86130C8
:102DA0001344012193F812A0504601F06FF8092452
:102DB0000021504601F056F82B46013BFDD1012180
:102DC000504601F04FF82B46013BFDD1013CEFD1BD
:102DD000706996F861100144F0220C7A4B7B09EB84
:102DE000C4011B02496803F4E06343F064030B6011
:102DF00096F862300344997CDB7D09EBC1011B022C
:102E0000496803F4E06343F064030B60013AFDD1C9
:102E10003269D3789B064FF00101A4D4012002B09F
:102E2000BDE8F087FCAEFF1F007A0000F0B5036933
:102E30001222DA700269937803F0200385B0044609
:102E40000D46002B5ED0B42393703C4922690B6879
:102E50000093009E05E00B680193019B9B1B042BD4
:102E600042D8D37803F0200303F0FF00002BF2D008
:102E700094F85D30002B31D04FF0000E4FF0020C73
:102E800004EB0E0393F83B3013710B680393039F1D
:102E9000206907E09B060DD50B680293029BDB1BA4
:102EA000052B28D8C378DBB203F0020202F0FF063C
:102EB000002AEFD080F803C02669F378DBB2DF0682
:102EC00032462DD49F062BD5DB0731D40EF1010EEF
:102ED00094F85D305FFA8EFE7345D1D800201DBB9B
:102EE000002384F85E3004E09070236980229A7099
:102EF000042005B0F0BD86702369802204209A70FA
:102F000005B0F0BD03F0FF06FFF71CFF10B9042069
:102F100005B0F0BD236984F85F60B0229A7094E731
:102F20008023B3700420DAE726698023B370D7E7E3
:102F3000BEF1000F0CBF02200320F6E7FCAEFF1F1E
:102F40002DE9F04106690025122780F8385080F8F5
:102F50003950F770D0F810C09CF802E00EF0200E47
:102F600088B00446884615461E46BEF1000F49D07B
:102F7000B4238CF80230784B21691A680092DDF88E
:102F800000E006E01A6801920198CEEB00000428E8
:102F900030D8C87800F0200000F0FF070028F1D0FA
:102FA0004FEA480242F00102D2B20A711A68029254
:102FB000DDF808E0206906E01A6803920399CEEB79
:102FC000010105292AD8C17801F0020101F0FF07AB
:102FD0000029F1D04FF0020C80F803C02269D178AB
:102FE00011F0110722D12DBB002E0CBFA02380238E
:102FF000937003E08F70236980229A70384608B07E
:10300000BDE8F0810EF0FF07FFF79CFE0028F5D029
:10301000236984F85F70B0229A70ACE787702369E7
:10302000802238469A7008B0BDE8F0818023937002
:103030000027E3E7012D75D0A021917021690A795D
:10304000BE4667464FF0A80C1A680492049805E043
:103050001A680592059A121A052A4AD8CA7802F007
:10306000020202F0FF08002AF2D0CF702169CA786C
:10307000D2B212F0100F08465AD1920658D5013D2F
:10308000EDB2012D49D0BEF11F0F3BD90A79012DB8
:10309000DAD11A680692069D05E01A680792079A27
:1030A000521B052A46D8C27802F0020202F0FF0144
:1030B000002AF2D00223C3702269D378DBB2D9068A
:1030C0003AD49B0634D5B023BEF11F0F93703FD87E
:1030D000226904EB0E0312791A760EF1010E5FFAE3
:1030E0008EFE16B1236980229A7084F839E0774603
:1030F00084E781F80280236980229A70774684F8F9
:1031000039E07BE704EB0E0291F8048082F8188026
:103110000EF1010E5FFA8EFEB9E781F802C0216957
:103120000846B0E7A82191702069BE460279B0E751
:10313000774663E78170DEE710217823D170013B89
:10314000FDD12269937803F0F7037746937055E732
:1031500023691B79C5E700BFFCAEFF1F0148FFF7DD
:1031600021BD00BFE49CFF1F0148FFF71BBD00BF4E
:10317000509DFF1FC029F0B428BFC02172B6124B6A
:10318000124E134A18600023138033607360B360DB
:10319000F36033617361012799B15D0903F01F0486
:1031A00056F8252007FA04F4013322438B4246F8EF
:1031B0002520F2D10023438001338B4200F5827039
:1031C000F9D162B6F0BC7047B0AEFF1FB8AEFF1FBA
:1031D000D2AEFF1FF0B472B6234F244E3C8806F1E6
:1031E000180306EB8400984212D256F8241099B9BD
:1031F000021D06F11B05631CAD1A03EB950503E0E8
:1032000052F8041B41B90133AB421C461046F7D1BA
:1032100062B60020F0BC7047B1FA81F34FF0004273
:10322000DA4021EA0201016001B9013410493C8011
:103230000A88013294B20C8062B6801B8010C3EB06
:10324000401000EB801083000A480B49006803F52A
:10325000FB531C330125C5540D88AA42184488BF6E
:103260000C80F0BC704700BFD2AEFF1FB8AEFF1F8E
:10327000D4AEFF1FB0AEFF1FACAEFF1F428872B6C8
:103280000378012B03D9013B037062B670475311D9
:1032900070B40C4C0C4D54F823102E88D2434FF0D0
:1032A000004002F01F0220FA02F21143074A44F8DC
:1032B0002310B34238BF2B801388013B138062B6C2
:1032C00070BC7047B8AEFF1FD2AEFF1FD4AEFF1F59
:1032D000C368B3B130B401E0DB688BB1187A9042B7
:1032E000FAD158685C7A006950F82450002DF3D167
:1032F00040F82410087801300870DB68002BEDD10D
:1033000030BC7047437A8B4206D90369002253F8D8
:10331000210043F8212070470020704738B5437AD8
:103320008B421AD9036953F82140002243F8212027
:103330009CB12378012B0ED9FFF74CFF054628B12D
:103340004FF48072211D043000F034FB2378013BE0
:103350002370284638BD204638BD002038BD00BF48
:10336000037C23BB4368427A5B7A9A421FD830B40D
:1033700072B60468E3682BB3DA6832B119688C421C
:1033800016D01346DA68002AF8D1D8600023C3604B
:10339000A37A0133A37202684168012313728A7A07
:1033A0001A448A7242681372037462B630BC704762
:1033B0005D6841688D42E4D1198903899942F4D04E
:1033C0001346DFE7E060E1E7037C4BB34368427AF2
:1033D0005B7A9A4224D872B60268D36803B39842E3
:1033E00002D11EE0984202D0DB68002BFAD143687C
:1033F000427A1B69002143F822100268937A013B4C
:10340000937203689A7A02B91A724268937A013BFE
:10341000937243689A7A02B91A720023037462B6EF
:103420007047C368D360E2E7084B1A7862B930B4DA
:1034300007480849D02505704FF0804401220C60F0
:1034400010461A7030BC704700207047B4AEFF1FA2
:103450005EE400E008E100E01A491B4A1B48F8B5A9
:103460000B681B4D046843F080730B60136843F0D6
:10347000010313602E6814B915E064699CB1237AC6
:10348000002BFAD023682F681B68204698472B68CA
:10349000E188DB1B1B099AB28B42A28088BFE280C5
:1034A0006469002CEBD10A4B0A4A1B6810880A4C4D
:1034B0009B1B1B0999B28342218001D91180F8BD61
:1034C000F8BD00BFFCED00E0001000E0A8AEFF1F5B
:1034D000041000E0D0AEFF1FD6AEFF1FF0B572B6ED
:1034E00099B902688AB103790F2B0ED8274C21882D
:1034F00041FA03F5ED070AD503F1007303F5906374
:10350000B2EB431F03D162B6F0BD204C21880023EB
:1035100041FA03F212F0010207D00133102BF7D168
:1035200062B6002203710260F0BD01259D4029436F
:10353000218062B6164E174D174FDFF864E0D9B2FE
:103540000171346844F0020434602C6844F00204D1
:103550002C60A6F580268224A5F5802503F1007352
:103560003C6003F59063223E243D0C4C8EF8001025
:103570005B0131702970217003601A605A609A6093
:10358000DA601A615A619A61DA61F0BDD8AEFF1F44
:10359000408004403C800440008000401F80004088
:1035A0001A80004003790F2B11D8094A10B4137008
:1035B00072B6084904790A880123A34022EA03036A
:1035C0000B8062B61022002310BC027103607047AA
:1035D0001A800040D8AEFF1F10B4EFF3108272B60D
:1035E000437F33B9017F012907D003290FD001237D
:1035F000437702B962B610BC7047124C2168A1B182
:10360000114943610B68836108605861EFE70F4C13
:10361000216881B10E4943610B688361086058617C
:103620000C4B4FF080511960E1E7074B416181611C
:1036300020601860DBE7064B416181612060186003
:10364000EEE700BFECAEFF1FE8AEFF1FDCAEFF1FD2
:10365000E0AEFF1F04ED00E070B5EFF3108272B62C
:103660000C4C206880B10C4E00254369236073B177
:103670009D6102B962B6457783689847EFF310827F
:1036800072B620680028F0D102B962B670BD33600E
:10369000EFE700BFDCAEFF1FE0AEFF1FFFF7DCBFB0
:1036A000184A30B41468002C27D0036821688B4274
:1036B0000ED2CB1A00218460C1602360E0601060EC
:1036C0000223037530BC704711688B42144608D33F
:1036D000A2685B1A0360002AF6D18260C460A06011
:1036E000EEE7D268C2608460E060C568CB1A02224F
:1036F000A8602360027530BC70478460C4601060AD
:10370000DEE700BFE4AEFF1FF8B5224E34682CB3ED
:103710002368002B3AD1204F1D4604E03468ECB1F9
:103720002368002B32D1A36803B1DD6020693360C8
:10373000036825751B68BB4221D1037F4560022BBE
:10374000C46020D0FFF748FF6368002BE6D02360F9
:103750002046FFF7A5FF3468002CE1D1EFF310837A
:1037600072B60E4A00211068116003B962B628B122
:103770008468FFF795FF20460028F9D1F8BD22465E
:1037800000219847E0E783689847DDE7013B236025
:10379000E4E700BFE4AEFF1FF91E0000F4AEFF1F18
:1037A000024A136801331360FFF7AEBFFCAEFF1F80
:1037B0000368C9B21B6818470368C9B21B68184779
:1037C0000368C9B21B6818470368C9B21B68184769
:1037D00008B5084600F040FE012008BD08B50846BF
:1037E00000F03AFE012008BD38B508460D4603F04A
:1037F000E7FD04460146284600F038FE204638BD65
:1038000010B508461446114600F030FE204610BDA3
:1038100000F00ABF08B5084600F0F6FD003018BFFA
:10382000012008BD08B5084600F0CCFD003018BFE7
:10383000012008BD0846114600F060BD084600F0B2
:1038400097BD00BF084600F03DBD00BF00F0D8BCEA
:10385000034B03EB5100B0FBF1F000F02FBC00BFB5
:103860000044950810B5064B144603EB5100B0FB1D
:10387000F1F000F023FC2046BDE8104000F094BCBD
:103880000044950800F0B8BE00F082BE00F070BEA3
:1038900000F050BE00F05ABE704700BFF8B572B1DC
:1038A00006460F4614460025336817F8011B1B68AF
:1038B00030469847013C0544F6D12846F8BD1546E8
:1038C000FBE700BF30B42948294A2A4B2A4D60241F
:1038D000E121047011701B78284C082B30D00A2B82
:1038E0002748284937D00C2B0CBF15223D22122324
:1038F0002A60236002600B60234B24491B78244A12
:10390000BBB101230B601360224B23491B78234A70
:10391000012B26D9042B0FD9082B1ED9102B94BFAD
:10392000862387230B6013601D4B01221A7030BC65
:1039300070470B601360E7E784230B601360F3E7C5
:1039400000F58E200F490830012213232A602360DE
:1039500002600B60D0E71922F7E785230B60136044
:10396000E2E780230B601360DEE700BF0040074002
:1039700001400740CC9DFF1F08B003400CB003403E
:1039800008B00B400CB00B40F9AEFF1F20B0034055
:1039900020B00B40CD9DFF1F24B0034024B00B404E
:1039A000F8AEFF1F08B5FCF7C3FDFDF7E9F902F01B
:1039B0007BFDFAE7844641EA000313F003036DD16F
:1039C000403A41D351F8043B40F8043B51F8043BE2
:1039D00040F8043B51F8043B40F8043B51F8043BE9
:1039E00040F8043B51F8043B40F8043B51F8043BD9
:1039F00040F8043B51F8043B40F8043B51F8043BC9
:103A000040F8043B51F8043B40F8043B51F8043BB8
:103A100040F8043B51F8043B40F8043B51F8043BA8
:103A200040F8043B51F8043B40F8043B51F8043B98
:103A300040F8043B51F8043B40F8043B51F8043B88
:103A400040F8043B403ABDD2303211D351F8043B28
:103A500040F8043B51F8043B40F8043B51F8043B68
:103A600040F8043B51F8043B40F8043B103AEDD2D7
:103A70000C3205D351F8043B40F8043B043AF9D228
:103A8000043208D0D2071CBF11F8013B00F8013BFB
:103A900001D30B8803806046704700BF082A13D308
:103AA0008B078DD010F003038AD0C3F10403D21A20
:103AB000DB071CBF11F8013B00F8013B80D331F854
:103AC000023B20F8023B7BE7043AD9D3013A11F8D4
:103AD000013B00F8013BF9D20B7803704B7843703F
:103AE0008B7883706046704708B5104C08E02368F7
:103AF00059050DD423681A050FD42368DB0411D4AB
:103B000023685803F3D501F0C1F923685905F1D5AD
:103B100000F0B0FD23681A05EFD502F027FD2368F9
:103B2000DB04EDD502F0B8FDEAE700BF34800440C5
:103B300008B5FFF7D9FF00BF014B10221A8070476C
:103B400000200540704700BF094908B50B6830B137
:103B50006A461844A2F58052904202D20860184684
:103B600008BD03F0D1F80C2303604FF0FF3008BD0F
:103B7000D09DFF1FFEE700BFEFF3138070B9EFF396
:103B800010836BB9EFF305825AB94FF48070EFF3ED
:103B900011832BB1984228BF184670474FF0FF3071
:103BA00070470F2A01D81846F1E7014BD05CEEE7C9
:103BB000F0E300E0F0B44D1E2E46002400E0013496
:103BC000B0FBF2F302FB1300092800F130078ABFB3
:103BD0003730F8B2C0B206F8010F1846002BEED10C
:103BE0000A1953704CB1107815F8016F2870013321
:103BF000E01A834202F80169F5DB0846F0BC704721
:103C0000704700BF10B40F4B53F8302092F8804239
:103C10002CB1012369B182F8803010BC704703EBEE
:103C2000C0035B681A6841B922F002021A6010BC36
:103C3000704782F8003110BC704742F003021A60EE
:103C400010BC7047007A00001C4A02EBC003012937
:103C50005B6811D004291BD052F83000002280F894
:103C6000802229B1022920D0032922D01A6070476E
:103C70004FF480721A60704752F830004FF4A2720D
:103C800080F880121A601A6822F020021A607047C9
:103C900052F830104FF4A272012081F880021A60AD
:103CA0001A6842F020021A60704740F203121A604C
:103CB00070474FF481721A60704700BF007A0000AD
:103CC000212848D8F8B5042A44D8DFE802F0484B48
:103CD0004E0345004FF410262B4B03EBC0030D465B
:103CE0005C68216811F4E06148D0284B284A2949D2
:103CF000C3F89C2104F140422748C3F8A411A2F55F
:103D00009221264FC3F8A0017C292548C3F8A87149
:103D1000C3F8AC012CD9A2F594237C2B2AD9A2F5A7
:103D200096237C2B28D9A2F598237C2B29D9A2F5A0
:103D30009A227C2A27D81B4872B6236823F4702362
:103D400043F08072C4F384011643236040F821508D
:103D5000266062B6F8BD70474FF43026BCE74FF4DA
:103D60000026B9E74FF44026B6E74FF42026B3E724
:103D70000D48E1E70D48DFE70D48DDE7FFF764FF99
:103D8000B3E70C48D8E7F8BD007A00000090FF1FA9
:103D9000499CFF1FF19BFF1F1D9CFF1FC59BFF1F21
:103DA000999BFF1FAC9EFF1FD49DFF1F0C9EFF1F02
:103DB0005C9EFF1F8C9EFF1F1A4B03EBC00010B4CC
:103DC000426802F14043A3F592217C2923D9A3F54F
:103DD00094217C290DD9A3F596217C291FD9A3F51F
:103DE00098217C2919D9A3F59A237C2B11D80E4C44
:103DF00000E00E4C72B613680D4823F08773C2F3CF
:103E0000840123F4803343F08073136044F821006D
:103E100062B610BC7047074CECE7074CEAE7074C6A
:103E2000E8E700BF007A0000AC9EFF1F0C9EFF1F5A
:103E3000013C0000D49DFF1F8C9EFF1F5C9EFF1F56
:103E400030B4054B054D064C002210211A602A6043
:103E50002060196030BC704714D0034004D0034088
:103E600000D00340212801D8FFF7CCBE704700BF27
:103E7000212806D8044B53F8303093F80002C0B222
:103E800070470020704700BF007A0000212801D849
:103E9000FFF7DABE704700BF2DE9F843054672B65A
:103EA000214F224B224A1B683C68126862B65201BD
:103EB00002D5322B88BF0134A5B3C3F58C331D4E18
:103EC000DFF86890DFF8688003F23F134FF47A72EE
:103ED000A6FB031302FB04F404EB131472B6D9F827
:103EE00000103A68D8F800E062B6C1F58C3303F2EE
:103EF0003F13A6FB03031EF0806FC4EB13134FF4B4
:103F00007A7002D0322988BF013200FB0233B3F548
:103F10007A7F04D3013D05D004F57A74DEE702F020
:103F2000C3FADBE7BDE8F883FCAEFF1F18E000E052
:103F300004ED00E0398EE338F8B52D4B2D49DFF85C
:103F4000D0E0DFF8D0C02C4E2C4D2D4C2D4A2E4FFA
:103F50004FF4000018604FF0807018604FF0007050
:103F600018604FF0806018604FF00060186000200B
:103F70000860282348F6FF71CCF80010CEF8003016
:103F8000336013602B6023603B60B362936209224D
:103F900045F8242CC4F8D80F05F57F65C7F8D41F61
:103FA00007F5FF2707F5FA67C6F8F83F2B6006F517
:103FB000FF26C4F8D42F05F5FD2504F5FF2438604D
:103FC00006F2F4761148316005F5FF6504F5FD64ED
:103FD0002B6023600260FFF775FC1920FFF75CFF80
:103FE00001F01AFD40F21310BDE8F840FFF754BF8E
:103FF00008E100E004800340148003402480034073
:104000002C8003401C8003403480034000800B4020
:104010000C800340088003402DE9F84F214B1B68BA
:1040200007460BB101221A70DFF888901E4D99F8EF
:104030000040DFF884801D4E01343F2C8ABF4FF0D2
:10404000000A5FFA84FA5446AB462B78A34216D195
:10405000FFF792FD40281FDC33791B06F5D59BF84E
:10406000003001333F2B86BF00221346DAB218F826
:104070000330DBB2F3712A702B78A342E8D00C49ED
:104080000A4BFFB208F804700120BC22087089F8BE
:1040900000A0DA70BDE8F88FFF28D6DD02F004FA40
:1040A000D3E700BF90AFFF1F8DAFFF1F00A00640FA
:1040B0008CAFFF1F94AFFF1F08AFFF1F2B4A2C4987
:1040C0001368F0B543F4806313600A78294F2A4ED1
:1040D0002A4D2B4C2B4900233B7033702B702370DF
:1040E0000B70002A3DD0152A21D0274B1B78012BBD
:1040F00025D0052B30D01F2827D8002002460125C7
:10410000224B234C1A7023495D7004224FF0020E9B
:1041100088273C26402598729A704FF4005083F807
:1041200013E05A751F74DE7025700860F0BD1A4BDD
:1041300040F213321A60144B1B78012BD9D1174B64
:104140004FF451721F281A60D7D9C0F34432C0F31C
:10415000471500F01F00D3E7114B4FF451721A605E
:10416000C9E7104B40F213321A60BEE734800440B6
:1041700048AFFF1F04AFFF1F05AFFF1F94AFFF1F26
:104180008DAFFF1F8CAFFF1FB49EFF1F00A0064026
:104190002DE400E004E100E018C0044044A0044025
:1041A0001CC0044040A00440144B14499B7803F009
:1041B000EC0200F003031343420700F00F0248BF74
:1041C00043F01003042A8B7013D00C4B0B4A5B791D
:1041D000C10603F0EF0348BF43F010035371937916
:1041E000820603F0EF03054A48BF43F010039371C2
:1041F00070478B7943F040038B71E6E700A00640DF
:10420000234B1B685B0541D510B5224C237823B1A5
:1042100002F04AF92378002BFAD11F481F4A204B9D
:104220004FF4005400210460D1701B78FBB1152BB2
:1042300003D11C4B40F203121A601B4B1B7803F096
:104240007F03012B1DD0052B03D1184B40F2031225
:104250001A60174A114B1748174912681C79DB7905
:10426000002303700B700AB10123137010BD134BB0
:1042700040F203121A600C4B1B7803F07F03012BF2
:10428000E1D10F4B40F203121A60E2E7704700BF22
:10429000348004408CAFFF1F84E100E000A00640A2
:1042A00048AFFF1F18C00440B49EFF1F1CC004404D
:1042B00000AFFF1F04AFFF1F05AFFF1F40A004406A
:1042C00044A004400A4A38B50546137803F0FF04B9
:1042D000002BFAD101212846FFF7D8FD21462846B8
:1042E000FFF7C0FD034A044B52F835201A6038BD71
:1042F0008CAFFF1F007A000090AFFF1F09B140F0A4
:104300008000174A1378984216D010B4154C2468D0
:1043100064050FD503F07F03012B1CD0052B11D0B2
:10432000002900F07F0114BF6023442301290DD030
:10433000052902D0107010BC70470B4943F440733C
:104340000B60F7E7084B00241C60E9E7074943F4DA
:1043500040730B60EEE7054B00241C60E0E700BFF4
:10436000B49EFF1F348004401CC0044044A004409D
:10437000104B1A7882420AD00F490968490505D5C1
:10438000AAB1152A09D068B1152801D01870704754
:104390000A4A40F213311160F8E7084A002111601F
:1043A0000028F1D1064A40F213311160EEE70449CA
:1043B0000A60E8E748AFFF1F3480044018C004409B
:1043C00040A004400D4B1B6813F4806305D02128E6
:1043D00005D90B4B00201860704718467047094BF1
:1043E00010B5074C53F8303023600121FFF74EFD24
:1043F000236800221A70012010BD00BF34800440E1
:1044000000AFFF1F007A00000F4B1B6813F480639E
:1044100008D0122808D0142811D00C4A537B03F07E
:10442000FE03537300207047094B40F202321A60BA
:10443000064A537B43F00103537301207047054B39
:1044400040F202321A60F3E73480044000A00640D4
:104450000CA0044014C00440034B1B685B0501D54D
:10446000FFF7DABD704700BF348004402DE9F84FF4
:10447000294B1B685A0548D5284B1B6805460BB1CC
:1044800001221A7005EB010A554540D2DFF89C80E5
:10449000234CDFF89C90234F0AE015F8012B09F814
:1044A0000B20214A0123AA45137088F800602ED002
:1044B00098F80030227803F1010BBBF13F0F86BF63
:1044C0000026B3465FFA8BF69345E6D1BC22FA701C
:1044D00005E03A7913060BD422789345DDD1FFF736
:1044E0004BFB4028F5DDFF28F6DD01F0DDFFF3E7AB
:1044F000227801323F2A86BF00210A46D1B219F83C
:104500000220D2B2FA712170E6E7BDE8F88F054BC0
:10451000BC22DA70BDE8F88F3480044090AFFF1FF2
:104520008DAFFF1F00A006408CAFFF1F94AFFF1F91
:1045300008AFFF1F10B5044C237823B101F0B4FF7E
:104540002378002BFAD110BD8CAFFF1F064A074B12
:104550001B781078DBB2C0B283422CBF3F3000F131
:10456000FF30C01A704700BF8DAFFF1F94AFFF1F11
:10457000054A064B10781B78C0B2DBB2984238BFB0
:104580004030C01A704700BF04AFFF1F05AFFF1FC8
:1045900030B4154B154C1A782378D2B2DBB29A425C
:1045A0001ED001333F2B0ED91149124B08781968E0
:1045B0000023C0B2237021B1D31A1A2B01DC0023CF
:1045C0000B7030BC70470A480A49C05C0968DDB20C
:1045D000C0B225700029F4D09A4238BF4032EBE7D0
:1045E0004FF0FF30EDE700BF04AFFF1F05AFFF1F27
:1045F0004CAFFF1F00AFFF1F084A094B12781B7812
:10460000DBB29A4207D00133402B28BF0023054A72
:10461000D05CC0B270474FF0FF30704704AFFF1F4F
:1046200005AFFF1F4CAFFF1F0D4B1B685B0516D579
:1046300030B40C4B0C4CDA780C480D4902F0CB022C
:104640004025DA705D74DA7842F03402DA7023784B
:104650000268DBB20B700AB10023137030BC7047E4
:104660003480044000A0064005AFFF1F00AFFF1FCD
:1046700004AFFF1FF0B4384B1A7912F0300F2CD072
:1046800072B6997D01F0FF0200293DD062B6334F2A
:10469000334938780D78334E1C46C0B2EDB2431C16
:1046A000402BE17928BF0023AB4202F1FF32C9B2AF
:1046B0001CBFF154184612F0FF02F0D12A4B1B68C0
:1046C000C2B23A704BB1A84236BFC5F14005401B9B
:1046D00040192728C4BF01221A701F49CA78D2B2D4
:1046E000150616D452060DD51B4B1B795B0609D552
:1046F0001E4B1F491B6800220A7003B11A70164B2B
:104700003C22DA70F0BC70474022D9795A7462B604
:10471000E3E70B791C06E5D5164B174E1C7833786A
:10472000E4B2DBB29C420ED0144D01E0A3420AD0A9
:104730000133402B28BF00230879E85CC0B2C87160
:10474000087D0728F2D9DBB2034933700B791806CC
:1047500044BF7C23CB70C5E700A0064004AFFF1F19
:1047600005AFFF1F4CAFFF1F00AFFF1F90AFFF1F34
:104770008CAFFF1F94AFFF1F8DAFFF1F08AFFF1F50
:1047800000EB83039842F0B50AD32DE050F8044BB8
:1047900021F8024B83424FEA144422F8024B23D9FA
:1047A0008C07F3D4A3F1080E704512D250F8087BA1
:1047B00050F8046C340C2404BDB244EA174445EAB2
:1047C0000645704541F8045B42F8044BEED3834242
:1047D0000FD950F8044B21F8024B83424FEA14449E
:1047E00022F8024BF5D8F0BDA3F1080E7045DDD3D9
:1047F000F0BDF0BDF8B5064672B61B4B1B4F1C480A
:104800001C491A8804683D68002303603B600878EF
:104810000B7062B698B1184F18483968DFF860E03D
:10482000C2F1400380FB0302A2EBE3721144642255
:1048300002FB03F303EB11233960CEF800303DB1E6
:10484000304600222946FEF743FD2846FEF716FDB6
:104850004CB1304621460122FEF73AFD2046BDE824
:10486000F840FEF70BBDF8BDC8AFFF1FB8AFFF1F84
:10487000A0AFFF1FB4AFFF1FB89EFF1F5655555581
:10488000BC91FF1F2DE9F04100210446FEF746FDD3
:10489000012105462046FEF741FD3B4B1B780446AF
:1048A00043BB15B12846FEF7E9FC14B12046FEF7DC
:1048B000E5FC364C206818B1FEF7E0FC00232360CD
:1048C000334C206818B1FEF7D9FC00232360314C2B
:1048D000206818B1FEF7D2FC002323602E4C20681C
:1048E00018B1FEF7CBFC002323602C4B00221A806A
:1048F000BDE8F08135B3002C2FD072B6234B186879
:10490000D0B1234A116899B1224F234E1960D7F8CC
:104910000080224B156032683A60002234601A80B1
:10492000FEF7ACFC4046FEF7A9FC62B6BDE8F0819C
:10493000194B15601C60F8E71649184A1D600C6099
:104940001080F2E7FEF746FC054688B14FF480720E
:104950000021043002F0C6FCCDE7FEF73BFC044624
:1049600068B14FF480720021043002F0BBFCC4E750
:10497000002CDBD02046BDE8F041FEF77FBC284686
:10498000BDE8F041FEF77ABC9EAFFF1FA4AFFF1F4A
:10499000C4AFFF1FBCAFFF1FA8AFFF1F9CAFFF1F1F
:1049A0000B4B0C491B680C480C4AF0B5DFF840E093
:1049B0000B4F0C4E0C4D0D4C1B0ACEF80030002353
:1049C0000B703B8033602B60236003601370F0BD7D
:1049D000B89EFF1FB4AFFF1FA0AFFF1FACAFFF1FFC
:1049E000C8AFFF1FB0AFFF1F98AFFF1FB8AFFF1FCB
:1049F000BC91FF1F514B2DE9F04FB3F80080DFF859
:104A000050B14F4BDBF8004001221A704D4B83B080
:104A10008608C2461D68002C4ED0002D55D0002EB1
:104A20005CD0C8F18007BE42C0F08380464B019342
:104A3000DFF82081DFF814910FBBD8F80030002B8D
:104A400037D1D9F800204B46002A32D1C8F80040AF
:104A50001D60FEF7BFFB0446002845D0FEF7BAFBF9
:104A60000546002849D0374BCBF800401860002E8F
:104A700033D07F2E4FF0000A4FF0800749D94FEA1C
:104A80004A032A1D211D1A44194401983B46FFF789
:104A900077FE019AD8F8003002EB8702F61B0192EC
:104AA00023B9D9F80020294B002ACFD0234B5744F3
:104AB0001F8003B0BDE8F08FFEF78CFB0446002892
:104AC000F7D0CBF80000002DA9D1FEF783FB0546F7
:104AD0000028EED01B4B1860A1E7B046174BA3F897
:104AE000008003B0BDE8F08F164BCBF800001860D3
:104AF000124B188003B0BDE8F08F2046FEF7BEFBD6
:104B0000104BCBF800501D600C4B1D8003B0BDE86E
:104B1000F08FD04653462A1D211D1A44194401988E
:104B20003346FFF72DFE054B46441E8003B0BDE81B
:104B3000F08F054A01924FEA4803ECE7C8AFFF1F28
:104B4000B4AFFF1F98AFFF1FC091FF1FA0AFFF1FA3
:104B5000B0AFFF1FB8AFFF1F03480449044A00234A
:104B600003700B6013607047C0AFFF1FA4AFFF1F3F
:104B7000BCAFFF1F354A2DE9F04F13680133082BF6
:104B800083B051D81360B02301934FF02C0A304901
:104B9000DFF8D0B04FF000080868C8EB0A0300281F
:104BA00049D0BBF800E02B4AD2F80090CEF1800249
:104BB000934228BF1346051D4FEA4E0209F1040730
:104BC000154417444FEA88066BB1234A043E164445
:104BD0001C4637F902CB35F8022B013C42EA0C4265
:104BE00046F8042FF5D19E44BEF17F0F984407D8B4
:104BF000ABF800E0C245CFD8019803B0BDE8F08F14
:104C00000091FEF73BFB4846FEF738FB134800993E
:104C10000368134A0B60002314680360ABF800308C
:104C200013600C4B1C60E5E700231360B423019371
:104C30004FF02D0AABE7084C01469A0004EB480000
:104C400002F050FB019803B0BDE8F08FC89EFF1F33
:104C5000A4AFFF1FBCAFFF1F7492FF1FC4AFFF1FA5
:104C6000A8AFFF1F9CAFFF1F0378A12B01D000202E
:104C70007047C378012B12D0022BF8D14378812BD7
:104C800018D0822B1DD0832B0FD0842BEFD1012085
:104C9000002308704B7002231360012070470B48FB
:104CA00040680870184613607047FF200F23087093
:104CB0004B70F0E7054B986808709B681B124B70AF
:104CC000E9E700230B704B70E5E700BFBC9EFF1FB8
:104CD0000378212B01D000207047C3784078012B46
:104CE0000DD0022BF7D10128F5D110B40B784C78F8
:104CF000064A03EB04239360106010BC7047012840
:104D0000E9D1024B0A7883E805007047BC9EFF1F7B
:104D1000431E092B14D872B60A4951F8230068B112
:104D200070B4094C058834F81320466841F82360B4
:104D3000521B24F8132062B670BC704762B67047ED
:104D4000002070473CB0FF1FC4B2FF1F0138092884
:104D50000BD872B6074B53F8203043B100205B6884
:104D60000130002BFBD162B6704700207047184617
:104D7000F9E700BFA8B0FF1FF0B5864672B6022261
:104D800001231C491C4F02E0294601330132092B43
:104D900001F10105F9D0097817489C00090744F092
:104DA000010605D557F8341069B157F83610C1B16E
:104DB0000B2AE9D162B6114B00221A707046BDE889
:104DC000F04001F073B80D490D4D0A7840F83450A9
:104DD00000EB43130EF10800013A58600A7062B606
:104DE000F0BD0649074B40F836300A7800EBC603A1
:104DF000F0E700BF887B00000080FF1F01B1FF1FAC
:104E000088004000C8004000431E092B1DD81B4AE3
:104E1000400140F0100030B4104472B6184CE25C0F
:104E2000032A1BD8DFE802F00212151703220D88AF
:104E3000E25410F0080F14BFC823882343EA054347
:104E400008310360416062B630BC7047083002220E
:104E5000EDE70522EBE708300422E8E7094A52F8BB
:104E6000230038B1084A52F82300416042F8231069
:104E700062B6E9E742F82310034AF7E70080FF1F14
:104E800010B1FF1FA8B0FF1FD0B0FF1F2DE9F04FDA
:104E9000DFF814A3DFF814B389B049E0DFF8E0824B
:104EA0004FEA930908EBC907013C7A68E4B2072C82
:104EB000A2F1080000F0AD81082C00F0C981092C96
:104EC00000F0DE811B0700F1C58158F839301B0C5A
:104ED00099B222F8081C002B00F0B181A04D55F8C2
:104EE0002460002322F8063C42F8043C002E00F027
:104EF00070829C4E56F8243058609B4D46F8240032
:104F000035F81430194425F8141000F0AFFF0028CC
:104F100000F05882954A964B17F0080F00F10800F0
:104F200018BF1346786048F8393008238AF80030F3
:104F30009AF80040E4B261071CD58E4B1B78B3B1E0
:104F40008D490A7802F0FF0322B1013BDBB20B70FE
:104F500003B900BE89490A7802F0FF032AB1013B78
:104F6000DBB20B70002B00F0038201F037F8042352
:104F70008AF8003004F0080303F0FF02002B00F071
:104F80009B819BF80030DBB21C0987D19D087C4CCB
:104F900054F8353004EBC502C3F38303013B516879
:104FA0000C2B00F29D80DFE813F0030103019B004E
:104FB0009B009B009B009B009B009F009B009B0015
:104FC0009B000D006F4A0B686F4F009210464A68B5
:104FD000DFF8C49165497A609AB244F835103B60B5
:104FE00001210023B2F5106F03602361A3610793D1
:104FF00089F8001000F08B8300F2888140F20230C3
:10500000824200F05C8400F28782B2F5817F00F07A
:105010006C8300F2C082802A00F03783822A40F03D
:10502000C282BA8802F07F020A2A00F2BC82574983
:105030005748FE8803709200114443700B78544A1D
:105040009D0748BF01234FF0020148BF037007913D
:105050008E4280F0EB82402E354699F8007007961C
:1050600028BF4025531987F0010C711B4FEA0548F2
:105070000193484B89F800C01878002F40F0020EC9
:105080000CBF8826C82646EA080604EBCE0844F87A
:105090003E6080F00106C8F804201E703E4A0029D8
:1050A00000F0A082402940F29F82354C019D46F0DD
:1050B000020604EBC6046560BCF1000F00F0C48278
:1050C00018702F4B294C43F836402846177040394A
:1050D0004030009A314B1060314A1980012313701F
:1050E0002F4A0123137020E7264B00931A6842B31E
:1050F0002A4FDFF8A4903988264B99F800001D78D4
:1051000040290E4628BF4026891B002845F0020E84
:1051100080F0010089B289F8000039800CBF882036
:10512000C82004EBCE0785F0010540EA06407A600E
:1051300044F83E0032441D70002900F01581009BA8
:105140001A60114B1A88B2F5A06FC9D100219A7864
:105150005970144B1A70124A01231370E5E600BF10
:105160003CB0FF1FD0AFFF1FC4B2FF1FC8004000FC
:10517000880040000CB1FF1F65B0FF1F88B1FF1F02
:105180000080FF1FCCAFFF1FF8B0FF1FC0200740FB
:1051900004B1FF1F00B1FF1F64B0FF1FF8AFFF1F76
:1051A0009420074098200740802007409020074027
:1051B000A24F3A8842F221039A4200F075813A6880
:1051C0009F4B9E489A4200F017819C48FFF780FD54
:1051D000C0B19C4BDFF8C8921A7899F8001082F0A1
:1051E0000100002942F0020218700CBF8823C82376
:1051F00044F8323004EBC20281F00101002389F847
:1052000000105360904B914A44F8353001231370DD
:105210008BE619077FF559AEFFF7ACFC00283FF489
:1052200084AE87F008070004894B8A4A7B6040F00F
:1052300080003860D37983F00103D37175E6824A28
:10524000854B17F0080F18BF134648F839306CE645
:105250001A0747D500F02AFE804A7E4D52F82430C6
:10526000002B00F0BA805968285D42F8241003F141
:1052700008027A60032814D8DFE800F04511423FA5
:105280001D077FF522AE87F00807754A7A60754BD7
:10529000704A3B60537A83F00103537245E6022261
:1052A0002A551A8817F0080F0CBF8823C82343EA31
:1052B000024348F8393038E6E0075CD4210600F1B3
:1052C0002181A20706D5684A684913780220DBB21B
:1052D00013700870E30602D5644B10221A7009B0EF
:1052E000BDE8F08F58F83900000CFFF783FB604AE7
:1052F000604B7A6048F8393017E604222A55D0E727
:1053000005222A55CDE703222A55CAE742F2212079
:10531000824200F0CC8200F2178140F681239A424B
:1053200000F0BA8140F2788140F601339A4240F0B1
:105330005481BB88062B00F0F782072B40F03381A5
:105340004D4B7A881A703F4B187840F0020280F07B
:10535000010604EBC2011E70C820002344F832008D
:105360004B6089F8003021E1402E18BF0022E6E6AC
:1053700001F076F8F9E5414B344832491A614FF0B3
:10538000020E80F800E03E4F0A70334919609960C0
:10539000354E364D3B4C9A610D213970FF213170ED
:1053A000DFF800E129702270374D384A8EF800107E
:1053B0009F27012406F8047C5D600470DA6009B060
:1053C000BDE8F08F324A48F8390013780133137082
:1053D000ABE545F824002F4E8FE52B5D032B00F243
:1053E000EC8001A252F823F02B4F00002B4F00005D
:1053F00089550000835500004268274B9A427FF48C
:10540000E4AE104BDFF898901A7899F8000082F01B
:105410000106002842F002021E7080F001000CBF5D
:105420008823C82304EBC20689F80000087844F8F2
:1054300032301A4B002272601870C6E6F8B0FF1FB7
:105440002109000200B1FF1FC8004000942007405E
:105450007492FF1F10B1FF1F88004000A8B0FF1F0B
:10546000BC91FF1F80000300882007408020074078
:10547000C091FF1F8000B4009FAFFF1F0080FF1F7F
:10548000C020074098200740FCAFFF1F68B0FF1FF7
:1054900001B1FF1FD0AFFF1F0200010024B1FF1FA9
:1054A00064B0FF1F8C200740A24B08784A78187020
:1054B0005A708878CA789870DA7008791A68187102
:1054C00048795871862A8879987101F107015ED070
:1054D000994BDFF894921A7899F8000082F001064F
:1054E000002842F002021E700CBF8823C82344F833
:1054F000323004EBC20280F00100002389F8000082
:1055000053605CE68D498E4B80220D2008701A7026
:10551000A2077FF5DFAED6E6B2F5A06F00F084807B
:1055200040F2DF81B2F5D06F3DD340F281639A4201
:1055300040F2C080B2F5086F35D1824B824A1B78A9
:105540000791FE88137083E548F2A2118A4200F0A9
:10555000908039D948F2A1339A4207D048F2A1434A
:105560009A4203D048F2A1239A421CD1774D764942
:10557000284607AAFFF778FBA8B1EE880799724A78
:1055800066E501232B55D0E400232B55CDE4704B69
:105590000F221A709CE740F221139A4206D040F283
:1055A00021239A4202D0654A0F231370694A0123CE
:1055B0001370684A01231370B7E417F0080F0CBF8B
:1055C000022303232B55B0E442F221339A422BD01D
:1055D00048F2A1139A42C9D0E5E742F221039A4268
:1055E000E4D0E0E7402DE1D146F0020604EBC6042A
:1055F000019D6560584A0C04BCF1000F2ED144F0A7
:1056000088040D4442F83640187089F80070284626
:105610004029CBD100215CE540F621139A42C5D048
:1056200040F621239A42BED100210A4640290D4668
:1056300099F8007028BF4025531987F0010C491BC9
:105640004FEA0548019314E518700198424B434C0A
:1056500017704039403043F836403AE51870019BE6
:1056600089F8007044F0C8040B44184642F83640EC
:10567000CEE7FE88022E96D9334A442193701170EA
:10568000AC23032153700791E2E42F4AFE88137084
:10569000022153700791DBE4BB880791062B00F0D1
:1056A0003C81072B7FF47FAF2D4B274A1B78FE8868
:1056B0001370CDE42B4B5A68002A3FF474AF7888FE
:1056C000BD8804E00C335A68002A3FF46CAF198897
:1056D0008142F7D15988A942F4D1000A032800F089
:1056E000448119890791FE88B2E4BB8803F07F03E7
:1056F0000A2B3FF658AF7A88002A7FF454AF0F4A3E
:105700009B001A44137823F0020313701BE6124D1A
:105710000C4ABB78137005F5A07602E00835AE425E
:1057200024D02B6A1A06F9D5686A083800F0BEFB47
:10573000F4E700BF10B4FF1F00B1FF1FC0200740F7
:10574000802007400CB1FF1F04B1FF1FF8B0FF1FFE
:1057500065B0FF1F942007400080FF1F88004000B5
:105760009FAFFF1F947B000064B0FF1F9149924AD6
:10577000019192489249934D934E029500230497CC
:10578000CDF8149080461D46174689460396386822
:1057900028B1466800F08AFB3046002EF9D1019B03
:1057A000186800233B60039B1A46002342F825300B
:1057B00028B1466800F07AFB3046002EF9D1019AF4
:1057C00098F80030114600220A6049F8042B029A2A
:1057D0004FF00001023B22F81510032B07D8DFE839
:1057E00003F05A025A024FF0010388F80030019B7F
:1057F000013504330A2D07F10407019308F101086C
:10580000C5D1724A724B7348049FDDF8149001971A
:1058100011460022CDF8089002704FF002080126D0
:105820000F46994613E0B50045F0020045F0030528
:1058300000220A2E44F8302044F83520664D00F04E
:10584000A980B8F10B0F2BD0013608F1010817F829
:10585000012B09F8042B092E00F08C801307E2D5E8
:1058600000F004FB002850D0B50004EB46125B4B5F
:1058700044F835300830506000F0F8FA00283BD08A
:1058800045F0010204EBC20E0830554B44F83230AB
:10589000CEF80400C8E74FF0000388F80030A6E710
:1058A000019FDDF80890FE880799FFF7D1BB4D48AE
:1058B0004D494E4B0068BA7808601A7043E5BB88C2
:1058C00003F07F030A2B3FF66EAE7A88002A7FF43E
:1058D0006AAE474A9B001A44137843F002031370E0
:1058E00031E540F221339A423FF460AE40F2214369
:1058F0009A423FF45BAE56E6364B1A7845F0010EFD
:10590000013244F83E001A708EE7324B1A78B50027
:10591000013244F835001A70AEE7364B364A1B7830
:10592000FE881370FFF794BBBB78324A1370002BCC
:105930003FF409AD214D314BEF79A3F10806002F5B
:1059400018BF1E46336818063FF5FDACDFF8C0806F
:10595000B0224046002101F0C5FC87F00107284B2A
:10596000C6F80480EF713360EDE41178FE8807918A
:10597000FFF76EBB234A2448C4F82421C4F82C2125
:105980000022C4F82001C4F82801C4F83021C4F86A
:10599000382159E705EBC001019FDFF878E01B4B88
:1059A000C1F804E0DDF80890FE8845F8303007992A
:1059B000FFF74EBBA8B0FF1F3CB0FF1F10B1FF1F89
:1059C000D0B0FF1FC4B2FF1FD0AFFF1F887B000005
:1059D000C420074001B1FF1F0080FF1F8800400066
:1059E000C8004000FCAEFF1F18B4FF1F94B1FF1F9A
:1059F000C02007409EAFFF1F04B1FF1F1881FF1F8B
:105A00008000B000C091FF1F8000B4008000030040
:105A10007492FF1FBC91FF1F2DE9F843204C00F04A
:105A2000A7FE002204F5A47023461A605A600833CA
:105A300083424FF00001F8D11A4A1B4F13681B4DE7
:105A40001B481C4EDFF87880DFF878C0DFF87890CC
:105A5000DFF878E043F480231360C4F307233B703E
:105A6000C4F307432B70240EFF2302F52832047081
:105A7000114D88F8003011488CF80030D432337062
:105A8000012389F8003070268EF800104FF400745E
:105A9000102107F8183C2E7004601170BDE8F883DF
:105AA0000080FF1F348004409C200740B020074046
:105AB000B42007401020074049E400E008E100E07E
:105AC000802007408820074094200740002107409D
:105AD000704700BFF8B5234D2B78002B3FD0224EE6
