:1000000000180020C10000002D100000F10F0000BA
:10001000F10F0000F10F0000F10F0000F10F0000E0
:10002000F10F0000F10F0000F10F00002D10000093
:100030002D100000F10F0000D11F0000D91F00009B
:100040002D1000002D1000002D1000002D100000BC
:100050002D1000002D1000002D1000002D100000AC
:100060002D1000002D1000002D1000002D1000009C
:10007000B52800002D1000002D1000002D100000EC
:100080002D1000002D1000002D1000002D1000007C
:100090002D1000002D1000002D1000002D1000006C
:1000A0000D1400002D1000002D1000002D10000078
:1000B0002D1000002D1000002D1000002D1000004C
:1000C000F8B500F0B7FF0821474A484B1A60484A84
:1000D000484B1A60484A494B1A60494B1A780A4201
:1000E00002D01A780A431A702A22464B46481A70E0
:1000F00000234649464C1A188A4203D2E558043375
:100100001560F8E70021434B434A934201D202C3F2
:10011000FBE70023414A424958589446985004331B
:10012000C02BF9D100210326FF2580248A083D4BEE
:100130009200D2180B002F003340DB009F40106864
:100140000131B84307002000984003003B4313608F
:100150002029EBD16246344B1A608A22334B1A7045
:10016000334B663A5A707C321A709E3A9979114232
:10017000FCD0102299791142FCD10C209A792C499B
:100180000240082AFAD1053A0A713D324A71203AF2
:1001900099791142FCD0402299791142FCD025492D
:1001A000254A11602021224A117014399A790A4097
:1001B0000C2AFBD1214A224B1A60224A224B1A6098
:1001C0000022224B1A60224B07321A60214A224B2E
:1001D0001A6062B601F008F802F016FD00F030FF78
:1001E00001F09CFFFEE7C046300004F0348004407C
:1001F000823F0000388004400100000F3C80044032
:1002000002D0074000E0074030020020DC0300205D
:10021000A42F0000DC0300205C07002000F9FF1F72
:100220000000000000E400E008ED00E0005006409F
:10023000004006400000011044800440C000050555
:10024000048004407FBB000014E000E018E000E000
:1002500010E000E00000202020ED00E0FFFFFFFFA5
:10026000FFFFFFFFFFFFFFFFFFFFFFFFFFFFFFFF9E
:10027000FFFFFFFFFFFFFFFFFFFFFFFFFFFFFFFF8E
:10028000FFFFFFFFFFFFFFFFFFFFFFFFFFFFFFFF7E
:10029000FFFFFFFFFFFFFFFFFFFFFFFFFFFFFFFF6E
:1002A000FFFFFFFFFFFFFFFFFFFFFFFFFFFFFFFF5E
:1002B000FFFFFFFFFFFFFFFFFFFFFFFFFFFFFFFF4E
:1002C000FFFFFFFFFFFFFFFFFFFFFFFFFFFFFFFF3E
:1002D000FFFFFFFFFFFFFFFFFFFFFFFFFFFFFFFF2E
:1002E000FFFFFFFFFFFFFFFFFFFFFFFFFFFFFFFF1E
:1002F000FFFFFFFFFFFFFFFFFFFFFFFFFFFFFFFF0E
:10030000FFFFFFFFFFFFFFFFFFFFFFFFFFFFFFFFFD
:10031000FFFFFFFFFFFFFFFFFFFFFFFFFFFFFFFFED
:10032000FFFFFFFFFFFFFFFFFFFFFFFFFFFFFFFFDD
:10033000FFFFFFFFFFFFFFFFFFFFFFFFFFFFFFFFCD
:10034000FFFFFFFFFFFFFFFFFFFFFFFFFFFFFFFFBD
:10035000FFFFFFFFFFFFFFFFFFFFFFFFFFFFFFFFAD
:10036000FFFFFFFFFFFFFFFFFFFFFFFFFFFFFFFF9D
:10037000FFFFFFFFFFFFFFFFFFFFFFFFFFFFFFFF8D
:10038000FFFFFFFFFFFFFFFFFFFFFFFFFFFFFFFF7D
:10039000FFFFFFFFFFFFFFFFFFFFFFFFFFFFFFFF6D
:1003A000FFFFFFFFFFFFFFFFFFFFFFFFFFFFFFFF5D
:1003B000FFFFFFFFFFFFFFFFFFFFFFFFFFFFFFFF4D
:1003C000FFFFFFFFFFFFFFFFFFFFFFFFFFFFFFFF3D
:1003D000FFFFFFFFFFFFFFFFFFFFFFFFFFFFFFFF2D
:1003E000FFFFFFFFFFFFFFFFFFFFFFFFFFFFFFFF1D
:1003F000FFFFFFFFFFFFFFFFFFFFFFFFFFFFFFFF0D
:10040000FFFFFFFFFFFFFFFFFFFFFFFFDEF9FFFF23
:1004100010B5064C2378002B07D1054B002B02D0DA
:10042000044800E000BF0123237010BDDC0300205E
:1004300000000000A42F0000084B10B5002B03D0D3
:100440000749084800E000BF07480368002B00D1B7
:1004500010BD064B002BFBD09847F9E700000000C9
:10046000E0030020A42F0000DC03002000000000B7
:100470007047FFFF37B50224E0B20021013400F0DD
:100480003FFE082CF8D100210F2000F039FE00219A
:10049000102000F035FE0021112000F031FE012176
:1004A0000D2000F02DFE01210E2000F029FE022576
:1004B000204B2900EC18204BE4001C19200000F010
:1004C0003DFD01350521200000F04CFD082DEFD148
:1004D0001A4C1B49636D18680368DB699847220052
:1004E00000235832137022005A32137022005932FE
:1004F0001370144A6366A266E266134A23661268A2
:10050000019222000199FC3251602100F8310B70F8
:10051000210075310B70210074310B702100763190
:100520000B70210077310B7013607034033323702C
:1005300037BDC046FEFFFF1F10050020F803002056
:10054000127A0000FFFF00004805002010B5006887
:1005500003681B68984710BD0B000833DBB210B569
:10056000072B08D801229A401300DD22134202D043
:100570000068FFF7EBFF10BDF7B5019308AB1B78E0
:100580000600013BDBB20D0017000F2B16D849B255
:10059000002913DA0B43D9B2406DFFF7D7FF7F2450
:1005A0003900706D2140FFF7D1FF10239D43C02D0E
:1005B00004D00199706D2140FFF7C8FFF7BD13B556
:1005C00004AC2478E02903D80094FFF7D5FF04E0B9
:1005D000F72902D95430FFF7BFFF13BD70B50600ED
:1005E00014005518A54205D021783068FFF7AEFFFA
:1005F0000134F7E770BDFFFF036810B50400002B5E
:1006000001D074309847230075331B78F22B00D14A
:1006100083E020D8C02B66D00ED8902B34D004D8DD
:10062000802B00D096E0A36851E0A02B4ED0B02BD9
:1006300000D08FE063694AE0E02B31D004D8D02BA2
:1006400000D087E0E3694FE0F02B56D0F12B00D0CB
:1006500080E0A36A74E0FA2B1AD00CD8F62B75D080
:1006600003D8F32B76D1236B6AE0F82B0ED0F92B4D
:1006700070D1236C6BE0FC2B0ED00BD3FE2B0DD076
:10068000FF2B67D1236D62E0E36820E0A36B5EE09F
:10069000E36B5CE0636C5AE0A36C58E0E36C56E0FB
:1006A000226A002A56D0230077331978FE23C90125
:1006B0009B0119402300763318787F2303401943A8
:1006C000254B7434C9182078904743E02369002BE8
:1006D00040D02200210077327434763112780978C4
:1006E0002078984736E0A369002B33D02200743479
:1006F00076321178207898472CE0626A002A29D057
:10070000210076310B78497809021943802900D9F4
:1007100080212000783090471CE0E16A002919D040
:10072000230077331878FE23C00102009B011A4092
:100730007F237634207803401A431000884709E06D
:10074000002B07D076342078984703E0636B002BAA
:1007500000D0984710BDC04600E0FFFF73B505000C
:100760007035040028780A00C307DB0FDBB2002BCA
:1007700000D184E00121884300D180E0210075315F
:10078000097808008038C0B2602820D82000743072
:100790000078904202D053425341DBB22A7852088B
:1007A000022A04D0032A05D0012A68D104E0002BD4
:1007B00065D001E0002B62D123002200773376322E
:1007C0001B78127800902000FFF7F9FE57E0080030
:1007D000F0380F2853D802F043F90D3C271D525230
:1007E0000852085208080852080820005430FFF741
:1007F000B3FE44E02100220076310B78497878324C
:1008000009021943802900D9802120005430FFF7C4
:10081000E5FE34E02300F3217633606D1D78FFF7A9
:1008200095FE7F21294027E0230077331D78013B87
:100830001B78ED011D43F221606DFFF787FE7F26D7
:100840002900606D3140ED09FFF780FE290031403D
:1008500012E0230076331D7870232D012A001A4000
:10086000230077331D780F232B401A431500F12105
:10087000606DFFF76BFE2900606DFFF767FE73BDCB
:1008800001003022030091430120802909D01A0081
:10089000EF2130320A4204D0C03B18004342584195
:1008A000C0B27047002342B29A420BDA02000C3207
:1008B000D2B2012A06D9FD2804D00300EF2801D8BE
:1008C0000F22934318007047F0B5002489B0BB4D48
:1008D0002819083400F048FB0395302CF7D1002488
:1008E0000294029BDD00039B5D19280000F070FB61
:1008F000002808D0B24EB34F33683A680493049B83
:100900009B1A182B0FD8280000F06AFB002849D04A
:10091000AB4EAC4F33683A680693069B9B1A182B74
:1009200000D919E23EE0A84D2B68002B04D1A74B5B
:10093000E05880B201F0B2F92B68012B04D1A44B2E
:10094000E05880B201F0AAF92B68022B04D1A14B28
:10095000E05880B201F0A2F99F4B1B68002B0BD12D
:1009600010219E4B9E4AE358A2580091DBB2D2B2AE
:1009700080319C48FFF700FE974B1B68012B09D183
:100980000299994B97485B5C984A06215430537101
:10099000FFF724FE01210F2000F080FB3368059350
:1009A000059B3B60029B043401330293062B98D1D4
:1009B000112000F093FB884B012801D1186001E061
:1009C00000221A60142000F089FB7F4C012801D11D
:1009D000206007E0152000F081FB0223012800D0F1
:1009E000002323600E2000F079FB002803D10121B1
:1009F0000E3000F053FB7B4D2B0058331B782C003E
:100A00000293102B00D9FFE16B6D186803681B6916
:100A10009847002800D1F7E12F000122FF37BB7B68
:100A20009343BB736B6D186803685B6998476B46AB
:100A300003901E7BFD2E00D1E6E16B6E002B00D0F3
:100A400097E06B4B1E702B0059331F783800FFF76F
:100A500029FFFFF715FF002809D0039B1B0606D4CA
:100A6000634B1F702B005C331E7001236B662300E9
:100A70005B331E783000FFF715FFF12836D014D80D
:100A8000B02835D006D8902832D0A02830D0802881
:100A90003BD12DE0D02829D002D8C02826D034E080
:100AA000E02825D0F02826D02FE0F72823D005D83D
:100AB000F3281BD01CD3F62804D026E0FC2801D94B
:100AC000FE2822D3230022007533187000237432CD
:100AD00013702200763213702200773213702200D6
:100AE0000121F83211706B662B6663E1022300E08E
:100AF00003232B661AE080232B6623000022593340
:100B00001A7023007833187010E022000120FF32A1
:100B1000937B184340B290736368002B00D09847D2
:100B2000002363662366593423706DE12A6E6B6E71
:100B3000013A934200D20CE12300753318700F2361
:100B40001E4023002200743301361E7023005C32E5
:100B5000127876331A702200002377321370220045
:100B600001216B662B662300FC321160F8330A000A
:100B7000EDE0039A12066AD532001032D2B20F2A83
:100B800065D80121914081220A4033D1DF20000243
:100B900001425CD02B0075331E702B0076331A7027
:100BA0002B0077331A702B0074331A702B0001322C
:100BB000FC331A602B00F833C9E0C0461005002052
:100BC000480500204005002044050020CC2C0000F2
:100BD000B42C0000E42C00000C050020842C000044
:100BE0009C2C0000F8030020570200205002002037
:100BF000530400202A0078321278F02A01D0F72A14
:100C00001FD15A1CE31878331E702300F02175336E
:100C10001970230076331A702300110A7733197084
:100C20002100002374310B702100FC310A60220086
:100C30000121F8321170220059326B662B66137055
:100C4000B8E00120BB7B184340B2B87364E72200D0
:100C50005B321278F02A01D0F72A02D1E2187832FA
:100C600001E0E2185B3216702A6E0392013A934259
:100C70006FD323005B331F78F02F01D0F72F25D1DE
:100C80002200F023F73215781370220075321370AA
:100C90002200703B763221001370002277310A70F7
:100CA000210074310A702200FC32136023000122FB
:100CB000F83320001A70FFF79FFC2300F7227833E7
:100CC0001A70230079331D70022343E03800FFF7C8
:100CD000E9FD2300753306001870FFF7D1FD2200EF
:100CE0007432002804D00F233B400133137000E01E
:100CF0001070220023005C32127876331A70039A47
:100D00000023032A02D123005D331B7822007732AF
:100D1000137000236B662B6623000122F8331A70D0
:100D2000B02E0DD006D8902E0AD0A02E08D0802E3E
:100D30000AD105E0D02E03D0E02E01D0C02E03D181
:100D4000230059331F7035E02300002259331A70F5
:100D500030E00133636657E02C4B1B68002B08D151
:100D600010212B4A0091A2587031D2B22948FFF7C6
:100D700003FC294D2B68002B04D1284BE05880B28E
:100D800001F012F82B68012B04D1254BE05880B2FA
:100D900001F00AF82B68022B04D1224BE05880B2F4
:100DA00001F002F800210F2000F078F93368079372
:100DB000079BF6E5230075331A78902A04D12200A8
:100DC00077321278002A17D0230075331B78803BC6
:100DD000DBB2602B13D8230074331B78029A934242
:100DE0000DD0002A0BD0002502992000FFF7B6FC99
:100DF000002D00D0FFE507E080221A70E4E7200014
:100E0000FFF7FAFB0125EFE709B0F0BD0C05002064
:100E10009C2C0000F803002044050020CC2C00008E
:100E2000B42C0000E42C000037B5374B374C384A5F
:100E300063651A602300002558331D702300593361
:100E40001D7023005A331D70324B25606560A5600C
:100E5000E56025616561A561E56125626562A56260
:100E6000E56225636563A563E56325646564A56440
:100E7000E564256525666566A366E36623000322AF
:100E800070331A70230074331D70230075331D7086
:100E9000230076331D70230077331D70230020005C
:100EA000F8331D7029007D32783001F0DCFE23001C
:100EB000FC33DD605D609D6023001749FF33174AF6
:100EC00020005D739D7301F089FE154B154C1B6866
:100ED00020000193019A144B1A6000F027F82000BB
:100EE000083000F023F82000103000F01FF8200038
:100EF000183000F01BF82000203000F017F8200018
:100F0000283000F013F837BD08050020F803002052
:100F100064020020FFFF0000710400003002002086
:100F200048050020100500204005002000230A226B
:100F3000036082808371C3717047FFFF13B5002384
:100F40000400C8B2E071A37100F0C8F8002801D015
:100F50000323A371024B1B680193019B236013BD04
:100F60004805002081807047F0B5040085B0C07945
:100F700000F0B4F8A579431E98412A0008239A434B
:100F80001300A27101226E08C0B216400F49B04290
:100F900005D00A680192019A226002220FE00E68D1
:100FA00027680296029EF61BA788BE4209D32A40F4
:100FB000904206D00A680392039A226009225340A5
:100FC000A371A0790007C00F05B0F0BD480500204F
:100FD000092380791840093843425841C0B270470C
:100FE000092380791840083843425841C0B27047FD
:100FF00070B580258026ED02F6000B4C23682B424D
:1010000001D000F003FA2368334201D001F052FC12
:1010100023681B0501D500F009F82368DB04ECD533
:1010200000F004F8E9E7C0463480044010B5FFF74B
:10103000DFFFFFFF0022014B1A6070470081044070
:101040007047FFFFEFF31380002821D1EFF31083E7
:10105000002B1FD1EFF3058100290FD018000F29B5
:101060000ED90B00103B0C4A9B089B009B180322D7
:1010700018680A40D200D040C0B201E08020400091
:10108000EFF31183002B05D0984203D9180001E03B
:10109000012040427047C04600E400E010B51A2825
:1010A00018D80C2358430C4A835810181C7D027A18
:1010B000224205D0002901D01A710BE01A7209E012
:1010C00043681A68002902D003210A4301E0022183
:1010D0008A431A6010BDC046FC2C000000231A2869
:1010E0000AD80C335843054A83581018007A1B7CE1
:1010F0000340581E8341DBB218007047FC2C0000EF
:10110000F0B51A282FD80C2217004743164CE519C2
:101110006B682600012901D0042911D150433458AD
:101120003018257D027A20202A432275A2225200FF
:101130001A601A68042901D1024313E0824311E0C6
:1011400038592C7A027DA24302758022002908D0EA
:10115000022902D10422FF3204E00022032901D136
:10116000812252001A60F0BDFC2C000072B60C4BBC
:101170001A680C4B18680C4B1B6862B65B0104D5EF
:10118000322393429B415B42C018084B9A1A084B8A
:101190005A43FA239B005843920D10187047C046DB
:1011A00018E000E04805002004ED00E07FBB0000EF
:1011B0005555010070B50400FFF7D8FF0500002C5D
:1011C0000FD0FFF7D3FF074B401B984206D9013CD5
:1011D000002C06D0FA239B00ED18F2E700F0A8FFE0
:1011E000EFE770BDE703000080221E4BD20510B56B
:1011F0001A608022002012061A601B4B1B491860DF
:101200001B4B1C4A1960282313601B4A1B4C13609C
:101210001B4A13601B4A13601B4A13601B4A13606E
:10122000092222601A4C20601A4C21601A4C23605B
:101230001A4C23601A4C22601A4C20601A48016034
:101240001A490B601A490B601A4B1A6000F0E0FF54
:101250001920FFF7AFFF00F0F7FB1420FF30FFF776
:10126000A9FF10BD00E100E004800340FFBF0000C3
:10127000088003400C80034014800340008003403A
:101280001C800340248003402C80034034800340B2
:1012900004900340089003400C90034014900340D6
:1012A0000090034004A0034008A003400CA00340AA
:1012B00014A0034000A003400223F0B50A4A0B4EDD
:1012C0001478C8272343DB00F518686008480578C0
:1012D000002D00D1403F09040F43F75001235D402A
:1012E0005C4005701470F0BDD005002000F8FF1FB1
:1012F00060060020431E0020062B09D872B6054A5E
:101300009B009B58002B02D001305B68FAE762B665
:101310007047C04614060020F8B572B60123174A7C
:10132000082594461E00164964465A1EA25C2A42AD
:101330001AD05F017C589A00002C05D1CB190830D7
:101340005860104BCB5109E03243D2005458002C66
:101350000AD18B18083058600B4B8B500B4A13780E
:10136000013B137062B608E00133082BDCD162B692
:101370000022064B1A7000F08BFDF8BD002F000014
:1013800000F8FF1F88004000C800400056060020FB
:10139000421E10B5062A30D8022380001843174B8E
:1013A000C0001B1872B6164CA05C03280BD801F0C5
:1013B00057FB16040207052012E0083302200FE055
:1013C000083304200CE00F48920014580E4B002CF8
:1013D00001D1115001E09858416099500CE0032070
:1013E000A0540A0008325A60C822180700D4403AB4
:1013F000098809040A431A6062B610BD00F8FF1F8D
:101400006C0500201406002030060020F7B5BD4B07
:101410001C781D000423E4B21C421FD0BA4B1B7879
:10142000002B18D0B94A1378DBB2002B05D0013B52
:10143000DBB21370002B00D100BEB54A1378DBB2CB
:10144000002B06D0013BDBB21370002B01D100F062
:101450006FFD00F045FD0422AA4B1A7008222240BD
:1014600000D181E2AB4BAC4F1B78DBB29C08E400AF
:101470001D093C19002D00D007E223686568980615
:10148000000F01380C2800D9FBE101F0F3FAAC01A0
:10149000AC01FA01FA01FA01FA01FA01FA01D701E5
:1014A000FA01FA01FA010D0000229C486B68026003
:1014B00001209B4E296873609A4B316023609A4CDF
:1014C00089B22070994C3A61BA610193A1421BD84C
:1014D000D023DB00994200D3F3E081235B009942E3
:1014E00000D1CEE006D8802900D1B2E0822900D117
:1014F000B4E049E18E4B994200D1D3E0FF33FF3392
:10150000994200D144E13FE18A4B994200D13FE149
:1015100011D8223BFF3B99421AD0874B994200D108
:101520005EE1A13B994200D02EE1774B834C1B78C2
:101530002370030030E1824B994200D1D6E0814B09
:10154000994200D124E1804B994200D01CE147E14F
:101550003C00B2786C4B7D1C1A702034FF35802221
:101560002368134203D06068083800F091FC083407
:10157000AC42F4D100242500744BE058002805D07B
:101580004368009300F084FC0098F7E76F4B185114
:101590006F4BE0506F4BE058002805D04368009334
:1015A00000F076FC0098F7E76A4B6B4A18516B4BDA
:1015B000E0506B00D0526A4BE85C0238032807D831
:1015C00001F04EFA02040204002200E001225A5502
:1015D00001350434072DCFD100230124614D2B7038
:1015E000614B6249621EE3188A5C9B001A700823F3
:1015F0001A4220D000F02EFC6301002805D0FA1812
:10160000083050605A4AFA5003E0F8502B78013302
:101610002B7000F01FFC0122A3001343DB00002805
:1016200005D0FA1808305060019AFA5003E0F850DB
:101630002B789B182B7002210023A2001143C900B4
:101640007B5003210A438A400134BB50082CC7D188
:10165000A1E03A4C0223227062709DE07F23B188A2
:101660000B40072B00D98FE0344C9B002270627036
:10167000404A9B181A7802231A4200D18CE020704D
:101680008AE07F23B2881A40072A00D97CE0738859
:10169000002B00D078E002203649920052181178D1
:1016A00081432CE07F23B2881A40072A6CD87388C4
:1016B000002B69D102202F49920052181178014362
:1016C0001DE07288B1882C4B5C68002C5CD01888B7
:1016D000904209D15888884206D1120A032A01D1C2
:1016E000237859E01B8957E00C33EDE7B388002BD2
:1016F00050D1224A1168224A1160B178214A1170F2
:1017000049E0C046802007405F060020D105002048
:10171000700600209020074000F8FF1F4C050020B5
:101720004C060020C8004000600600208106000032
:1017300002030000210A00002109000057060020D2
:10174000212200002123000021200000B4050020F8
:101750005005002014060020360700203006002027
:101760006C0500205606002030C80110002F000034
:1017700088004000C0200740082F000048050020D6
:10178000580700207C0600200F22934B1A7027E098
:10179000002300E013001C00F5889D4200D91D00C5
:1017A0002E00402D00D9402620003100FFF784FD97
:1017B000A419AD1B03D12F00402E04D010E0402708
:1017C000AF4200D92F0020003900FFF775FDE41962
:1017D000ED1B01D1402F03D1804B1C60804B1D803D
:1017E0000122804B4CE0804E804B32889A4213D1CC
:1017F000B388002B0CD17E4AE95CD1540133072B0E
:10180000FAD113680735862B02D10F22794B1A7053
:1018100000210800FFF750FD774B32689A420AD149
:10182000764B72689A4206D100212A78744B0800E0
:101830001A70FFF741FD734B236022E0674F3E684B
:10184000002E13D0664B1C882500402C00D9402563
:1018500029003000FFF730FD641B614BA4B21C80EF
:10186000002C01D1402D00D174193C60A0225E4BA8
:10187000D2001988914204D100225A709A78624BA2
:101880001A700122574B1A706AE008226068013D05
:101890000838EDB2134037D000F0FAFA5B49A800DF
:1018A00042585B4B002A1CD0566846501100585DC8
:1018B0000831616003280BD801F0D2F80204060851
:1018C000032104E0022102E0052100E00421595532
:1018D0000821C8230C4200D1403B12881204134354
:1018E0003DE0585D032808D801F0BAF83A3A0204FE
:1018F000002200E001225A5532E008221440621E04
:10190000944102345C552BE02268110C8AB20280AB
:1019100000291ED03F4943804360AB005F583E4ED4
:10192000002F01D1585001E0F15848603B496D004B
:10193000F0506B5AD2186A5200F08CFA002802D08C
:101940000830606005E0364A206013780133137078
:1019500006E008231C4201D1324B00E0294B2360F2
:101960000822314B1A7052E5012004421ED0022396
:101970001C492C4C0B702D4B2D4E1A702D4B1C609E
:101980009C602D4C1A61DC600D249A615E60124BE4
:101990001C70FF23294C23701B4C2B702270284A8B
:1019A00013709F22274B1A70087013E063B2002B4C
:1019B00004DA0D22084B1A7080232B700222144285
:1019C00004D01E490B78DBB20B702A7010231C4226
:1019D00000D02B70F7BDC046C02007404C0500204A
:1019E00054060020942007404C06002021200000CF
:1019F00050070020D105002021090002020001004B
:101A000069060020C8004000982007401406002006
:101A10006C050020B405002050050020360700208A
:101A2000560600208800400080200740D005002096
:101A30007405002000F8FF1FD4050020882007400F
:101A40008C2007408420074010B500F08FFF002253
:101A5000802011001B4B4000D1509C18083261605F
:101A60008242F9D180201849C0020A6802430A6004
:101A70001A0A1649D2B20A701A0C1549D2B20A7063
:101A8000144A1B0E1370FF23134A00201370134ACD
:101A900013491370134A137001220A701249087017
:101AA00012490A70124A116899430B0070210B43C6
:101AB000136080220F4B52041A6010220E4B1A70D2
:101AC00010BDC04600F8FF1F348004409C20074032
:101AD000B0200740B42007408020074088200740FE
:101AE0009420074010200740002107408420074031
:101AF00018E400E000E100E00821074010B5224CA6
:101B0000224B1B78002B3BD00520FFF7F3FB03286B
:101B100004D9013C1E4B002C29D12BE000F09AF98E
:101B2000011EF6D01B48038842880B729B05940067
:101B30009B0F23434B72838892051C01120F224393
:101B40008A72C2889B0590019B0E0343CB72124B95
:101B500092080A731A7805204A735A788A739B7818
:101B6000CB7308230B80FFF713FC00200AE01A78E0
:101B7000002A02D001221A7002E000F0D9FABFE771
:101B80000120404210BDC046995300005F0600206E
:101B900068060020480700204407002003001F2893
:101BA00007D828200A2B0BD000200B2B08D12B3074
:101BB00006E000207F2B03D80248C318203B18788A
:101BC0007047C046A02E000070B5184C184B1B780B
:101BD000002B28D00420FFF78DFB032804D9013CFB
:101BE000144B002C16D118E000F034F9051EF6D085
:101BF0000024114B44721B78062203720F490A30ED
:101C000001F028F8082304202B802900FFF7C0FBEF
:101C100020000AE01A78002A02D001221A7002E09D
:101C200000F086FAD2E70120404270BD99530000CF
:101C30005F0600206806002067060020610600207D
:101C400070B500290BD0134A13781C000C40A14238
:101C500005D00B4313700122002803D116E00028A1
:101C600016D0002200230C4C1D5D210085420BD0B4
:101C70000133062BF8D10023CC5C002C01D1C854D1
:101C800004E00133062BF7D1002A01D0FFF79CFFB7
:101C900070BDC046670600206106002010B5020A2C
:101CA000C12A4DD9D3B2DF2A07D8F8223F219B01A0
:101CB000D20013400840184342E0F02B02D1C0B2DA
:101CC000002146E0E02B02D1C1B2002041E0E22B2E
:101CD00019D1C0B200283ED01F4B1C78A0423AD088
:101CE0005978884237D09A78904234D0002C05D069
:101CF000002905D0002A2ED1023202E0002200E0A5
:101D00000122985415E01C33DBB2032B23D8800545
:101D1000800D20D000231149CC5A0A0084421AD0E9
:101D20000233082BF8D100235900545A002C03D158
:101D30005052FFF7E3FE0EE00133042BF4D10AE02A
:101D4000FFF72CFF002806D03F234106C90F4900AA
:101D50001840FFF775FF10BD44070020480700201A
:101D600070B500290BD00E4A13780B4207D08B4375
:101D700013700122002805D1FFF726FF0FE000288D
:101D80000DD0002200231C0006495D5C854201D174
:101D900001225C540133062BF7D1002AECD170BD2F
:101DA000670600206106002010B5020AC12A41D949
:101DB000D3B2DF2A07D8F8223F219B01D20013407B
:101DC0000840184336E0F02B02D1C0B200213AE0BF
:101DD000E02B02D1C1B2002035E0E22B14D1C0B219
:101DE000002832D0194B1A78824207D05A788242A2
:101DF00006D09A78824228D1022202E0002200E036
:101E00000122002199540EE01C33DBB2032B1CD8B5
:101E10008005800D19D000230D4A5900545A844280
:101E200004D100238B52FFF769FE0EE00133042B2F
:101E3000F3D10AE0FFF7B2FE002806D03F234106A7
:101E4000C90F49001840FFF78BFF10BD4407002061
:101E50004807002070B572B60B4D2C68200000F0CA
:101E60009FFE1D2802DD62B600200CE080231B06C9
:101E7000C3409C432C6062B648235843034B181858
:101E800000230360436070BD60020020C0F9FF1FA3
:101E900010B504000E484821201A00F0F5FD1D2859
:101EA00014D80C4B1B78002B07D00B4B1B78002B46
:101EB00003D02000FFF730FA08E072B680231B063B
:101EC000C340064A11680B43136062B610BDC0469A
:101ED000C0F9FF1F560600205F06002060020020A8
:101EE00070B5094B1D78002D0CD1084C21680029D4
:101EF00008D04B88002B05D09B000B800620FFF7F5
:101F000047FA256070BDC0466A0600206C060020B6
:101F1000054B5888054B1A68002A03D0138852884D
:101F20009B1AC0187047C04636070020780600206C
:101F300070B50E4B1C78E4B2002C15D10C4D2968FD
:101F4000002906D04B8803200B80FFF721FA2C6074
:101F50000AE0FFF77FFF011E03D00320FFF718FA06
:101F600002E00122034B1A7070BDC04671060020CA
:101F70007406002070060020EFF3108072B6434212
:101F80005841C0B27047002800D062B67047FFFFCA
:101F900010B5FFF7F1FF0C4A1468002C10D06369EC
:101FA0001360002B02D000229A6101E0074A1360FF
:101FB000FFF7E9FF002320006377A3689847E8E76D
:101FC000FFF7E1FF10BDC046800600208406002018
:101FD00010B5FFF7DDFF10BD024A1368013313602F
:101FE0007047C0464805002010B50368C9B21B6899
:101FF000984710BD10B50368C9B21B68984710BD5B
:1020000010B50368C9B21B68984710BD10B50368C6
:10201000C9B21B68984710BD084B10B504004808AA
:10202000C01800F031FD00F03BF9054B1B78002B88
:1020300002D1200000F0D6FC10BDC046C0C62D0065
:102040007802002010B5080000F04CFB012010BD04
:1020500010B5080000F046FB012010BD70B5080067
:102060000D0000F008FE04000100280000F08AFBCB
:10207000200070BD10B514000800110000F082FBB4
:10208000200010BD10B500F0FFFB10BD10B508001A
:1020900000F026FB431E9841C0B210BD10B50800E9
:1020A00000F0F8FA431E9841C0B210BD10B5080008
:1020B000110000F053FA10BD10B5080000F0A4FAAA
:1020C00010BD10B5080000F025FA10BD10B500F0E5
:1020D000A3F910BD10B51400054B4808C01800F056
:1020E000D3FC00F0DDF8200000F064F910BDC0461C
:1020F000C0C62D0010B500F0AFFB10BD10B500F04C
:102100007BFB10BD10B500F067FB10BD10B500F0F3
:1021100045FB10BD10B500F04DFB10BD10B5FEF72E
:10212000A9F9FEF7D1FB00F003F8FAE77047FFFFCB
:10213000F8B52F4C2278002A58D02E4E3378002B39
:1021400054D1013333701A420DD0FFF7E1FE00285D
:1021500001D000F05BFC284B1B78002B03D0012240
:1021600023789343237023789B0712D50025234BB4
:102170001B78AB420DD9224BAA00D7583B683800D8
:102180001B699847002801D03B6998470135EDB29B
:10219000EDE70023337023785B0727D519490B68D7
:1021A000002B23D0EFF30583002B1FD1EFF3108218
:1021B00072B60868002803D0134C2578002D03D090
:1021C000002A13D162B611E00123237043690B602A
:1021D000002B01D09D6101E00C490B60002A00D169
:1021E00062B600258368457798472570F8BDC046DC
:1021F0007902002091060020D80300203407002037
:10220000280700208C060020900600208806002069
:102210001B4B1C4A19781C4B082901D1002102E0F4
:102220000A2903D12E311160132206E00C2901D1B5
:10223000283100E03C21116012221A60134B1A78F9
:10224000134B002A01D0002200E001221A60114B3A
:102250001A78114B012A01D880220CE0042A01D8F7
:10226000842208E0082A01D8852204E0102A01D837
:10227000862200E087221A600122084B1A707047FC
:102280007A02002008B003400CB0034093060020FF
:1022900020B003407B02002024B0034092060020BF
:1022A00080212D4AC90013680B43136000232B4A79
:1022B00013702B4A13702B4A13702B4A13702B4A3E
:1022C00013702B4B1B78032B0FD004D8002B0FD18E
:1022D000284A294B0BE0152B04D0192B08D1274A8B
:1022E000274B04E0234A274B01E0274A274B1A607B
:1022F000274B1B78042B11D005D8012B12D1D122EA
:10230000244B92000DE0052B04D0182B0AD1224A51
:10231000224B06E0D122224B920002E09122214B77
:1023200092001A60002800D101301F4BC204D20E67
:102330001A700022C0B258709A702C32DA70FF23E3
:102340001A4A116899430B0040210B431360802205
:10235000174B52011A607047348004401D0700205B
:1023600099060020240700201E0700209806002060
:10237000DA0600201303000040A00440130400000C
:1023800054D0044018C004401302000004900440DC
:102390007C02002044A004404404000050D00440CB
:1023A0001CC004400890044000A006400CE400E07B
:1023B00000E100E0132110B5164B9A788A43110012
:1023C000032202400A43410701D510210A439A70B3
:1023D0000F2210490240042A03D140248A79224363
:1023E0008A7110215A798A43084200D00A43102189
:1023F0005A719A798A43840600D50A4305499A712D
:10240000C30506D520204B780A78DBB202430A7058
:102410004B7010BD00A006402C4B10B51B685B052F
:1024200053D52B4B1B78DBB2002B02D0FFF780FE7D
:10243000F7E78021274A49011160274AD370274BCB
:102440001B78032B12D005D8002B13D10421244B69
:10245000FF310EE0152B05D0192B0BD10421214B98
:10246000FF3106E00421204BFF3102E004211F4B25
:10247000FF3119601E4B19787F230B40042B12D0BB
:1024800005D8012B13D104211A4BFF310EE0052B87
:1024900005D0182B0BD10421174BFF3106E0042186
:1024A000164BFF3102E00421154BFF3119601379FF
:1024B000D3790023134A1370134A1370134B1B680C
:1024C000002B02D0124A12781A7110BD34800440D9
:1024D0009806002080E100E000A00640DA06002017
:1024E00040A0044054D0044018C00440049004406C
:1024F0007C02002044A0044050D004401CC0044092
:10250000089004401D070020990600209406002032
:10251000DB06002070B505000C4B1C78E4B2002CE3
:10252000FBD128000121FEF7EBFD28002100FEF77A
:10253000B5FD0C236B431800054A064B8158101853
:102540001960027A044B1A7070BDC04698060020CC
:10255000FC2C0000200700201C07002010B50029DB
:1025600001D080231843224C227890423ED0214B48
:102570001B685B0539D57F231340042B0FD004D88B
:10258000012B0FD100221C4B0BE0052B04D0182B84
:1025900008D10022194B04E00022194B01E000226F
:1025A000184B1A606023002900D11C3B7F22024097
:1025B000042A15D006D8012A17D1C022920013434D
:1025C0000D4A11E0052A06D0182A0ED18022D20029
:1025D00013430A4A08E0C02292001343084A03E06A
:1025E000802292001343074A1360207010BDC0463A
:1025F0007C0200203480044044A0044050D00440B9
:102600001CC0044008900440194A137883422ED01D
:1026100018490968490529D5032B0FD004D8002B88
:102620000FD115490B600CE0152B04D0192B08D1E4
:102630000021124B04E00021114B01E00021114B5D
:10264000196003280FD004D800280FD10E490A4B77
:102650000BE0152804D0192808D10C49074B04E0D9
:102660000949074B01E00A49064B19601070704791
:10267000DA0600203480044040A0044054D00440D6
:1026800018C0044004900440130300001304000029
:10269000130200000E4B70B51A680023520515D5C1
:1026A0000C4C1A2811D80C22130043430A490B4D35
:1026B0005A58CB181B7A012122602B70FEF720FD9F
:1026C00023682A781A72012300E02360180070BD85
:1026D0003480044094060020FC2C0000DB0600201F
:1026E00000207047F8B51F4B06001B685B0537D507
:1026F0001D4B1B68002B02D01C4A12781A711C4D0E
:102700002C7801343F2C0AD9002408E0FEF79AFC0B
:10271000402815DC17490B795BB2002B04DB164F00
:102720003B78A342F2D010E03B7801333F2B00D935
:102730000023124AD25CDBB2D2B2CA713B70EEE720
:10274000FF28ECDDFFF7F4FCE9E701220B4BF6B2C2
:102750001E550B4BE4B21A70064BAB322C70DA707C
:10276000F8BDC04634800440200700201C0700202C
:102770002407002000A006401E0700209A06002023
:102780009806002070B504004518AC4204D02078AB
:10279000FFF7A8FF0134F8E770BDFFFF10B5044B49
:1027A0001B78002B02D0FFF7C3FCF8E710BDC04632
:1027B00098060020064B1878064BC2B21B78D8B298
:1027C000824201D33F3000E00138801A7047C04692
:1027D000240700201E070020054B1878054BC0B2C7
:1027E0001A78D3B2984200D24030C01A7047C0461F
:1027F0001D0700209906002010B5124B12491A78C7
:102800000878D2B2C3B29A4218D001333F2B00D914
:1028100000230E48C45CD8B208700D49E4B20968C0
:10282000200000290CD0934200D94032D31A200056
:102830001A2B05DC074B1B780B7201E0012040428C
:1028400010BDC0461D07002099060020DC060020B0
:1028500094060020DB060020084B1A78084B1B78F2
:10286000DBB29A4207D001333F2B00D90023054A3F
:10287000D05CC0B201E00120404270471D0700203B
:1028800099060020DC060020064B074A1B78DBB2C5
:102890001370064B1B68002B02D0054A12781A727F
:1028A0007047C046990600201D07002094060020AE
:1028B000DB06002030B5234A13799B0611D5224B45
:1028C000D479187819000130E4B200233F2800DCE5
:1028D00003001E480078834203D01D48C454DBB275
:1028E0000B70D1781748C9B24BB2002B17DA0379B5
:1028F0005BB2002B13DA174B174C1D782378DBB231
:102900009D4202D16C23C37009E001333F2B00D9F3
:1029100000231248C05CDBB2C0B2D07123704023E8
:1029200019420ED0117919420BD000210C4B1970AD
:102930000C4B1B688B4202D00B49097819722C236F
:10294000D37030BD00A006401D070020990600206E
:10295000DC060020240700201E0700209A06002025
:1029600098060020200700201C07002030B585B005
:1029700072B670224121154B1A70154A1170154A12
:102980003239117080221A701A7852B2002AFBDA9A
:10299000114B186862B6114B984201D80A2358436C
:1029A00001AC0A22210000F032F800230C48E15C5F
:1029B0000500002905D05A008218013351800A2BE6
:1029C000F5D101335B002B7005B030BD0000024033
:1029D0000700024006000240080002407F9698006F
:1029E000C2030020064A1378591C11700221054ABF
:1029F0009B009850044A13780B4313707047C046ED
:102A00003407002028070020790200207047F8B51D
:102A100006000D00170000243900300000F0BAF85D
:102A20000B003733DBB2092901D83031CBB230008B
:102A30002B55390000F028F8061E01D00134EBE7D1
:102A40002B1958702B005A1B944206DD1A78295D09
:102A500019702A550133013CF5E72800F8BDFFFF46
:102A600002B4714649084900095C49008E4402BC21
:102A70007047C04603B47146490840004900095AEE
:102A800049008E4403BC7047002243088B4274D334
:102A900003098B425FD3030A8B4244D3030B8B425F
:102AA00028D3030C8B420DD3FF22090212BA030C68
:102AB0008B4202D31212090265D0030B8B4219D349
:102AC00000E0090AC30B8B4201D3CB03C01A524169
:102AD000830B8B4201D38B03C01A5241430B8B42B1
:102AE00001D34B03C01A5241030B8B4201D30B039A
:102AF000C01A5241C30A8B4201D3CB02C01A5241C1
:102B0000830A8B4201D38B02C01A5241430A8B4283
:102B100001D34B02C01A5241030A8B4201D30B026C
:102B2000C01A5241CDD2C3098B4201D3CB01C01A86
:102B3000524183098B4201D38B01C01A5241430990
:102B40008B4201D34B01C01A524103098B4201D37E
:102B50000B01C01A5241C3088B4201D3CB00C01AEB
:102B6000524183088B4201D38B00C01A5241430863
:102B70008B4201D34B00C01A5241411A00D2014688
:102B8000524110467047FFE701B5002000F006F8FB
:102B900002BDC0460029F7D076E770477047C046AF
:102BA0001C2101231B04984201D3000C10391B0A7D
:102BB000984201D3000A08391B09984201D3000941
:102BC000043902A2105C40187047C0460403020298
:102BD0000101010100000000000000000B0010B521
:102BE0000100180000F002F810BDFFFF70B5054CA1
:102BF00005001300201E04D00A000220290000E076
:102C000000BF70BD000000000E4B70B500251E0017
:102C10000D4CE41AA410A54204D0AB00F358984719
:102C20000135F8E700F0B2F9084B00251E00084C0A
:102C3000E41AA410A54204D0AB00F358984701351C
:102C4000F8E770BD982F0000982F0000982F000023
:102C5000A02F0000002310B59A4203D0CC5CC454CE
:102C60000133F9E710BD03008218934202D01970B6
:102C70000133FAE770470023C25C0133002AFBD11D
:102C8000581E70476E0000006E0000006E000000CD
:102C90006E0000006E0000006E00000028000000C2
:102CA000290000002A0000002B0000002C0000007A
:102CB0002D0000002CF0000029F0000052F0000070
:102CC00051F0000026F0000027F000002CF000007A
:102CD00029F0000052F0000051F00000E9E400008B
:102CE000EAE4000028F0000013F0000052F00000B9
:102CF00051F00000E9E40000EAE40000420000F8BE
:102D000040A0044001000000420000F844A004403C
:102D100002000000C00000F800C0044001000000F4
:102D2000000000F80490044002000000000000F8D9
:102D30000890044004000000C00000F81CC00440DB
:102D400080000000C00000F810C004401000000027
:102D5000C00000F808C0044004000000C00000F8F3
:102D60000CC0044008000000800000F80CB00440D3
:102D700008000000800000F810B0044010000000BF
:102D8000800000F818B0044040000000800000F807
:102D90001CB0044080000000800000F814B0044023
:102DA00020000000C00000F804C004400200000041
:102DB000800000F800B0044001000000400000F86E
:102DC00000A0044001000000400000F804A00440FE
:102DD00002000000400000F80CA0044008000000C1
:102DE000400000F808A0044004000000C00000F803
:102DF00014C0044020000000C00000F818C00440C7
:102E000040000000800000F804B004400200000010
:102E1000800000F808B0044004000000020100F83F
:102E200050D0044010000000020100F854D00440CB
:102E300020000000030100F878D0044040000000AA
:102E4000000000000000000051200000752000007C
:102E5000152100000D21000005210000FD200000CB
:102E6000F520000019200000D5200000CD20000032
:102E7000C3200000B9200000AD2000009D2000000C
:102E80008D20000085200000E91F0000F51F0000D4
:102E9000012000000D2000005D2000004520000002
:102EA0002C5E7460616264346667656E362D3738F7
:102EB000271E1F202122232425267333762E777880
:102EC0005F4445464748494A4B4C4D4E4F5051523E
:102ED000535455565758595A5B5C5D2F3130636DCA
:102EE000350405060708090A0B0C0D0E0F10111208
:102EF000131415161718191A1B1C1D6F7170752ADB
:102F000015191515151519FF000100007D02002087
:102F100012000000000200008F020020C700000025
:102F200000220200560300203F00000000210200A2
:102F30002D0300200900000000220300950300205B
:102F400028000000002103004603002009000000C3
:102F500000030000BE03002000000000010309047C
:102F60003402002000000000020309044202002095
:102F70000000000003030904C20300200000000059
:102F8000000000000000000000000000F8B5C0468E
:102F9000F8BC08BC9E46704739040000290E0000AA
:042FA000F8B5C0467A
:102FA400000000000E03550054005A0042006F0058
:102FB40078000E034C0065007400730047004F0056
:102FC400F07F7F027F01F7010A1211000000000068
:102FD400FFFFFFFF482E000000000000E803000090
:102FE400000000002D21000001010A04011201105B
:102FF4000100000040C016890473020102030109A4
:1030040002C700040100C032080B000202020100E2
:103014000904000001020201000524001001052436
:1030240001010104240206052406000107058103A9
:1030340010004009040100020A0000000705020212
:103044004000000705830240000009040400020157
:1030540003000007240100012500062402010100E9
:1030640006240202020009240301030102010009EB
:1030740024030204010101000905070240000000C5
:103084000005250101010905860240000000000534
:1030940025010103090402000103010100092111B2
:1030A400010001223F00070584030800010904030D
:1030B400000103000000092111010001222800077A
:1030C40005850308000405010906A1017501950899
:1030D400050719E029E71500250181029501750806
:1030E40081039505750105081901290591029501CA
:1030F40075039103950675081500257F05071900CA
:10310400297F8100C0050C0901A101750A950419E4
:10311400002A9C021500269C028100050175089571
:1031240003190029B7150026B7008100C000040365
:1031340009040C030000000000000000000000006F
:0C3144000000000000000000010000007E
:00000001FF
