:1000000000800020BD0100003D370000F5360000F3
:10001000F5360000F5360000F5360000F536000034
:10002000F5360000F5360000F53600003D370000DB
:100030003D370000F5360000B1580000B55800000B
:100040003D3700003D3700003D3700003D370000E0
:100050003D3700003D3700003D3700003D370000D0
:100060003D3700003D3700003D3700003D370000C0
:100070003D3700003D3700003D3700003D370000B0
:100080003D3700003D3700003D3700003D370000A0
:100090003D3700003D3700003D3700003D37000090
:1000A000C9340000D53400003D3700003D37000062
:1000B0003D3700003D3700003D3700003D37000070
:1000C0003D3700003D3700003D3700003D37000060
:1000D0003D3700003D3700003D3700003D37000050
:1000E0003D3700003D3700003D3700003D37000040
:1000F0003D370000296700003D3700003D37000014
:100100003D3700003D3700003D3700003D3700001F
:100110003D3700003D3700003D3700003D3700000F
:100120003D3700003D3700003D3700003D370000FF
:100130003D3700003D3700003D3700003D370000EF
:100140003D3700003D3700003D3700003D370000DF
:100150003D3700003D3700003D3700003D370000CF
:100160003D370000513D00003D3700003D370000A5
:100170003D3700003D3700003D3700003D370000AF
:100180003D3700003D3700003D3700003D3700009F
:100190003D3700003D3700003D3700003D3700008F
:1001A0003D3700003D3700003D3700003D3700007F
:1001B0003D3700003D3700006D560000564B4CF2B5
:1001C000205210B51A804DF628121A8000BF00BFC9
:1001D00003F0B8FA514B4FF010621A60504A9A601F
:1001E000504ADA60504A136813F4807304D14F49BF
:1001F0000B604FF4A85313604D4B1A78110703D5C9
:100200001A7842F008021A704A4B4B492A221A7097
:100210004A4A4B4B8B4204D252F8040F43F8040B6A
:10022000F8E7484B484900228B4202D243F8042B9E
:10023000FAE74649464A002352F8230041F82300D2
:1002400001336F2BF8D1434B434A802103F8011B44
:100250009342FBD1414B3D4A1A60414B8A221A70AE
:10026000A3F5805324225A70A0221A709A7992071B
:10027000FCD59A79D406FCD43A4A937903F00C035E
:10028000082B384BF9D103221A7140225A719A79FE
:100290009006FCD5334A9179324B4906FBD5324A58
:1002A000324911600221516020221A709A7902F0BD
:1002B0000C020C2AFAD12E4B2E4A1A602E4B2F4AD2
:1002C0001A6000225A60072243F8042C2C4AC3F813
:1002D0000C2D62B603F00EFC144B1B68DA0705D533
:1002E000284803F08DFB284B284A1A60284B1B78BE
:1002F0005B0609D5244C254B22689A4204D121483B
:1003000003F07EFB0023236006F07EFD03F020FA5D
:1003100005F06EFBFEE700BF0E2005403080044074
:10032000823F04000100002B10D0034014D0034092
:1003300002D0074000E0074094A9FF1F7C7D000029
:10034000989BFF1F94A9FF1F6CB3FF1F0090FF1F16
:100350000000000000E400E05FE400E008ED00E0E1
:100360000050064000400640448004400000030165
:1003700004800440C010050014E000E0FF76010096
:1003800000002020EEB4FD611CE00340A5C3945A98
:1003900000F00740FFFFFFFFFFFFFFFFFFFFFFFF32
:1003A000FFFFFFFFFFFFFFFFFFFFFFFFFFFFFFFF5D
:1003B000FFFFFFFFFFFFFFFFFFFFFFFFFFFFFFFF4D
:1003C000FFFFFFFFFFFFFFFFFFFFFFFFFFFFFFFF3D
:1003D000FFFFFFFFFFFFFFFFFFFFFFFFFFFFFFFF2D
:1003E000FFFFFFFFFFFFFFFFFFFFFFFFFFFFFFFF1D
:1003F000FFFFFFFFFFFFFFFFFFFFFFFFFFFFFFFF0D
:10040000FFFFFFFFFFFFFFFFFFFFFFFFDEF9FFFF23
:1004100010B5054C237833B9044B13B10448AFF33E
:1004200000800123237010BD94A9FF1F000000006D
:10043000807D0000084B10B51BB108490848AFF398
:1004400000800848036803B910BD074B002BFBD0A0
:10045000BDE81040184700BF0000000098A9FF1F2A
:10046000807D000094A9FF1F00000000704700BFBE
:1004700001380002120600F4706002F0FE420243EE
:1004800042F41042090442F0090201F4FE00104354
:1004900004F0B8BC01380002120600F4706002F0EB
:1004A000FE42024342F40042090442F0080201F411
:1004B000FE00104304F0A6BC01380002120600F44E
:1004C000706002F0FE42024342F43042090442F0FE
:1004D0000B0201F4FE00104304F094BC013800024A
:1004E000090400F4706001F4FE01084340F4404048
:1004F00040F00C0004F086BC0138000201F30D014D
:1005000000F4706001F5005140F46043080443F0CA
:100510000E0300F4FE004904184301F0FE410843B5
:1005200004F070BC10B5044605F04AF8204610BD32
:10053000F0B5082183B04148414C424E424F434DF3
:1005400004F014FF424801F019FA4021404801F03C
:10055000B3FA052211463E4801F004FA1D213C4839
:1005600001F0ECF93B4A3C493C4B3D4810603D48AA
:100570003D4A276008603D4C1A603D4F3D483E496A
:100580003E4A3F4BB4602F60F0607161B2613362EC
:100590000224E0B20021013403F058FA082CF8D10B
:1005A0000021112003F052FA0021142003F04EFA2A
:1005B0000021152003F04AFA01210E2003F046FA2B
:1005C00001210F2003F042FA2E4D02242146284635
:1005D00001F04CF801342846052101F05DF8082CA3
:1005E00005F10805F2D1736D1868036847F612210A
:1005F000DB699847244B1B680193019BC6F80031C7
:100600004FF6FF720023032186F8583086F85A30DF
:1006100086F859307366336686F8F83086F8753098
:1006200086F8743086F8763086F87730C6F8FC3075
:10063000B266F26686F8701003B0F0BD0082FF1F4C
:10064000A4B0FF1FBCA9FF1F1107000064B0FF1F6B
:10065000B0A9FF1F9CB0FF1FA0B0FF1F60B0FF1F1D
:100660002D07000049070000650700009504000001
:100670008107000071040000B9040000DD040000DF
:10068000F90400006CABFF1FE8AEFF1F2DE9F0413D
:10069000E0290C469DF8185008D8013DEDB20F2D09
:1006A00002D849B2002912DBBDE8F081F729FBD955
:1006B0000834E4B2012303FA04F414F0DD0FF3D09C
:1006C000436D18680368BDE8F0411B6818471F4672
:1006D000436D8046186803682943C9B21B681646F3
:1006E0009847D8F854301868036806F07F011B68F3
:1006F00004F0EF049847C02CD6D0D8F854301868CE
:10070000036807F07F011B68BDE8F041184700BF90
:1007100000B583B0134600900A4603489021FFF7C6
:10072000B5FF03B05DF804FBBCA9FF1F00B583B0A3
:10073000134600900A4603488021FFF7A7FF03B045
:100740005DF804FBBCA9FF1F00B583B01346009001
:100750000A460348B021FFF799FF03B05DF804FB98
:10076000BCA9FF1F00B583B00A4600900023C0213A
:100770000248FFF78BFF03B05DF804FBBCA9FF1F25
:1007800000B583B001F500520090C2F3C613E0211A
:1007900002F07F020248FFF779FF03B05DF804FB27
:1007A000BCA9FF1F036810B504460BB1743098470D
:1007B00094F87530803B7F2B00F28580DFE813F0E2
:1007C0008A0083008300830083008300830083000A
:1007D0008300830083008300830083008300830001
:1007E00096008300830083008300830083008300DE
:1007F00083008300830083008300830083008300E1
:100800009A008300830083008300830083008300B9
:1008100083008300830083008300830083008300C0
:100820009E00830083008300830083008300830095
:1008300083008300830083008300830083008300A0
:10084000A200830083008300830083008300830071
:100850008300830083008300830083008300830080
:10086000AC00830083008300830083008300830047
:100870008300830083008300830083008300830060
:10088000B000830083008300830083008300830023
:100890008300830083008300830083008300830040
:1008A000C4008000D100E10083008300E9008300E0
:1008B000ED00F100F500F900FD0083000101840066
:1008C000A36A002B60D110BD236D002BFBD0BDE8C7
:1008D00010401847A368002BF5D094F8772094F8BF
:1008E000761094F87400BDE810401847E368002BB8
:1008F000F3D1E8E72369002BEFD1E4E76369002B2C
:10090000EBD1E0E7A369002BDDD094F8761094F8E2
:100910007400BDE810401847E369002BF5D1D2E719
:10092000226A002ACFD094F8771094F8763094F8A1
:100930007400C90101F47E5103F07F031943A1F54E
:100940000051BDE810401047636A002BBBD0B4F8DB
:100950007610802904F1780028BF8021BDE810407E
:100960001847E26A002AAED094F8773094F87600FF
:10097000DB0103F47E5300F07F001843BDE8104014
:100980001047236B002B9ED094F87600BDE81040F2
:100990001847636B002B9AD195E7A36B002B96D178
:1009A00091E7236C002B92D18DE7E36B002B8ED166
:1009B00089E7636C002B8AD185E7A36C002B86D175
:1009C00081E7E36C002B82D17DE700BFF8B5436D72
:1009D0000446186803681B69984708B90020F8BDE9
:1009E00094F80D31626D23F0010384F80D31106825
:1009F00003685B699847C3B2FD2BEFD0626E002A93
:100A000049D001067ED494F85B10F0295FD0F72915
:100A10005DD0A11881F85B30216E4B1E9A4253D3F2
:100A200094F85B30F02B00F00A82F72B00F007827D
:100A30001A0650D4002284F87520B02A5CD0A02A6F
:100A40005AD0D02A58D0E02A56D0C02A54D00020FC
:100A500084F87400032994F85C0008BF94F85D5092
:100A600084F8760018BF002500210120B02A84F800
:100A700077506166216684F8F80008D000F2D581CD
:100A8000902A04D0A02A02D0802A00D0002384F823
:100A900059300120F8BD94F8592084F85B301506D0
:100AA0004DD440B20028C0F20E8294F90D01636863
:100AB00040F0010084F80D0103B19847002084F84C
:100AC000590060662066F8BD0132626686E7A118AB
:100AD00081F87830A0E703F10C02D2B2012AA9D93B
:100AE000FD2BA7D0EF2B00F2EC8103F0F002802A5F
:100AF00084F8752040F0EF8103F00F00013084F896
:100B00007400A7E7A3F1F0010F293FF67CAF0120A5
:100B100000FA01F111F0810540F0B18111F45F4F4D
:100B20003FF471AF84F8765084F8775084F87450AD
:100B300084F87530C4F8FC0084F8F800F8BD02F1C0
:100B40000C01CDB2012DACD9FD2AAAD0EF2A00F2BA
:100B5000578102F0F006802E40F0538140B2002809
:100B6000A0DB0120C9B2814284F85B2084F85C30AC
:100B700060669AD9FD2A98D0EF2A94BF02F0F0055A
:100B80001546A5F180037F2B8FD801A151F823F0E2
:100B9000F90D0000AB0A0000AB0A0000AB0A000030
:100BA000AB0A0000AB0A0000AB0A0000AB0A000071
:100BB000AB0A0000AB0A0000AB0A0000AB0A000061
:100BC000AB0A0000AB0A0000AB0A0000AB0A000051
:100BD000F90D0000AB0A0000AB0A0000AB0A0000F0
:100BE000AB0A0000AB0A0000AB0A0000AB0A000031
:100BF000AB0A0000AB0A0000AB0A0000AB0A000021
:100C0000AB0A0000AB0A0000AB0A0000AB0A000010
:100C1000F90D0000AB0A0000AB0A0000AB0A0000AF
:100C2000AB0A0000AB0A0000AB0A0000AB0A0000F0
:100C3000AB0A0000AB0A0000AB0A0000AB0A0000E0
:100C4000AB0A0000AB0A0000AB0A0000AB0A0000D0
:100C5000F90D0000AB0A0000AB0A0000AB0A00006F
:100C6000AB0A0000AB0A0000AB0A0000AB0A0000B0
:100C7000AB0A0000AB0A0000AB0A0000AB0A0000A0
:100C8000AB0A0000AB0A0000AB0A0000AB0A000090
:100C9000F10D0000AB0A0000AB0A0000AB0A000037
:100CA000AB0A0000AB0A0000AB0A0000AB0A000070
:100CB000AB0A0000AB0A0000AB0A0000AB0A000060
:100CC000AB0A0000AB0A0000AB0A0000AB0A000050
:100CD000F10D0000AB0A0000AB0A0000AB0A0000F7
:100CE000AB0A0000AB0A0000AB0A0000AB0A000030
:100CF000AB0A0000AB0A0000AB0A0000AB0A000020
:100D0000AB0A0000AB0A0000AB0A0000AB0A00000F
:100D1000F90D0000AB0A0000AB0A0000AB0A0000AE
:100D2000AB0A0000AB0A0000AB0A0000AB0A0000EF
:100D3000AB0A0000AB0A0000AB0A0000AB0A0000DF
:100D4000AB0A0000AB0A0000AB0A0000AB0A0000CF
:100D5000AF0D0000F10D0000F90D0000F10D0000D5
:100D6000AB0A0000AB0A0000910D0000AF0D0000BF
:100D7000910D0000910D0000910D0000910D0000FB
:100D8000910D0000AB0A0000910D0000910D0000D4
:100D90000023012084F8743084F8763084F87730AA
:100DA00084F875506366236684F8F800F8BD8021E6
:100DB0000023216684F8785084F859307F21636ECF
:100DC0008B422ED302F00F020023013294F85C1004
:100DD00084F87420012084F8761084F8773084F841
:100DE000755063662366C4F8FC0084F8F800F8BD0B
:100DF000022323660121E2E7032323660221DEE7C3
:100E0000164606F0DF05902D3FF4A8AE06F0BF05AC
:100E1000A02D3FF4A3AE06F0EF06C02E3FF49EAE29
:100E20003FE6013363660020F8BDD02A3FF42FAEC1
:100E3000E02A3FF42CAEC02A7FF428AE27E6F02249
:100E400080230025012194F8F76084F8752084F848
:100E5000763084F8F720C4F8FC30204684F87750C8
:100E600084F8745084F8F810FFF79CFCF7220223F2
:100E700084F8796084F8782028466366F8BD94F891
:100E80007810F02902D0F7297FF40FAE551C2244C8
:100E900000214FEA152E82F878300126F02784F8D9
:100EA000765084F877E084F8741084F8591030464E
:100EB000C4F8FC5084F875706166216684F8F860A7
:100EC000F8BD1A46B7E503F10C02D2B2012A7FF64B
:100ED000ECAD1A4650E6902A3FF40EAEADE500BFE9
:100EE00090F87030DA0718D513F0FE0F15D070B5F2
:100EF00090F8755085F08002602A82B004460DD8C3
:100F000090F874608E4231D081B35B08012B32D0EF
:100F1000032B00F09B8002B070BD7047A5F1F00379
:100F20000F2BF8D801A252F823F000BF23100000C5
:100F300001100000CF0F0000B30F0000170F0000DA
:100F4000170F00008B0F0000170F00008B0F000021
:100F5000170F00008B0F00008B0F00008B0F00009D
:100F6000170F00008B0F00008B0F00005B08012B98
:100F700001D0022BCFD194F8773094F876200096E8
:100F800029462046FFF782FBC5E705F10803DBB2DF
:100F9000072BC0D8012202FA03F313F0DD0FBAD0F9
:100FA000636D1868036829461B6802B0BDE870408D
:100FB0001847436D90F8765018680368F3211B6852
:100FC0009847636D186805F07F010368ECE7436D8F
:100FD00090F87750186894F876200368F2211B681F
:100FE00042EAC5159847636D1868036805F07F01EC
:100FF0001B689847636D1868C5F3C6110368D3E78B
:10100000436D90F87650186894F8773002682D0197
:1010100003F00F03126805F07005F1211D4390479E
:10102000BEE7B0F87660802E28BF802600F17805F4
:10103000002E3FF470AF2E44636D15F8011B186845
:1010400003681B689847B542F6D164E794F8773097
:1010500094F8762000962946FFF718FB5BE700BF5F
:101060002DE9F04F934B5A6885B0002A40F0D380A9
:10107000986805F0F3FC904905F044FD8F4905F0B0
:1010800041FD8F4905F036FC05F08CFE01468D4888
:101090008D4C00F011FD04F1300625462846083538
:1010A00000F0FCFAB542F9D1DFF84C92DFF84C823F
:1010B000864F874EDFF830A2002527E0854B864A11
:1010C0001B680293029B12689B1A312B23D9D9F813
:1010D0000030002B63D0012B68D0022B6DD07F4BEA
:1010E000DFF8F8B11B68002B38D0012B46D0012166
:1010F0000F2002F097FC0135062D04F1080408F1D9
:10110000040807F1040706F104065BD0204600F04E
:10111000FDFA0028D2D1204600F002FB0028EAD0D8
:101120006C4B6D4A1B680393039B12689B1A182B28
:10113000E1D96A4B1B68002B00F0A180D9F8003080
:10114000002B00F08780012B00F08C80022B00F038
:10115000918000210F2002F065FCCCE7604B614AD2
:1011600013F8253012F825205F48102100919021B6
:10117000FFF78CFADBF80030012BB8D15B4A5C4BEF
:10118000AA5C5A719B46DAF854301BF8011B1868A8
:1011900003681B689847574B9B45F4D1A7E73088F5
:1011A00003F0B2FC544B1B68012B96D1388803F036
:1011B000ABFCD9F80030022B91D1B8F8000003F055
:1011C000A3FC8CE7112002F033FC01283FD0434AF6
:1011D00000231360142002F02BFC01281DD01520E1
:1011E00002F026FC01280CBF02230023C9F80030BE
:1011F0000E2002F01DFC18B901210E2002F012FC95
:10120000002003F063FE9AF85840374D102C07D9A0
:1012100005B0BDE8F08F002139E7C9F80000E7E725
:101220002846FFF7D3FB0028F2D095F87530902BB5
:101230002FD083F08003602B31D92B48FFF7B2FA0F
:1012400021462948FFF74CFE05B0BDE8F08F234B3F
:101250001860BFE7308803F0F9FC274B1B68012BAF
:101260007FF474AF388803F0F1FCD9F80030022B1A
:101270007FF46FAFB8F8000003F0E8FC69E7194AA3
:10128000194812F82520102100918021FFF7FEF95E
:1012900054E795F877304BB9802385F875309AF884
:1012A00074309C42C9D0002CC7D0C9E795F874307F
:1012B000F7E700BFC49EFF1F01088039000001430B
:1012C000EE7CFF3EB0A9FF1F6CABFF1F487900000A
:1012D00030790000E8AEFF1FB4ABFF1FFCAAFF1F70
:1012E0000079000018790000BCA9FF1FA09CFF1F17
:1012F000989CFF1F9E9CFF1F9CABFF1F6079000006
:101300002DE9F04FB74CB84D2268DFF83C83C5F8A3
:101310000080002383B06B722B612B72EB600AB9E3
:1013200057E11A465369002BFBD155610026AF4B9C
:10133000AD486E61AE80EE80AE72AD4F2B6004F0B2
:1013400071FC22687E72C7F800803E613E72FE60CA
:10135000A44B0AB93FE11A465369002BFBD15761F0
:101360004FF00009A34EA44BA148C7F81490A7F86A
:101370000490A7F8069087F80A903B6000F0AAFC5A
:10138000022006F118024B464946C6F8008086F84E
:101390000890C6F80C9070723261B64601E0DEF833
:1013A000102042F82310727A924801339A42F6DCF8
:1013B00022688C4B0AB910E11A465369002BFBD105
:1013C00056614FF0000ADFF838928C4B8948C6F816
:1013D00014A0A6F804A0A6F806A086F80AA0336018
:1013E00004F0FCFC022009F1180253465146C9F8EA
:1013F000008089F808A0C9F80CA089F80900C9F88C
:101400001020CE4601E0DEF8102042F8231099F8B3
:1014100009207B4801339A42F5DC2268714B0AB9F6
:10142000DDE01A465369002BFBD1C2F8149000246A
:10143000DFF818A2734B7248C9F81440A9F80440A9
:10144000A9F8064089F80A40C9F80030DFF80082A0
:1014500000F052FE50468AE820028AF808408AF8D6
:101460000940CAF80C408AF8104004F075F8664A42
:101470006649504605F0B6FCDFF8D8A1C8F80C4024
:101480004FF0010B404688E8200288F8104088F8A9
:1014900008B088F809B004F05FF85B4A5B495C4D1E
:1014A000404605F09FFCDFF8B081CAF80070504656
:1014B000CAF804608AF808408AF80940CAF80C4063
:1014C0008AF8104004F048F84F4A5049504605F059
:1014D00089FC4046C8F80070C8F8046088F808B075
:1014E00088F809B0C8F80C4088F8104004F034F8C7
:1014F0004046454A4549474F474E05F073FC47492A
:10150000474B69654FF6FF720A200F60AA66EA66CC
:101510002C606C60AC60EC602C616C61AC61EC6167
:101520002C626C62AC62EC622C636C63AC63EC6347
:101530002C646C64AC64EC642C6585F8584085F8C8
:10154000594085F85A402C666C661E60187295F8F2
:10155000703085F8744043EA0B036BF34703214670
:1015600005F17800802285F8754085F8764085F889
:10157000774085F8F84085F8703005F02DFF29494F
:10158000214AC5F800412846C5F80441C5F808417C
:1015900085F80C4185F80D4105F024FC224A234BC7
:1015A00012680192019A22481A6000F057F8214807
:1015B00000F054F8204800F051F8204800F04EF8B0
:1015C0001F4800F04BF81F4800F048F803B0BDE892
:1015D000F08F2560AAE61F60C2E61860F1E6186089
:1015E00025E700BFB8B0FF1F20ABFF1F187C00002D
:1015F000CCAAFF1F38ABFF1F9C790000247C0000A1
:1016000000ABFF1FA8790000749CFF1F2505000098
:10161000BCA9FF1FA89EFF1F80790000E4AAFF1F3E
:10162000B0A9FF1F6D040000E8AEFF1FB4ABFF1FA1
:101630006CABFF1F74ABFF1F7CABFF1F84ABFF1FA6
:101640008CABFF1F94ABFF1FFC780000B8ABFF1FF3
:1016500058ABFF1FA0ABFF1FE8AAFF1F00220A2103
:10166000818002608271C271704700BF10B504466C
:101670000023C8B282B0E071A37102F0D9F908B1B9
:101680000323A371034B1B680193019B236002B0EA
:1016900010BD00BFE8AEFF1F81807047F0B5044663
:1016A00085B0C07902F0C4F9A279003018BF0120DA
:1016B000C2F3400102F0F7038842A3710BD0124A33
:1016C0001268019283F00203019AA3712260C3F3AE
:1016D000C00005B0F0BD0C4D276829680291029941
:1016E000A688C91BB142F2D302F001029042EED0AB
:1016F0002A68039283F00903039AA371C3F3C0001D
:10170000226005B0F0BD00BFE8AEFF1F807900F099
:101710000900A0F10900B0FA80F04009704700BF4D
:10172000807900F00900A0F10800B0FA80F04009CB
:10173000704700BF2DE9F04F00F5807EB1E8A00AA8
:10174000B2E84015C5EA0643C6EA2544C7EA08459B
:10175000C8EA2746C9EA0A47CAEA2948CBEA0C4937
:10176000CCEA2B4AA0E8F8078645E7D1BDE8F04F60
:1017700070474FF000022DE9F00F00F5807C00BFAC
:10178000B1E8A00AC5EA0203C2EA2544C7EA020595
:10179000C2EA2746C9EA0207C2EA2948CBEA020997
:1017A000C2EA2B4AA0E8F8078445E9D1BDE8F00F6A
:1017B00070474FF000022DE9F00F00F5807C00BF6C
:1017C000B1E8A00AC2EA0543C2EA0504C2EA074535
:1017D000C2EA0706C2EA0947C2EA0908C2EA0B4997
:1017E000C2EA0B0AA0E8F8078445E9D1BDE8F00F8A
:1017F00070472DE9F00F089C00F5007B51F8045B61
:1018000053F8046BC5EA0647C6EA254952F8045B5B
:1018100054F8046BC5EA0648C6EA254AA0E88007E2
:101820008345EBD1BDE8F00F704700BF0020704743
:1018300000207047F8B51F4C027A0E465200C1F3E3
:10184000072101250746204684F83B2084F85E5096
:1018500084F85D5001F0FCFAF1B2204601F0F8FA8C
:101860002046002101F098FC08B10020F8BD2B466D
:10187000397A0222204601F019FD0128F5D994F8A1
:10188000381094F83950A94210D263184A1CD2B2C9
:10189000187E84F8382095424FEA002306D9224466
:1018A0000231107E84F838101843F8BD4FF0FF3035
:1018B000F8BD00BFE49CFF1FF8B5144C037A24293F
:1018C00008BFC2805B0001250E462046C1F30721F8
:1018D000174684F83B3084F85E5084F85D5001F080
:1018E000B7FAF1B2204601F0B3FAC7F30721204658
:1018F00001F0AEFAF9B2204601F0AAFA29462046D4
:1019000001F04AFCB0FA80F04009F8BDE49CFF1FEA
:10191000F8B51C46154606460F46FFF78BFF20EA32
:10192000040040EA0504394630462246FFF7C4FF6A
:10193000002814BF20460020F8BD00BF1F2908B5AD
:101940000DD80C2908D840F60D5241F61F732E21F0
:10195000FFF7DEFF80B208BD41EA0122F5E741F65C
:101960001F72F2E70F2928BF0F210F2A28BF0F226D
:1019700042EA01122021FFF79FBF00BF70B5012688
:1019800004460671344801F077FA052002F064F845
:10199000204644F260023021FFF78EFF0546002802
:1019A00057D06C2226212046FFF786FF4FF4F972AC
:1019B00028212046FFF780FF40F622722C21204686
:1019C000FFF77AFF44F246423C212046FFF774FFBE
:1019D00040F2371224212046FFF76EFF44F2FF0247
:1019E00030212046FFF768FF732202212046FFF7CF
:1019F00063FF4FF4C87002F02FF841F61D522E21FC
:101A00002046FFF759FF042211462046FFF754FFF6
:101A1000302206212046FFF74FFF10220A212046E0
:101A2000FFF74AFF00220E212046FFF745FF43F64D
:101A30003C4210212046FFF73FFF47F67F722221EC
:101A40002046FFF739FF362224212046FFF734FFD6
:101A50006672284670BD00BFE49CFF1F10B50446A7
:101A600019B1012911D0002010BD55222021FFF706
:101A700023FF0028F7D0E28842F00402204692B209
:101A80002421BDE81040FFF717BF40F273122A214E
:101A9000FFF712FF0028E6D0882220212046FFF71A
:101AA0000BFF0028DFD0E288204622F00402242128
:101AB000BDE81040FFF700BF38B50546F1B18029F9
:101AC00003799ABFC1F1800444EA0424002433B9A5
:101AD000224628462221BDE83840FFF7EDBEC288E5
:101AE000002322F0100203712421FFF7E5FE2246B5
:101AF00028462221BDE83840FFF7DEBE01230371EE
:101B000047F67F722221FFF7D7FEEA8842F01002E3
:101B1000284692B22421BDE83840FFF7CDBE00BF71
:101B20000B4610B507490446184604F0EBFF06497A
:101B300004F0E0FE05F036F901462046BDE810400D
:101B4000FFF7BABF00000143EE7CFF3E10B504462C
:101B500003F032FE204610BD024A0349034805F057
:101B600041B900BF749CFF1F4D1B0000CCABFF1F91
:101B700038B5074D074C08482A46214605F032F98A
:101B80002A4621460548BDE8384005F02BB900BF7C
:101B9000749CFF1F4D1B0000D4ABFF1FDCABFF1F6D
:101BA0001B4A1C4B11681C48096970B49942127990
:101BB000027009D2194A127832B3194A4FF08041A3
:101BC000116003F5807402E01C46A3F58073154A8A
:101BD000154912680D68AAB1A5B1144E3088402885
:101BE00010D841000A44403029440232023130808A
:101BF00033F9040B22F8020F9C4233F9020C21F84E
:101C0000020FF5D870BC704703F58074DFE700BFA2
:101C1000ECABFF1F208BFF1F1F800040E6ABFF1FB8
:101C200008E200E0F4ABFF1FE8ABFF1FE4ABFF1FCF
:101C3000F8B5064603F0CAFB0446E8B103F0C6FB5C
:101C4000054600283AD072B61F4B1A887F2A19D849
:101C5000002C31D01D490A6842B162B6204603F01B
:101C600009FC2846BDE8F84003F004BC18480C60A5
:101C70001A80056062B6F8BD054672B6124B1A8826
:101C80007F2AE5D9114A12491768146000220C68AE
:101C90001A800D6062B63946304603F015FC3846AE
:101CA00003F0E8FB30462146012203F00DFC2046FC
:101CB000BDE8F84003F0DEBB62B6F8BD204603F095
:101CC000D9FB2C46BFE700BFE4ABFF1FF4ABFF1FFF
:101CD000E8ABFF1FF8B5284C284E294F294D204668
:101CE000012103F005FD00F08BF9274B274A284816
:101CF0004FF480611960236800211A60998022796D
:101D00001E6102F1804240F20116DE809F6102F501
:101D100004324FF480760627DE82DE839F8302261C
:101D20008E27D9609E609E82117017702B68194EA5
:101D300043F0124343F001032B600368164D43F058
:101D40001043036003F07AFC2279144B144C187092
:101D500053119B0003F16043174602F1100003F595
:101D6000614302F01F020121377001FA02F245F8C7
:101D700020401A60F8BD00BFECABFF1F208AFF1F98
:101D800000FEFFFF80F0024014B00440A2F00240C9
:101D900000F002401B8000400090FF1FE6ABFF1FD9
:101DA000A11B0000024A0349034805F01BB800BF0D
:101DB000749CFF1F4D1B0000ECABFF1F024A034940
:101DC000034805F00FB800BF749CFF1F4D1B0000B7
:101DD000F8ABFF1F024A0349034805F003B800BFF0
:101DE000749CFF1F4D1B000000ACFF1F024A0349FB
:101DF000034804F0F7BF00BF749CFF1F4D1B000099
:101E000008ACFF1F024A0349034804F0EBBF00BFC0
:101E1000749CFF1F4D1B000010ACFF1F024A0349BA
:101E2000034804F0DFBF00BF749CFF1F4D1B000080
:101E300018ACFF1F024A0349034804F0D3BF00BF98
:101E4000749CFF1F4D1B000020ACFF1F024A03497A
:101E5000034804F0C7BF00BF749CFF1F4D1B000068
:101E600028ACFF1F2DE9F84F344B35481A68354927
:101E700012681B790B70824229D2334B1B784BBB03
:101E8000DFF8D4A0DFF8D490DFF8D480DFF8D4B046
:101E9000DAF80060D9F80070B8F80040BBF80050DC
:101EA000002E3CD0A7B33A1D311D02EB450201EBD9
:101EB0004401FFF73FFC403540347F2C1CD8A8F884
:101EC00000407F2D0BD8ABF80050BDE8F88FA0F58F
:101ED0008070D5E71D4B4FF080421A60D0E7002498
:101EE0003846ABF8004003F0C5FA194B1A68C9F838
:101EF00000201C60BDE8F88F00243046A8F80040A0
:101F000003F0B8FA134B1A68CAF800201C60D8E72F
:101F1000311D01EB4401FFF72CFC4034CDE737B114
:101F2000391D01EB4501FFF744FC4035C5E74FF48F
:101F30008072394605F050FABFE700BF34ACFF1F8E
:101F4000208DFF1F1F8000404CACFF1F08E200E007
:101F500048ACFF1F50ACFF1F44ACFF1F3CACFF1F41
:101F600030ACFF1F40ACFF1F70B50021044603F0EA
:101F7000C5FA80B172B61C4A1368002B29D01B49E0
:101F80000D6805B31A4E156000220860328062B6F3
:101F9000184603F06FFA2046012103F0AFFA88B12A
:101FA00072B6144A1368CBB113490C6874B1134D5F
:101FB0001460002208602A8062B61846BDE87040AE
:101FC00003F058BA70BD086062B6E4E7086062B614
:101FD00070BD074910600B8062B6DCE707491060EE
:101FE0000B8062B670BD00BF44ACFF1F50ACFF1F3A
:101FF00030ACFF1F3CACFF1F48ACFF1F40ACFF1FC5
:10200000284B29491A68294842F400421A600A6894
:1020100042F002020A601A6842F002021A60036883
:10202000002B3EDB224B1B68002B3ADB214A4FF092
:10203000864313601368002BFCDBF0B51E4C1F4871
:10204000DFF8A8E01E491F4B1F4A204F204E214DAC
:1020500041F2100CC4F800C0002404600120CEF846
:102060000000DFF88CE0C1F800E04FF48031196027
:10207000194B1360DFF87CE0184A3A60346028603E
:1020800000F18E40CEF80000154CB967154816498E
:1020900046F8503C4FF4C0632A61236003600B6034
:1020A000F0BD70473C8004404080044000F0024096
:1020B00080F0024000F1024004F1024060F0024072
:1020C00008F002400CF0024010F0024014F0024010
:1020D000E0F0024084F002401B1F0100001F1F1FA0
:1020E00008B004400CB0044018B0044004F00240B2
:1020F0000100000788F00240F8B5284C284F204620
:10210000012103F0F5FA274A274B002515601D60D1
:10211000FFF776FF254B264A2648DFF8B0E04FF45C
:10212000C0611960236824491A6002269E802279C2
:10213000D86002F1804202F504324FF48070C3F897
:1021400010E09E60D88240F2011ED88306268F20C0
:102150009D829D61A3F806E09E8315701070227920
:102160003A70164B164D4FF080720A600B6003F008
:1021700065FA2279134B144C187053119B0003F12C
:10218000604302F1100003F5614302F01F020121D8
:1021900001FA02F244F820501A60F8BD34ACFF1F77
:1021A0001B80004044ACFF1F3CACFF1F04B0044048
:1021B000208CFF1F00FEFFFF00F002400100009096
:1021C000651E00004CACFF1F0090FF1F22F0024074
:1021D000024A0349034804F005BE00BF749CFF1F78
:1021E0004D1B000034ACFF1F024A0349034804F0B2
:1021F000F9BD00BF749CFF1F4D1B000054ACFF1FB6
:10220000024A0349034804F0EDBD00BF749CFF1F60
:102210004D1B00005CACFF1F024A0349034804F059
:10222000E1BD00BF749CFF1F4D1B000064ACFF1F8D
:10223000024A0349034804F0D5BD00BF749CFF1F48
:102240004D1B00006CACFF1F024A0349034804F019
:10225000C9BD00BF749CFF1F4D1B000074ACFF1F65
:1022600010B4047F4160022CC26002D010BC03F0A5
:10227000BDBA836810BC1847F0B4464B464A186B89
:10228000DC6A01791170454922790A709A6A0079ED
:102290000870002A46D05968C9688A423ED8216829
:1022A000CC8B240402F1FF3065D4C0F30E00C88348
:1022B000C88B80B2C882196B0968C88B000452D4DD
:1022C000C2F30E00C883C88B002480B212F1FF3223
:1022D000C88218BF01229C62D96A2E4809680D681D
:1022E00000F12404A54236D00068C46814F0804F81
:1022F0000C680D6815BF248824780235013544F038
:1023000000440D604463196B254B0979197021490C
:1023100012B1CA6A12791A70F0BC7047521A9A62E6
:102320000122D9E7586B196805681E4C0A63CC6214
:10233000CC682D681C4E24F080440327B542CC6045
:1023400083F825701FD1037F4260022BC2601ED02C
:10235000F0BC03F04BBA016890F82400CC6840F060
:1023600000404863CFE7CC8BC2F3080004F47E44FE
:102370002043C883A7E7CC8BC0F3080004F47E4455
:102380002043C88394E72B461146F0BC1847836866
:10239000F0BC1847A89CFF1F1F8000401C80004015
:1023A0001B80004000000FFF6122000000207047EA
:1023B000704700BF064B074ADA62022100225960CB
:1023C0009A7083F8242083F8302083F832207047F5
:1023D0007CACFF1F2C7A000010B50121007801F0C1
:1023E00021FB0E4A137893B10D49CB7A002418468D
:1023F000147063B1DC0703D50A4A88691060184677
:102400009A0705D4430702D5074B0A6A1A6010BD24
:10241000064BCA69C87A1A60F4E700BFD4ACFF1F44
:10242000A89CFF1F00E100E008E100E004E100E0FB
:102430001E4B1A781AB10078002101F0F3BA70B47B
:102440001B4A1C49D47A096801251D70ECB172B68B
:10245000D37ADE071C4606D5174DD4682E68344063
:1024600094612C601C469D0706D5144D13692E6897
:10247000D47A3340D3612B60630705D5104C536980
:1024800025682B401362236062B61368DA688A42BB
:1024900007D00C4C1C600C4AD96041F080441C6190
:1024A0001A600078002170BC01F0BCBAD4ACFF1FE8
:1024B000A89CFF1FD0ACFF1F80E100E084E100E09A
:1024C00088E100E001403F0000003F80F0B4124886
:1024D000124A036882B016460093009F4FF00045F1
:1024E000FF24136843F480631360D5625463D36A96
:1024F000002BFCDAB36BDBB2FF2B09D0036801932E
:10250000019BDB1B8B42ECD3002002B0F0BC704778
:10251000012002B0F0BC7047E8AEFF1F00C00240CF
:10252000F8B50D464FF4967116460446FFF7CEFFF8
:10253000284B1A684FF0004042F4806245F0400199
:102540001A60D8621A465963D36A002BFCDA214913
:1025500018204FF000470A6826FA00F342F4806220
:10256000DBB20A60CF624B63CB6A002BFCDA08381F
:1025700010F1080FEFD155B3082D0CBF8721FF21B3
:10258000144B1A684FF0004042F480621A60D8621F
:102590001A465963D36A002BFCDA0E4A0027164606
:1025A0004FF00045FF21136843F480631360D56248
:1025B0005163D36A002BFCDAB36BD8B21B06607090
:1025C00000D4F8BD0137B7F5807FECD1F8BD952177
:1025D000D6E700BF00C00240F0B41549154A0B68A9
:1025E00082B016460093009F4FF00045FF24136809
:1025F00043F480631360D5625463D36A002BFCDA22
:10260000B36BDBB2FF2B43700AD10B680193019BC4
:10261000DB1BB3F5967FEAD9002002B0F0BC70470F
:10262000A3F1FE00B0FA80F0400902B0F0BC7047A0
:10263000E8AEFF1F00C00240F8B58378032B0E46BA
:10264000044618BF4E021546FFF7F2FE324611212E
:102650002046FFF765FF18B92046FFF7BDFF20B9F8
:102660002046FFF7B9FE0020F8BD204B2049214A43
:102670001A608E4659631A4659631E46596305F51A
:10268000FD70A91C05F5FE77D36A13F0F00FFBD09F
:10269000C6F834E0B36B01F8013C1B1201F8023CB0
:1026A00002318F42F0D105F50075A8420DD20F4AD4
:1026B0001646D36A13F0F00FFBD0B36B191200F873
:1026C000021BA84200F8013CF3D3084B0949084A11
:1026D000196019465A63CB6A044A13F0F00FFAD016
:1026E0002046936BFFF778FE0120F8BD00C0024042
:1026F000FFFF009000041F80F0B4314E33684FF0AC
:10270000004743F4806333603D46F76234467163AB
:102710003346511C02F20127E26A002AFCDA1A68E9
:1027200011F8016C42F480621A60DD625E63E26A55
:10273000002AFCDA1A6811F8026B42F480628F42B8
:102740001A60DD625E63E7D11D49CA6A1C4B002A2C
:10275000FBDA1A684FF0004542F48062FF241A60E9
:102760001946DD625C63CB6A154A002BFBDA1368FD
:102770004FF0004543F48063FF2413601146D56297
:102780005463CB6A0E4A002BFBDA13684FF0004506
:1027900043F48063FF2413601146D5625463CB6A0F
:1027A000074A002BFBDA936BDBB203F01F02437086
:1027B000A2F10500B0FA80F04009F0BC704700BFFC
:1027C00000C0024070B5044671B18378032B0D46FA
:1027D00018BF4D021646FFF72BFE2A461821204649
:1027E000FFF79EFE054620B12046FFF7F5FD0020CD
:1027F00070BD3246FE212046FFF77EFF0028F3D051
:102800004FF416712046FFF761FE0028ECD02A46EF
:102810000D212046FFF784FE0028E5D10B4B1A68F6
:102820004FF0004542F48062FF201A601946DD62D5
:102830005863CB6A054A002BFBDA936B13F0FF0F4A
:10284000D2D12046FFF7C8FD012070BD00C0024074
:10285000014B024A1A607047D0ACFF1F01100138CB
:1028600038B590F90530002B03DBBDE8384000F0A7
:102870006DB904460121006900F092F9F8B1257D97
:10288000104B13EB45151AD0A3790F4A012B9CBFAF
:10289000A369EB61E36912686B831B0CAB8232B1F5
:1028A00005F1160105F1180090472B8B6B826379B7
:1028B00003F07F036371BDE8384000F047B90020A2
:1028C00038BD00BFE4ACFF1FD8ACFF1F10B500F14E
:1028D000080204460121006A00F000FA50B1E369E1
:1028E0003BB96379A268E26163F07F036371012001
:1028F00010BD012010BD00BFF8B5837913B1826906
:102900008A4201D20020F8BD022B0F4605461AD09C
:1029100007B32B6AE9681C7C4A1E04F109037C1E7C
:10292000DA40DC40A24211D9EB69AB6005F1080640
:1029300006E0A968286A00F099F9013C0028E1D076
:102940003246002CF5D1EF600120F8BD0029EBD014
:10295000A41AEBE7AF60EF600120F8BD2DE9F04F5E
:102960008B46817985B001290746019205D0012364
:102970003B71002005B0BDE8F08F42799107F6D594
:10298000530708D5FC68B9698C4200F0A880FFF7AE
:10299000B3FF0028EBD0019BFC68002B49D0DFF887
:1029A0008C91DFF88CA1DDF80480386A0679013E4D
:1029B00006EA542616F0FF06C4F3080442D1002CA0
:1029C00040D1B96800296FD1FA69002A7ED0BA6077
:1029D000C4F50075ADB245453AD9057C4169023A66
:1029E000AA400E4416441FFA88F51CB9F868BA6963
:1029F00090424CD23046012100F0D2F80028B6D0E7
:102A00004C4404EB050E74450DD00BF1FF31621EF2
:102A10000EF1FF3611F8010F02F8010F9642F9D1BD
:102A2000C4EB0E04A344FC68B8EB05082C44FC601E
:102A3000BBD1BB69A34257D27A79BC6142F0800214
:102A40007A715AE0C4F50075ADB24545BA68C4D88C
:102A5000017C4069023A8A400644B5F5007F16447D
:102A6000C3D1DAF80020964204BF4FF0FF32CAF813
:102A700000202A4A314610685A46FFF7A3FE002874
:102A80003FF475AF0BF5007B4FF40075CBE700F01A
:102A90005DF800283FF46BAF2149CAF800600A785E
:102AA00042F001020A70ABE703AA00F0DFF8002849
:102AB0003FF460AF386A1B4B90F82050039A4FF6F2
:102AC000F871102D18BF19468A4280D33846FFF797
:102AD000FDFE00283FF44BAF386ABA6878E7019BE7
:102AE000002B7FF45CAF08E00F4B7A791B6823B1B1
:102AF000019B13B142F080027A71120709D5BB79AC
:102B0000002B3FF434AF3846FFF7AAFE00283FF40D
:102B10002EAF019805B0BDE8F08F00BFE0ACFF1FFD
:102B2000E4AEFF1FF8FFFF0FD8ACFF1FE4ACFF1FA0
:102B3000E09CFF1F00B583B002AB012203F8011D2A
:102B40001946FFF70BFF03B05DF804FB70B50F4C9F
:102B500023780BB9012070BD0D4B0E4D1968286804
:102B60000D4AFFF72FFE70B10C4E316819B90023E2
:102B70002370012070BD2868074AFFF723FE10B1BB
:102B800000233360F3E7002070BD00BFE4AEFF1FF9
:102B9000E09CFF1FE0ACFF1FE4ACFF1FDCACFF1F9D
:102BA00070B50D4D2B6883420E460ED00446FFF7DC
:102BB000CDFF08B9002070BD084B094A18682146AE
:102BC000FFF73AFD0028F5D02C60064B1978314309
:102BD0001970012070BD00BFE09CFF1FE0ACFF1F1B
:102BE000E4ACFF1FE4AEFF1FF8B590F82030C469D5
:102BF000102B1A4B05460E4617461B6816D004EBE1
:102C0000D1149C4216D106F07F06154A42F8267070
:102C10001449287E0A78012842F001020A7018D966
:102C2000A968114A0B4413600120F8BD04EB11247C
:102C30009C4208D000212046FFF7B2FF50B195F822
:102C40002030102B07D1F6B2054A234622F8167021
:102C5000DEE70120F8BD2346D5E700BFE09CFF1F5B
:102C6000E4ACFF1FE4AEFF1FDCACFF1FC368013301
:102C70008B4218D370B590F82030102B154B0446BA
:102C800016460D46C0691B680FD000EBD110984264
:102C90000FD105F07F01104B53F8213023F0704322
:102CA0003360012070BD0020704700EB1120984276
:102CB00007D00021FFF774FF50B194F82030102B9B
:102CC000E7D1E9B2044B33F811303360012070BD15
:102CD000002070BDE09CFF1FE4ACFF1F2DE9F04F0A
:102CE000176883B06FB301374FF0000AC36803F170
:102CF000010813B38B46064691463C46002505E085
:102D00001C461F46F3680135AB4216D9A04538BFB3
:102D10000224214601AA304638BF2746FFF7A6FF06
:102D2000631CD91B48B1019A002AE9D18B4510D008
:102D30001C46F3680135AB42E8D8002003B0BDE87B
:102D4000F08FA1F1010ABAFA8AFA07684FEA5A1A13
:102D5000CCE7012CF1D9F36801339C42EDD86FF038
:102D6000704221463046FFF73FFF0028E5D0A742DA
:102D700014D2013C012CE0D9F36801339C42DCD829
:102D8000621C21463046FFF72FFF0028D5D0A7420E
:102D900004F1FF3402D0012CEED1CEE7D9F80010B7
:102DA00059B10129C9D9F36801339942C5D83A46C6
:102DB0003046FFF719FF0028BFD0C9F80070BAF1FC
:102DC000000F01D0013737600120B7E790F83920B4
:102DD00090F83800101A704790F8383090F8392081
:102DE0009A4205D95A1C034480F83820187E70474F
:102DF0004FF0FF30704700BF90F8383090F839201E
:102E00009A4286BF1B18187E4FF0FF30704700BFF4
:102E1000704700BF38B50546B0F85E0090B195F830
:102E20005D301446C3F1210294420CD805F13B00F9
:102E30001844224600F054FB95F85D30234485F891
:102E40005D30204638BD012014462871EEE700BFF2
:102E5000B0F85E306BB190F85D30202B07D8C21807
:102E6000013380F85D30012082F83B107047012368
:102E700003710020704700BF0023426980F838309A
:102E800080F8393080F85C3080F85D3080F85E3052
:102E900080F85F3006CA30B40D68046943662A437F
:102EA00083660A60A370426990F86130164914681D
:102EB00013441D7A5B7B01EBC5051B026D6803F4AF
:102EC000E06343F064032B6090F8623013449D7C10
:102ED000DB7D01EBC5011B02496803F4E06343F0AD
:102EE00064030B6021685368194205D003692722E7
:102EF0005A70036904229A71036920225A71036986
:102F000080229A7030BC7047A07A000010B5026928
:102F1000D378DBB2D90604463DD510215806D170CE
:102F200038D503F0040303F0FF02002B51D03D49D4
:102F3000626E00230B7084F85D30002A5BD09047EE
:102F400094F85D30002B56D02369D0229A70236903
:102F500094F83B201A712369012284F85C20022234
:102F6000DA7010BD304B84F860009C424AD02F4B81
:102F70009C4252D094F8391013791F29DBB207D83C
:102F80002848007820B16018013184F839100376A0
:102F90000223D37010BD5906C3D4917801F01001FB
:102FA00001F0FF000029DDD013F001031ED194F8D9
:102FB0005C1094F85D00884281BF4B1C091984F8AD
:102FC0005C3091F83B3013712369D0229A702269EA
:102FD000DEE7236984F83920C0229A702369114AF8
:102FE0001979012111700222DA7010BDC02393708B
:102FF00022691379CCE70122002384F85D2084F84C
:103000003B30A1E7626994F8613009491344032217
:10301000187A00F035FC2269ACE7626994F86130F7
:103020000449F3E7E5AEFF1FE49CFF1F509DFF1F1F
:1030300095300000A13000000369DB7803F0200325
:1030400073B190F860300133DBB2012B80F860304F
:103050001AD9426990F861301344187A00F08CBC98
:1030600070B5426903F0FF0590F8613013440446DF
:10307000187A00F081FCA36E5BB184F8385094F8A4
:103080003900BDE87040184790F85F30002BE0D061
:10309000704770BD0148FFF7CFBF00BFE49CFF1F22
:1030A0000148FFF7C9BF00BF509DFF1F2DE9F04742
:1030B000374FDFF8E0903B68026982B00646009324
:1030C000DDF800800021A025D3789B065BD53B6806
:1030D0000193019BC8EB03030F2BF5D949B1102BCA
:1030E000F2D000209070336980229A7002B0BDE85F
:1030F000F087726996F8613013440521187A00F060
:10310000A5FC726996F861301344012193F812A06E
:10311000504600F09BFC09240021504600F082FC40
:103120002B46013BFDD10121504600F07BFC2B4694
:10313000013BFDD1013CEFD1706996F8611001446B
:103140004FF4A0720C7A4B7B09EBC4011B02496857
:1031500003F4E06343F064030B6096F862300344C9
:10316000997CDB7D09EBC1011B02496803F4E06334
:1031700043F064030B60013AFDD13269D3789B06BA
:103180004FF00101A3D4012002B0BDE8F08700BFD9
:10319000E8AEFF1FA07A0000F0B503691222DA70D2
:1031A0000269937803F0200385B004460D46002B96
:1031B0005ED0B42393703C4922690B680093009E53
:1031C00005E00B680193019B9B1B042B42D8D3782D
:1031D00003F0200303F0FF00002BF2D094F85D30E1
:1031E000002B31D04FF0000E4FF0020C04EB0E0319
:1031F00093F83B3013710B680393039F206907E03A
:103200009B060DD50B680293029BDB1B052B28D870
:10321000C378DBB203F0020202F0FF06002AEFD00F
:1032200080F803C02669F378DBB2DF0632462DD47E
:103230009F062BD5DB0731D40EF1010E94F85D30DB
:103240005FFA8EFE7345D1D800201DBB002384F8A1
:103250005E3004E09070236980229A70042005B0EB
:10326000F0BD86702369802204209A7005B0F0BDFD
:1032700003F0FF06FFF71AFF10B9042005B0F0BDF8
:10328000236984F85F60B0229A7094E78023B3705A
:103290000420DAE726698023B370D7E7BEF1000F78
:1032A0000CBF02200320F6E7E8AEFF1F2DE9F04136
:1032B00006690025122780F8385080F83950F770D9
:1032C000D0F810C09CF802E00EF0200E88B0044642
:1032D000884615461E46BEF1000F49D0B4238CF82F
:1032E0000230784B21691A680092DDF800E006E0B0
:1032F0001A6801920198CEEB0000042830D8C878F3
:1033000000F0200000F0FF070028F1D04FEA48024B
:1033100042F00102D2B20A711A680292DDF808E0A6
:10332000206906E01A6803920399CEEB0101052992
:103330002AD8C17801F0020101F0FF070029F1D07D
:103340004FF0020C80F803C02269D17811F0110708
:1033500022D12DBB002E0CBFA0238023937003E04D
:103360008F70236980229A70384608B0BDE8F081DA
:103370000EF0FF07FFF79AFE0028F5D0236984F8C6
:103380005F70B0229A70ACE787702369802238465C
:103390009A7008B0BDE8F081802393700027E3E7BE
:1033A000012D75D0A021917021690A79BE4667462A
:1033B0004FF0A80C1A680492049805E01A68059268
:1033C000059A121A052A4AD8CA7802F0020202F0B7
:1033D000FF08002AF2D0CF702169CA78D2B212F069
:1033E000100F08465AD1920658D5013DEDB2012D75
:1033F00049D0BEF11F0F3BD90A79012DDAD11A68E5
:103400000692069D05E01A680792079A521B052A44
:1034100046D8C27802F0020202F0FF01002AF2D080
:103420000223C3702269D378DBB2D9063AD49B0653
:1034300034D5B023BEF11F0F93703FD8226904EB3F
:103440000E0312791A760EF1010E5FFA8EFE16B196
:10345000236980229A7084F839E0774684E781F8FE
:103460000280236980229A70774684F839E07BE7EE
:1034700004EB0E0291F8048082F818800EF1010E20
:103480005FFA8EFEB9E781F802C021690846B0E70D
:10349000A82191702069BE460279B0E7774663E7BC
:1034A0008170DEE71021A023D170013BFDD122699C
:1034B000937803F0F7037746937055E723691B79F8
:1034C000C5E700BFE8AEFF1F0148FFF71FBD00BF03
:1034D000E49CFF1F0148FFF719BD00BF509DFF1F6F
:1034E000844641EA000313F003036DD1403A41D30F
:1034F00051F8043B40F8043B51F8043B40F8043BCE
:1035000051F8043B40F8043B51F8043B40F8043BBD
:1035100051F8043B40F8043B51F8043B40F8043BAD
:1035200051F8043B40F8043B51F8043B40F8043B9D
:1035300051F8043B40F8043B51F8043B40F8043B8D
:1035400051F8043B40F8043B51F8043B40F8043B7D
:1035500051F8043B40F8043B51F8043B40F8043B6D
:1035600051F8043B40F8043B51F8043B40F8043B5D
:10357000403ABDD2303211D351F8043B40F8043BFD
:1035800051F8043B40F8043B51F8043B40F8043B3D
:1035900051F8043B40F8043B103AEDD20C3205D30D
:1035A00051F8043B40F8043B043AF9D2043208D005
:1035B000D2071CBF11F8013B00F8013B01D30B8877
:1035C00003806046704700BF082A13D38B078DD055
:1035D00010F003038AD0C3F10403D21ADB071CBF27
:1035E00011F8013B00F8013B80D331F8023B20F891
:1035F000023B7BE7043AD9D3013A11F8013B00F8CA
:10360000013BF9D20B7803704B7843708B78837051
:103610006046704730B42948294A2A4B2A4D602415
:10362000E121047011701B78284C082B30D00A2B34
:103630002748284937D00C2B0CBF35223D221223B6
:103640002A60236002600B60234B24491B78244AC4
:10365000BBB101230B601360224B23491B78234A23
:10366000012B26D9042B0FD9082B1ED9102B94BF60
:10367000862387230B6013601D4B01221A7030BC18
:1036800070470B601360E7E784230B601360F3E778
:1036900000F58E200F490830012213232A60236091
:1036A00002600B60D0E73922F7E785230B601360D7
:1036B000E2E780230B601360DEE700BF00400740B5
:1036C00001400740BC9DFF1F08B003400CB0034001
:1036D00008B00B400CB00B40E7AEFF1F20B003401A
:1036E00020B00B40BD9DFF1F24B0034024B00B4011
:1036F000E6AEFF1F08B5104C08E0236859050DD44D
:1037000023681A050FD42368DB0411D423685803F7
:10371000F3D500F01DFB23685905F1D503F004F83B
:1037200023681A05EFD500F009F82368DB04EDD50E
:1037300000F004F8EAE700BF3480044008B5FFF762
:10374000D9FF00BF014B10221A80704700200540AE
:10375000704700BF094908B50B6830B16A46184484
:10376000A2F58052904202D20860184608BD03F0CC
:1037700045FB0C2303604FF0FF3008BDC09DFF1FC9
:10378000FEE700BFEFF3138070B9EFF310836BB95E
:10379000EFF305825AB94FF48070EFF311832BB128
:1037A000984228BF184670474FF0FF3070470F2AE5
:1037B00001D81846F1E7014BD05CEEE7F0E300E0FA
:1037C000704700BF10B40F4B53F8302092F880427E
:1037D0002CB1012369B182F8803010BC704703EB33
:1037E000C0035B681A6841B922F002021A6010BC7B
:1037F000704782F8003110BC704742F003021A6033
:1038000010BC7047A07A00001C4A02EBC0030129DB
:103810005B6811D004291BD052F83000002280F8D8
:10382000802229B1022920D0032922D01A607047B2
:103830004FF480721A60704752F830004FF4A27251
:1038400080F880121A601A6822F020021A6070470D
:1038500052F830104FF4A272012081F880021A60F1
:103860001A6842F020021A60704740F203121A6090
:1038700070474FF481721A60704700BFA07A000051
:10388000212848D8F8B5042A44D8DFE802F0484B8C
:103890004E0345004FF410262B4B03EBC0030D469F
:1038A0005C68216811F4E06148D0284B284A294916
:1038B000C3F89C2104F140422748C3F8A411A2F5A3
:1038C0009221264FC3F8A0017C292548C3F8A8718E
:1038D000C3F8AC012CD9A2F594237C2B2AD9A2F5EC
:1038E00096237C2B28D9A2F598237C2B29D9A2F5E5
:1038F0009A227C2A27D81B4872B6236823F47023A7
:1039000043F08072C4F384011643236040F82150D1
:10391000266062B6F8BD70474FF43026BCE74FF41E
:103920000026B9E74FF44026B6E74FF42026B3E768
:103930000D48E1E70D48DFE70D48DDE7FFF764FFDD
:10394000B3E70C48D8E7F8BDA07A00000090FF1F4D
:10395000499CFF1FF19BFF1F1D9CFF1FC59BFF1F65
:10396000999BFF1F9C9EFF1FC49DFF1FFC9DFF1F77
:103970004C9EFF1F7C9EFF1F1A4B03EBC00010B430
:10398000426802F14043A3F592217C2923D9A3F593
:1039900094217C290DD9A3F596217C291FD9A3F563
:1039A00098217C2919D9A3F59A237C2B11D80E4C88
:1039B00000E00E4C72B613680D4823F08773C2F313
:1039C000840123F4803343F08073136044F82100B2
:1039D00062B610BC7047074CECE7074CEAE7074CAF
:1039E000E8E700BFA07A00009C9EFF1FFC9DFF1F20
:1039F000C1370000C49DFF1F7C9EFF1F4C9EFF1F10
:103A000030B4054B054D064C002210211A602A6087
:103A10002060196030BC704714D0034004D00340CC
:103A200000D00340212801D8FFF7CCBE704700BF6B
:103A3000212806D8044B53F8303093F80002C0B266
:103A400070470020704700BFA07A0000212801D8ED
:103A5000FFF7DABE704700BF2DE9F843054672B69E
:103A6000204F214B214A1B683C68126862B6520104
:103A700002D5322B88BF013495B3C3F5BB331C4E3E
:103A8000DFF86490DFF86480FF334FF47A72A6FBAE
:103A9000031302FB04F404EB931472B6D9F800107C
:103AA0003A68D8F800E062B6C1F5BB33FF33A6FB35
:103AB00003031EF0806FC4EB93134FF47A7002D0AF
:103AC000322988BF013200FB0233B3F57A7F04D379
:103AD000013D05D004F57A74DFE702F05BFADCE71C
:103AE000BDE8F883E8AEFF1F18E000E004ED00E059
:103AF000ABAAAAAAF8B52D4B2D49DFF8D0E0DFF824
:103B0000D0C02C4E2C4D2D4C2D4A2E4F4FF4000082
:103B100018604FF0807018604FF0007018604FF020
:103B2000806018604FF00060186000200860282353
:103B30004BF6FF71CCF80010CEF800303360136004
:103B40002B6023603B60B3629362092245F8242C0A
:103B5000C4F8D80F05F57F65C7F8D41F07F5FF2710
:103B600007F5FA67C6F8F83F2B6006F5FF26C4F89C
:103B7000D42F05F5FD2504F5FF24386006F2F47610
:103B80001148316005F5FF6504F5FD642B60236085
:103B90000260FFF73FFD1920FFF75EFF00F0A0FE77
:103BA00040F21310BDE8F840FFF756BF08E100E00F
:103BB0000480034014800340248003402C80034091
:103BC0001C8003403480034000800B400C80034085
:103BD00008800340431E092B14D872B60A4951F8D5
:103BE000230068B170B4094C058834F81320466886
:103BF00041F82360521B24F8132062B670BC704752
:103C000062B67047002070475CAFFF1F10B2FF1F05
:103C1000013809280BD872B6074B53F8203043B14E
:103C200000205B680130002BFBD162B6704700209A
:103C300070471846F9E700BFC8AFFF1FF0B58646CA
:103C400072B6022201231C491C4F02E029460133AF
:103C50000132092B01F10105F9D0097817489C00C0
:103C6000090744F0010605D557F8341069B157F833
:103C70003610C1B10B2AE9D162B6114B00221A707D
:103C80007046BDE8F04001F073B80D490D4D0A785B
:103C900040F8345000EB43130EF10800013A58602D
:103CA0000A7062B6F0BD0649074B40F836300A7814
:103CB00000EBC603F0E700BF887C00000080FF1F18
:103CC00021B0FF1F88004000C8004000431E092BA0
:103CD0001DD81B4A400140F0100030B4104472B6A9
:103CE000184CE25C032A1BD8DFE802F00212151719
:103CF00003220D88E25410F0080F14BFC823882354
:103D000043EA054308310360416062B630BC704746
:103D100008300222EDE70522EBE708300422E8E74D
:103D2000094A52F8230038B1084A52F8230041608A
:103D300042F8231062B6E9E742F82310034AF7E796
:103D40000080FF1F30B0FF1FC8AFFF1FF0AFFF1F85
:103D50002DE9F04FDFF868A3DFF868B389B049E0D8
:103D6000DFF830834FEA930908EBC907013C7A6812
:103D7000E4B2072CA2F1080000F0A681082C00F0A4
:103D8000C281092C00F0ED811B0700F1BE8158F8BB
:103D900039301B0C99B222F8081C002B00F0AA81C4
:103DA000B44D55F82460002322F8063C42F8043C48
:103DB000002E00F03182B04E56F824305860AF4DDE
:103DC00046F8240035F81430194425F8141000F092
:103DD000AFFF002800F01982A94AAA4B17F0080F7C
:103DE00000F1080018BF1346786048F839300823FE
:103DF0008AF800309AF80040E4B261071DD5A24B62
:103E00001B78BBB1A1490A7802F0FF032AB1013B3C
:103E1000DBB20B70002B00F023859D490A7802F07D
:103E2000FF032AB1013BDBB20B70002B00F0CA810B
:103E300001F036F804238AF8003004F0080303F098
:103E4000FF02002B00F0A7819BF80030DBB21C09B9
:103E500086D19D088F4C54F8353004EBC502C3F36E
:103E60008303013B51680C2B00F2D280DFE813F092
:103E7000D400D400D000D000D000D000D000D000BA
:103E80009800D000D000D0000D00834A0B68834F0B
:103E9000009210464A68DFF8149279497A609AB223
:103EA00044F835103B6001210023B2F5106F036028
:103EB0002361A361079389F8001000F0498300F2A1
:103EC000848140F20230824200F0938300F2A881A4
:103ED000B2F5817F00F0198300F26884802A00F037
:103EE000C982822A40F08A81BA8802F07F020A2AB7
:103EF00000F284816A496B48FE8803709200114485
:103F000043700B78674A9D0748BF01234FF00201B9
:103F100048BF037007918E4280F09C81402E30464E
:103F200099F80070079628BF4020131887F0010CFD
:103F3000311A4FEA004801935B4B89F800C01D78A5
:103F4000002F45F0020E0CBF8826C82646EA080658
:103F500004EBCE0844F83E6085F00106C8F8042062
:103F60001E70524A002900F0A782402940F2A78221
:103F70004848019C46F0020600EBC6004460BCF1D4
:103F8000000F00F0B6823E481D70424B177043F898
:103F9000360040394034464B009A1980146030E1B5
:103FA0003D4B00931A684AB3414FDFF800913988BE
:103FB0003D4B99F800001D7840290E4628BF402649
:103FC000891B002845F0020E80F0010089B289F8B3
:103FD000000039800CBF8820C82004EBCE0785F094
:103FE000010540EA06407A6044F83E0032441D7004
:103FF00011B9402E18BF0022009B1A60274B1A8867
:10400000B2F5A06F04D100219A785970294B1A702B
:10401000294A01231370EAE6204F3A8842F221032D
:104020009A4200F075813A68244B1C489A4200F08D
:104030004D811A4801F08EFFC0B11B4BDFF86C9028
:104040001A7899F8001082F00100002942F002026B
:1040500018700CBF8823C82344F8323004EBC20226
:1040600081F00101002389F800105360044B44F8EB
:104070003530CDE75CAFFF1FF0AEFF1F10B2FF1F62
:10408000C8004000880040002CB0FF1F85AFFF1F14
:10409000A8B0FF1F0080FF1FECAEFF1F18B0FF1F6E
:1040A000C020074024B0FF1F20B0FF1F84AFFF1FB8
:1040B00018AFFF1F982007409420074021090002F5
:1040C000802007409020074019077FF560AE01F07F
:1040D00093FE00283FF48BAE87F008070004A54B41
:1040E000A54A7B6040F080003860D37983F00103FB
:1040F000D3717CE6A14AA24B17F0080F18BF1346F4
:1041000048F8393073E61A073AD500F031FE9D4A77
:10411000994D52F82430002B00F0C9805968285D71
:1041200042F8241003F108027A60032805D8DFE87A
:1041300000F015120F0204222A551A8817F0080FF2
:104140000CBF8823C82343EA024348F839304EE6BF
:1041500005222A55F1E702222A55EEE703222A55C5
:10416000EBE71D077FF513AE87F00807864B824A01
:10417000864979603B60537A83F00103537236E6D7
:1041800058F83900000C01F077FD814A814B7A60C4
:1041900048F839302BE6E00700F11A81210600F1DA
:1041A0003E81A20706D57C4A7C4913780220DBB207
:1041B00013700870E30602D5784B10221A7009B00C
:1041C000BDE8F08F01F0AEF832E642F221208242E3
:1041D00000F021824CD840F681239A4200F05181B0
:1041E00040F2A98140F601339A4240F00683BB8831
:1041F000062B00F00F83072B00F0D482684A0F23B0
:104200001370684A0123137002E7674A48F83900BF
:10421000137801331370EAE545F82400634ECEE5C8
:10422000B2F5A06F00F0918140F2CB82B2F5D06F71
:10423000E4D340F281639A4240F20181B2F5086F03
:10424000DCD15B4BFE885B4A1B7807918E42137072
:10425000FFF464AE4029084699F8007028BF40205A
:10426000131887F0010C091A4FEA0048019363E61E
:1042700048F2A2118A4200F0128140F2858248F28F
:10428000A1339A4207D048F2A1439A4203D048F2A0
:10429000A1239A42B2D1484D4649284607AA01F0C7
:1042A00025FE0028AAD0EE880799424A33E62B5D06
:1042B000032B00F2238101A252F823F0EF3D00000E
:1042C000EF3D0000394400003344000042683B4B9E
:1042D0009A427FF4AEAE3A4BDFF8F0901A7899F834
:1042E000000082F00106002842F002021E7080F0F9
:1042F00001000CBF8823C82304EBC20689F8000024
:10430000087844F832302F4B00227260187090E623
:10431000BB88A3B92C4B08784A7818705A708878F3
:10432000CA789870DA7008791A68187148795871E3
:10433000862A8879987101F1070100F0F880204BF6
:10434000DFF888901A7899F8000082F001060028BA
:1043500042F002021E700CBF8823C82344F832309A
:1043600004EBC20280F00100002389F800005360D2
:1043700059E600BF7492FF1F30B0FF1FC800400015
:1043800088004000C8AFFF1F80000300BC91FF1FE2
:10439000C091FF1F8000B4008820074080200740A4
:1043A000C02007409420074021B0FF1FF0AEFF1F40
:1043B0002CB0FF1F24B0FF1F18B0FF1F0200010028
:1043C00020B0FF1F44B0FF1F5CB3FF1F84AFFF1F6F
:1043D000AF4BB048B0491A614FF0020E80F800E0D0
:1043E000AE4F0A70AE4919609960AE4EAE4DAF4CFB
:1043F0009A610D213970FF213170DFF800E32970D7
:104400002270AB4DAB4A8EF800109F27012406F8AE
:10441000047C5D600470DA6009B0BDE8F08F9F49EC
:10442000A14B80220D2008701A70A2077FF5C2AE42
:10443000B9E601232B55DAE400232B55D7E49E4B34
:104440005A68002A3FF4DAAE7888BD8804E00C335D
:104450005A68002A3FF4D2AE19888142F7D15988B0
:10446000A942F4D1000A032800F0F58119890791C7
:10447000FE8850E5914AFE8813700221537007911F
:1044800049E5BB880791062B00F0BD81072B7FF41F
:10449000B5AE8B4B894A1B78FE8813703BE5FE88CE
:1044A000022E7FF6ABAE854A442193701170AC2387
:1044B0000321537007912EE540287FF4A2AE46F009
:1044C000020604EBC60401986060714A0804BCF15E
:1044D000000F10D140F088001D70019B89F800701A
:1044E0000B4440291C4642F836007FF48AAE002176
:1044F00051E56B4848E540F0C800EDE717F0080FBC
:104500000CBF022303232B5571E4BB8803F07F0308
:104510000A2B3FF673AE7A88002A7FF46FAE5F4AAB
:104520009B001A44137823F0020313707EE0654B5E
:104530000F221A7003E740F621139A423FF461AE4E
:1045400040F621239A427FF459AE00210A4681E6C3
:104550004F4D5D4ABB78137005F5A07602E0083533
:10456000AE4209D02B6A1A06F9D5686A08350838B0
:1045700000F0FEFBAE42F5D15449554A0191554831
:104580005549564D564ECDF810900023059703958A
:1045900080468946029617461D46386828B1466807
:1045A00000F0E6FB3046002EF9D1019B186800238D
:1045B0003B60029B1A46002342F8253028B146682A
:1045C00000F0D6FB3046002EF9D1019A98F8003061
:1045D000114600220A6049F8042B039A4FF00001AB
:1045E000023B22F81510032B35D8DFE803F0C13069
:1045F000C130BB8803F07F030A2B3FF6FFAD7A88FA
:10460000002A7FF4FBAD254A9B001A44137843F03F
:10461000020313700AE0BA88002A40F0C0803148D3
:104620003149324B0068BA7808601A701A4B1D780D
:1046300045F0020204EBC20185F001061E70C8209D
:10464000002344F832004B6089F80030D9E54FF080
:10465000010388F80030019B013504330A2D07F16E
:104660000407019308F1010897D1214A214B224800
:10467000DDF81090059FCDF80490114600220297B6
:1046800002704FF00208012699460F464CE000BF29
:104690000080FF1F9420074020B0FF1FC02007406C
:1046A000880040008820074080200740982007406D
:1046B0001CAFFF1F88AFFF1F947C000024B0FF1FBA
:1046C00007B1FF1F85AFFF1F2CB0FF1FC8AFFF1F33
:1046D0005CAFFF1F30B0FF1FF0AFFF1F10B2FF1F16
:1046E000F0AEFF1FE8AEFF1F64B3FF1FB4B0FF1FA3
:1046F000887C0000C420074021B0FF1F8C200740A9
:10470000B50045F0020045F0030500220A2E44F8EA
:10471000302044F83520634D00F0A380B8F10B0F32
:104720002BD0013608F1010817F8012B09F8042BEA
:10473000092E00F0A6801307E2D500F0F9FA002850
:1047400053D0B50004EB4612574B44F835300830CF
:10475000506000F0EDFA00283ED045F0010204EB75
:10476000C20E0830514B44F83230CEF80400C8E78E
:104770004FF0000388F800306DE7029FDDF80490E9
:10478000FE880799FFF7C7BB42F221339A423FF4F4
:10479000DCAE48F2A1139A423FF47DAD2EE51946F6
:1047A0001A4657E5424B7A881A703FE740F22113C8
:1047B0009A423FF426AD40F221239A423FF421ADC4
:1047C0001CE540F221339A423FF41BAD40F22143F5
:1047D0009A423FF416AD11E5364B1A7845F0010EBA
:1047E000013244F83E001A708BE7324B1A78B5005C
:1047F000013244F835001A70ABE742F221039A42C5
:104800003FF4FFACFAE42C4B2C4A1B78FE88137063
:10481000FFF781BBBB78284A1370002B3FF406AF2B
:10482000274D284BEF79A3F10806002F18BF1E462D
:10483000336818063FF5FAAEDFF89C80B022404698
:10484000002102F0C9FD87F001071F4BC6F8048064
:10485000EF713360EAE61178FE880791FFF75BBBE2
:1048600000BE05EBC001029FDFF870E0174BC1F8F6
:1048700004E0DDF80490FE8845F830300799FFF732
:104880004ABB134A1348C4F82421C4F82C2100223F
:10489000C4F82001C4F82801C4F83021C4F8382134
:1048A0003FE700BF0080FF1F88004000C8004000B5
:1048B00007B1FF1F21B0FF1F06B1FF1F24B0FF1F6C
:1048C00030B0FF1F1881FF1F8000B0008000030080
:1048D000C091FF1F8000B4007492FF1FBC91FF1FA6
:1048E0002DE9F843204C01F0A5FF002204F5B0703B
:1048F00023461A605A60083383424FF00001F8D112
:104900001A4A1B4F13681B4D1B481C4EDFF878805A
:10491000DFF878C0DFF87890DFF878E043F48023A0
:104920001360C4F307233B70C4F307432B70240EBA
:10493000FF2302F528320470114D88F80030114829
:104940008CF80030D4323370012389F8003070269F
:104950008EF800104FF40074102107F8183C2E70E8
:1049600004601170BDE8F8830080FF1F34800440AC
:104970009C200740B0200740B4200740102007408B
:1049800049E400E008E100E080200740882007407B
:104990009420074000210740F8B5234D2B78002BC9
:1049A0003FD0224E47F2694409E0013C36D03378CB
:1049B0001E4A002B33D101F0EDFA2B788BB3052082
:1049C000FFF726F90328F0D800F0B2F90028ECD060
:1049D000174C184D21886288A3880172C1F3012108
:1049E000E4882F786E78AD78477341EA8201C2F38C
:1049F000831242EA0312C3F3051343EA841341729C
:104A0000A40808218272C37204738673C57301807F
:104A100001460520FFF75AF90020F8BD034A01239B
:104A200013704FF0FF30F8BD2CB0FF1F43B0FF1FD5
:104A300028B2FF1F24B2FF1F70B5194D2B785BB34E
:104A4000184E47F2694408E0013C22D03378154AF9
:104A500003BB01F09FFA2B78F3B10420FFF7D8F8DD
:104A60000328F1D800F064F901460028ECD00E4A82
:104A70000E4B12780272002444729A881868C1F8AA
:104A80000A000823CA810B800420FFF71FF9204683
:104A900070BD044A012313704FF0FF3070BD00BF9A
:104AA0002CB0FF1F43B0FF1F42B0FF1F3CB0FF1FE1
:104AB00070B4E9B1124A137831EA030418D01943EB
:104AC000117090B101250F4A941D1646134613F834
:104AD000011B884208D0A342F9D1002312F8011B20
:104AE00059B10133062BF9D11DB170BCFFF7A4BF3A
:104AF00008B970BC70470025E5E7F054F5E700BF42
:104B000042B0FF1F3CB0FF1F020AC12A30B42AD9AD
:104B1000DF2AD3B221D9F02B5BD0E02B5ED0E22B81
:104B200041D01C33DBB2032B15D8C0F3090090B180
:104B3000314A02F108041546134633F8021B884235
:104B400009D0A342F9D1002332F8021B00294AD030
:104B50000133042BF8D130BC70479B0103F4F86398
:104B600000F03F0018431F2808D80A2819D00B2846
:104B7000F1D12B20002130BCFFF79ABF7F28EAD863
:104B80001E49084410F8200C0028E4D000F040032F
:104B900003F0FF0100F03F0003B1022130BCFFF73A
:104BA00087BF2820E6E710F0FF00D4D0144B1A7816
:104BB0009042D0D059788842CDD09C78A042CAD0BB
:104BC000B2B1B9B10222002CC5D1985430BCFFF764
:104BD000E3BEC0B2002130BCFFF76ABFC1B230BC37
:104BE0000020FFF765BF25F8130030BCFFF7D4BEE7
:104BF0000022EAE70122E8E728B2FF1F287C000034
:104C000024B2FF1F30B4C1B10E4A1378194214D038
:104C100023EA01011170012460B10B4B0025991D9D
:104C200013F8012B904204BF03F8015C0124994260
:104C3000F6D11CB130BCFFF7FFBE08B930BC7047DD
:104C40000024EAE742B0FF1F3CB0FF1F020AC12A5E
:104C500013D9DF2AD3B20AD9F02B50D0E02B52D08F
:104C6000E22B39D01C33DBB2032B24D970479B01D4
:104C700003F4F86300F03F0018431F2807D80A2800
:104C800017D00B28F2D12B200021FFF7BBBF7F28C4
:104C9000ECD82449084410F8200C0028E6D000F095
:104CA000400303F0FF0100F03F0003B10221FFF7D2
:104CB000A9BF2820E8E7C0F309000028D6D010B427
:104CC000194C0023224632F8021B88421FD00133C0
:104CD000042BF8D110BCC9E710F0FF00C6D0134B6D
:104CE0001A7882421BD05A78824216D09A78824231
:104CF00008BF0222BAD100219954FFF74DBEC0B2BD
:104D00000021FFF77FBFC1B20020FFF77BBF002269
:104D100024F8132010BCFFF73FBE0122EBE700226E
:104D2000E9E700BF287C000028B2FF1F24B2FF1F64
:104D300072B60D480268B2FA82F31D2B10DC4FF0F8
:104D40000041D94022EA0102026062B6074803EB43
:104D5000C303DB00C2180021C150104651607047E8
:104D600062B60020704700BFA49EFF1F2893FF1F5C
:104D70000D4B0E4AC31AA2FB03231B091D2B0CD893
:104D80000B4A127852B972B60A484FF000410268D5
:104D900021FA03F31A43026062B67047064A12789A
:104DA000002AF0D0FEF74ABF2893FF1F398EE33860
:104DB00021B0FF1FA49EFF1F2CB0FF1F38B50E4B64
:104DC0000E4C1B68218805468BB1B1F5917F05D249
:104DD0000B4A4B1C55549BB2238038BD0022084817
:104DE00098470021064A55540123238038BDB1F568
:104DF000917FEDD338BD00BF6CB0FF1F32B2FF1FF3
:104E000038B2FF1F2DE9F843214E224F31680123AC
:104E100080463B70B1B1204D4B8801EB83020133DA
:104E200000240F2BC2F808802C7004D84B8000237C
:104E30003B70BDE8F88340230B800620FEF746FF59
:104E40003460F4E7DFF8549099F80030002BF0D08C
:104E5000114D45F6215408E0013C12D02B7883B95E
:104E600001F098F899F800307BB10620FEF7D0FEEB
:104E70000528F1D8FFF75CFF014630600028EBD031
:104E8000CAE701232B70BDE8F883BDE8F88300BFB3
:104E900088B0FF1F5CB0FF1F8CB0FF1F2CB0FF1F3E
:104EA00038B5084B1C7824B9074D296809B14B88DF
:104EB00003B938BD9B000B800620FEF707FF2C606E
:104EC00038BD00BF5CB0FF1F88B0FF1F2DE9F04167
:104ED000AD4E33680746002B00F092801D885A883B
:104EE000910803EB81010432AA428C6842D25A80B5
:104EF00004F00F064FEA1428A449A6F1080208F0AE
:104F00000F00C4F30313062A00F101050B701AD930
:104F1000B31E012B5FFA88F04ED9052E48D0042E1F
:104F200000F0A481731F022B7FD90F2E0ED1F7281A
:104F300042D8F02802D0964B1B883BB1FFF73EFFCA
:104F40000020BDE8F08127B1BD4202D00020BDE8BD
:104F5000F081082EC4F3033300F08780092E11D0AE
:104F60000A2E40F094800A2BF0D18A4B8A4A1B68A3
:104F7000A02181E01846FFF7FBFE0720FEF72AFE7E
:104F80003060B5E7092BE1D1270E00F07B81834B20
:104F9000814A1B689021C4F307461170EDB2FCB240
:104FA000002B00F09D80224631462846984797E026
:104FB000F02843D9F72841D0F1380E28C6D801A3EC
:104FC00053F820F07B5100005F5100004D5100006C
:104FD0004D4F00004D4F00003F5100004D4F00006D
:104FE0001F5200004D4F0000E95100000352000025
:104FF000275100004D4F00000F510000F3500000FA
:10500000674B1B78002BA1D00720FEF7E3FD03467A
:10501000306000289AD00588002D7FF460AFFFF73C
:10502000A7FE35602846BDE8F081FFF7C7FEC4F350
:105030000740FFF7C3FE072E02D1200EFFF7BEFE8A
:10504000534B584A198858481468584D524A0170B1
:1050500000270E0AF0201F802E7010700CB3012262
:105060005348A0470120BDE8F081082B7FF46EAFC4
:10507000504B494A1B688021C4F307461170EDB2BA
:10508000240E6BB3284622463146984728E00B2E63
:1050900011D10B2B7FF45AAF474B3F4A1B68B0210D
:1050A000EAE7464B1B68002B00F0FB80404898471E
:1050B0000120BDE8F0810C2E40F000810C2B7FF424
:1050C00045AF3F4B344A1B68C0211170EDB2C4F3A9
:1050D0000746002B00F0C88028463146240E98472A
:1050E0003849314A314B0D7016701C700120BDE8F3
:1050F000F081354B1B68002B00F0D6809847C4F335
:105100000746254BEDB2240E83F80080E8E72F4BCD
:105110001B68002BF2D12E4B1B68A3B1FE209847D1
:10512000C4F30746EDE72B4B1B68002BE6D1284B59
:105130001B6843B1FC209847C4F30746E1E7264BC0
:105140001B68002BDAD1C4F30746DAE7234B1B6850
:10515000C4F30746002BD4D030469847D1E7204B04
:105160001A68002AEFD0260C630C06F07F0003F4C7
:105170007E531843F6B29047C3E71A4B1B68C4F33B
:105180000746002BE8D1BCE794B0FF1F36B2FF1FE3
:1051900032B2FF1F70B0FF1F30B2FF1FA4B0FF1F5D
:1051A0002CB0FF1F6CB0FF1F34B2FF1F35B2FF1FC2
:1051B00038B2FF1F9CB0FF1FA0B0FF1F84B0FF1FBD
:1051C00060B0FF1F37B2FF1F4CB0FF1F50B0FF1F72
:1051D00054B0FF1F90B0FF1F80B0FF1F98B0FF1F9B
:1051E00068B0FF1F7CB0FF1F3F4B1B68002B85D1B1
:1051F0003E4B1B68002BA6D0FA209847C4F3074605
:105200007FE73B4B1B68002B7FF478AF374B1B6865
:10521000002B98D0FB209847C4F3074671E7354B25
:105220001B68002B7FF46AAF304B1B68002B8AD0C1
:10523000F8209847C4F3074663E70E2B7FF486AE49
:105240002D4A2E4B1268E0211970002A47D0260CF7
:10525000610C06F07F0301F47E511943EDB2A1F514
:10526000005128469047F6B2240E39E7FFF7A6FD15
:10527000C4F30740FFF7A2FD200EFFF79FFD0020BB
:10528000BDE8F0811E4B1D4A1B6880211170EDB2F4
:10529000C4F3074683B1314628463A4698473C4610
:1052A0001EE70120BDE8F081104B1B68002B3FF486
:1052B0004AAFFF20984746E71C4611E70D2EBCD1A8
:1052C0000D2B7FF443AE0F4B0C4A1B68D02111709D
:1052D000EDB2C4F30746002B7FF4FEAEC4E7C4F37F
:1052E0000746EDB2240EFBE678B0FF1F54B0FF1F57
:1052F00058B0FF1F48B0FF1F64B0FF1F30B2FF1F40
:105300009CB0FF1F74B0FF1F044B054A1B685088F8
:105310001BB11A885B88D31A18447047B0B0FF1FBE
:1053200010B2FF1F38B50E4B1B7873B90D4C2168B6
:1053300061B103F0FF054B880B800320FEF7C6FC2C
:10534000256038BD084B01221A7038BDFFF7F0FC0C
:105350000028F7D00146BDE838400320FEF7B6BC70
:10536000A9B0FF1FACB0FF1FA8B0FF1FC029F0B449
:1053700028BFC02172B6124B124E134A1860002388
:10538000138033607360B360F3603361736101272E
:1053900099B15D0903F01F0456F8252007FA04F4BB
:1053A000013322438B4246F82520F2D1002343806B
:1053B00001338B4200F58270F9D162B6F0BC7047C0
:1053C000C0B0FF1FC8B0FF1FE2B0FF1FF0B472B63D
:1053D000234F244E3C8806F1180306EB84009842C4
:1053E00012D256F8241099B9021D06F11B05631C50
:1053F000AD1A03EB950503E052F8041B41B90133E4
:10540000AB421C461046F7D162B60020F0BC704794
:10541000B1FA81F34FF00042DA4021EA0201016063
:1054200001B9013410493C800A88013294B20C80E1
:1054300062B6801B8010C3EB401000EB801083002D
:105440000A480B49006803F5FB531C330125C5547A
:105450000D88AA42184488BF0C80F0BC704700BF7A
:10546000E2B0FF1FC8B0FF1FE4B0FF1FC0B0FF1FB6
:10547000BCB0FF1F428872B60378012B03D9013BF1
:10548000037062B67047531170B40C4C0C4D54F855
:1054900023102E88D2434FF0004002F01F0220FA62
:1054A00002F21143074A44F82310B34238BF2B805D
:1054B0001388013B138062B670BC7047C8B0FF1FF1
:1054C000E2B0FF1FE4B0FF1FC368B3B130B401E026
:1054D000DB688BB1187A9042FAD158685C7A00691F
:1054E00050F82450002DF3D140F8241008780130F2
:1054F0000870DB68002BEDD130BC7047437A8B42DB
:1055000006D90369002253F8210043F8212070478F
:105510000020704738B5437A8B421AD9036953F893
:105520002140002243F821209CB12378012B0ED981
:10553000FFF74CFF054628B14FF48072211D04305F
:10554000FDF7CEFF2378013B2370284638BD204667
:1055500038BD002038BD00BF037C23BB4368427ABE
:105560005B7A9A421FD830B472B60468E3682BB3F2
:10557000DA6832B119688C4216D01346DA68002A0C
:10558000F8D1D8600023C360A37A0133A372026804
:105590004168012313728A7A1A448A72426813722C
:1055A000037462B630BC70475D6841688D42E4D1D7
:1055B000198903899942F4D01346DFE7E060E1E7F7
:1055C000037C10B5002B32D04368427A5B7A9A4252
:1055D0002DD872B60268D36843B3984202D129E04D
:1055E000984202D0DB68002BFAD14368417A1B69EC
:1055F000044653F8210048B1FFF73CFF72B66368D8
:10560000627A1B69002143F822102268937A013BD9
:10561000937223689A7A02B91A726268937A013B8C
:10562000937263689A7A1AB10023237462B610BD2C
:105630001A72F9E7C368D360D7E700BF084B1A783E
:1056400062B930B407480849D02505704FF080444E
:1056500001220C6010461A7030BC70470020704761
:10566000C4B0FF1F5EE400E008E100E01A491B4AF5
:105670001B48F8B50B681B4D046843F080730B6042
:10568000136843F0010313602E6814B915E06469D0
:105690009CB1237A002BFAD023682F681B68204620
:1056A00098472B68E188DB1B1B099AB28B42A280CA
:1056B00088BFE2806469002CEBD10A4B0A4A1B6860
:1056C00010880A4C9B1B1B0999B28342218001D987
:1056D0001180F8BDF8BD00BFFCED00E0001000E057
:1056E000B8B0FF1F041000E0E0B0FF1FE6B0FF1FDE
:1056F000F0B572B699B902688AB103790F2B0ED84A
:10570000274C218841FA03F5ED070AD503F1007310
:1057100003F59063B2EB431F03D162B6F0BD204C9A
:105720002188002341FA03F212F0010207D001336D
:10573000102BF7D162B6002203710260F0BD012583
:105740009D402943218062B6164E174D174FDFF852
:1057500064E0D9B20171346844F0020434602C680A
:1057600044F002042C60A6F580268224A5F580254D
:1057700003F100733C6003F59063223E243D0C4C22
:105780008EF800105B0131702970217003601A607F
:105790005A609A60DA601A615A619A61DA61F0BD02
:1057A000E8B0FF1F408004403C800440008000407F
:1057B0001F8000401A80004003790F2B11D8094A3E
:1057C00010B4137072B6084904790A880123A34003
:1057D00022EA03030B8062B61022002310BC027180
:1057E000036070471A800040E8B0FF1F10B4EFF369
:1057F000108272B6437F33B9017F012907D0032994
:105800000FD00123437702B962B610BC7047124C27
:105810002168A1B1114943610B6883610860586137
:10582000EFE70F4C216881B10E4943610B6883613A
:10583000086058610C4B4FF080511960E1E7074B4D
:105840004161816120601860DBE7064B4161816145
:1058500020601860EEE700BFF8B0FF1FF4B0FF1F34
:10586000ECB0FF1FF0B0FF1F04ED00E070B5EFF3E8
:10587000108272B60C4C206880B10C4E0025436932
:10588000236073B19D6102B962B64577836898471A
:10589000EFF3108272B620680028F0D102B962B628
:1058A00070BD3360EFE700BFECB0FF1FF0B0FF1F2B
:1058B000FFF7DCBF024A136801331360704700BF73
:1058C000E8AEFF1F0368C9B21B6818470368C9B276
:1058D0001B6818470368C9B21B6818470368C9B238
:1058E0001B6818474B0803F1376303F5D83310B52D
:1058F0000446B3FBF1F000F03BFC044B1B7803B112
:1059000010BD2046BDE8104000F0D6BFBC9EFF1F72
:1059100008B5084600F0FAFD012008BD08B50846A4
:1059200000F0F4FD012008BD38B508460D4601F031
:10593000C7FD04460146284600F0F2FD204638BD6A
:1059400010B508461446114600F0EAFD204610BD89
:1059500000F0C4BE08B5084600F0B0FD003018BF26
:10596000012008BD08B5084600F086FD003018BFCC
:10597000012008BD0846114600F01ABD084600F097
:1059800051BD00BF084600F0F7BC00BF00F092BC5C
:1059900010B54B0803F13760144600F5D830B0FB62
:1059A000F1F000F0E5FB2046BDE8104000F056BCE9
:1059B00000F07CBE00F046BE00F034BE00F014BE25
:1059C00000F01EBEF8B50E4671B17AB10746144616
:1059D00000253B6816F8011B1B6838469847013CB8
:1059E0000544F6D12846F8BD0846F8BD1046F8BD76
:1059F00008B5FAF79DFDFBF733FB00F0CBFAFAE7A9
:105A0000704700BF00EB83039842F0B50AD32DE046
:105A100050F8044B21F8024B83424FEA144422F819
:105A2000024B23D98C07F3D4A3F1080E704512D290
:105A300050F8087B50F8046C340C2404BDB244EADE
:105A4000174445EA0645704541F8045B42F8044BAB
:105A5000EED383420FD950F8044B21F8024B834216
:105A60004FEA144422F8024BF5D8F0BDA3F1080E1A
:105A70007045DDD3F0BDF0BDF8B5064672B61B4BE0
:105A80001B4F1C481C491A8804683D6800230360AA
:105A90003B6008780B7062B698B1184F18483968A7
:105AA000DFF860E0C2F1400380FB0302A2EBE37287
:105AB0001144642202FB03F303EB11233960CEF897
:105AC00000303DB1304600222946FFF7FDFC284654
:105AD000FFF7D0FC4CB1304621460122FFF7F4FC21
